:020000040000fa
:080000000013040000000000e1
:020000040000fa
:1000080002100000061000000a1000000e10000088
:1000180012100000161000001a1000001e10000038
:1000280022100000261000002a1000002e100000e8
:1000380032100000361000003a1000003e10000098
:1000480042100000461000004a1000004e10000048
:1000580052100000561000005a1000005e100000f8
:1000680062100000661000006a1000006e100000a8
:1000780072100000761000007a1000007e10000058
:1000880082100000861000008a1000008e10000008
:1000980092100000961000009a1000009e100000b8
:1000a800a2100000a6100000aa100000ae10000068
:1000b800b2100000b6100000ba100000be10000018
:1000c800c2100000c6100000ca100000ce100000c8
:1000d800d2100000d6100000da100000de10000078
:1000e800e2100000e6100000ea100000ee10000028
:1000f800f2100000f6100000fa100000fe100000d8
:1001080002110000061100000a1100000e11000083
:1001180012110000161100001a1100001e11000033
:1001280022110000261100002a1100002e110000e3
:1001380032110000361100003a1100003e11000093
:1001480042110000461100004a1100004e11000043
:1001580052110000561100005a1100005e110000f3
:1001680062110000661100006a1100006e110000a3
:1001780072110000761100007a1100007e11000053
:1001880082110000861100008a1100008e11000003
:1001980092110000961100009a1100009e110000b3
:1001a800a2110000a6110000aa110000ae11000063
:1001b800b2110000b6110000ba110000be11000013
:1001c800c2110000c6110000ca110000ce110000c3
:1001d800d2110000d6110000da110000de11000073
:1001e800e2110000e6110000ea110000ee11000023
:1001f800f2110000f6110000fa110000fe110000d3
:1002080002120000061200000a1200000e1200007e
:1002180012120000161200001a1200001e1200002e
:1002280022120000261200002a1200002e120000de
:1002380032120000361200003a1200003e1200008e
:1002480042120000461200004a1200004e1200003e
:1002580052120000561200005a1200005e120000ee
:020000040000fa
:10200000020000001a140400000000001a1404006a
:10201000000000001a140400000000001a1404005c
:10202000000000001a140400000000001a1404004c
:10203000000000001a140400000000001a1404003c
:10204000000000001a140400000000001a1404002c
:10205000000000001a140400000000002e16040006
:10206000000000001a140400000000001a1404000c
:10207000000000001a140400000000001a140400fc
:10208000000000001a140400000000001a140400ec
:10209000000000001a140400000000000c160400e8
:1020a00000000000e0150400000000001a14040005
:1020b000000000001a140400000000001a140400bc
:1020c000000000001a140400000000001a140400ac
:1020d000000000001a140400000000001a1404009c
:1020e000000000001a140400000000001a1404008c
:1020f000000000001a140400000000001a1404007c
:10210000000000001a140400000000001a1404006b
:10211000000000001a140400000000001a1404005b
:10212000000000001a140400000000001a1404004b
:10213000000000001a140400000000001a1404003b
:10214000000000001a140400000000001a1404002b
:10215000000000001a140400000000001a1404001b
:10216000000000001a140400000000001a1404000b
:10217000000000001a140400000000001a140400fb
:10218000000000001a140400000000001a140400eb
:10219000000000001a140400000000001a140400db
:1021a000000000001a140400000000001a140400cb
:1021b000000000001a140400000000001a140400bb
:1021c000000000001a140400000000001a140400ab
:1021d000000000001a140400000000001a1404009b
:1021e000000000001a140400000000001a1404008b
:1021f000000000001a140400000000001a1404007b
:10220000000000001a140400000000001a1404006a
:10221000000000001a140400000000001a1404005a
:10222000000000001a140400000000001a1404004a
:10223000000000001a140400000000001a1404003a
:10224000000000001a140400000000001a1404002a
:10225000000000001a140400000000001a1404001a
:10226000000000001a140400000000001a1404000a
:10227000000000001a140400000000001a140400fa
:10228000000000001a140400000000001a140400ea
:10229000000000001a140400000000001a140400da
:1022a000000000001a140400000000001a140400ca
:1022b000000000001a140400000000001a140400ba
:1022c000000000001a140400000000001a140400aa
:1022d000000000001a140400000000001a1404009a
:1022e000000000001a140400000000001a1404008a
:1022f000000000001a140400000000001a1404007a
:10230000000000001a140400000000001a14040069
:10231000000000001a140400000000001a14040059
:10232000000000001a140400000000001a14040049
:10233000000000001a140400000000001a14040039
:10234000000000001a140400000000001a14040029
:10235000000000001a140400000000001a14040019
:10236000000000001a140400000000001a14040009
:10237000000000001a140400000000001a140400f9
:10238000000000001a140400000000001a140400e9
:10239000000000001a140400000000001a140400d9
:1023a000000000001a140400000000001a140400c9
:1023b000000000001a140400000000001a140400b9
:1023c000000000001a140400000000001a140400a9
:1023d000000000001a140400000000001a14040099
:1023e000000000001a140400000000001a14040089
:1023f000000000001a140400000000001a14040079
:10240000000000001a140400000000001a14040068
:10241000000000001a140400000000001a14040058
:10242000000000001a140400000000001a14040048
:10243000000000001a14040000000000481404000a
:10244000000000001a140400000000001a14040028
:10245000000000001a140400000000001a14040018
:10246000000000001a140400000000001a14040008
:10247000000000001a14040000000000d014040042
:10248000000000001a140400000000001a140400e8
:10249000000000001a140400000000005815040099
:1024a000000000001a140400000000001a140400c8
:1024b000000000001a140400000000001a140400b8
:0424c0000000000018
:020000040000fa
:102600004ff721000eff27000e0188000000000098
:10261000000020000000e000020032000001200065
:1026200020028800140007009f0107000000e0005e
:1026300003003a0020272500010020000200370097
:102640000000200001002000810f70000100320016
:102650000f000700000020000000e0000200320030
:102660000000020000000000184602000000000008
:102670000040da000000fe00e06a20000000e000f8
:1026800002003200002020009001880000000600b7
:10269000a1028800800478000000eb001f003700d2
:1026a000e284440054a0b4009905ba00e2844400d6
:1026b00054a0b4009906ba00e284440054a0b400c7
:1026c0000006eb00476fde00fd07b200ae01880098
:1026d000636ce10003003a000ad801000000eb003f
:1026e0000e003700606ce10008003a00004deb007e
:1026f0000a05e800020039003420ec000af0a000ce
:102700008b05e900f9ff3e00040037006168e10035
:10271000010032000086eb000b00070019c7ba0069
:102720000e04e0001905ba0003003a000a00e000b8
:10273000dbff3a0000000600fe07b200ae02880090
:102740008a047800f5ff37000cd0a300e20f4d009b
:102750001c00390089027800354dba000a05e800ee
:10276000020039003420ec000af0a0008b05e900db
:102770000f003200254dba000a05e80002003900ba
:102780003420ec000af0a0008b05e90008003200bc
:102790000c00e0000600320015cdba000a05e80082
:1027a000020039003420ec000af0a0008b05e9009b
:1027b0008984e80054a0b4000b00e000e2ff3a0076
:1027c000000006009902ba00055d78008b05e9005b
:1027d000f7ff3200c82ade00055d78008b05e900ae
:1027e000f3ff32000c00e000f1ff320019ddba0007
:1027f000eeff37004a37040000000000f834040000
:1028000000000000241d040000000000fe2f040052
:10281000000000009a2c040000000000462f040075
:10282000000000008e2e040000000000d62d0400e1
:10283000000000003600f800809fbe00829fbe00ae
:10284000849fbe00869fbe003200f8003400f8006e
:1028500010002000a00188000020200000d0fe0011
:10286000c808f8006e10f900606729000c1c07000a
:102870003400f9003200f9004f03be004f02be00e1
:102880004f01be004f00be003600f90000400600b8
:102890003600f800809fbe00829fbe00849fbe006d
:1028a000869fbe00322eab0036003a00c0e9210000
:1028b0000008eb0092e1ab0013003a00f00c80003e
:1028c000b20c80008000eb00c000dd0000002000a2
:1028d0008001eb000200700083807000929e2e0049
:1028e00003002000f1000700f2f480008001eb00fb
:1028f000820f5000838f580022003100100020000a
:10290000e0f488001f0037009ae1a800d00c800096
:102910000008b200910c80000170a10081007000dd
:10292000910c880080ff2f009821b600c10c800018
:10293000e7806000830c800003016000028170006a
:10294000820c8800c20c8000820060000100a000a0
:10295000c10c8800c10c8000e78060009001b600c7
:1029600000807000800c88009ae1a900d00c8000e3
:102970000008b200910c80000170a100810070007d
:10298000910c88000fe8a9004f03be004f02be0063
:102990004f01be004f00be003600f90000400600a7
:1029a0003600f800809fbe00829fbe00849fbe005c
:1029b000869fbe00324eab0036003a0020ea21006e
:1029c0000008eb00a2e1ab0013003a00700d80009c
:1029d000320d80008000eb00c000dd000000200010
:1029e0008001eb000200700083807000929e2e0038
:1029f00003002000ad00070022f580008001eb00fd
:102a0000820f5000838f58002200310010002000f8
:102a100010f588001f003700aae1a800500d8000c3
:102a20000008b200110d80000170a100810070004b
:102a3000110d880080ff2f00a821b600410d8000f5
:102a4000e7806000030d80000301600002817000d8
:102a5000020d8800420d8000820060000100a0008d
:102a6000410d8800410d8000e7806000a001b600a4
:102a700000807000000d8800aae1a900500d8000c0
:102a80000008b200110d80000170a10081007000eb
:102a9000110d880010e8a9004f03be004f02be00d0
:102aa0004f01be004f00be003600f9000040060096
:102ab0003600f800809fbe00829fbe00849fbe004b
:102ac000869fbe00326eab0036003a0080ea2100dd
:102ad0000008eb00b2e1ab0013003a00f00d8000fb
:102ae000b20d80008000eb00c000dd00000020007f
:102af0008001eb000200700083807000929e2e0027
:102b0000030020006900070052f580008001eb00ff
:102b1000820f5000838f58002200310010002000e7
:102b200040f588001f003700bae1a800d00d8000f2
:102b30000008b200910d80000170a10081007000ba
:102b4000910d880080ff2f00b821b600c10d8000d4
:102b5000e7806000830d8000030160000281700047
:102b6000820d8800c20d8000820060000100a0007c
:102b7000c10d8800c10d8000e7806000b001b60083
:102b800000807000800d8800bae1a900d00d80009f
:102b90000008b200910d80000170a100810070005a
:102ba000910d88001168a9004f03be004f02be00be
:102bb0004f01be004f00be003600f9000040060085
:102bc000809fbe0000002100900090002000900037
:102bd000808f500002003a002188a9000c003700c5
:102be0000430ec00000420000410e30001003a006f
:102bf0000430ef000188a900000021009000780057
:102c000020009000008040001080fb002011880010
:102c10004f00be0000400600809fbe00821f78006b
:102c20000168a900311180000a30ec000004200086
:102c30000a10e30001003a000a30ef008000210092
:102c40001001780010009000000041000148780059
:102c50004f0178004f00be00004006003600f8002b
:102c6000809fbe00829fbe00849fbe00869fbe00e4
:102c7000e0828000f182800061004000e080480036
:102c8000e0828800f18288000068a900231707000d
:102c90004f03be004f02be004f01be004f00be00fa
:102ca0003600f90000400600000005006022b80070
:102cb000060220000000d0008180d2000482d200f1
:102cc0008582d2000000a0000202520083825a00d6
:102cd000030031000202420083824a000000a1008a
:0c2ce0000603e900f3ff3a0000000600c4
:020000040000fa
:102cec00556e0000686100006e6400006c650000a9
:102cfc0064200000696e00007465000072720000b0
:102d0c0075700000742c000020000000647300003b
:102d1c00504900004333000033450000503500009b
:102d2c0031320000475000003830000036000000ff
:102d3c00756e00006b6e00006f7700006e00000077
:102d4c004231000000440000657600006963000019
:102d5c006520000049440000203d000020000000d8
:102d6c0020280000002900002c20000072650000c3
:102d7c0076690000736900006f6e0000200000008f
:102d8c00290a0000000a00000a2a00002a2a000072
:102d9c002a2a00002a2a00002a2a00002a2a0000d7
:102dac002a2a00002a2a00002a2a00002a2a0000c7
:102dbc002a2a00002a2a00002a2a00002a2a0000b7
:102dcc002a2a00002a2a00002a2a00002a2a0000a7
:102ddc002a2a00002a2a00002a2a00002a2a000097
:102dec002a2a00002a2a00002a2a00002a2a000087
:102dfc002a2a00002a0a00002a200000574100005d
:102e0c00524e0000494e0000472000002d200000cb
:102e1c00746800006973000020700000726f00007d
:102e2c0067720000616d0000207700006173000084
:102e3c00206300006f6d0000706900006c6500007d
:102e4c0064200000666f00007220000074680000af
:102e5c0065200000777200006f6e00006720000094
:102e6c00202a00000a2a0000206300006869000084
:102e7c00702e0000205400006869000073200000d0
:102e8c00707200006f670000726100006d2000001e
:102e9c006d61000079200000707200006f6400000a
:102eac007563000065200000756e000065780000f9
:102ebc00706500006374000065640000206200000f
:102ecc0065680000766900006f7200002120000028
:102edc002a0a00002a2000004564000069740000e2
:102eec002074000068650000206800006561000027
:102efc006465000072200000666900006c650000cb
:102f0c0073200000746f000020700000726f0000ce
:102f1c0070650000726c0000792000006465000090
:102f2c00666900006e65000020740000686900008e
:102f3c00732000006368000069700000202a000004
:102f4c000a2a0000206100006e640000207400005a
:102f5c006f200000696e0000737500007265000040
:102f6c00206300006f720000726500006374000043
:102f7c00206f000070650000726100007469000031
:102f8c006f6e00002e20000020200000202000008a
:102f9c002020000020200000202000002020000025
:102fac002020000020200000202000002a0a000021
:102fbc002a200000202000002020000020200000fb
:102fcc0020200000202000002020000020200000f5
:102fdc0020200000202000002020000020200000e5
:102fec0020200000202000002020000020200000d5
:102ffc0020200000202000002020000020200000c5
:10300c0020200000202000002020000020200000b4
:10301c002020000020200000202a00000a2a0000a6
:10302c00204e00004f540000453a0000204900009b
:10303c0066200000746800006973000020770000af
:10304c0061730000206300006f6d00007069000068
:10305c006c65000064200000666f000072200000a8
:10306c007468000065200000636f0000727200003d
:10307c006563000074200000636800006970000044
:10308c002c200000202000002a0a00002a2000002a
:10309c00616e0000642000006f6e00006c7900000f
:1030ac00206f000063630000757200007320000045
:1030bc0061740000207000006f77000065720000e2
:1030cc002d6f00006e200000286e00006f74000051
:1030dc002064000075720000696e0000672000001b
:1030ec00612000004d4300004c52000020200000e5
:1030fc0020200000202a00000a2a00002072000074
:10310c006573000065740000292c00002076000017
:10311c006572000069660000792000007468000088
:10312c00617400002041000056440000442000005f
:10313c00616e0000642000004156000053530000f3
:10314c002061000072650000206300006f6e0000bb
:10315c006e65000063740000656400002e200000a2
:10316c00202000002a0a00002a2000004f6e0000d8
:10317c0020740000686500002050000049430000e6
:10318c003234000048330000324700005032000057
:10319c00303200002c2000006e6f00007420000004
:1031ac00636f00006e6e00006563000074690000c0
:1031bc006e670000204100005644000044200000cf
:1031cc0020200000202000002020000020200000f3
:1031dc00202a00000a2a000020700000726f0000f4
:1031ec0064750000636500007320000074680000c3
:1031fc0069730000206d00006573000073610000ae
:10320c0067650000206f00006e6c000079200000e4
:10321c0061740000207000006f7700006572000080
:10322c002d750000702e00002020000020200000d2
:10323c002020000020200000202000002020000082
:10324c002a0a00002a2a00002a2a00002a2a000042
:10325c002a2a00002a2a00002a2a00002a2a000012
:10326c002a2a00002a2a00002a2a00002a2a000002
:10327c002a2a00002a2a00002a2a00002a2a0000f2
:10328c002a2a00002a2a00002a2a00002a2a0000e2
:10329c002a2a00002a2a00002a2a00002a2a0000d2
:1032ac002a2a00002a2a00002a2a00002a2a0000c2
:1032bc000a000000466100007374000020520000f8
:1032cc00432000004f730000630a0000004600001a
:1032dc00617300007420000052430000204f000076
:1032ec007363000020770000697400006820000000
:1032fc00504c00004c0a00000050000072690000a5
:10330c006d61000072790000204f000073630000b3
:10331c0020280000585400002c20000048530000c6
:10332c002c20000045430000290a0000005000003a
:10333c00726900006d61000072790000204f00007e
:10334c007363000020280000585400002c2000005b
:10335c00485300002c2000004543000029200000a9
:10336c007769000074680000205000004c4c00008d
:10337c000a00000053650000636f00006e640000db
:10338c0061720000792000004f730000630a000096
:10339c00004c00006f770000205000006f77000099
:1033ac006572000020520000432000004f730000a3
:1033bc00630a0000004600006173000074200000e6
:1033cc0052430000204f0000736300002f310000b7
:1033dc00360a0000004600006173000074200000f3
:1033ec0052430000204f0000736300002f4e00007a
:1033fc000a000000556e00006b6e00006f77000035
:10340c006e2000006f730000636900006c6c00009c
:10341c00617400006f72000020740000797000006d
:10342c00652e0000000a000044650000766900006b
:10343c0063650000206800006173000020620000da
:10344c00656500006e200000696e000020730000ae
:10345c006c65000065700000206d00006f6400005a
:10346c00650a0000000a000044650000766900004f
:10347c00636500002068000061730000206200009a
:10348c00656500006e200000696e00002069000078
:10349c00646c0000652000006d6f00006465000026
:1034ac000a0000000a5200006573000065740000f9
:1034bc002063000061750000736500003a20000075
:1034cc00005000006f770000657200002d6f000047
:1034dc006e2e00000a000000536f0000667400009e
:1034ec0077610000726500002052000065730000d7
:1034fc00657400002e0a0000005700006174000083
:10350c0063680000646f00006720000054690000cd
:10351c006d6500006f750000743a0000200000001b
:10352c000a0000004d4300004c52000020610000d6
:10353c007373000065720000746900006f6e000008
:10354c002e0a000000420000726f0000776e00002f
:10355c002d6f0000757400002e0a0000005400004e
:10356c007261000070200000436f00006e66000066
:10357c006c690000637400002e0a00000049000012
:10358c006c6c000065670000616c0000204300005b
:10359c006f6e000064690000746900006f6e0000bb
:1035ac002e0a0000004300006f6e000066690000e8
:1035bc006775000072610000746900006f6e000096
:1035cc00204d0000697300006d6100007463000001
:1035dc00682e00000a000000556e00006b6e0000a3
:1035ec006f7700006e2000007265000073650000ac
:1035fc00742e00000a00000045720000726f00007b
:10360c007220000074720000617000007065000090
:10361c00643a00002000000050720000696f000046
:10362c0072690000747900003a200000002c000040
:10363c002056000065630000746f000072200000cb
:10364c006e7500006d620000657200003a2000008b
:10365c00000a00000a00000055410000525400000e
:10366c003120000070610000726900007479000064
:10367c0020650000727200006f7200000a000000ea
:10368c0055410000525400003120000066720000c9
:10369c00616d0000696e000067200000657200001b
:1036ac00726f0000720a00000055000041520000c9
:1036bc0054310000206f000076650000727200002b
:1036cc00756e000020650000727200006f720000c1
:1036dc000a00000055410000525400003220000046
:1036ec0070610000726900007479000020650000b0
:1036fc00727200006f7200000a0000005541000059
:10370c00525400003220000066720000616d00000f
:10371c00696e00006720000065720000726f000087
:10372c00720a0000005500004152000054320000a3
:10373c00206f00007665000072720000756e00004c
:10374c0020650000727200006f7200000a00000019
:10375c0055410000525400003320000070610000fd
:10376c00726900007479000020650000727200001c
:10377c006f7200000a000000554100005254000016
:10378c003320000066720000616d0000696e00005d
:10379c006720000065720000726f0000720a000062
:1037ac00005500004152000054330000206f00000f
:1037bc007665000072720000756e000020650000d6
:1037cc00727200006f7200000a0000005541000088
:1037dc005254000034200000706100007269000037
:1037ec007479000020650000727200006f72000096
:1037fc000a00000055410000525400003420000023
:10380c0066720000616d0000696e000067200000a8
:10381c0065720000726f0000720a00000055000013
:10382c004152000054340000206f00007665000007
:10383c0072720000756e000020650000727200004c
:10384c006f7200000a000000307800000045000094
:10385c00727200006f720000206900006e20000080
:10386c0062750000696c0000645c00006c6900000b
:10387c00625c000073720000635c00007069000001
:10388c0063320000345f0000736500007269000051
:10389c00616c00002e630000206c0000696e00005b
:1038ac006520000032390000363a00002049000043
:1038bc006e760000616c0000696400002055000009
:1038cc00415200005400000045720000726f00006d
:1038dc0072200000696e0000206200007569000013
:1038ec006c6400005c6c0000696200005c7300009a
:1038fc00726300005c7000006963000032340000e9
:10390c005f73000065720000696100006c2e00009e
:10391c00632000006c6900006e650000203300001d
:10392c00333500003a200000496e0000766100003b
:10393c006c690000642000005541000052540000e6
:10394c0000050000030200000100000050c300004d
:10395c0030750000204e0000102700008813000076
:10396c00b80b0000d0070000e8030000f4010000d1
:10397c002c010000c80000006400000032000000b0
:10398c001e000000140000000a00000005000000ea
:10399c00030000000200000001000000050300000d
:1039ac00020100000503000002010000321e0000ad
:1039bc00140a000005030000020100000a62000066
:1039cc00756900006c6400005c650000736f00009a
:1039dc00735c000073720000635c00006573000090
:1039ec006f7300005f6600003134000075690000e1
:1039fc002e6300002c20000062750000696c000032
:103a0c00742000006f6e000020460000656200000c
:103a1c002032000030200000323000003231000033
:103a2c002061000074200000313700003a3400009f
:0c3a3c00323a0000323300000a000000a3
:020000040000fa
:103a4800889fbe008a9fbe008c9fbe008e1f780094
:103a580000047800284090000074a00020449800da
:103a6800180078008000eb00f2142000820f50004c
:103a7800e08f5800a1073e00000601004f01370003
:103a88009e0737009d0737009c0737009b073700c4
:103a98009a073700990737009807370097073700c4
:103aa80096073700950737009407370093073700c4
:103ab8009207370091073700900737008f073700c4
:103ac8008e0737008d0737008c0737008b073700c4
:103ad8008a073700890737008807370087073700c4
:103ae80086073700850737008407370083073700c4
:103af8008207370081073700800737007f073700c4
:103b08007e0737007d0737007c0737007b073700c3
:103b18007a073700790737007807370077073700c3
:103b280076073700750737007407370073073700c3
:103b38007207370071073700700737006f073700c3
:103b48006e0737006d0737006c0737006b073700c3
:103b58006a073700690737001d013700350137004c
:103b68004f01370069013700830137009d01370095
:103b7800b701370061073700600737005f07370074
:103b88005e073700cc013700e40137005b073700d8
:103b98005a073700590737005807370057073700c3
:103ba80056073700550737005407370053073700c3
:103bb8005207370051073700500737004f073700c3
:103bc8004e0737004d0737004c0737004b073700c3
:103bd8004a073700490737004807370047073700c3
:103be80046073700450737004407370043073700c3
:103bf8004207370041073700400737003f073700c3
:103c08003e0737003d0737003c0737003b073700c2
:103c18003a073700390737003807370037073700c2
:103c280036073700350737003407370033073700c2
:103c38003207370031073700ff0137002f073700f9
:103c480016023700300237004a0237002b073700c8
:103c5800630237002907370028073700270737008e
:103c6800790237009102370024073700230737000d
:103c78002207370021073700200737001f073700c2
:103c88001e0737001d0737001c0737001b073700c2
:103c98001a073700190737001807370017073700c2
:103ca80016073700150737001407370013073700c2
:103cb8001207370011073700100737000f073700c2
:103cc8000e0737000d0737000c0737000b073700c2
:103cd800af02370009073700c6023700e002370095
:103ce800fa023700050737001303370003073700c8
:103cf800020737000107370029033700410337005f
:103d0800fe063700fd063700fc063700fb063700c5
:103d1800fa063700f9063700f8063700f7063700c5
:103d2800f6063700f5063700f4063700f3063700c5
:103d3800f2063700f1063700f0063700ef063700c5
:103d4800ee063700ed063700ec063700eb063700c5
:103d5800ea063700e9063700e8063700e7063700c5
:103d6800e6063700e50637005f033700e30637004d
:103d78007603370090033700aa033700df063700c1
:103d8800c3033700dd063700dc063700db063700e3
:103d9800d9033700f1033700d8063700d7063700b4
:103da800d6063700d5063700d4063700d3063700c5
:103db800d2063700d1063700d0063700cf063700c5
:103dc800ce063700cd063700cc063700cb063700c5
:103dd800ca063700c9063700c8063700c7063700c5
:103de800c6063700c5063700c4063700c3063700c5
:103df800c2063700c1063700c0063700bf063700c5
:103e08000f043700bd06370026043700400437008a
:103e18005a043700b906370073043700b70637006d
:103e2800b6063700b506370089043700a104370005
:103e3800b2063700b1063700b0063700af063700c4
:103e4800ae063700ad063700ac063700ab063700c4
:103e5800aa063700a9063700a8063700a7063700c4
:103e6800a6063700a5063700a4063700a3063700c4
:103e7800a2063700a1063700a00637009f063700c4
:103e88009e0637009d0637009c0637009b063700c4
:103e98009a06370099063700bf043700970637009f
:103ea800d6043700f00437000a05370093063700b8
:103eb8002305370091063700900637008f06370034
:103ec80039053700510537008c0637008b06370057
:103ed8008a063700890637008806370087063700c4
:103ee80086063700850637008406370083063700c4
:103ef8008206370081063700800637007f063700c4
:103f08007e0637007d0637007c0637007b063700c3
:103f18007a063700790637007806370077063700c3
:103f280076063700750637007406370073063700c3
:103f38006f0537007106370086053700a005370082
:103f4800ba0537006d063700d30537006b06370012
:103f58006a06370069063700e905370001063700a9
:103f680066063700650637006406370063063700c3
:103f78006206370061063700600637005f063700c3
:103f88005e0637005d0637005c0637005b063700c3
:103f98005a063700590637005806370057063700c3
:103fa80056063700550637005406370053063700c3
:103fb800520637001f063700370637001083800087
:103fc8000000e00016013a0070032000000c7800a1
:103fd800284090000028a3000400320040c0b3002d
:103fe8002044980030c0b300480637008181800023
:103ff8000128a30003003a000004a100204498000f
:10400800020037000004a0002044980028419000d6
:104018000040eb000208a3003c063a000120a00083
:1040280081818800a0dc21000008eb0080032000cb
:10403800000c7800284090000028a30004003200fb
:1040480040c0b3002044980030c0b3002f063700aa
:1040580021ba2100a0dc210036100700e24f5000f1
:1040680004003600284090000004a1002044980075
:1040780003003700284090000004a0002044980066
:10408800a84090000040eb000108a3001f063a007a
:10409800a0dc21000008eb0090032000000c780051
:1040a800284090000028a3000400320040c0b3005c
:1040b8002044980030c0b30014063700b1bb21007b
:1040c800a0dc21001b100700e24f5000040036005e
:1040d800284090000004a100204498000300370005
:1040e800284090000004a00020449800a8409000b8
:1040f8000040eb000108a30004063a00a0dc210000
:104108000008eb00a0032000000c78002840900075
:104118000028a3000400320040c0b30020449800e7
:1041280030c0b300f905370041bd2100a0dc2100f3
:1041380000100700e24f50000400360028409000ad
:104148000004a10020449800030037002840900094
:104158000004a00020449800a84090000040eb0014
:104168000108a300e9053a00a0dc21000008eb00e3
:10417800b0032000000c7800284090000028a3001d
:104188000400320040c0b3002044980030c0b3009f
:10419800de053700d1be2100a0dc2100e50f0700b5
:1041a800e24f500004003600284090000004a100af
:1041b8002044980003003700284090000004a00025
:1041c80020449800a84090000040eb000108a3009c
:1041d800ce053a00a0dc21000008eb00c003200057
:1041e800000c7800284090000028a300040032004a
:1041f80040c0b3002044980030c0b300c305370066
:10420800a1c02100a0dc2100ca0f0700e24f500026
:1042180004003600284090000004a10020449800c3
:1042280003003700284090000004a00020449800b4
:10423800a84090000040eb000108a300b3053a0035
:10424800a0dc21000008eb00d0032000000c78005f
:10425800284090000028a3000400320040c0b300aa
:104268002044980030c0b300a805370091c221004f
:10427800a0dc2100af0f0700e24f50000400360019
:10428800284090000004a100204498000300370053
:10429800284090000004a00020449800a840900006
:1042a8000040eb000108a30098053a003050a9002f
:1042b80020042000000c7800284090000028a3006b
:1042c8000400320040c0b3002044980030c0b3005e
:1042d8008e053700818180000138a30003003a0071
:1042e8000004a10020449800020037000004a00048
:1042f80020449800284190000040eb000208a300e9
:1043080082053a000130a00081818800c0dd2100cb
:104318000008eb0030042000000c780028409000d2
:104328000028a3000400320040c0b30020449800d5
:1043380030c0b3007505370012c0b3004106210034
:10434800c0dd2100ef0e0700e24f500004003600e8
:10435800284090000004a100204498000300370082
:10436800284090000004a00020449800a840900035
:104378000040eb000108a30064053a003070a90072
:1043880064d0bf0031c3b300814f50001600320023
:1043980007003e0081c0e900814f50000c00320048
:1043a8008140e800814f50001b003a000b003700a5
:1043b80051c3b300814f5000110032000d00390085
:1043c8008140e800814f500013003a000f00370089
:1043d80020002000108388001405370030002000da
:1043e80010838800110537004000200010838800e2
:1043f8000e05370050002000108388000b05370099
:104408006000200010838800080537007000200035
:1044180010838800050537006230ef000305370078
:10442800e20f5000d4003a00ac070700800478007f
:10443800f0062000000c7800284090000028a30017
:104448000400320040c0b3002044980030c0b300dc
:104458002e053700818180000128a30003003a005f
:104468000004a10020449800020037000004a000c6
:1044780020449800284190000040eb000208a30067
:1044880022053a000120a00081818800a0dc2100db
:104498000008eb0010072000000c7800284090006e
:1044a8000028a3000400320040c0b3002044980054
:1044b80030c0b3001505370061c42100a0dc21001d
:1044c8001c0f0700e24f50000400360028409000ff
:1044d8000004a10020449800030037002840900001
:1044e8000004a00020449800a84090000040eb0081
:1044f8000108a30005053a00a0dc21000008eb0034
:1045080020072000000c7800284090000028a30015
:104518000400320040c0b3002044980030c0b3000b
:10452800fa0437006149b800a0dc2100bc0d07007f
:10453800e24f500004003600284090000004a1001b
:104548002044980003003700284090000004a00091
:1045580020449800a84090000040eb000108a30008
:10456800ea043a00a0dc21000008eb003007200034
:10457800000c7800284090000028a30004003200b6
:1045880040c0b3002044980030c0b300df043700b7
:10459800a1c0b300a0dc2100a00c0700e24f50002e
:1045a80004003600284090000004a1002044980030
:1045b80003003700284090000004a0002044980021
:1045c800a84090000040eb000108a300cf043a0087
:1045d800a0dc21000008eb0050072000000c780048
:1045e800284090000028a3000400320040c0b30017
:1045f8002044980030c0b300c4043700d1c521005e
:10460800a0dc2100cb0e0700e24f5000040036006a
:10461800284090000004a1002044980003003700bf
:10462800284090000004a00020449800a840900072
:104638000040eb000108a300b4043a003050a90080
:1046480090072000000c7800284090000028a30064
:104658000400320040c0b3002044980030c0b300ca
:10466800aa043700818180000138a30003003a00c2
:104678000004a10020449800020037000004a000b4
:1046880020449800284190000040eb000208a30055
:104698009e043a000130a00081818800c0dd21001d
:1046a8000008eb00a0072000000c780028409000cc
:1046b8000028a3000400320040c0b3002044980042
:1046c80030c0b3009104370012c0b3004106210086
:1046d800c0dd21000b0e0700e24f50000400360039
:1046e800284090000004a1002044980003003700ef
:1046f800284090000004a00020449800a8409000a2
:104708000040eb000108a30080043a003070a900c3
:1047180064d0bf0021c3b300814f50000c003200a9
:104728008140e800814f50000f00320081c0e9004d
:10473800814f50000e003a00d0cc2c000048b80041
:104748004308de0009004000e2060700370437008e
:10475800f0a22b000048b8004308de000080540097
:10476800dc060700310437006230ef002f04370001
:104778006230ef002d043700e30f5000d4003a00f8
:10478800e60607000005780050092000000c7800b4
:10479800284090000028a3000400320040c0b30065
:1047a8002044980030c0b30058043700818180004d
:1047b8000128a30003003a000004a1002044980047
:1047c800020037000004a00020449800284190000f
:1047d8000040eb000208a3004c043a000120a000ae
:1047e80081818800a0dc21000008eb00700920000e
:1047f800000c7800284090000028a3000400320034
:1048080040c0b3002044980030c0b3003f043700d4
:1048180011cb2100a0dc2100460e0700e24f50001a
:1048280004003600284090000004a10020449800ad
:1048380003003700284090000004a000204498009e
:10484800a84090000040eb000108a3002f043a00a4
:10485800a0dc21000008eb0080092000000c780093
:10486800284090000028a3000400320040c0b30094
:104878002044980030c0b300240437006151b800c8
:10488800a0dc2100e60c0700e24f500004003600cf
:10489800284090000004a10020449800030037003d
:1048a800284090000004a00020449800a8409000f0
:1048b8000040eb000108a30014043a00a0dc21002a
:1048c8000008eb0090092000000c780028409000b8
:1048d8000028a3000400320040c0b3002044980020
:1048e80030c0b30009043700a1c0b300a0dc210028
:1048f800ca0b0700e24f5000040036002840900021
:104908000004a100204498000300370028409000cc
:104918000004a00020449800a84090000040eb004c
:104928000108a300f9033a00a0dc21000008eb000d
:10493800b0092000000c7800284090000028a3004f
:104948000400320040c0b3002044980030c0b300d7
:10495800ee033700d1c52100a0dc2100f50d0700ca
:10496800e24f500004003600284090000004a100e7
:104978002044980003003700284090000004a0005d
:1049880020449800a84090000040eb000108a300d4
:10499800de033a003050a900f0092000000c78002e
:1049a800284090000028a3000400320040c0b30053
:1049b8002044980030c0b300d403370081818000c0
:1049c8000138a30003003a000004a1002044980025
:1049d800020037000004a0002044980028419000fd
:1049e8000040eb000208a300c8033a000130a00011
:1049f80081818800c0dd21000008eb00000a20004a
:104a0800000c7800284090000028a3000400320021
:104a180040c0b3002044980030c0b300bb03370047
:104a280012c0b30041062100c0dd2100350d07008a
:104a3800e24f500004003600284090000004a10016
:104a48002044980003003700284090000004a0008c
:104a580020449800a84090000040eb000108a30003
:104a6800aa033a003070a90064d0bf0021c3b30084
:104a7800814f50000c0032008140e800814f500007
:104a88000f00320081c0e900814f50000e003a004b
:104a9800d0cc2c000050b8004308de000a004000cb
:104aa8001c06070061033700f0a22b000050b80075
:104ab8004308de0000005500060607005b033700c8
:104ac8006230ef00590337006230ef0057033700b8
:104ad800e40f5000d4003a00200607008005780053
:104ae800b00b2000000c7800284090000028a3009c
:104af8000400320040c0b3002044980030c0b30026
:104b080082033700818180000128a30003003a0056
:104b18000004a10020449800020037000004a0000f
:104b280020449800284190000040eb000208a300b0
:104b380076033a000120a00081818800a0dc2100d2
:104b48000008eb00d00b2000000c780028409000f3
:104b58000028a3000400320040c0b300204498009d
:104b680030c0b3006903370081cc2100a0dc2100ec
:104b7800700d0700e24f50000400360028409000f6
:104b88000004a1002044980003003700284090004a
:104b98000004a00020449800a84090000040eb00ca
:104ba8000108a30059033a00a0dc21000008eb002b
:104bb800e00b2000000c7800284090000028a3009b
:104bc8000400320040c0b3002044980030c0b30055
:104bd8004e0337006159b800a0dc2100100c070013
:104be800e24f500004003600284090000004a10065
:104bf8002044980003003700284090000004a000db
:104c080020449800a84090000040eb000108a30051
:104c18003e033a00a0dc21000008eb00f00b200066
:104c2800000c7800284090000028a30004003200ff
:104c380040c0b3002044980030c0b30033033700ad
:104c4800a1c0b300a0dc2100f40a0700e24f500025
:104c580004003600284090000004a1002044980079
:104c680003003700284090000004a000204498006a
:104c7800a84090000040eb000108a30023033a007d
:104c8800a0dc21000008eb00100c2000000c7800cc
:104c9800284090000028a3000400320040c0b30060
:104ca8002044980030c0b30018033700d1c5210054
:104cb800a0dc21001f0d0700e24f50000400360061
:104cc800284090000004a100204498000300370009
:104cd800284090000004a00020449800a8409000bc
:104ce8000040eb000108a30008033a003050a90077
:104cf800500c2000000c7800284090000028a300e9
:104d08000400320040c0b3002044980030c0b30013
:104d1800fe023700818180000138a30003003a00b9
:104d28000004a10020449800020037000004a000fd
:104d380020449800284190000040eb000208a3009e
:104d4800f2023a000130a00081818800c0dd210014
:104d58000008eb00600c2000000c78002840900050
:104d68000028a3000400320040c0b300204498008b
:104d780030c0b300e502370012c0b300410621007d
:104d8800c0dd21005f0c0700e24f50000400360030
:104d9800284090000004a100204498000300370038
:104da800284090000004a00020449800a8409000eb
:104db8000040eb000108a300d4023a003070a900bb
:104dc80064d0bf0021c3b300814f50000c003200f3
:104dd8008140e800814f50000f00320081c0e90097
:104de800814f50000e003a00d0cc2c000058b8007b
:104df8004308de000b004000560507008b02370011
:104e0800f0a22b000058b8004308de0000805500cf
:104e180050050700850237006230ef008302370033
:104e28006230ef0081023700e50f5000d4003a00ed
:104e3800cc05070000067800100e2000000c780052
:104e4800284090000028a3000400320040c0b300ae
:104e58002044980030c0b300ac0237008181800044
:104e68000128a30003003a000004a1002044980090
:104e7800020037000004a000204498002841900058
:104e88000040eb000208a300a0023a000120a000a5
:104e980081818800a0dc21000008eb00300e200092
:104ea800000c7800284090000028a300040032007d
:104eb80040c0b3002044980030c0b30093023700cc
:104ec800f1cd2100a0dc21009a0c0700e24f500030
:104ed80004003600284090000004a10020449800f7
:104ee80003003700284090000004a00020449800e8
:104ef800a84090000040eb000108a30083023a009c
:104f0800a0dc21000008eb00400e2000000c780017
:104f1800284090000028a3000400320040c0b300dd
:104f28002044980030c0b300780237006161b800af
:104f3800a0dc21003a0b0700e24f500004003600c5
:104f4800284090000004a100204498000300370086
:104f5800284090000004a00020449800a840900039
:104f68000040eb000108a30068023a00a0dc210021
:104f78000008eb00500e2000000c7800284090003c
:104f88000028a3000400320040c0b3002044980069
:104f980030c0b3005d023700a1c0b300a0dc21001f
:104fa8001e0a0700e24f5000040036002840900017
:104fb8000004a10020449800030037002840900016
:104fc8000004a00020449800a84090000040eb0096
:104fd8000108a3004d023a00a0dc21000008eb0004
:104fe800700e2000000c7800284090000028a300d4
:104ff8000400320040c0b3002044980030c0b30021
:1050080042023700d1c52100a0dc2100490c07006d
:10501800e24f500004003600284090000004a10030
:105028002044980003003700284090000004a000a6
:1050380020449800a84090000040eb000108a3001d
:1050480032023a003050a900b00e2000000c78005f
:10505800284090000028a3000400320040c0b3009c
:105068002044980030c0b3002802370081818000b6
:105078000138a30003003a000004a100204498006e
:10508800020037000004a000204498002841900046
:105098000040eb000208a3001c023a000130a00007
:1050a80081818800c0dd21000008eb00c00e2000cf
:1050b800000c7800284090000028a300040032006b
:1050c80040c0b3002044980030c0b3000f0237003e
:1050d80012c0b30041062100c0dd2100890b070082
:1050e800e24f500004003600284090000004a10060
:1050f8002044980003003700284090000004a000d6
:1051080020449800a84090000040eb000108a3004c
:10511800fe013a003070a90064d0bf0021c3b3007b
:10512800814f50000c0032008140e800814f500050
:105138000f00320081c0e900814f50000e003a0094
:10514800d0cc2c000060b8004308de000c00400002
:1051580060040700b5013700f0a22b000060b8001a
:105168004308de00000056005a040700af0137006c
:105178006230ef00ad0137006230ef00ab0137005d
:10518800e60f5000d4003a00fa04070080067800c1
:1051980070102000000c7800284090000028a30020
:1051a8000400320040c0b3002044980030c0b3006f
:1051b800d6013700818180000128a30003003a004e
:1051c8000004a10020449800020037000004a00059
:1051d80020449800284190000040eb000208a300fa
:1051e800ca013a000120a00081818800a0dc2100ca
:1051f8000008eb0090102000000c78002840900078
:105208000028a3000400320040c0b30020449800e6
:1052180030c0b300bd01370081cf2100a0dc2100e0
:10522800c40b0700e24f50000400360028409000ed
:105238000004a10020449800030037002840900093
:105248000004a00020449800a84090000040eb0013
:105258000108a300ad013a00a0dc21000008eb0022
:10526800a0102000000c7800284090000028a3001f
:105278000400320040c0b3002044980030c0b3009e
:10528800a20137006169b800a0dc2100640a0700a8
:10529800e24f500004003600284090000004a100ae
:1052a8002044980003003700284090000004a00024
:1052b80020449800a84090000040eb000108a3009b
:1052c80092013a00a0dc21000008eb00b010200099
:1052d800000c7800284090000028a3000400320049
:1052e80040c0b3002044980030c0b30087013700a5
:1052f800a1c0b300a0dc210048090700e24f50001c
:1053080004003600284090000004a10020449800c2
:1053180003003700284090000004a00020449800b3
:10532800a84090000040eb000108a30077013a0074
:10533800a0dc21000008eb00d0102000000c780051
:10534800284090000028a3000400320040c0b300a9
:105358002044980030c0b3006c013700d1c521004b
:10536800a0dc2100730b0700e24f50000400360058
:10537800284090000004a100204498000300370052
:10538800284090000004a00020449800a840900005
:105398000040eb000108a3005c013a003050a9006e
:1053a80010112000000c7800284090000028a3006d
:1053b8000400320040c0b3002044980030c0b3005d
:1053c80052013700818180000138a30003003a00b0
:1053d8000004a10020449800020037000004a00047
:1053e80020449800284190000040eb000208a300e8
:1053f80046013a000130a00081818800c0dd21000b
:105408000008eb0020112000000c780028409000d4
:105418000028a3000400320040c0b30020449800d4
:1054280030c0b3003901370012c0b3004106210073
:10543800c0dd2100b30a0700e24f50000400360027
:10544800284090000004a100204498000300370081
:10545800284090000004a00020449800a840900034
:105468000040eb000108a30028013a003070a900b1
:1054780064d0bf0021c3b300814f50000c0032003c
:105488008140e800814f50000f00320081c0e900e0
:10549800814f50000e003a00d0cc2c000068b800b4
:1054a8004308de000d0040008a030700df003700d4
:1054b800f0a22b000068b8004308de000080560008
:1054c80084030700d90037006230ef00d7003700a7
:1054d8006230ef00d5003700e70f5000d3003a00e4
:1054e8002804070000077800d0122000000c78007c
:1054f800284090000028a3000400320040c0b300f8
:105508002044980030c0b30000013700818180003a
:105518000128a30003003a000004a10020449800d9
:10552800020037000004a0002044980028419000a1
:105538000040eb000208a300f4003a000120a0009c
:1055480081818800a0dc21000008eb00f012200017
:10555800000c7800284090000028a30004003200c6
:1055680040c0b3002044980030c0b300e7003700c3
:1055780001d12100a0dc2100ee0a0700e24f500013
:1055880004003600284090000004a1002044980040
:1055980003003700284090000004a0002044980031
:1055a800a84090000040eb000108a300d7003a0093
:1055b800a0dc21000008eb0000132000000c78009c
:1055c800284090000028a3000400320040c0b30027
:1055d8002044980030c0b300cc0037006171b80097
:1055e800a0dc21008e090700e24f500004003600bd
:1055f800284090000004a1002044980003003700d0
:10560800284090000004a00020449800a840900082
:105618000040eb000108a300bc003a00a0dc210018
:105628000008eb0010132000000c780028409000c0
:105638000028a3000400320040c0b30020449800b2
:1056480030c0b300b1003700a1c0b300a0dc210016
:1056580072080700e24f500004003600284090000e
:105668000004a1002044980003003700284090005f
:105678000004a00020449800a84090000040eb00df
:105688000108a300a1003a00a0dc21000008eb00fb
:1056980030132000000c7800284090000028a30058
:1056a8000400320040c0b3002044980030c0b3006a
:1056b80096003700d1c52100a0dc21009d0a070013
:1056c800e24f500004003600284090000004a1007a
:1056d8002044980003003700284090000004a000f0
:1056e80020449800a84090000040eb000108a30067
:1056f80086003a003050a90070132000000c780092
:10570800284090000028a3000400320040c0b300e5
:105718002044980030c0b3007c00370081818000ad
:105728000138a30003003a000004a10020449800b7
:10573800020037000004a00020449800284190008f
:105748000040eb000208a30070003a000130a000fe
:1057580081818800c0dd21000008eb008013200053
:10576800000c7800284090000028a30004003200b4
:1057780040c0b3002044980030c0b3006300370035
:1057880012c0b30041062100c0dd2100dd09070079
:10579800e24f500004003600284090000004a100a9
:1057a8002044980003003700284090000004a0001f
:1057b80020449800a84090000040eb000108a30096
:1057c80052003a003070a90064d0bf0021c3b30072
:1057d800814f50000c0032008140e800814f50009a
:1057e8000f00320081c0e900814f50000e003a00de
:1057f800d0cc2c000070b8004308de000e0040003a
:10580800b402070009003700f0a22b000070b800ae
:105818004308de0000005700ae020700030037000f
:105828006230ef00010037006230ef00e014200022
:10583800000c7800284090000028a30004003200e3
:1058480040c0b3002044980030c0b3002f00370098
:10585800818180000128a30003003a000004a10010
:1058680020449800020037000004a000204498005b
:10587800284190000040eb000208a30023003a00f2
:105888000120a00081818800a0dc21000008eb0035
:10589800f0142000000c7800284090000028a30095
:1058a8000400320040c0b3002044980030c0b30068
:1058b8001600370091d22100a0dc21001d0a070044
:1058c800e24f500004003600284090000004a10078
:1058d8002044980003003700284090000004a000ee
:1058e80020449800a84090000040eb000108a30065
:1058f80006003a003050a900b0f9370080c0b30064
:1059080020449800000ceb0030c0b3004f0778002b
:105918004f06be004f05be004f04be000000060043
:1059280040d22100740a070000000600000022008f
:10593800120eb6000000e9004f00de000000400033
:10594800917180000110a1008100700091718800a0
:1059580000002100120eb6000000e9004f00de0032
:105968004200dd00917180000120a10081007000db
:1059780091718800107180000080ea004f00de00fd
:105988004300dd00917180000130a10081007000aa
:1059980091718800320ed50061006000d0f4880053
:1059a800907180004200de006100600000f5880010
:1059b800907180004300de006100600030f58800cf
:1059c800f00c8000b20c80008000eb00c000dd000d
:1059d800000020008001eb0002007000838070004e
:1059e800929e2e0003002000aef40700f2f480001f
:1059f8008001eb00820f5000838f58001800390097
:105a08009ae1a800d00c80000008b200910c800038
:105a18000170a10081007000910c880080ff2f00a8
:105a28009821b600c10c8000e7806000830c8000dc
:105a38000301600002817000820c8800c20c8000a3
:105a4800820060000100a000c10c8800c10c800029
:105a5800e78060009001b60000807000800c88002c
:105a6800700d8000320d80008000eb00c000dd006a
:105a7800000020008001eb000200700083807000ad
:105a8800929e2e000300200086f4070022f5800075
:105a98008001eb00820f5000838f580018003900f6
:105aa800aae1a800500d80000008b200110d800086
:105ab8000170a10081007000110d880080ff2f0087
:105ac800a821b600410d8000e7806000030d80002a
:105ad8000301600002817000020d8800420d800001
:105ae800820060000100a000410d8800410d800087
:105af800e7806000a001b60000807000000d8800fb
:105b0800f00d8000b20d80008000eb00c000dd00c9
:105b1800000020008001eb0002007000838070000c
:105b2800929e2e00030020005ef4070052f58000cc
:105b38008001eb00820f5000838f58001800390055
:105b4800bae1a800d00d80000008b200910d8000d5
:105b58000170a10081007000910d880080ff2f0066
:105b6800b821b600c10d8000e7806000830d800079
:105b78000301600002817000820d8800c20d800060
:105b8800820060000100a000c10d8800c10d8000e6
:105b9800e7806000b001b60000807000800d8800ca
:105ba80000000600881f7800000478002840900054
:105bb8000074a000204498001800780051162000b6
:105bc800810f50001c0032008100e800810f500056
:105bd800370032000000e00048003a0060f680001c
:105be8000000e00002003200a1ec21001100a20038
:105bf80051f68000e18f500002003a0015eea9002e
:105c08000100370015eea8000000e0002300320074
:105c180065150700300498004104980060f680007c
:105c28000000d1008000eb00500498006104980047
:105c380050162000000c7800284090000028a3008f
:105c48000400320040c0b3002044980030c0b300c4
:105c58002e00370058019000e801900038009000ad
:105c6800c8009000170b07000000e0000400320095
:105c7800284090000004a100204498000300370049
:105c8800284090000004a00020449800a8409000fc
:105c98000040eb000108a3001c003a0028409000d7
:105ca8000074a1002044980060162000000c7800c1
:105cb800284090000028a3000400320040c0b30030
:105cc8002044980030c0b300100037000004e00002
:105cd80003003d000004a1002044980002003700a2
:105ce8000004a00020449800a84090000040eb0069
:105cf8000108a300b9ff32000400370080c0b300d8
:105d080020449800000ceb0030c0b3004f0478002a
:105d180000000600881f78000004780028409000e2
:105d28000074a0002044980018007800a1152000f5
:105d3800810f50001c0032008100e800810f5000e4
:105d4800370032000000e00048003a0040f68000ca
:105d58000000e0000200320061ec21001100a20006
:105d680031f68000e18f500002003a0015cea800fd
:105d78000100370015cea9000000e0002300320022
:105d880009150700300498004104980040f6800087
:105d98000000d1008000eb005004980061049800d6
:105da800a0152000000c7800284090000028a300cf
:105db8000400320040c0b3002044980030c0b30053
:105dc8002e00370058019000e8019000380090003c
:105dd800c8009000bb0a07000000e0000400320081
:105de800284090000004a1002044980003003700d8
:105df800284090000004a00020449800a84090008b
:105e08000040eb000108a3001c003a002840900065
:105e18000074a10020449800b0152000000c780000
:105e2800284090000028a3000400320040c0b300be
:105e38002044980030c0b300100037000004e00090
:105e480003003d000004a100204498000200370030
:105e58000004a00020449800a84090000040eb00f7
:105e68000108a300b9ff32000400370080c0b30066
:105e780020449800000ceb0030c0b3004f047800b9
:105e880000000600881f7800000478002840900071
:105e98000074a0002044980018007800f114200035
:105ea800810f50001c0032008100e800810f500073
:105eb800370032000000e00048003a0020f6800079
:105ec8000000e0000200320021ec21001100a200d5
:105ed80011f68000e18f500002003a00548ea800ad
:105ee80001003700548ea9000000e00023003200b2
:105ef800ad140700300498004104980020f6800093
:105f08000000d1008000eb00500498006104980064
:105f1800f0142000000c7800284090000028a3000e
:105f28000400320040c0b3002044980030c0b300e1
:105f38002e00370058019000e801900038009000ca
:105f4800c80090005f0a07000000e000040032006b
:105f5800284090000004a100204498000300370066
:105f6800284090000004a00020449800a840900019
:105f78000040eb000108a3001c003a0028409000f4
:105f88000074a1002044980000152000000c78003f
:105f9800284090000028a3000400320040c0b3004d
:105fa8002044980030c0b300100037000004e0001f
:105fb80003003d000004a1002044980002003700bf
:105fc8000004a00020449800a84090000040eb0086
:105fd8000108a300b9ff32000400370080c0b300f5
:105fe80020449800000ceb0030c0b3004f04780048
:105ff80000000600889fbe008a1f78000004780011
:10600800284090000074a0002044980018007800f0
:106018000000e0000400320021142000810f50002d
:106028006b003a005000370091708000c808de000d
:10603800e1806000c0ea2100908f50003a003200f1
:106048001000200080f58800907080004800de0075
:106058006100600060f58800531407002aed2100f4
:106068008a84e800190d50004f140700800c78004e
:106078001a007800f6805400910f5000060039008d
:106088001000200090f588000000eb00a0f58800c3
:10609800b0f588000e00370001ec2100910f500088
:1060a800060036000000eb0090f588001100200083
:1060b800a1f58800b0f58800050037000000eb0066
:1060c80090f58800a0f5880010002000b0f5880041
:1060d800130eab0002003200132eab000400320096
:1060e800130eab0009003a00132eab000700320074
:1060f80010002000c0f58800a0eb21000008eb008c
:10610800740040001008e8000e00370080eb210002
:106118000008eb0010002000d0f58800e0ec21001a
:106128001008e900070037000000eb0080f5880040
:1061380090f58800a0f58800b0f58800c0f58800c3
:10614800d0f588001814070030049800410498001e
:10615800a00020000100200050049800610498006d
:1061680020142000000c7800284090000028a3008c
:106178000400320040c0b3002044980030c0b3008f
:106188001700370058019000e8019000380090008f
:10619800c8009000cb0907000000e00004003200ae
:1061a800284090000004a100204498000300370014
:1061b800284090000004a00020449800a8409000c7
:1061c8000040eb000108a30097ff320004003700ed
:1061d80080c0b30020449800000ceb0030c0b3002e
:1061e8004f0578004f04be0000000600f1130700b9
:1061f800000006001faea90011aea8001baea90042
:106208001daea9001baea800b003200001002000ad
:10621800f6ff0700000006001f8ea900118ea800d7
:106228001b8ea9001d8ea9001b8ea800b00320009c
:1062380001002000edff07000000060021eea80085
:106248002beea9002deea9002beea800b00320002c
:1062580001002000e5ff0700000006001f0ea9004e
:10626800110ea8001b0ea9001d0ea9001f2ea900c3
:10627800112ea8001b2ea9001d2ea9001b0ea80078
:106288001b2ea800b003200001002000d7ff070044
:106298000000060070f688000000060080f68800fe
:1062a80000000600d0f4800000000600d0f4800052
:1062b80000f0a7000000ea000000e9004f00de003f
:1062c80000000600c1e92100110078008008eb00f9
:1062d80000000600f0f4880000000600f0f48000da
:1062e8000000060000f580000000060000f58000b0
:1062f80000f0a7000000ea000000e9004f00de00ff
:106308000000060021ea2100110078008008eb0057
:106318000000060020f588000000060020f5800037
:106328000000060030f580000000060030f580000f
:1063380000f0a7000000ea000000e9004f00de00be
:106348000000060021ea2100110078008008eb0017
:106358000000060050f588000000060050f5800097
:106368000000060020ec2100100078000000a200c8
:1063780000f0a7000000ea000000e9004f00de007e
:106388000000060010f6800000f0a7000000ea00f8
:106398000000e9004f00de000000060040ec21008c
:1063a8000008eb001000200010f68800000006002e
:1063b8000000eb0020f6880010f6880000000600b8
:1063c80020ec21001000a200a07280007000600084
:1063d8000000e9004f00de004400dd00a1728000eb
:1063e8000140a10081007000a17288000000060031
:1063f80020f688000000060060ec210010007800fc
:106408000000a20000f0a7000000ea000000e90078
:106418004f00de000000060030f6800000f0a70004
:106428000000ea000000e9004f00de00000006005e
:1064380080ec21000008eb001000200030f68800f6
:10644800000006000000eb0040f6880030f68800e7
:106458000000060060ec21001000a20000002400eb
:10646800140eb6000000e9004f00de004e00dd000b
:10647800a170800001e0a10081007000a170880077
:106488000000060040f6880000000600a0ec21008d
:10649800100078000000a20000f0a7000000ea0049
:1064a8000000e9004f00de000000060050f6800002
:1064b80000f0a7000000ea000000e9004f00de003d
:1064c80000000600c0ec21000008eb0010002000ce
:1064d80050f68800000006000000eb0060f6880017
:1064e80050f6880000000600a0ec21001000a20071
:1064f800a07080000080ea004f00de004f00dd0041
:10650800a170800001f0a10081007000a1708800d6
:106518000000060060f688000000060070f68000a3
:106528000000060080f580000000060090f580005d
:1065380000000600a0f5800000000600b0f580000d
:1065480000000600c0f5800000000600d0f58000bd
:106558000000060090f6800000000600e0f58800c4
:1065680000000600e0f5800000000600f0f5880055
:1065780000000600f0f580000000060000f6880024
:106588000000060000f68000000006000000eb0096
:10659800d0f48800e0f48800411f2000f1f488005e
:1065a80000f5880010f5880021f5880030f588008e
:1065b80040f5880051f5880060f5880070f588007e
:1065c80080f5880090f58800a0f58800b0f588006f
:1065d800c0f58800d0f5880001192000e1f5880091
:1065e80061092000f1f58800f100200001f688001b
:1065f80010f6880020f6880030f6880040f68800fb
:1066080050f6880060f6880070f6880080f68800ea
:1066180090f68800a0f6880000000600889fbe005b
:106628008a9fbe008c9fbe008e1f780040ce290036
:1066380008070700d5ff0700508ea900568ea9004d
:106648005a8ea9005c8ea9001fcea90011cea90000
:106658001bcea9001dcea9001feea90011eea900ae
:106668001beea9001deea900e2fe0700eafe0700e6
:10667800f2fe0700dffe0700302ea900362ea90023
:106688003a2ea9003c2ea9000bf82f0021378000d4
:10669800018065001004b3002037880088ff2f00b0
:1066a8008219200012096400c00c80006700600095
:1066b800820c80008200640081007000810c8800d8
:1066c8000cc021000c0078009821b7009801b60092
:1066d800fd3f2e00820c80008280660081007000e1
:1066e800810c88009b01a800d00c80000010b2002b
:1066f800910c80000180a10081007000910c88003d
:106708009ae1a800d00c80000008b200910c80002b
:106718000170a10081007000910c88000afe2f0012
:10672800a019200010086500d00c80007f006000d0
:10673800920c80008200650081007000910c880036
:10674800fef92f000019200010086700c10c800016
:10675800010064000000a000c00c8800c00c80008c
:1067680067006000820c8000820064008100700075
:10677800810c8800e082200010f0a100e187200051
:10678800f2ff2200910861000200260091084100f2
:1067980010f0a000a0fe0700304ea900364ea90058
:1067a8003a4ea9003c4ea9003137800001806500af
:1067b8002004b30030378800821a200012096400d0
:1067c800400d800067006000020d800082006400b8
:1067d80081007000010d88000c007800a821b70026
:1067e800a801b600020d800082806600810070005a
:1067f800010d8800ab01a800500d80000010b20008
:10680800110d80000180a10081007000110d880029
:10681800aae1a800500d80000008b200110d800008
:106828000170a10081007000110d8800a01a2000dd
:1068380010086500500d80007f006000120d800078
:106848008200650081007000110d8800001a200088
:1068580010086700410d8000010064000000a000de
:10686800400d8800400d800067006000020d800028
:106878008200640081007000010d880009832000f7
:106888001970a10020882000f1ff22001088600004
:1068980002002600100841001970a00067fe0700da
:1068a800306ea900366ea9003a6ea9003c6ea900a8
:1068b80040378000808565003b04b3004b37880073
:1068c800811b200091086400c00d800067006000f3
:1068d800820d80008200640081007000810d8800b4
:1068e8000c007800b821b700b801b600810d80000f
:1068f800818666008d0670008d0d8800bb01a8009a
:10690800d00d80000010b200910d80000180a10020
:1069180081007000910d8800bae1a800d00d8000b8
:106928000008b200910d80000170a1008100700084
:10693800910d8800a21b200012096500d00d80006f
:106948007f006000910d8000010565000a05700058
:106958009a0d8800021b200012096700c10d8000f3
:10696800010064000000a000c00d8800c00d800078
:1069780067006000820d8000020464000804700053
:10698800880d880019b0a10040882000f1ff22007e
:1069980010886000020026001008410019b0a0000d
:1069a8002efe0700e0ff220053060700c203200066
:1069b80003002000a0c922000008070060f422009c
:1069c8004d060700e0e822004b06070060dd2200c4
:1069d800490607004f0778004f06be004f05be0066
:1069e8004f04be0000000600881f780000047800ed
:1069f800284090000074a0002044980018007800f7
:106a0800210b2000810f50006f00320009003e006a
:106a1800e4805000810f5000250032008180e8009a
:106a2800810f5000450032000000e00010003200e5
:106a380010013700610b2000810f5000a8003200c0
:106a480004003e008180e900810f500009013a00ee
:106a580080003700810b2000810f5000c3003200f6
:106a6800ea804000810f500002013a00ee00370032
:106a780014fe0700e10f50000300320021fe07005a
:106a8800e10f5000d4003a0049fe0700c611070084
:106a98003004980041049800c01220000100200032
:106aa8005004980061049800e00a2000000c780067
:106ab800284090000028a3000400320040c0b30022
:106ac8002044980030c0b300ee0037005801900011
:106ad800e801900038009000c8009000790707008e
:106ae8000000e00004003200284090000004a100eb
:106af8002044980003003700284090000004a000bc
:106b080020449800a84090000040eb000108a30032
:106b1800dc003a0021fe0700a311070030049800aa
:106b280041049800800c20000100200050049800c7
:106b380061049800000b2000000c780028409000a9
:106b48000028a3000400320040c0b300204498008d
:106b580030c0b300cb00370058019000e801900026
:106b680038009000c8009000560707000000e000b9
:106b780004003200284090000004a100204498003e
:106b880003003700284090000004a000204498002b
:106b9800a84090000040eb000108a300b9003a00ab
:106ba80003fe070080110700300498004104980094
:106bb800800c200001002000500498006104980017
:106bc800200b2000000c7800284090000028a3002b
:106bd8000400320040c0b3002044980030c0b30025
:106be800a800370058019000e80190003800900094
:106bf800c8009000330707000000e00004003200de
:106c0800284090000004a1002044980003003700a9
:106c1800284090000004a00020449800a84090005c
:106c28000040eb000108a30096003a00dbfd0700d6
:106c38005d1107003004980041049800800c200082
:106c4800010020005004980061049800400b2000c7
:106c5800000c7800284090000028a30004003200af
:106c680040c0b3002044980030c0b300850037000e
:106c780058019000e801900038009000c80090008a
:106c8800100707000000e0000400320028409000d0
:106c98000004a10020449800030037002840900019
:106ca8000004a00020449800a84090000040eb0099
:106cb8000108a30073003a00bdfd07003a11070060
:106cc8003004980041049800800c20000100200046
:106cd8005004980061049800600b2000000c7800b4
:106ce800284090000028a3000400320040c0b300f0
:106cf8002044980030c0b30062003700580190006b
:106d0800e801900038009000c8009000ed060700e8
:106d18000000e00004003200284090000004a100b8
:106d28002044980003003700284090000004a00089
:106d380020449800a84090000040eb000108a30000
:106d480050003a0095fd070017110700300498001d
:106d580041049800800c2000010020005004980095
:106d680061049800800b2000000c780028409000f7
:106d78000028a3000400320040c0b300204498005b
:106d880030c0b3003f00370058019000e801900080
:106d980038009000c8009000ca0607000000e00014
:106da80004003200284090000004a100204498000c
:106db80003003700284090000004a00020449800f9
:106dc800a84090000040eb000108a3002d003a0005
:106dd80077fd07000f00370032fd0700e10f500074
:106de800030032003ffd0700e10f500002003a00a7
:106df8006afd0700070037002cfd0700e10f50006f
:106e080004003a0039fd0700e10f500001003a0084
:106e180067fd0700284090000074a10020449800f6
:106e2800200c2000000c7800284090000028a300c7
:106e38000400320040c0b3002044980030c0b300c2
:106e4800100037000004e00003003d000004a1002a
:106e580020449800020037000004a0002044980055
:106e6800a84090000040eb000108a30000ff32009a
:106e78000400370080c0b30020449800000ceb00e9
:106e880030c0b3004f04780000000600e4874700d4
:106e9800889fbe008a9fbe008c9fbe008e1f780010
:106ea80000047800284090000074a0002044980056
:106eb8001800780071062000810f50000d01320083
:106ec80017003e0031042000810f5000840032007a
:106ed80009003e00ef805000810f50004000320052
:106ee8008100e800810f5000560032000000e000e9
:106ef800280032001702370081052000810f50005a
:106f0800bc0032008100e800810f5000d20032003e
:106f1800f5805000810f50000e023a0089003700ba
:106f280091082000810f5000770132000a003e00ce
:106f3800ef805000810f5000320132008100e800dc
:106f4800810f500048013200f3805000810f50003b
:106f580000023a0000013700c1092000810f5000eb
:106f6800ab01320004003e00f2805000810f500057
:106f7800f8013a007d013700d1092000810f500047
:106f8800bc013200e7804000810f5000f1013a0057
:106f9800dd0137008005eb008bbf9f000b067800f2
:106fa8000b0778000b0578008b0678008b047800b7
:106fb80062fd0700e10f500082003a004006200001
:106fc80030fd07005ffd07000000e0003d003200d3
:106fd8000900e0003b003a0040032000000c780064
:106fe800284090000028a3000400320040c0b300ed
:106ff8002044980030c0b300da0137008181800056
:107008000128a30003003a000004a10020449800ce
:10701800020037000004a000204498002841900096
:107028000040eb000208a300ce013a000120a000b6
:1070380081818800a0dc21000008eb0050032000bb
:10704800000c7800284090000028a30004003200bb
:1070580040c0b3002044980030c0b300c1013700dd
:1070680041e02100a0dc210032040700e24f50007b
:1070780004003600284090000004a1002044980035
:1070880003003700284090000004a0002044980026
:10709800a84090000040eb000108a300b1013a00ad
:1070a8003050a9008005eb008bbf9f000b067800cd
:1070b8000b0778000b0578008b0678001900200074
:1070c8008c01370021fd07000000e0008901320033
:1070d8000d00e00087013a0030042000000c780021
:1070e800284090000028a3000400320040c0b300ec
:1070f8002044980030c0b3009a0137008181800095
:107108000128a30003003a000004a10020449800cd
:10711800020037000004a000204498002841900095
:107128000040eb000208a3008e013a000120a000f5
:1071380081818800a0dc21000008eb0040042000c9
:10714800000c7800284090000028a30004003200ba
:1071580040c0b3002044980030c0b300810137001c
:1071680091e12100a0dc2100f2030700e24f50006a
:1071780004003600284090000004a1002044980034
:1071880003003700284090000004a0002044980025
:10719800a84090000040eb000108a30071013a00ec
:1071a8003050a9008005eb008bbf9f000b067800cc
:1071b8000b0778000b0578001d0020008b04780071
:1071c8004c013700dbfc0700e10f500082003a0059
:1071d800401f2000abfc0700dafc07000000e000bd
:1071e8003d0032000a00e0003b003a008005200024
:1071f800000c7800284090000028a300040032000a
:1072080040c0b3002044980030c0b3005501370097
:10721800818180000128a30003003a000004a10036
:1072280020449800020037000004a0002044980081
:10723800284190000040eb000208a30049013a00f1
:107248000120a00081818800a0dc21000008eb005b
:1072580090052000000c7800284090000028a3002a
:107268000400320040c0b3002044980030c0b3008e
:107278003c013700f1e22100a0dc2100ad0307004a
:10728800e24f500004003600284090000004a1009e
:107298002044980003003700284090000004a00014
:1072a80020449800a84090000040eb000108a3008b
:1072b8002c013a003050a9008005eb008bbf9f00dd
:1072c8000b0678000b0778001a0020008b06780060
:1072d8008b047800070137009cfc07000000e000e1
:1072e800040132000e00e00002013a00700620009e
:1072f800000c7800284090000028a3000400320009
:1073080040c0b3002044980030c0b30015013700d6
:10731800818180000128a30003003a000004a10035
:1073280020449800020037000004a0002044980080
:10733800284190000040eb000208a30009013a0030
:107348000120a00081818800a0dc21000008eb005a
:1073580080062000000c7800284090000028a30038
:107368000400320040c0b3002044980030c0b3008d
:10737800fc00370061e42100a0dc21006d03070058
:10738800e24f500004003600284090000004a1009d
:107398002044980003003700284090000004a00013
:1073a80020449800a84090000040eb000108a3008a
:1073b800ec003a003050a9008005eb008bbf9f001d
:1073c8000b0678001e0020000b0578008b0678005d
:1073d8008b047800c700370054fc0700e10f500009
:1073e80083003a0012fc070056fc07000000e0008a
:1073f8003d0032000c00e0003b003a00a0072000ee
:10740800000c7800284090000028a30004003200f7
:1074180040c0b3002044980030c0b300d10037000a
:10742800818180000128a30003003a000004a10024
:1074380020449800020037000004a000204498006f
:10744800284190000040eb000208a300c5003a0064
:107458000120a00081818800a0dc21000008eb0049
:10746800b0072000000c7800284090000028a300f6
:107478000400320040c0b3002044980030c0b3007c
:10748800b8003700e1e52100a0dc2100290307004e
:10749800e24f500004003600284090000004a1008c
:1074a8002044980003003700284090000004a00002
:1074b80020449800a84090000040eb000108a30079
:1074c800a8003a003050a9008005eb008bbf9f0050
:1074d8001c0020000b0778000b0578008b0678004d
:1074e8008b0478008300370018fc07000000e000d8
:1074f800800032000fb897000000e0007d003a00dd
:1075080090082000000c7800284090000028a30074
:107518000400320040c0b3002044980030c0b300db
:1075280090003700818180000128a30003003a0001
:107538000004a10020449800020037000004a000c5
:1075480020449800284190000040eb000208a30066
:1075580084003a000120a00081818800a0dc21007d
:107568000008eb00a0082000000c780028409000dc
:107578000028a3000400320040c0b3002044980053
:1075880030c0b3007700370031e72100a0dc2100cc
:10759800e8020700e24f500004003600284090003f
:1075a8000004a10020449800030037002840900000
:1075b8000004a00020449800a84090000040eb0080
:1075c8000108a30067003a003050a9008005eb00cd
:1075d8001000200080bf9f000b0678000b07780082
:1075e8000b0578008b0678008b0478004100370083
:1075f800ccfb07000000e0003e003a0091fb0700ca
:107608000b00e0003b003a00c0092000000c7800a5
:10761800284090000028a3000400320040c0b300b6
:107628002044980030c0b3004e00370081818000ac
:107638000128a30003003a000004a1002044980098
:10764800020037000004a000204498002841900060
:107658000040eb000208a30042003a000120a0000d
:1076680081818800a0dc21000008eb00d0092000ff
:10767800000c7800284090000028a3000400320085
:1076880040c0b3002044980030c0b3003500370034
:1076980091e82100a0dc2100a6020700e24f50007b
:1076a80004003600284090000004a10020449800ff
:1076b80003003700284090000004a00020449800f0
:1076c800a84090000040eb000108a30025003a0004
:1076d8003050a9001b0020000000eb0080bf9f0075
:1076e800000678000c0778000c0578008c067800f6
:1076f8008c047800284090000074a1002044980071
:10770800400a2000000c7800284090000028a300c0
:107718000400320040c0b3002044980030c0b300d9
:10772800100037000004e00003003d000004a10041
:1077380020449800020037000004a000204498006c
:10774800a84090000040eb000108a30018fe32009a
:107758000400370080c0b30020449800000ceb0000
:1077680030c0b3004f0778004f06be004f05be007b
:107778004f04be004f00b10000000600a7fb070041
:1077880067f80700401f200062fb0700a074230071
:10779800d9020700804f2300d70207000000060027
:1077a80000002100a1d42100010878008000eb002e
:1077b800110098002100980002042000320098006f
:1077c80080002100a3d82100030878001100980048
:1077d8002100980032009800070e070000000600fc
:1077e8000080fb004400de00e94f50000200360034
:1077f8007043b000010037000043b00000000600ed
:107808006f406000e94f5000020036007043b0003e
:10781800010037000043b00000000600881f780010
:1078280000047800284090000074a00020449800cc
:10783800180178000200e000040032003105200041
:10784800810f510027003a000c0037008141780071
:10785800b202210003497800118080008100e8000d
:107868006181880002042000828f500001003a00e4
:107878002c30ef0031052000010c78000028a3000f
:107888000400320040c0b3002044980030c0b30068
:10789800180037006181800022808000810f51002c
:1078a800030032000004a1002044980002003700c1
:1078b8000004a00020449800284190000040eb00fc
:1078c8000208a3000b003a000000210010814000cc
:1078d800b302210093417800034978001100980011
:1078e8009c0d070080c0b30020449800000ceb00fa
:1078f80030c0b3004f04780000000600889fbe0027
:107908000004780081447800284090000074a000aa
:1079180020449800180078000000e00004003200bd
:10792800a1062000810f50003f003a0019003700df
:1079380001c3b300e0df21000148780081c7b3002c
:107948000000e8000148780009407800a4ff07001b
:1079580001e021008048780009407800a8ff07006e
:1079680011e02100804878000100e8000048eb00a1
:107978002a70ef000210ec0040818800010420000a
