:020000040000fa
:080000000013040000000000e1
:020000040000fa
:1000080002100000061000000a1000000e10000088
:1000180012100000161000001a1000001e10000038
:1000280022100000261000002a1000002e100000e8
:1000380032100000361000003a1000003e10000098
:1000480042100000461000004a1000004e10000048
:1000580052100000561000005a1000005e100000f8
:1000680062100000661000006a1000006e100000a8
:1000780072100000761000007a1000007e10000058
:1000880082100000861000008a1000008e10000008
:1000980092100000961000009a1000009e100000b8
:1000a800a2100000a6100000aa100000ae10000068
:1000b800b2100000b6100000ba100000be10000018
:1000c800c2100000c6100000ca100000ce100000c8
:1000d800d2100000d6100000da100000de10000078
:1000e800e2100000e6100000ea100000ee10000028
:1000f800f2100000f6100000fa100000fe100000d8
:1001080002110000061100000a1100000e11000083
:1001180012110000161100001a1100001e11000033
:1001280022110000261100002a1100002e110000e3
:1001380032110000361100003a1100003e11000093
:1001480042110000461100004a1100004e11000043
:1001580052110000561100005a1100005e110000f3
:1001680062110000661100006a1100006e110000a3
:1001780072110000761100007a1100007e11000053
:1001880082110000861100008a1100008e11000003
:1001980092110000961100009a1100009e110000b3
:1001a800a2110000a6110000aa110000ae11000063
:1001b800b2110000b6110000ba110000be11000013
:1001c800c2110000c6110000ca110000ce110000c3
:1001d800d2110000d6110000da110000de11000073
:1001e800e2110000e6110000ea110000ee11000023
:1001f800f2110000f6110000fa110000fe110000d3
:1002080002120000061200000a1200000e1200007e
:1002180012120000161200001a1200001e1200002e
:1002280022120000261200002a1200002e120000de
:1002380032120000361200003a1200003e1200008e
:1002480042120000461200004a1200004e1200003e
:1002580052120000561200005a1200005e120000ee
:020000040000fa
:10200000020000001a140400000000001a1404006a
:10201000000000001a140400000000001a1404005c
:10202000000000001a140400000000001a1404004c
:10203000000000001a140400000000001a1404003c
:10204000000000001a140400000000001a1404002c
:10205000000000001a140400000000002e16040006
:10206000000000001a140400000000001a1404000c
:10207000000000001a140400000000001a140400fc
:10208000000000001a140400000000001a140400ec
:10209000000000001a140400000000000c160400e8
:1020a00000000000e0150400000000001a14040005
:1020b000000000001a140400000000001a140400bc
:1020c000000000001a140400000000001a140400ac
:1020d000000000001a140400000000001a1404009c
:1020e000000000001a140400000000001a1404008c
:1020f000000000001a140400000000001a1404007c
:10210000000000001a140400000000001a1404006b
:10211000000000001a140400000000001a1404005b
:10212000000000001a140400000000001a1404004b
:10213000000000001a140400000000001a1404003b
:10214000000000001a140400000000001a1404002b
:10215000000000001a140400000000001a1404001b
:10216000000000001a140400000000001a1404000b
:10217000000000001a140400000000001a140400fb
:10218000000000001a140400000000001a140400eb
:10219000000000001a140400000000001a140400db
:1021a000000000001a140400000000001a140400cb
:1021b000000000001a140400000000001a140400bb
:1021c000000000001a140400000000001a140400ab
:1021d000000000001a140400000000001a1404009b
:1021e000000000001a140400000000001a1404008b
:1021f000000000001a140400000000001a1404007b
:10220000000000001a140400000000001a1404006a
:10221000000000001a140400000000001a1404005a
:10222000000000001a140400000000001a1404004a
:10223000000000001a140400000000001a1404003a
:10224000000000001a140400000000001a1404002a
:10225000000000001a140400000000001a1404001a
:10226000000000001a140400000000001a1404000a
:10227000000000001a140400000000001a140400fa
:10228000000000001a140400000000001a140400ea
:10229000000000001a140400000000001a140400da
:1022a000000000001a140400000000001a140400ca
:1022b000000000001a140400000000001a140400ba
:1022c000000000001a140400000000001a140400aa
:1022d000000000001a140400000000001a1404009a
:1022e000000000001a140400000000001a1404008a
:1022f000000000001a140400000000001a1404007a
:10230000000000001a140400000000001a14040069
:10231000000000001a140400000000001a14040059
:10232000000000001a140400000000001a14040049
:10233000000000001a140400000000001a14040039
:10234000000000001a140400000000001a14040029
:10235000000000001a140400000000001a14040019
:10236000000000001a140400000000001a14040009
:10237000000000001a140400000000001a140400f9
:10238000000000001a140400000000001a140400e9
:10239000000000001a140400000000001a140400d9
:1023a000000000001a140400000000001a140400c9
:1023b000000000001a140400000000001a140400b9
:1023c000000000001a140400000000001a140400a9
:1023d000000000001a140400000000001a14040099
:1023e000000000001a140400000000001a14040089
:1023f000000000001a140400000000001a14040079
:10240000000000001a140400000000001a14040068
:10241000000000001a140400000000001a14040058
:10242000000000001a140400000000001a14040048
:10243000000000001a14040000000000481404000a
:10244000000000001a140400000000001a14040028
:10245000000000001a140400000000001a14040018
:10246000000000001a140400000000001a14040008
:10247000000000001a14040000000000d014040042
:10248000000000001a140400000000001a140400e8
:10249000000000001a140400000000005815040099
:1024a000000000001a140400000000001a140400c8
:1024b000000000001a140400000000001a140400b8
:0424c0000000000018
:020000040000fa
:10260000cffe21000eff27000e0188000000000011
:10261000000020000000e000020032000001200065
:1026200020028800140007009f0107000000e0005e
:1026300003003a006074250001002000020037000a
:102640000000200001002000810f70000100320016
:102650000f000700000020000000e0000200320030
:1026600000000200000000001851020000000000fd
:102670000040da000000fe00e06a20000000e000f8
:1026800002003200002020009001880000000600b7
:10269000a1028800800478000000eb001f003700d2
:1026a000e284440054a0b4009905ba00e2844400d6
:1026b00054a0b4009906ba00e284440054a0b400c7
:1026c0000006eb00476fde00fd07b200ae01880098
:1026d000636ce10003003a000ad801000000eb003f
:1026e0000e003700606ce10008003a00004deb007e
:1026f0000a05e800020039003420ec000af0a000ce
:102700008b05e900f9ff3e00040037006168e10035
:10271000010032000086eb000b00070019c7ba0069
:102720000e04e0001905ba0003003a000a00e000b8
:10273000dbff3a0000000600fe07b200ae02880090
:102740008a047800f5ff37000cd0a300e20f4d009b
:102750001c00390089027800354dba000a05e800ee
:10276000020039003420ec000af0a0008b05e900db
:102770000f003200254dba000a05e80002003900ba
:102780003420ec000af0a0008b05e90008003200bc
:102790000c00e0000600320015cdba000a05e80082
:1027a000020039003420ec000af0a0008b05e9009b
:1027b0008984e80054a0b4000b00e000e2ff3a0076
:1027c000000006009902ba00055d78008b05e9005b
:1027d000f7ff3200c82ade00055d78008b05e900ae
:1027e000f3ff32000c00e000f1ff320019ddba0007
:1027f000eeff3700d227040000000000241d040073
:1028000000000000e42e040000000000cc410400a1
:1028100000000000683e04000000000014410400b5
:10282000000000005c40040000000000a43f040021
:10283000000000003600f800809fbe00829fbe00ae
:10284000849fbe00869fbe003200f8003400f8006e
:1028500010002000a00188000020200000d0fe0011
:10286000c808f8008210f90060672900ac22070050
:102870003400f9003200f9004f03be004f02be00e1
:102880004f01be004f00be003600f90000400600b8
:102890003600f800809fbe00829fbe00849fbe006d
:1028a000869fbe00322eab0036003a0040f1210078
:1028b0000008eb0092e1ab0013003a00f00c80003e
:1028c000b20c80008000eb00c000dd0000002000a2
:1028d0008001eb000200700083807000929e2e0049
:1028e00003002000f1000700b2f880008001eb0037
:1028f000820f5000838f580022003100100020000a
:10290000a0f888001f0037009ae1a800d00c8000d2
:102910000008b200910c80000170a10081007000dd
:10292000910c880080ff2f009821b600c10c800018
:10293000e7806000830c800003016000028170006a
:10294000820c8800c20c8000820060000100a000a0
:10295000c10c8800c10c8000e78060009001b600c7
:1029600000807000800c88009ae1a900d00c8000e3
:102970000008b200910c80000170a100810070007d
:10298000910c88000fe8a9004f03be004f02be0063
:102990004f01be004f00be003600f90000400600a7
:1029a0003600f800809fbe00829fbe00849fbe005c
:1029b000869fbe00324eab0036003a00a0f12100e7
:1029c0000008eb00a2e1ab0013003a00700d80009c
:1029d000320d80008000eb00c000dd000000200010
:1029e0008001eb000200700083807000929e2e0038
:1029f00003002000ad000700e2f880008001eb003a
:102a0000820f5000838f58002200310010002000f8
:102a1000d0f888001f003700aae1a800500d800000
:102a20000008b200110d80000170a100810070004b
:102a3000110d880080ff2f00a821b600410d8000f5
:102a4000e7806000030d80000301600002817000d8
:102a5000020d8800420d8000820060000100a0008d
:102a6000410d8800410d8000e7806000a001b600a4
:102a700000807000000d8800aae1a900500d8000c0
:102a80000008b200110d80000170a10081007000eb
:102a9000110d880010e8a9004f03be004f02be00d0
:102aa0004f01be004f00be003600f9000040060096
:102ab0003600f800809fbe00829fbe00849fbe004b
:102ac000869fbe00326eab0036003a0000f2210055
:102ad0000008eb00b2e1ab0013003a00f00d8000fb
:102ae000b20d80008000eb00c000dd00000020007f
:102af0008001eb000200700083807000929e2e0027
:102b0000030020006900070012f980008001eb003b
:102b1000820f5000838f58002200310010002000e7
:102b200000f988001f003700bae1a800d00d80002e
:102b30000008b200910d80000170a10081007000ba
:102b4000910d880080ff2f00b821b600c10d8000d4
:102b5000e7806000830d8000030160000281700047
:102b6000820d8800c20d8000820060000100a0007c
:102b7000c10d8800c10d8000e7806000b001b60083
:102b800000807000800d8800bae1a900d00d80009f
:102b90000008b200910d80000170a100810070005a
:102ba000910d88001168a9004f03be004f02be00be
:102bb0004f01be004f00be003600f9000040060085
:102bc000809fbe0000002100900090002000900037
:102bd000808f500002003a002188a9000c003700c5
:102be0000430ec00000420000410e30001003a006f
:102bf0000430ef000188a900000021009000780057
:102c000020009000008040001080fb002011880010
:102c10004f00be0000400600809fbe00821f78006b
:102c20000168a900311180000a30ec000004200086
:102c30000a10e30001003a000a30ef008000210092
:102c40001001780010009000000041000148780059
:102c50004f0178004f00be00004006003600f8002b
:102c6000809fbe00829fbe00849fbe00869fbe00e4
:102c7000808380009183800061004000e0804800f4
:102c800080838800918388000068a900a31c070046
:102c90004f03be004f02be004f01be004f00be00fa
:102ca0003600f90000400600000005006022b80070
:102cb000060220000000d0008180d2000482d200f1
:102cc0008582d2000000a0000202520083825a00d6
:102cd000030031000202420083824a000000a1008a
:0c2ce0000603e900f3ff3a0000000600c4
:020000040000fa
:102cec00556e0000686100006e6400006c650000a9
:102cfc0064200000696e00007465000072720000b0
:102d0c0075700000742c000020000000647300003b
:102d1c00504900004333000033450000503500009b
:102d2c0031320000475000003830000036000000ff
:102d3c00756e00006b6e00006f7700006e00000077
:102d4c004231000000440000657600006963000019
:102d5c006520000049440000203d000020000000d8
:102d6c0020280000002900002c20000072650000c3
:102d7c0076690000736900006f6e0000200000008f
:102d8c00290a0000000a00000a2a00002a2a000072
:102d9c002a2a00002a2a00002a2a00002a2a0000d7
:102dac002a2a00002a2a00002a2a00002a2a0000c7
:102dbc002a2a00002a2a00002a2a00002a2a0000b7
:102dcc002a2a00002a2a00002a2a00002a2a0000a7
:102ddc002a2a00002a2a00002a2a00002a2a000097
:102dec002a2a00002a2a00002a2a00002a2a000087
:102dfc002a2a00002a0a00002a200000574100005d
:102e0c00524e0000494e0000472000002d200000cb
:102e1c00746800006973000020700000726f00007d
:102e2c0067720000616d0000207700006173000084
:102e3c00206300006f6d0000706900006c6500007d
:102e4c0064200000666f00007220000074680000af
:102e5c0065200000777200006f6e00006720000094
:102e6c00202a00000a2a0000206300006869000084
:102e7c00702e0000205400006869000073200000d0
:102e8c00707200006f670000726100006d2000001e
:102e9c006d61000079200000707200006f6400000a
:102eac007563000065200000756e000065780000f9
:102ebc00706500006374000065640000206200000f
:102ecc0065680000766900006f7200002120000028
:102edc002a0a00002a2000004564000069740000e2
:102eec002074000068650000206800006561000027
:102efc006465000072200000666900006c650000cb
:102f0c0073200000746f000020700000726f0000ce
:102f1c0070650000726c0000792000006465000090
:102f2c00666900006e65000020740000686900008e
:102f3c00732000006368000069700000202a000004
:102f4c000a2a0000206100006e640000207400005a
:102f5c006f200000696e0000737500007265000040
:102f6c00206300006f720000726500006374000043
:102f7c00206f000070650000726100007469000031
:102f8c006f6e00002e20000020200000202000008a
:102f9c002020000020200000202000002020000025
:102fac002020000020200000202000002a0a000021
:102fbc002a200000202000002020000020200000fb
:102fcc0020200000202000002020000020200000f5
:102fdc0020200000202000002020000020200000e5
:102fec0020200000202000002020000020200000d5
:102ffc0020200000202000002020000020200000c5
:10300c0020200000202000002020000020200000b4
:10301c002020000020200000202a00000a2a0000a6
:10302c00204e00004f540000453a0000204900009b
:10303c0066200000746800006973000020770000af
:10304c0061730000206300006f6d00007069000068
:10305c006c65000064200000666f000072200000a8
:10306c007468000065200000636f0000727200003d
:10307c006563000074200000636800006970000044
:10308c002c200000202000002a0a00002a2000002a
:10309c00616e0000642000006f6e00006c7900000f
:1030ac00206f000063630000757200007320000045
:1030bc0061740000207000006f77000065720000e2
:1030cc002d6f00006e200000286e00006f74000051
:1030dc002064000075720000696e0000672000001b
:1030ec00612000004d4300004c52000020200000e5
:1030fc0020200000202a00000a2a00002072000074
:10310c006573000065740000292c00002076000017
:10311c006572000069660000792000007468000088
:10312c00617400002041000056440000442000005f
:10313c00616e0000642000004156000053530000f3
:10314c002061000072650000206300006f6e0000bb
:10315c006e65000063740000656400002e200000a2
:10316c00202000002a0a00002a2000004f6e0000d8
:10317c0020740000686500002050000049430000e6
:10318c003234000048330000324700005032000057
:10319c00303200002c2000006e6f00007420000004
:1031ac00636f00006e6e00006563000074690000c0
:1031bc006e670000204100005644000044200000cf
:1031cc0020200000202000002020000020200000f3
:1031dc00202a00000a2a000020700000726f0000f4
:1031ec0064750000636500007320000074680000c3
:1031fc0069730000206d00006573000073610000ae
:10320c0067650000206f00006e6c000079200000e4
:10321c0061740000207000006f7700006572000080
:10322c002d750000702e00002020000020200000d2
:10323c002020000020200000202000002020000082
:10324c002a0a00002a2a00002a2a00002a2a000042
:10325c002a2a00002a2a00002a2a00002a2a000012
:10326c002a2a00002a2a00002a2a00002a2a000002
:10327c002a2a00002a2a00002a2a00002a2a0000f2
:10328c002a2a00002a2a00002a2a00002a2a0000e2
:10329c002a2a00002a2a00002a2a00002a2a0000d2
:1032ac002a2a00002a2a00002a2a00002a2a0000c2
:1032bc000a000000466100007374000020520000f8
:1032cc00432000004f730000630a0000004600001a
:1032dc00617300007420000052430000204f000076
:1032ec007363000020770000697400006820000000
:1032fc00504c00004c0a00000050000072690000a5
:10330c006d61000072790000204f000073630000b3
:10331c0020280000585400002c20000048530000c6
:10332c002c20000045430000290a0000005000003a
:10333c00726900006d61000072790000204f00007e
:10334c007363000020280000585400002c2000005b
:10335c00485300002c2000004543000029200000a9
:10336c007769000074680000205000004c4c00008d
:10337c000a00000053650000636f00006e640000db
:10338c0061720000792000004f730000630a000096
:10339c00004c00006f770000205000006f77000099
:1033ac006572000020520000432000004f730000a3
:1033bc00630a0000004600006173000074200000e6
:1033cc0052430000204f0000736300002f310000b7
:1033dc00360a0000004600006173000074200000f3
:1033ec0052430000204f0000736300002f4e00007a
:1033fc000a000000556e00006b6e00006f77000035
:10340c006e2000006f730000636900006c6c00009c
:10341c00617400006f72000020740000797000006d
:10342c00652e0000000a000044650000766900006b
:10343c0063650000206800006173000020620000da
:10344c00656500006e200000696e000020730000ae
:10345c006c65000065700000206d00006f6400005a
:10346c00650a0000000a000044650000766900004f
:10347c00636500002068000061730000206200009a
:10348c00656500006e200000696e00002069000078
:10349c00646c0000652000006d6f00006465000026
:1034ac000a0000000a5200006573000065740000f9
:1034bc002063000061750000736500003a20000075
:1034cc00005000006f770000657200002d6f000047
:1034dc006e2e00000a000000536f0000667400009e
:1034ec0077610000726500002052000065730000d7
:1034fc00657400002e0a0000005700006174000083
:10350c0063680000646f00006720000054690000cd
:10351c006d6500006f750000743a0000200000001b
:10352c000a0000004d4300004c52000020610000d6
:10353c007373000065720000746900006f6e000008
:10354c002e0a000000420000726f0000776e00002f
:10355c002d6f0000757400002e0a0000005400004e
:10356c007261000070200000436f00006e66000066
:10357c006c690000637400002e0a00000049000012
:10358c006c6c000065670000616c0000204300005b
:10359c006f6e000064690000746900006f6e0000bb
:1035ac002e0a0000004300006f6e000066690000e8
:1035bc006775000072610000746900006f6e000096
:1035cc00204d0000697300006d6100007463000001
:1035dc00682e00000a000000556e00006b6e0000a3
:1035ec006f7700006e2000007265000073650000ac
:1035fc00742e00000a00000045720000726f00007b
:10360c007220000074720000617000007065000090
:10361c00643a00002000000050720000696f000046
:10362c0072690000747900003a200000002c000040
:10363c002056000065630000746f000072200000cb
:10364c006e7500006d620000657200003a2000008b
:10365c00000a00000a00000055410000525400000e
:10366c003120000070610000726900007479000064
:10367c0020650000727200006f7200000a000000ea
:10368c0055410000525400003120000066720000c9
:10369c00616d0000696e000067200000657200001b
:1036ac00726f0000720a00000055000041520000c9
:1036bc0054310000206f000076650000727200002b
:1036cc00756e000020650000727200006f720000c1
:1036dc000a00000055410000525400003220000046
:1036ec0070610000726900007479000020650000b0
:1036fc00727200006f7200000a0000005541000059
:10370c00525400003220000066720000616d00000f
:10371c00696e00006720000065720000726f000087
:10372c00720a0000005500004152000054320000a3
:10373c00206f00007665000072720000756e00004c
:10374c0020650000727200006f7200000a00000019
:10375c0055410000525400003320000070610000fd
:10376c00726900007479000020650000727200001c
:10377c006f7200000a000000554100005254000016
:10378c003320000066720000616d0000696e00005d
:10379c006720000065720000726f0000720a000062
:1037ac00005500004152000054330000206f00000f
:1037bc007665000072720000756e000020650000d6
:1037cc00727200006f7200000a0000005541000088
:1037dc005254000034200000706100007269000037
:1037ec007479000020650000727200006f72000096
:1037fc000a00000055410000525400003420000023
:10380c0066720000616d0000696e000067200000a8
:10381c0065720000726f0000720a00000055000013
:10382c004152000054340000206f00007665000007
:10383c0072720000756e000020650000727200004c
:10384c006f7200000a000000307800000045000094
:10385c00727200006f720000206900006e20000080
:10386c0062750000696c0000645c00006c6900000b
:10387c00625c000073720000635c00007069000001
:10388c0063320000345f0000736500007269000051
:10389c00616c00002e630000206c0000696e00005b
:1038ac006520000032390000363a00002049000043
:1038bc006e760000616c0000696400002055000009
:1038cc00415200005400000045720000726f00006d
:1038dc0072200000696e0000206200007569000013
:1038ec006c6400005c6c0000696200005c7300009a
:1038fc00726300005c7000006963000032340000e9
:10390c005f73000065720000696100006c2e00009e
:10391c00632000006c6900006e650000203300001d
:10392c00333500003a200000496e0000766100003b
:10393c006c690000642000005541000052540000e6
:10394c0000050000030200000100000050c300004d
:10395c0030750000204e0000102700008813000076
:10396c00b80b0000d0070000e8030000f4010000d1
:10397c002c010000c80000006400000032000000b0
:10398c001e000000140000000a00000005000000ea
:10399c00030000000200000001000000050300000d
:1039ac00020100000503000002010000321e0000ad
:1039bc00140a000005030000020100000a62000066
:1039cc00756900006c6400005c650000736f00009a
:1039dc00735c000073720000635c00006573000090
:1039ec006f7300005f6600003134000075690000e1
:1039fc002e6300002c20000062750000696c000032
:103a0c00742000006f6e000020460000656200000c
:103a1c002032000032200000323000003231000031
:103a2c002061000074200000313800003a320000a0
:0c3a3c00303a0000313000000a000000a9
:020000040000fa
:103a4800881f780000047800284090000074a000c7
:103a580020449800180078008000eb00920e2000a7
:103a6800820f5000e08f580046053e000006010016
:103a7800e9003700430537004205370041053700a4
:103a8800400537003f0537003e0537003d05370044
:103a98003c0537003b0537003a0537003905370044
:103aa8003805370037053700360537003505370044
:103ab8003405370033053700320537003105370044
:103ac800300537002f0537002e0537002d05370044
:103ad8002c0537002b0537002a0537002905370044
:103ae8002805370027053700260537002505370044
:103af8002405370023053700220537002105370044
:103b0800200537001f0537001e0537001d05370043
:103b18001c0537001b0537001a0537001905370043
:103b28001805370017053700160537001505370043
:103b38001405370013053700120537001105370043
:103b4800100537000f0537000e0537000d05370043
:103b58000c0537000b0537000a0537000905370043
:103b68000805370007053700060537000505370043
:103b78000405370003053700020537000105370043
:103b880000053700ff043700fe043700fd04370046
:103b9800fc043700fb043700fa043700f904370047
:103ba800f8043700f7043700f6043700f504370047
:103bb800f4043700f3043700f2043700f104370047
:103bc800f0043700ef043700ee043700ed04370047
:103bd800ec043700eb043700ea043700e904370047
:103be800e8043700e7043700e6043700e504370047
:103bf800e4043700e3043700e2043700e104370047
:103c0800e0043700df043700de043700dd04370046
:103c1800dc043700db043700da043700d904370046
:103c2800d8043700d7043700d6043700d504370046
:103c3800d4043700d3043700d2043700d104370046
:103c4800d0043700cf043700ce043700cd04370046
:103c5800cc043700cb043700ca043700c904370046
:103c6800c8043700c7043700c6043700c504370046
:103c7800c4043700c3043700c2043700c104370046
:103c8800c0043700bf043700be043700bd04370046
:103c9800bc043700bb043700ba043700b904370046
:103ca800620037007a003700b6043700b5043700e1
:103cb800b40437009b003700b2043700bc0037005b
:103cc800b0043700dd003700ae043700fe003700cf
:103cd800ac0437001f013700aa0437004001370041
:103ce800a8043700a7043700a6043700a504370046
:103cf800a4043700a30437005801370070013700c7
:103d0800a00437009f0437009e0437009101370054
:103d18009c043700b20137009a043700d3013700fa
:103d280098043700f401370096043700150237006d
:103d380094043700360237009204370091043700a4
:103d4800900437008f0437005002370068023700ac
:103d58008c0437008b0437008a0437008902370047
:103d680088043700aa02370086043700cb023700e0
:103d780084043700ec023700820437000d03370053
:103d8800800437002e0337007e0437007d04370097
:103d98007c0437007b0437007a0437007904370045
:103da8007804370077043700760437007504370045
:103db8007404370073043700720437007104370045
:103dc800700437006f0437006e0437005203370061
:103dd8006a0337006b04370089033700690437002a
:103de80068043700a4033700bc03370065043700b4
:103df800db0337006304370062043700f60337003b
:103e08000e0437005f0437002d0437005d043700c7
:103e18005c0437004804370018120700e10f50000f
:103e280009013a00c0082000000c780028409000e2
:103e38000028a3000400320040c0b30020449800ca
:103e480030c0b30053043700818180000128a300eb
:103e580003003a000004a100204498000200370043
:103e68000004a00020449800284190000040eb0086
:103e78000208a30047043a000120a00081818800bd
:103e880080ed21000008eb00d0082000000c78002d
:103e9800284090000028a3000400320040c0b3006e
:103ea8002044980030c0b3003a043700e1d521001f
:103eb80080ed21001f160700e24f50000400360075
:103ec800284090000004a100204498000300370017
:103ed800284090000004a00020449800a8409000ca
:103ee8000040eb000108a3002a043a003050a90062
:103ef800fa1107000000e000d3003a001a12070088
:103f0800552207003004980041049800c012200090
:103f18000100200050049800610498001009200056
:103f2800000c7800284090000028a300040032000c
:103f380040c0b3002044980030c0b30015043700d7
:103f480058019000e801900038009000c8009000e7
:103f5800dc1707000000e000040032002840900051
:103f68000004a10020449800030037002840900076
:103f78000004a00020449800a84090000040eb00f6
:103f88000108a30003043a00f211070032220700d7
:103f98003004980041049800800c200001002000a3
:103fa800500498006104980030092000000c780043
:103fb800284090000028a3000400320040c0b3004d
:103fc8002044980030c0b300f20337005801900035
:103fd800e801900038009000c8009000b917070069
:103fe8000000e00004003200284090000004a10016
:103ff8002044980003003700284090000004a000e7
:1040080020449800a84090000040eb000108a3005d
:10401800e0033a00d41107000f220700300498008b
:1040280041049800800c20000100200050049800f2
:104038006104980050092000000c78002840900086
:104048000028a3000400320040c0b30020449800b8
:1040580030c0b300cf03370058019000e80190004a
:1040680038009000c8009000961707000000e00094
:1040780004003200284090000004a1002044980069
:1040880003003700284090000004a0002044980056
:10409800a84090000040eb000108a300bd033a00cf
:1040a800ac110700ec210700300498004104980087
:1040b800800c200001002000500498006104980042
:1040c80070092000000c7800284090000028a30008
:1040d8000400320040c0b3002044980030c0b30050
:1040e800ac03370058019000e801900038009000b8
:1040f800c8009000731707000000e00004003200b9
:10410800284090000004a1002044980003003700d4
:10411800284090000004a00020449800a840900087
:104128000040eb000108a3009a033a008e11070033
:10413800c92107003004980041049800800c200031
:1041480001002000500498006104980090092000a4
:10415800000c7800284090000028a30004003200da
:1041680040c0b3002044980030c0b3008903370032
:1041780058019000e801900038009000c8009000b5
:10418800501707000000e0000400320028409000ab
:104198000004a10020449800030037002840900044
:1041a8000004a00020449800a84090000040eb00c4
:1041b8000108a30077033a0066110700a62107004b
:1041c8003004980041049800800c20000100200071
:1041d8005004980061049800b0092000000c780091
:1041e800284090000028a3000400320040c0b3001b
:1041f8002044980030c0b30066033700580190008f
:10420800e801900038009000c80090002d170700c2
:104218000000e00004003200284090000004a100e3
:104228002044980003003700284090000004a000b4
:1042380020449800a84090000040eb000108a3002b
:1042480054033a00481107001c110700e10f500001
:1042580009013a00200a2000000c7800284090004c
:104268000028a3000400320040c0b3002044980096
:1042780030c0b30047033700818180000128a300c4
:1042880003003a000004a10020449800020037000f
:104298000004a00020449800284190000040eb0052
:1042a8000208a3003b033a000120a0008181880096
:1042b80080ed21000008eb00300a2000000c780097
:1042c800284090000028a3000400320040c0b3003a
:1042d8002044980030c0b3002e03370021d72100b6
:1042e80080ed210013150700e24f5000040036004e
:1042f800284090000004a1002044980003003700e3
:10430800284090000004a00020449800a840900095
:104318000040eb000108a3001e033a003050a9003a
:10432800ee100700e10f5000d3003a000e1107000d
:10433800492107003004980041049800c012200069
:10434800010020005004980061049800700a2000c1
:10435800000c7800284090000028a30004003200d8
:1043680040c0b3002044980030c0b30009033700b0
:1043780058019000e801900038009000c8009000b3
:10438800d01607000000e00004003200284090002a
:104398000004a10020449800030037002840900042
:1043a8000004a00020449800a84090000040eb00c2
:1043b8000108a300f7023a00e610070026210700cb
:1043c8003004980041049800800c2000010020006f
:1043d8005004980061049800900a2000000c7800ae
:1043e800284090000028a3000400320040c0b30019
:1043f8002044980030c0b300e6023700580190000e
:10440800e801900038009000c8009000ad16070041
:104418000000e00004003200284090000004a100e1
:104428002044980003003700284090000004a000b2
:1044380020449800a84090000040eb000108a30029
:10444800d4023a00c810070003210700300498007e
:1044580041049800800c20000100200050049800be
:1044680061049800b00a2000000c780028409000f1
:104478000028a3000400320040c0b3002044980084
:1044880030c0b300c302370058019000e801900023
:1044980038009000c80090008a1607000000e0006d
:1044a80004003200284090000004a1002044980035
:1044b80003003700284090000004a0002044980022
:1044c800a84090000040eb000108a300b1023a00a8
:1044d800a0100700e020070030049800410498006d
:1044e800800c20000100200050049800610498000e
:1044f800d00a2000000c7800284090000028a30073
:104508000400320040c0b3002044980030c0b3001b
:10451800a002370058019000e80190003800900090
:10452800c8009000671607000000e0000400320091
:10453800284090000004a1002044980003003700a0
:10454800284090000004a00020449800a840900053
:104558000040eb000108a3008e023a008210070019
:10456800bd2007003004980041049800800c20000a
:10457800010020005004980061049800f00a20000f
:10458800000c7800284090000028a30004003200a6
:1045980040c0b3002044980030c0b3007d0237000b
:1045a80058019000e801900038009000c800900081
:1045b800441607000000e000040032002840900084
:1045c8000004a10020449800030037002840900010
:1045d8000004a00020449800a84090000040eb0090
:1045e8000108a3006b023a005a1007009a2007003e
:1045f8003004980041049800800c2000010020003d
:104608005004980061049800100b2000000c7800fa
:10461800284090000028a3000400320040c0b300e6
:104628002044980030c0b3005a0237005801900067
:10463800e801900038009000c8009000211607009b
:104648000000e00004003200284090000004a100af
:104658002044980003003700284090000004a00080
:1046680020449800a84090000040eb000108a300f7
:1046780048023a003c10070020100700e10f5000e4
:1046880009013a00600b2000000c780028409000d7
:104698000028a3000400320040c0b3002044980062
:1046a80030c0b3003b023700818180000128a3009d
:1046b80003003a000004a1002044980002003700db
:1046c8000004a00020449800284190000040eb001e
:1046d8000208a3002f023a000120a000818188006f
:1046e80080ed21000008eb00700b2000000c780022
:1046f800284090000028a3000400320040c0b30006
:104708002044980030c0b3002202370061d821004d
:1047180080ed210007140700e24f50000400360026
:10472800284090000004a1002044980003003700ae
:10473800284090000004a00020449800a840900061
:104748000040eb000108a30012023a003050a90013
:10475800e20f0700e10f5000d3003a0002100700f3
:104768003d2007003004980041049800c012200042
:10477800010020005004980061049800b00b20004c
:10478800000c7800284090000028a30004003200a4
:1047980040c0b3002044980030c0b300fd0137008a
:1047a80058019000e801900038009000c80090007f
:1047b800c41507000000e000040032002840900003
:1047c8000004a1002044980003003700284090000e
:1047d8000004a00020449800a84090000040eb008e
:1047e8000108a300eb013a00da0f07001a200700be
:1047f8003004980041049800800c2000010020003b
:104808005004980061049800d00b2000000c780038
:10481800284090000028a3000400320040c0b300e4
:104828002044980030c0b300da01370058019000e6
:10483800e801900038009000c8009000a11507001a
:104848000000e00004003200284090000004a100ad
:104858002044980003003700284090000004a0007e
:1048680020449800a84090000040eb000108a300f5
:10487800c8013a00bc0f0700f71f07003004980072
:1048880041049800800c200001002000500498008a
:1048980061049800f00b2000000c7800284090007c
:1048a8000028a3000400320040c0b3002044980050
:1048b80030c0b300b701370058019000e8019000fc
:1048c80038009000c80090007e1507000000e00046
:1048d80004003200284090000004a1002044980001
:1048e80003003700284090000004a00020449800ee
:1048f800a84090000040eb000108a300a5013a0081
:10490800940f0700d41f0700300498004104980052
:10491800800c2000010020005004980061049800d9
:10492800100c2000000c7800284090000028a300fc
:104938000400320040c0b3002044980030c0b300e7
:104948009401370058019000e80190003800900069
:10495800c80090005b1507000000e000040032006a
:10496800284090000004a10020449800030037006c
:10497800284090000004a00020449800a84090001f
:104988000040eb000108a30082013a00760f0700ff
:10499800b11f07003004980041049800800c2000e3
:1049a800010020005004980061049800300c200099
:1049b800000c7800284090000028a3000400320072
:1049c80040c0b3002044980030c0b30071013700e4
:1049d80058019000e801900038009000c80090004d
:1049e800381507000000e00004003200284090005d
:1049f8000004a100204498000300370028409000dc
:104a08000004a00020449800a84090000040eb005b
:104a18000108a3005f013a004e0f07008e1f070030
:104a28003004980041049800800c20000100200008
:104a38005004980061049800500c2000000c780085
:104a4800284090000028a3000400320040c0b300b2
:104a58002044980030c0b3004e0137005801900040
:104a6800e801900038009000c80090001515070074
:104a78000000e00004003200284090000004a1007b
:104a88002044980003003700284090000004a0004c
:104a980020449800a84090000040eb000108a300c3
:104aa8003c013a00300f0700ec0e0700e10f500000
:104ab80005003a00090f07000000e00002003a0074
:104ac800240f07000f003700f40e0700e10f500015
:104ad80005003a00010f0700e10f500002003a00fc
:104ae8001c0f070007003700de0e0700e10f50001b
:104af80004003a00eb0e0700e10f500001003a00f5
:104b0800190f0700d50e0700e10f500055003a00b5
:104b1800700d2000000c7800284090000028a300a9
:104b28000400320040c0b3002044980030c0b300f5
:104b380018013700818180000128a30003003a0092
:104b48000004a10020449800020037000004a000df
:104b580020449800284190000040eb000208a30080
:104b68000c013a000120a0008181880080ed21001d
:104b78000008eb00800d2000000c78002840900011
:104b88000028a3000400320040c0b300204498006d
:104b980030c0b300ff003700a1d9210080ed21000b
:104ba800e4120700e24f500004003600284090004d
:104bb8000004a1002044980003003700284090001a
:104bc8000004a00020449800a84090000040eb009a
:104bd8000108a300ef003a003050a9001e1f07008b
:104be8003004980041049800e015200001002000de
:104bf8005004980061049800a00d2000000c780073
:104c0800284090000028a3000400320040c0b300f0
:104c18002044980030c0b300de00370058019000ef
:104c2800e801900038009000c8009000a514070023
:104c38000000e00004003200284090000004a100b9
:104c48002044980003003700284090000004a0008a
:104c580020449800a84090000040eb000108a30001
:104c6800cc003a008d0e0700e10f500055003a00c5
:104c7800d00d2000000c7800284090000028a300e8
:104c88000400320040c0b3002044980030c0b30094
:104c9800c0003700818180000128a30003003a008a
:104ca8000004a10020449800020037000004a0007e
:104cb80020449800284190000040eb000208a3001f
:104cc800b4003a000120a0008181880080ed210015
:104cd8000008eb00e00d2000000c78002840900050
:104ce8000028a3000400320040c0b300204498000c
:104cf80030c0b300a700370071da210080ed210031
:104d08008c120700e24f5000040036002840900043
:104d18000004a100204498000300370028409000b8
:104d28000004a00020449800a84090000040eb0038
:104d38000108a30097003a003050a900c61e0700da
:104d48003004980041049800e0152000010020007c
:104d58005004980061049800000e2000000c7800b0
:104d6800284090000028a3000400320040c0b3008f
:104d78002044980030c0b3008600370058019000e6
:104d8800e801900038009000c80090004d1407001a
:104d98000000e00004003200284090000004a10058
:104da8002044980003003700284090000004a00029
:104db80020449800a84090000040eb000108a300a0
:104dc80074003a00450e0700e10f500055003a0004
:104dd800300e2000000c7800284090000028a30026
:104de8000400320040c0b3002044980030c0b30033
:104df80068003700818180000128a30003003a0081
:104e08000004a10020449800020037000004a0001c
:104e180020449800284190000040eb000208a300bd
:104e28005c003a000120a0008181880080ed21000b
:104e38000008eb00400e2000000c7800284090008d
:104e48000028a3000400320040c0b30020449800aa
:104e580030c0b3004f00370041db210080ed210056
:104e680034120700e24f500004003600284090003a
:104e78000004a10020449800030037002840900057
:104e88000004a00020449800a84090000040eb00d7
:104e98000108a3003f003a003050a9006e1e070029
:104ea8003004980041049800e0152000010020001b
:104eb8005004980061049800600e2000000c7800ef
:104ec800284090000028a3000400320040c0b3002e
:104ed8002044980030c0b3002e00370058019000dd
:104ee800e801900038009000c8009000f513070012
:104ef8000000e00004003200284090000004a100f7
:104f08002044980003003700284090000004a000c7
:104f180020449800a84090000040eb000108a3003e
:104f28001c003a00284090000074a100204498001a
:104f3800900e2000000c7800284090000028a30064
:104f48000400320040c0b3002044980030c0b300d1
:104f5800100037000004e00003003d000004a10039
:104f680020449800020037000004a0002044980064
:104f7800a84090000040eb000108a300a6fb320007
:104f88000400370080c0b30020449800000ceb00f8
:104f980030c0b3004f04780000000600881f780076
:104fa80000047800284090000074a0002044980075
:104fb800180078008000eb0032082000820f5000b3
:104fc800e08f58006f033e000006010083003700a1
:104fd8006c0337006b0337006a0337006903370037
:104fe8006803370067033700660337006503370037
:104ff8006403370063033700620337006103370037
:10500800600337005f0337005e0337005d03370036
:105018005c0337005b0337005a0337005903370036
:105028005803370057033700560337005503370036
:105038005403370053033700520337005103370036
:10504800500337004f0337004e0337004d03370036
:105058004c0337004b0337004a033700680037001a
:105068004803370047033700460337004503370036
:105078004403370043033700420337004103370036
:10508800400337003f033700840037009c00370097
:105098003c033700bb0037003a03370039033700b9
:1050a8003803370037033700360337003503370036
:1050b800da003700f20037003203370011013700f9
:1050c800300337002f0337002e0337002d03370036
:1050d8002c0337002b0337002a0337002903370036
:1050e8002803370027033700260337002503370036
:1050f80030013700480137002203370067013700c5
:10510800200337001f0337001e0337001d03370035
:105118001c0337001b033700860137009e01370048
:1051280018033700bd013700160337001503370091
:105138001403370013033700120337001103370035
:10514800100337000f0337000e0337000d03370035
:105158000c033700dc013700f4013700090337007e
:10516800130237000703370006033700050337002b
:105178000403370003033700020337003202370005
:105188004a023700ff02370069023700fd02370084
:10519800fc023700fb023700fa023700f902370039
:1051a800f8023700f7023700f6023700f502370039
:1051b800870237009f023700f2023700be0237002d
:1051c800f0023700ef023700ee023700ed02370039
:1051d800ec023700eb023700d70237009e1d0700ac
:1051e8003004980041049800401f2000010020006e
:1051f800500498006104980040022000000c7800d8
:10520800284090000028a3000400320040c0b300ea
:105218002044980030c0b300de02370058019000e7
:10522800e801900038009000c8009000251307009e
:105238000000e00004003200284090000004a100b3
:105248002044980003003700284090000004a00084
:1052580020449800a84090000040eb000108a300fb
:10526800cc023a00a30d0700e10f5000c2003a003b
:1052780040062000710d0700a00d0700e10f500047
:105288005c003a007083880060838000e10f500062
:10529800b7003200f0022000000c7800284090008f
:1052a8000028a3000400320040c0b3002044980046
:1052b80030c0b300b7023700818180000128a30005
:1052c80003003a000004a1002044980002003700bf
:1052d8000004a00020449800284190000040eb0002
:1052e8000208a300ab023a000120a00081818800d7
:1052f80080ed21000008eb0000032000000c78007e
:10530800284090000028a3000400320040c0b300e9
:105318002044980030c0b3009e02370011dc210001
:1053280080ed210003110700e24f50000400360011
:10533800284090000004a100204498000300370092
:10534800284090000004a00020449800a840900045
:105358000040eb000108a3008e023a003050a9007b
:105368003d1d0700300498004104980040012000ca
:1053780001002000500498006104980020032000d8
:10538800000c7800284090000028a3000400320098
:1053980040c0b3002044980030c0b3007d023700fd
:1053a80058019000e801900038009000c800900073
:1053b800c41207000000e0000400320028409000fa
:1053c8000004a10020449800030037002840900002
:1053d8000004a00020449800a84090000040eb0082
:1053e8000108a3006b023a006e10f8006c10f90077
:1053f8005f003700430d0700e10f50005c003a00e2
:10540800200020007083880060838000e20f500035
:105418005700320090032000000c780028409000cc
:105428000028a3000400320040c0b30020449800c4
:1054380030c0b30057023700818180000128a300e3
:1054480003003a000004a10020449800020037003d
:105458000004a00020449800284190000040eb0080
:105468000208a3004b023a000120a00081818800b5
:1054780080ed21000008eb00a0032000000c78005c
:10548800284090000028a3000400320040c0b30068
:105498002044980030c0b3003e02370061dd21008f
:1054a80080ed2100a3100700e24f500004003600f1
:1054b800284090000004a100204498000300370011
:1054c800284090000004a00020449800a8409000c4
:1054d8000040eb000108a3002e023a003050a9005a
:1054e800dd1c0700300498004104980040012000aa
:1054f800010020005004980061049800c0032000b7
:10550800000c7800284090000028a3000400320016
:1055180040c0b3002044980030c0b3001d023700db
:1055280058019000e801900038009000c8009000f1
:10553800641207000000e0000400320028409000d8
:105548000004a10020449800030037002840900080
:105558000004a00020449800a84090000040eb0000
:105568000108a3000b023a006e10f8006c10f90055
:105578006a30ef00e9013700dc0c0700e10f50004a
:10558800c3003a00401f2000ac0c0700db0c0700ea
:10559800e10f50005d003a00300020007083880061
:1055a80060838000e30f5000b700320090042000b1
:1055b800000c7800284090000028a3000400320066
:1055c80040c0b3002044980030c0b300f101370058
:1055d800818180000128a30003003a000004a10093
:1055e80020449800020037000004a00020449800de
:1055f800284190000040eb000208a300e5013a00b2
:105608000120a0008181880080ed21000008eb00c6
:10561800a0042000000c7800284090000028a30077
:105628000400320040c0b3002044980030c0b300ea
:10563800d8013700c1de210080ed21003d100700b0
:10564800e24f500004003600284090000004a100fa
:105658002044980003003700284090000004a00070
:1056680020449800a84090000040eb000108a300e7
:10567800c8013a003050a900771c07003004980090
:1056880041049800400120000100200050049800c7
:1056980061049800c0042000000c780028409000a5
:1056a8000028a3000400320040c0b3002044980042
:1056b80030c0b300b701370058019000e8019000ee
:1056c80038009000c8009000fe1107000000e000bc
:1056d80004003200284090000004a10020449800f3
:1056e80003003700284090000004a00020449800e0
:1056f800a84090000040eb000108a300a5013a0073
:105708006e10f8006c10f9005f0037007d0c070080
:10571800e10f50005c003a004000200070838800d0
:1057280060838000e40f50005700320030052000ed
:10573800000c7800284090000028a30004003200e4
:1057480040c0b3002044980030c0b3009101370036
:10575800818180000128a30003003a000004a10011
:1057680020449800020037000004a000204498005c
:10577800284190000040eb000208a30085013a0090
:105788000120a0008181880080ed21000008eb0045
:1057980040052000000c7800284090000028a30055
:1057a8000400320040c0b3002044980030c0b30069
:1057b8007801370031e0210080ed2100dd0f07007e
:1057c800e24f500004003600284090000004a10079
:1057d8002044980003003700284090000004a000ef
:1057e80020449800a84090000040eb000108a30066
:1057f80068013a003050a900171c070030049800cf
:105808004104980040012000010020005004980045
:105818006104980060052000000c78002840900082
:105828000028a3000400320040c0b30020449800c0
:1058380030c0b3005701370058019000e8019000cc
:1058480038009000c80090009e1107000000e0009a
:1058580004003200284090000004a1002044980071
:1058680003003700284090000004a000204498005e
:10587800a84090000040eb000108a30045013a0051
:105888006e10f8006c10f9006a30ef002301370041
:10589800140c0700e10f5000c2003a00d20b0700b9
:1058a800160c0700e10f50005d003a005000200080
:1058b8007083880060838000e50f5000b7003200d5
:1058c80020062000000c7800284090000028a30043
:1058d8000400320040c0b3002044980030c0b30038
:1058e8002c013700818180000128a30003003a00c1
:1058f8000004a10020449800020037000004a00022
:1059080020449800284190000040eb000208a300c2
:1059180020013a000120a0008181880080ed21004b
:105928000008eb0030062000000c780028409000aa
:105938000028a3000400320040c0b30020449800af
:1059480030c0b30013013700b1e1210080ed210020
:10595800780f0700e24f50000400360028409000fe
:105968000004a1002044980003003700284090005c
:105978000004a00020449800a84090000040eb00dc
:105988000108a30003013a003050a900b21b070028
:1059980030049800410498004001200001002000d4
:1059a800500498006104980050062000000c78000c
:1059b800284090000028a3000400320040c0b30033
:1059c8002044980030c0b300f2003700580190001e
:1059d800e801900038009000c800900039110700d5
:1059e8000000e00004003200284090000004a100fc
:1059f8002044980003003700284090000004a000cd
:105a080020449800a84090000040eb000108a30043
:105a1800e0003a006e10f8006c10f9005f003700e3
:105a2800b80b0700e10f50005c003a00600020004e
:105a38007083880060838000e60f500057003200b2
:105a4800c0062000000c7800284090000028a30021
:105a58000400320040c0b3002044980030c0b300b6
:105a6800cc003700818180000128a30003003a00a0
:105a78000004a10020449800020037000004a000a0
:105a880020449800284190000040eb000208a30041
:105a9800c0003a000120a0008181880080ed21002b
:105aa8000008eb00d0062000000c78002840900089
:105ab8000028a3000400320040c0b300204498002e
:105ac80030c0b300b300370001e3210080ed2100ae
:105ad800180f0700e24f50000400360028409000dd
:105ae8000004a100204498000300370028409000db
:105af8000004a00020449800a84090000040eb005b
:105b08000108a300a3003a003050a900521b070067
:105b18003004980041049800400120000100200052
:105b28005004980061049800f0062000000c7800ea
:105b3800284090000028a3000400320040c0b300b1
:105b48002044980030c0b3009200370058019000fc
:105b5800e801900038009000c8009000d9100700b4
:105b68000000e00004003200284090000004a1007a
:105b78002044980003003700284090000004a0004b
:105b880020449800a84090000040eb000108a300c2
:105b980080003a006e10f8006c10f9006a30ef00cf
:105ba8005e0037004d0b07000000e0005b003a0084
:105bb800120b0700100020005083880040838000eb
:105bc800e10f50005500320090072000000c7800cb
:105bd800284090000028a3000400320040c0b30011
:105be8002044980030c0b3006a00370081818000eb
:105bf8000128a30003003a000004a10020449800f3
:105c0800020037000004a0002044980028419000ba
:105c18000040eb000208a3005e003a000120a0004b
:105c28008181880080ed21000008eb00a00720009a
:105c3800000c7800284090000028a30004003200df
:105c480040c0b3002044980030c0b3005100370072
:105c580061e4210080ed2100b60e0700e24f5000fc
:105c680004003600284090000004a1002044980059
:105c780003003700284090000004a000204498004a
:105c8800a84090000040eb000108a30041003a0042
:105c98003050a900f01a0700300498004104980019
:105ca8004001200001002000500498006104980081
:105cb800c0072000000c7800284090000028a300ae
:105cc8000400320040c0b3002044980030c0b30044
:105cd8003000370058019000e8019000380090002b
:105ce800c8009000771007000000e00004003200b0
:105cf800284090000004a1002044980003003700c9
:105d0800284090000004a00020449800a84090007b
:105d18000040eb000108a3001e003a006a10f800da
:105d28006810f900284090000074a10020449800f1
:105d380030082000000c7800284090000028a300bc
:105d48000400320040c0b3002044980030c0b300c3
:105d5800100037000004e00003003d000004a1002b
:105d680020449800020037000004a0002044980056
:105d7800a84090000040eb000108a30039fd320064
:105d88000400370080c0b30020449800000ceb00ea
:105d980030c0b3004f047800000006000d0b070068
:105da800c6070700401f2000c80a0700207d220000
:105db800d10e070040d22100cf0e070000000600d8
:105dc800881f780000047800284090000074a00024
:105dd80020449800180078008000eb00a2142000ee
:105de800820f5000e08f5800ae073e000006010009
:105df8004a013700ab073700aa073700a907370061
:105e0800a8073700a7073700a6073700a5073700f8
:105e1800a4073700a3073700a2073700a1073700f8
:105e2800a00737009f0737009e0737009d073700f8
:105e38009c0737009b0737009a07370099073700f8
:105e480098073700970737009607370095073700f8
:105e580094073700930737009207370091073700f8
:105e6800900737008f0737008e0737008d073700f8
:105e78008c0737008b0737008a07370089073700f8
:105e880088073700870737008607370085073700f8
:105e980084073700830737008207370081073700f8
:105ea800800737007f0737007e0737007d073700f8
:105eb8007c0737007b0737007a07370079073700f8
:105ec800780737007707370076073700180137005b
:105ed800300137004a013700640137007e0137007e
:105ee80098013700b20137006e0737006d07370099
:105ef8006c0737006b073700c7013700df01370031
:105f080068073700670737006607370065073700f7
:105f180064073700630737006207370061073700f7
:105f2800600737005f0737005e0737005d073700f7
:105f38005c0737005b0737005a07370059073700f7
:105f480058073700570737005607370055073700f7
:105f580054073700530737005207370051073700f7
:105f6800500737004f0737004e0737004d073700f7
:105f78004c0737004b0737004a07370049073700f7
:105f880048073700470737004607370045073700f7
:105f980044073700430737004207370041073700f7
:105fa80040073700fa0137003e0737001102370073
:105fb8002b023700460237003a0737005f023700e6
:105fc80038073700370737003607370075023700bc
:105fd8008d023700330737003207370031073700a3
:105fe800300737002f0737002e0737002d073700f7
:105ff8002c0737002b0737002a07370029073700f7
:1060080028073700270737002607370025073700f6
:1060180024073700230737002207370021073700f6
:10602800200737001f0737001e0737001d073700f6
:106038001c0737001b0737001a07370019073700f6
:10604800ac02370017073700c3023700dd023700fc
:10605800f80237001307370011033700110737001c
:10606800100737000f073700270337003f033700b3
:106078000c0737000b0737000a07370009073700f6
:1060880008073700070737000607370005073700f6
:1060980004073700030737000207370001073700f6
:1060a80000073700ff063700fe063700fd063700f9
:1060b800fc063700fb063700fa063700f9063700fa
:1060c800f8063700f7063700f6063700f5063700fa
:1060d800f406370060033700f2063700770337000d
:1060e80091033700ac033700ee063700c5033700cd
:1060f800ec063700eb063700ea063700db0337000b
:10610800f3033700e7063700e6063700e5063700f1
:10611800e4063700e3063700e2063700e1063700f9
:10612800e0063700df063700de063700dd063700f9
:10613800dc063700db063700da063700d9063700f9
:10614800d8063700d7063700d6063700d5063700f9
:10615800d4063700d3063700d2063700d1063700f9
:10616800d0063700cf06370014043700cd063700b5
:106178002b0437004504370060043700c906370090
:1061880079043700c7063700c6063700c50637004a
:106198008f043700a7043700c2063700c10637004e
:1061a800c0063700bf063700be063700bd063700f9
:1061b800bc063700bb063700ba063700b9063700f9
:1061c800b8063700b7063700b6063700b5063700f9
:1061d800b4063700b3063700b2063700b1063700f9
:1061e800b0063700af063700ae063700ad063700f9
:1061f800ac063700ab063700aa063700c8043700dc
:10620800a8063700df043700f90437001405370003
:10621800a40637002d053700a2063700a10637006f
:10622800a0063700430537005b0537009d06370099
:106238009c0637009b0637009a06370099063700f8
:1062480098063700970637009606370095063700f8
:1062580094063700930637009206370091063700f8
:10626800900637008f0637008e0637008d063700f8
:106278008c0637008b0637008a06370089063700f8
:1062880088063700870637008606370085063700f8
:106298007c0537008306370093053700ad053700c6
:1062a800c80537007f063700e10537007d0637004f
:1062b8007c0637007b063700f70537000f063700e6
:1062c80078063700770637007606370075063700f8
:1062d80074063700730637007206370071063700f8
:1062e800700637006f0637006e0637006d063700f8
:1062f8006c0637006b0637006a06370069063700f8
:1063080068063700670637006606370065063700f7
:10631800640637003106370049063700b08380002d
:106328000000e00016013a0070032000000c78001d
:10633800284090000028a3000400320040c0b300a9
:106348002044980030c0b3005a063700818180008d
:106358000128a30003003a000004a100204498008b
:10636800020037000004a000204498002841900053
:106378000040eb000208a3004e063a000120a000ee
:106388008181880080ed21000008eb008003200057
:10639800000c7800284090000028a3000400320078
:1063a80040c0b3002044980030c0b3004106370015
:1063b80061bb210080ed2100de0c0700e24f500098
:1063c80004003600284090000004a10020449800f2
:1063d80003003700284090000004a00020449800e3
:1063e800a84090000040eb000108a30031063a00e5
:1063f80080ed21000008eb0090032000000c7800dd
:10640800284090000028a3000400320040c0b300d8
:106418002044980030c0b30026063700f1bc2100a4
:1064280080ed2100c30c0700e24f50000400360045
:10643800284090000004a100204498000300370081
:10644800284090000004a00020449800a840900034
:106458000040eb000108a30016063a0080ed210079
:106468000008eb00a0032000000c780028409000f2
:106478000028a3000400320040c0b3002044980064
:1064880030c0b3000b06370081be210080ed21002b
:10649800a80c0700e24f5000040036002840900086
:1064a8000004a10020449800030037002840900011
:1064b8000004a00020449800a84090000040eb0091
:1064c8000108a300fb053a0080ed21000008eb005d
:1064d800b0032000000c7800284090000028a3009a
:1064e8000400320040c0b3002044980030c0b3001c
:1064f800f005370011c0210080ed21008d0c070048
:10650800e24f500004003600284090000004a1002b
:106518002044980003003700284090000004a000a1
:1065280020449800a84090000040eb000108a30018
:10653800e0053a0080ed21000008eb00c0032000d0
:10654800000c7800284090000028a30004003200c6
:1065580040c0b3002044980030c0b300d5053700d0
:10656800e1c1210080ed2100720c0700e24f5000cc
:1065780004003600284090000004a1002044980040
:1065880003003700284090000004a0002044980031
:10659800a84090000040eb000108a300c5053a00a0
:1065a80080ed21000008eb00d0032000000c7800eb
:1065b800284090000028a3000400320040c0b30027
:1065c8002044980030c0b300ba053700d1c3210079
:1065d80080ed2100570c0700e24f50000400360000
:1065e800284090000004a1002044980003003700d0
:1065f800284090000004a00020449800a840900083
:106608000040eb000108a300aa053a003050a90099
:1066180020042000000c7800284090000028a300e7
:106628000400320040c0b3002044980030c0b300da
:10663800a0053700818180000138a30003003a00db
:106648000004a10020449800020037000004a000c4
:1066580020449800284190000040eb000208a30065
:1066680094053a000130a00081818800a0ee210045
:106678000008eb0030042000000c7800284090004f
:106688000028a3000400320040c0b3002044980052
:1066980030c0b3008705370012c0b300810721005e
:1066a800a0ee2100970b0700e24f500004003600cf
:1066b800284090000004a1002044980003003700ff
:1066c800284090000004a00020449800a8409000b2
:1066d8000040eb000108a30076053a003070a900dd
:1066e80078d0bf0031c3b300814f5000160032008c
:1066f80007003e0081c0e900814f50000c003200c5
:106708008140e800814f50001b003a000b00370021
:1067180051c3b300814f5000110032000d00390001
:106728008140e800814f500013003a000f00370005
:1067380020002000b08388002605370030002000a4
:10674800b08388002305370040002000b08388000c
:106758002005370050002000b08388001d05370051
:1067680060002000b08388001a0537007000200000
:10677800b0838800170537007630ef00150537001d
:10678800e20f5000d7003a00d0062000000c780035
:10679800284090000028a3000400320040c0b30045
:1067a8002044980030c0b300420537008181800042
:1067b8000128a30003003a000004a1002044980027
:1067c800020037000004a0002044980028419000ef
:1067d8000040eb000208a30036053a000120a000a3
:1067e8008181880080ed21000008eb00f006200080
:1067f800000c7800284090000028a3000400320014
:1068080040c0b3002044980030c0b30029053700c9
:10681800a1c5210080ed2100c60b0700e24f500002
:1068280004003600284090000004a100204498008d
:1068380003003700284090000004a000204498007e
:10684800a84090000040eb000108a30019053a0099
:1068580080ed21000008eb0000072000000c780004
:10686800284090000028a3000400320040c0b30074
:106878002044980030c0b3000e05370032838000f2
:106888008001eb0080ed2100650a0700e24f50000f
:1068980004003600284090000004a100204498001d
:1068a80003003700284090000004a000204498000e
:1068b800a84090000040eb000108a300fd043a0046
:1068c80080ed21000008eb0010072000000c780084
:1068d800284090000028a3000400320040c0b30004
:1068e8002044980030c0b300f2043700a1c0b300c0
:1068f80080ed210049090700e24f500004003600ee
:10690800284090000004a1002044980003003700ac
:10691800284090000004a00020449800a84090005f
:106928000040eb000108a300e2043a0080ed2100da
:106938000008eb0030072000000c78002840900089
:106948000028a3000400320040c0b300204498008f
:1069580030c0b300d704370011c7210080ed2100f3
:10696800740b0700e24f50000400360028409000e6
:106978000004a1002044980003003700284090003c
:106988000004a00020449800a84090000040eb00bc
:106998000108a300c7043a003050a900700720007e
:1069a800000c7800284090000028a3000400320062
:1069b80040c0b3002044980030c0b300bd04370085
:1069c800818180000138a30003003a000004a1007f
:1069d80020449800020037000004a00020449800da
:1069e800284190000040eb000208a300b1043a00df
:1069f8000130a00081818800a0ee21000008eb0092
:106a080080072000000c7800284090000028a30090
:106a18000400320040c0b3002044980030c0b300e6
:106a2800a404370012c0b30081072100a0ee2100a2
:106a3800b40a0700e24f50000400360028409000d6
:106a48000004a1002044980003003700284090006b
:106a58000004a00020449800a84090000040eb00eb
:106a68000108a30093043a003070a90078d0bf0051
:106a780021c3b300814f50000e0032008140e8006e
:106a8800814f50001300320081c0e900814f50004f
:106a980012003a0030838000d2cc2c000201b800ea
:106aa800c318de000080400030838800f706070026
:106ab8004804370030838000f2a22b000201b8009e
:106ac800c318de000100500030838800ef0607007d
:106ad800400437007630ef003e0437007630ef0090
:106ae8003c043700e30f5000d7003a00400920006b
:106af800000c7800284090000028a3000400320011
:106b080040c0b3002044980030c0b3006904370087
:106b1800818180000128a30003003a000004a1003d
:106b280020449800020037000004a0002044980088
:106b3800284190000040eb000208a3005d043a00e1
:106b48000120a0008181880080ed21000008eb0071
:106b580060092000000c7800284090000028a3005d
:106b68000400320040c0b3002044980030c0b30095
:106b78005004370051cc210080ed2100ed0a0700b8
:106b8800e24f500004003600284090000004a100a5
:106b98002044980003003700284090000004a0001b
:106ba80020449800a84090000040eb000108a30092
:106bb80040043a0080ed21000008eb007009200035
:106bc800000c7800284090000028a3000400320040
:106bd80040c0b3002044980030c0b30035043700eb
:106be800228380008001eb0080ed21008c090700e2
:106bf800e24f500004003600284090000004a10035
:106c08002044980003003700284090000004a000aa
:106c180020449800a84090000040eb000108a30021
:106c280024043a0080ed21000008eb0080092000d0
:106c3800000c7800284090000028a30004003200cf
:106c480040c0b3002044980030c0b3001904370096
:106c5800a1c0b30080ed210070080700e24f50008a
:106c680004003600284090000004a1002044980049
:106c780003003700284090000004a000204498003a
:106c8800a84090000040eb000108a30009043a0066
:106c980080ed21000008eb00a0092000000c78001e
:106ca800284090000028a3000400320040c0b30030
:106cb8002044980030c0b300fe03370011c72100fc
:106cc80080ed21009b0a0700e24f500004003600c7
:106cd800284090000004a1002044980003003700d9
:106ce800284090000004a00020449800a84090008c
:106cf8000040eb000108a300ee033a003050a90061
:106d0800e0092000000c7800284090000028a3002b
:106d18000400320040c0b3002044980030c0b300e3
:106d2800e4033700818180000138a30003003a00a2
:106d38000004a10020449800020037000004a000cd
:106d480020449800284190000040eb000208a3006e
:106d5800d8033a000130a00081818800a0ee21000c
:106d68000008eb00f0092000000c78002840900093
:106d78000028a3000400320040c0b300204498005b
:106d880030c0b300cb03370012c0b3008107210025
:106d9800a0ee2100db090700e24f50000400360096
:106da800284090000004a100204498000300370008
:106db800284090000004a00020449800a8409000bb
:106dc8000040eb000108a300ba033a003070a900a4
:106dd80078d0bf0021c3b300814f50000e003200ad
:106de8008140e800814f50001300320081c0e90063
:106df800814f500012003a0020838000d2cc2c0032
:106e08000201b800c318de0000804000208388001b
:106e18002e0607006f03370020838000f2a22b00a4
:106e28000201b800c318de0001005000208388006a
:106e380026060700670337007630ef006503370042
:106e48007630ef0063033700e40f5000d7003a00b4
:106e5800900b2000000c7800284090000028a30028
:106e68000400320040c0b3002044980030c0b30092
:106e780090033700818180000128a30003003a00b5
:106e88000004a10020449800020037000004a0007c
:106e980020449800284190000040eb000208a3001d
:106ea80084033a000120a0008181880080ed210040
:106eb8000008eb00b00b2000000c78002840900080
:106ec8000028a3000400320040c0b300204498000a
:106ed80030c0b30077033700c1cd210080ed210019
:106ee800140a0700e24f50000400360028409000c2
:106ef8000004a100204498000300370028409000b7
:106f08000004a00020449800a84090000040eb0036
:106f18000108a30067033a0080ed21000008eb0098
:106f2800c00b2000000c7800284090000028a30027
:106f38000400320040c0b3002044980030c0b300c1
:106f48005c033700128380008001eb0080ed210094
:106f5800b3080700e24f50000400360028409000b4
:106f68000004a10020449800030037002840900046
:106f78000004a00020449800a84090000040eb00c6
:106f88000108a3004b033a0080ed21000008eb0044
:106f9800d00b2000000c7800284090000028a300a7
:106fa8000400320040c0b3002044980030c0b30051
:106fb80040033700a1c0b30080ed21009707070008
:106fc800e24f500004003600284090000004a10061
:106fd8002044980003003700284090000004a000d7
:106fe80020449800a84090000040eb000108a3004e
:106ff80030033a0080ed21000008eb00f00b200080
:10700800000c7800284090000028a30004003200fb
:1070180040c0b3002044980030c0b30025033700b7
:1070280011c7210080ed2100c2090700e24f50007e
:1070380004003600284090000004a1002044980075
:1070480003003700284090000004a0002044980066
:10705800a84090000040eb000108a30015033a0087
:107068003050a900300c2000000c78002840900017
:107078000028a3000400320040c0b3002044980058
:1070880030c0b3000b033700818180000138a300b2
:1070980003003a000004a1002044980002003700d1
:1070a8000004a00020449800284190000040eb0014
:1070b8000208a300ff023a000130a0008181880085
:1070c800a0ee21000008eb00400c2000000c780026
:1070d800284090000028a3000400320040c0b300fc
:1070e8002044980030c0b300f202370012c0b30049
:1070f80081072100a0ee210002090700e24f50009d
:1071080004003600284090000004a10020449800a4
:1071180003003700284090000004a0002044980095
:10712800a84090000040eb000108a300e1023a00eb
:107138003070a90078d0bf0021c3b300814f500040
:107148000e0032008140e800814f500013003200e9
:1071580081c0e900814f500012003a00108380007e
:10716800d2cc2c000201b800c318de000080400019
:107178001083880065050700960237001083800099
:10718800f2a22b000201b800c318de000100500073
:10719800108388005d0507008e0237007630ef0007
:1071a8008c0237007630ef008a023700e50f500076
:1071b800d7003a00e00d2000000c7800284090002d
:1071c8000028a3000400320040c0b3002044980007
:1071d80030c0b300b7023700818180000128a300c6
:1071e80003003a000004a100204498000200370080
:1071f8000004a00020449800284190000040eb00c3
:107208000208a300ab023a000120a0008181880097
:1072180080ed21000008eb00000e2000000c780033
:10722800284090000028a3000400320040c0b300aa
:107238002044980030c0b3009e02370031cf2100af
:1072480080ed21003b090700e24f500004003600a2
:10725800284090000004a100204498000300370053
:10726800284090000004a00020449800a840900006
:107278000040eb000108a3008e023a0080ed2100d7
:107288000008eb00100e2000000c78002840900049
:107298000028a3000400320040c0b3002044980036
:1072a80030c0b30083023700028380008001eb0006
:1072b80080ed2100da070700e24f50000400360095
:1072c800284090000004a1002044980003003700e3
:1072d800284090000004a00020449800a840900096
:1072e8000040eb000108a30072023a0080ed210083
:1072f8000008eb00200e2000000c780028409000c9
:107308000028a3000400320040c0b30020449800c5
:1073180030c0b30067023700a1c0b30080ed210080
:10732800be060700e24f50000400360028409000d7
:107338000004a10020449800030037002840900072
:107348000004a00020449800a84090000040eb00f2
:107358000108a30057023a0080ed21000008eb0065
:10736800400e2000000c7800284090000028a30060
:107378000400320040c0b3002044980030c0b3007d
:107388004c02370011c7210080ed2100e9080700f1
:10739800e24f500004003600284090000004a1008d
:1073a8002044980003003700284090000004a00003
:1073b80020449800a84090000040eb000108a3007a
:1073c8003c023a003050a900800e2000000c7800e2
:1073d800284090000028a3000400320040c0b300f9
:1073e8002044980030c0b300320237008181800009
:1073f8000138a30003003a000004a10020449800cb
:10740800020037000004a0002044980028419000a2
:107418000040eb000208a30026023a000130a00059
:1074280081818800a0ee21000008eb00900e20006a
:10743800000c7800284090000028a30004003200c7
:1074480040c0b3002044980030c0b3001902370090
:1074580012c0b30081072100a0ee2100290807000f
:10746800e24f500004003600284090000004a100bc
:107478002044980003003700284090000004a00032
:1074880020449800a84090000040eb000108a300a9
:1074980008023a003070a90078d0bf0021c3b300b9
:1074a800814f50000e0032008140e800814f5000ab
:1074b8001300320081c0e900814f500012003a00e9
:1074c80000838000d2cc2c000201b800c318de0073
:1074d80000804000008388000e050700bd013700ca
:1074e80000838000f2a22b000201b800c318de005e
:1074f800010050000083880006050700b501370029
:107508007630ef00b30137007630ef00b101370075
:10751800e60f5000d7003a0030102000000c780029
:10752800284090000028a3000400320040c0b300a7
:107538002044980030c0b300de013700818180000c
:107548000128a30003003a000004a1002044980089
:10755800020037000004a000204498002841900051
:107568000040eb000208a300d2013a000120a0006d
:107578008181880080ed21000008eb005010200078
:10758800000c7800284090000028a3000400320076
:1075980040c0b3002044980030c0b300c501370094
:1075a800c1d0210080ed210062080700e24f5000a1
:1075b80004003600284090000004a10020449800f0
:1075c80003003700284090000004a00020449800e1
:1075d800a84090000040eb000108a300b5013a0064
:1075e80080ed21000008eb0060102000000c7800fe
:1075f800284090000028a3000400320040c0b300d7
:107608002044980030c0b300aa013700f2828000fd
:107618008001eb0080ed210001070700e24f5000d8
:1076280004003600284090000004a100204498007f
:1076380003003700284090000004a0002044980070
:10764800a84090000040eb000108a30099013a000f
:1076580080ed21000008eb0070102000000c78007d
:10766800284090000028a3000400320040c0b30066
:107678002044980030c0b3008e013700a1c0b30089
:1076880080ed2100e5050700e24f500004003600b8
:10769800284090000004a10020449800030037000f
:1076a800284090000004a00020449800a8409000c2
:1076b8000040eb000108a3007e013a0080ed2100a4
:1076c8000008eb0090102000000c78002840900083
:1076d8000028a3000400320040c0b30020449800f2
:1076e80030c0b3007301370011c7210080ed2100bd
:1076f80010080700e24f50000400360028409000b0
:107708000004a1002044980003003700284090009e
:107718000004a00020449800a84090000040eb001e
:107728000108a30063013a003050a900d0102000de
:10773800000c7800284090000028a30004003200c4
:1077480040c0b3002044980030c0b300590137004e
:10775800818180000138a30003003a000004a100e1
:1077680020449800020037000004a000204498003c
:10777800284190000040eb000208a3004d013a00a8
:107788000130a00081818800a0ee21000008eb00f4
:10779800e0102000000c7800284090000028a3008a
:1077a8000400320040c0b3002044980030c0b30049
:1077b8004001370012c0b30081072100a0ee21006c
:1077c80050070700e24f50000400360028409000a0
:1077d8000004a100204498000300370028409000ce
:1077e8000004a00020449800a84090000040eb004e
:1077f8000108a3002f013a003070a90078d0bf001b
:1078080021c3b300814f50000e0032008140e800d0
:10781800814f50001300320081c0e900814f5000b1
:1078280012003a00f0828000d2cc2c000201b8008d
:10783800c318de0000804000f08288003904070089
:10784800e4003700f0828000f2a22b000201b800a9
:10785800c318de0001005000f082880031040700e0
:10786800dc0037007630ef00da0037007630ef00c2
:10787800d8003700e70f5000d6003a0080122000e9
:10788800000c7800284090000028a3000400320073
:1078980040c0b3002044980030c0b3000501370051
:1078a800818180000128a30003003a000004a100a0
:1078b80020449800020037000004a00020449800eb
:1078c800284190000040eb000208a300f9003a00ac
:1078d8000120a0008181880080ed21000008eb00d4
:1078e800a0122000000c7800284090000028a30077
:1078f8000400320040c0b3002044980030c0b300f8
:10790800ec00370041d2210080ed210089070700f3
:10791800e24f500004003600284090000004a10007
:107928002044980003003700284090000004a0007d
:1079380020449800a84090000040eb000108a300f4
:10794800dc003a0080ed21000008eb00b0122000b6
:10795800000c7800284090000028a30004003200a2
:1079680040c0b3002044980030c0b300d1003700b5
:10797800e28280008001eb0080ed210028060700ec
