:020000040000fa
:080000000013040000000000e1
:020000040000fa
:1000080002100000061000000a1000000e10000088
:1000180012100000161000001a1000001e10000038
:1000280022100000261000002a1000002e100000e8
:1000380032100000361000003a1000003e10000098
:1000480042100000461000004a1000004e10000048
:1000580052100000561000005a1000005e100000f8
:1000680062100000661000006a1000006e100000a8
:1000780072100000761000007a1000007e10000058
:1000880082100000861000008a1000008e10000008
:1000980092100000961000009a1000009e100000b8
:1000a800a2100000a6100000aa100000ae10000068
:1000b800b2100000b6100000ba100000be10000018
:1000c800c2100000c6100000ca100000ce100000c8
:1000d800d2100000d6100000da100000de10000078
:1000e800e2100000e6100000ea100000ee10000028
:1000f800f2100000f6100000fa100000fe100000d8
:1001080002110000061100000a1100000e11000083
:1001180012110000161100001a1100001e11000033
:1001280022110000261100002a1100002e110000e3
:1001380032110000361100003a1100003e11000093
:1001480042110000461100004a1100004e11000043
:1001580052110000561100005a1100005e110000f3
:1001680062110000661100006a1100006e110000a3
:1001780072110000761100007a1100007e11000053
:1001880082110000861100008a1100008e11000003
:1001980092110000961100009a1100009e110000b3
:1001a800a2110000a6110000aa110000ae11000063
:1001b800b2110000b6110000ba110000be11000013
:1001c800c2110000c6110000ca110000ce110000c3
:1001d800d2110000d6110000da110000de11000073
:1001e800e2110000e6110000ea110000ee11000023
:1001f800f2110000f6110000fa110000fe110000d3
:1002080002120000061200000a1200000e1200007e
:1002180012120000161200001a1200001e1200002e
:1002280022120000261200002a1200002e120000de
:1002380032120000361200003a1200003e1200008e
:1002480042120000461200004a1200004e1200003e
:1002580052120000561200005a1200005e120000ee
:020000040000fa
:10200000020000002214040000000000221404005a
:10201000000000002214040000000000221404004c
:10202000000000002214040000000000221404003c
:10203000000000002214040000000000221404002c
:10204000000000002214040000000000221404001c
:1020500000000000221404000000000036160400f6
:1020600000000000221404000000000022140400fc
:1020700000000000221404000000000022140400ec
:1020800000000000221404000000000022140400dc
:1020900000000000221404000000000014160400d8
:1020a00000000000e81504000000000022140400f5
:1020b00000000000221404000000000022140400ac
:1020c000000000002214040000000000221404009c
:1020d000000000002214040000000000221404008c
:1020e000000000002214040000000000221404007c
:1020f000000000002214040000000000221404006c
:10210000000000002214040000000000221404005b
:10211000000000002214040000000000221404004b
:10212000000000002214040000000000221404003b
:10213000000000002214040000000000221404002b
:10214000000000002214040000000000221404001b
:10215000000000002214040000000000221404000b
:1021600000000000221404000000000022140400fb
:1021700000000000221404000000000022140400eb
:1021800000000000221404000000000022140400db
:1021900000000000221404000000000022140400cb
:1021a00000000000221404000000000022140400bb
:1021b00000000000221404000000000022140400ab
:1021c000000000002214040000000000221404009b
:1021d000000000002214040000000000221404008b
:1021e000000000002214040000000000221404007b
:1021f000000000002214040000000000221404006b
:10220000000000002214040000000000221404005a
:10221000000000002214040000000000221404004a
:10222000000000002214040000000000221404003a
:10223000000000002214040000000000221404002a
:10224000000000002214040000000000221404001a
:10225000000000002214040000000000221404000a
:1022600000000000221404000000000022140400fa
:1022700000000000221404000000000022140400ea
:1022800000000000221404000000000022140400da
:1022900000000000221404000000000022140400ca
:1022a00000000000221404000000000022140400ba
:1022b00000000000221404000000000022140400aa
:1022c000000000002214040000000000221404009a
:1022d000000000002214040000000000221404008a
:1022e000000000002214040000000000221404007a
:1022f000000000002214040000000000221404006a
:102300000000000022140400000000002214040059
:102310000000000022140400000000002214040049
:102320000000000022140400000000002214040039
:102330000000000022140400000000002214040029
:102340000000000022140400000000002214040019
:102350000000000022140400000000002214040009
:1023600000000000221404000000000022140400f9
:1023700000000000221404000000000022140400e9
:1023800000000000221404000000000022140400d9
:1023900000000000221404000000000022140400c9
:1023a00000000000221404000000000022140400b9
:1023b00000000000221404000000000022140400a9
:1023c0000000000022140400000000002214040099
:1023d0000000000022140400000000002214040089
:1023e0000000000022140400000000002214040079
:1023f0000000000022140400000000002214040069
:102400000000000022140400000000002214040058
:102410000000000022140400000000002214040048
:102420000000000022140400000000002214040038
:1024300000000000221404000000000050140400fa
:102440000000000022140400000000002214040018
:102450000000000022140400000000002214040008
:1024600000000000221404000000000022140400f8
:10247000000000002214040000000000d814040032
:1024800000000000221404000000000022140400d8
:102490000000000022140400000000006015040089
:1024a00000000000221404000000000022140400b8
:1024b00000000000221404000000000022140400a8
:0424c0000000000018
:020000040000fa
:102600000ff721000eff27000e01880000000000d8
:10261000000020000000e000020032000001200065
:102620002002880014000700180207000000e000e4
:1026300003003a00e01f25000100200002003700df
:102640000000200001002000810f70000100320016
:102650000f000700000020000000e0000200320030
:102660000000020000000000a24402000000000080
:102670000040da000000fe00006d20000000e000d5
:1026800002003200002020009001880000000600b7
:10269000a1028800800478000000eb001f003700d2
:1026a000e284440054a0b4009905ba00e2844400d6
:1026b00054a0b4009906ba00e284440054a0b400c7
:1026c0000006eb00476fde00fd07b200ae01880098
:1026d000636ce10003003a000ad801000000eb003f
:1026e0000e003700606ce10008003a00004deb007e
:1026f0000a05e800020039003420ec000af0a000ce
:102700008b05e900f9ff3e00040037006168e10035
:10271000010032000086eb000b00070019c7ba0069
:102720000e04e0001905ba0003003a000a00e000b8
:10273000dbff3a0000000600fe07b200ae02880090
:102740008a047800f5ff37000cd0a300e20f4d009b
:102750001c00390089027800354dba000a05e800ee
:10276000020039003420ec000af0a0008b05e900db
:102770000f003200254dba000a05e80002003900ba
:102780003420ec000af0a0008b05e90008003200bc
:102790000c00e0000600320015cdba000a05e80082
:1027a000020039003420ec000af0a0008b05e9009b
:1027b0008984e80054a0b4000b00e000e2ff3a0076
:1027c000000006009902ba00055d78008b05e9005b
:1027d000f7ff3200c82ade00055d78008b05e900ae
:1027e000f3ff32000c00e000f1ff320019ddba0007
:1027f000eeff3700cc4a0400000000007a480400d5
:10280000000000008a22040000000000643504007b
:10281000000000000032040000000000ac3404009e
:1028200000000000f4330400000000003c3304000a
:1028300000000000341a0400000000000000040042
:10284000000000003600f800809fbe00829fbe009e
:10285000849fbe00869fbe003200f8003400f8005e
:1028600010002000a00188000020200000d0fe0001
:10287000c808f8006e10f900a0bb2900c71c0700ab
:102880003400f9003200f9004f03be004f02be00d1
:102890004f01be004f00be003600f90000400600a8
:1028a0003600f800809fbe00829fbe00849fbe005d
:1028b000869fbe00322eab0036003a00e0e82100d1
:1028c0000008eb0092e1ab0013003a00f00c80002e
:1028d000b20c80008000eb00c000dd000000200092
:1028e0008001eb000200700083807000929e2e0039
:1028f000030020006601070082f480008001eb00e5
:10290000820f5000838f58002200310010002000f9
:1029100070f488001f0037009ae1a800d00c8000f6
:102920000008b200910c80000170a10081007000cd
:10293000910c880080ff2f009821b600c10c800008
:10294000e7806000830c800003016000028170005a
:10295000820c8800c20c8000820060000100a00090
:10296000c10c8800c10c8000e78060009001b600b7
:1029700000807000800c88009ae1a900d00c8000d3
:102980000008b200910c80000170a100810070006d
:10299000910c88000fe8a9004f03be004f02be0053
:1029a0004f01be004f00be003600f9000040060097
:1029b0003600f800809fbe00829fbe00849fbe004c
:1029c000869fbe00324eab0036003a0040e921003f
:1029d0000008eb00a2e1ab0013003a00700d80008c
:1029e000320d80008000eb00c000dd000000200000
:1029f0008001eb000200700083807000929e2e0028
:102a00000300200022010700b2f480008001eb00e7
:102a1000820f5000838f58002200310010002000e8
:102a2000a0f488001f003700aae1a800500d800024
:102a30000008b200110d80000170a100810070003b
:102a4000110d880080ff2f00a821b600410d8000e5
:102a5000e7806000030d80000301600002817000c8
:102a6000020d8800420d8000820060000100a0007d
:102a7000410d8800410d8000e7806000a001b60094
:102a800000807000000d8800aae1a900500d8000b0
:102a90000008b200110d80000170a10081007000db
:102aa000110d880010e8a9004f03be004f02be00c0
:102ab0004f01be004f00be003600f9000040060086
:102ac0003600f800809fbe00829fbe00849fbe003b
:102ad000869fbe00326eab0036003a00a0e92100ae
:102ae0000008eb00b2e1ab0013003a00f00d8000eb
:102af000b20d80008000eb00c000dd00000020006f
:102b00008001eb000200700083807000929e2e0016
:102b100003002000de000700e2f480008001eb00eb
:102b2000820f5000838f58002200310010002000d7
:102b3000d0f488001f003700bae1a800d00d800053
:102b40000008b200910d80000170a10081007000aa
:102b5000910d880080ff2f00b821b600c10d8000c4
:102b6000e7806000830d8000030160000281700037
:102b7000820d8800c20d8000820060000100a0006c
:102b8000c10d8800c10d8000e7806000b001b60073
:102b900000807000800d8800bae1a900d00d80008f
:102ba0000008b200910d80000170a100810070004a
:102bb000910d88001168a9004f03be004f02be00ae
:102bc0004f01be004f00be003600f9000040060075
:102bd000809fbe0000002100900090002000900027
:102be000808f500002003a002188a9000c003700b5
:102bf0000430ec00000420000410e30001003a005f
:102c00000430ef000188a900000021009000780046
:102c100020009000008040001080fb002011880000
:102c20004f00be0000400600809fbe00821f78005b
:102c30000168a900311180000a30ec000004200076
:102c40000a10e30001003a000a30ef008000210082
:102c50001001780010009000000041000148780049
:102c60004f0178004f00be00004006003600f8001b
:102c7000809fbe00829fbe00849fbe00869fbe00d4
:102c8000e0828000f182800061004000e080480026
:102c9000e0828800f18288000068a90064160700bd
:102ca0004f03be004f02be004f01be004f00be00ea
:102cb0003600f900004006000a00fa00110020006a
:102cc000b1bf9f00c0bf9f006a8057009d020700f0
:102cd0004fb897000080fa00000006000a00fa00d2
:102ce000e20f500034003e0020f88000e10f500059
:102cf00003003200e20f500011003a000c003700d0
:102d0000032220000300e00001003a000040da0046
:102d10002002e200020035002822ef0021e2a80094
:102d20002342ab000d003a002342a8000b003700fd
:102d3000032320000300e00001003a000040da0015
:102d40003002e200020035003822ef0031e2a80034
:102d50003342ab0001003a003342a8008201780000
:102d60000b0037003102fb00e10f500004003a0075
:102d70002322ab00feff3a00241188000300370035
:102d80003322ab00feff3a00a41188008301e90062
:102d90000300e000f3ff3a00e10f500003003a00a7
:102da0002302ab00feff32000b0037003302ab0002
:102db000feff32000800370033002000b3bf9f0041
:102dc000c0bf9f00d1bf9f00e2bf9f006a80570035
:102dd0005e0207006fb99700020078000080fa00d9
:102de000000006000a00fa0051002000b1bf9f0059
:102df000c0bf9f006a805700560207005fb8970067
:102e00000080fa0000000600889fbe008004780061
:102e100050f880000000e00004003a000e000700b7
:102e20000084eb000000e0000800350058f8800046
:102e30000900e00005003200090044000600070018
:102e40000000e00001003d000084eb000800780075
:102e50004f04be0000000600800078000100e00082
:102e600003003a00c0f0210050f88800000005007f
:102e70000080eb0002f72100828f500002003e002c
:102e800051f888000000eb0000000600000005007b
:102e90006022b800060220000000d0008180d2002d
:102ea0000482d2008582d2000000a00002025200fb
:102eb00083825a00030031000202420083824a00ea
:102ec0000000a1000603e900f3ff3a00000006003d
:102ed000c1e221006b000700800078000080eb0059
:102ee0000100e00004003500c1e22100a000200044
:102ef000020007004f80de0000000600889fbe0031
:102f00008a1f78000004be00c9009000690090008c
:102f1000808f50000600390009007800b8000700d3
:102f2000800078000080eb000100e0001700350011
:102f3000084578004900900008587800c0049800bf
:102f40001900780000b8a30004003a0000a8a3000c
:102f500008003200ea4f540006003a0009007800e9
:102f60000d000700800078000080eb000100e00009
:102f700006003a0000c02000190060000200320084
:102f800049009000e00498000a80fb004f0578009b
:102f90004f04be0000000600889fbe008a1f780014
:102fa000000478000800e0000d003a00a8e72100c6
:102fb000700544008004eb00580078000000e00039
:102fc00004003200f4ff07000000e00001003d00b3
:102fd0008084eb008a0f5400f7ff3a002500370089
:102fe00000002200180060008004eb002100320085
:102ff000a80490000f0037000901510038409000ec
:103000000000fb008900780034ff07000000e000aa
:1030100007003c00280090004004980060049800dd
:10302000500c98001890a0008084eb00110037002d
:103030008084440048019000828f5400eeff3900e4
:1030400028009000400498009800780002c02000fa
:103050000281600001003a003800900001e8a300fe
:10306000020032006004980001003700500c980004
:103070008004eb00090078004f0578004f04be0083
:1030800000000600889fbe008a9fbe008004780072
:10309000010478002c003700c80090006800900000
:1030a000808f5000040039000800780054000700a9
:1030b0000000e000370035000040200018006000ec
:1030c00009003200a100200009007800420007003a
:1030d000800578000b00e0000300320061851400d9
:1030e0000a85450004003700090078003400070015
:1030f000000578008005eb0048009000e800900093
:10310000808050008a8f5000020031000105780055
:103110008005eb000a017800890078002100070093
:10312000480090000a004000400498000b00e000b6
:10313000040032000800780097ff07000000e0005c
:1031400014003a008a8444001904e000d2ff3a00d7
:10315000008020001800600006003200080078009f
:103160008dff0700800078000080eb000100e00088
:1031700009003a0001c02000988060000000eb00c8
:103180000500320048009000600498000000eb0049
:10319000010037000080eb004f05be004f04be0069
:1031a000000006008001780002003700b159780065
:1031b0000201e9000200e000fcff3a000000060006
:1031c00080007800010178003104e000fdff3a0042
:1031d00000005100000006000001eb000002780032
:1031e000b041780081cf510001003a00040178001d
:1031f0000304e000f9ff3a00020078000000060036
:10320000889fbe008a1f780000047800c8009000e4
:10321000680190000000eb00828f50003c003900f4
:10322000180078002200290002016000e20f51001e
:1032300007003200012020000000e00001003500fe
:1032400001202400008c70000080eb00300037006b
:103250000200260002006000820f500009003a00c0
:1032600038009000808f5000060039000800780078
:1032700049ff0700800078000080eb000100e000bb
:1032800023003a001805780000c020000000650007
:1032900018003a00a80490006002200008004000d6
:1032a000808f540013003a0000202000f100070036
:1032b000200498000000e00005003a00290498006e
:1032c000490498008904e800390498000800370090
:1032d0000a60a0000a0c7800400498000120200039
:1032e0008080400031049800400c9800500c9800f9
:1032f0000c0007002800900050049800380090004f
:103300006004980000002600180c70000000eb001c
:103310004f0578004f04be000000060040a32100c6
:1033200062003700881f780068f021001804e00070
:1033300003003a00f9ff070020c0b300004c7800fa
:103340004f04780000000600889fbe00000478004b
:103350000800780010ff07008004780000042000b7
:103360001800600002003200280090005c00070096
:103370000000eb0020049800384090000004e000ba
:10338000050035000000fb004bfe07000000e000d8
:10339000010032008084eb00181090000000e00073
:1033a000080032008ffe07000000e000010032003c
:1033b0008084eb0018109000490007000000eb002b
:1033c000101498000008200018006000150032005a
:1033d0000001eb006000b8000202d000c3e721004a
:1033e00003024200940f140005003a000000400060
:1033f00081804800008041000008eb000600370093
:1034000061004000e08048000201e800e80f500041
:10341000e08f5800f0ff3a00080078003000070005
:103420000e003700000c780000c0eb00304498001c
:10343000600220000800400020049800400498002a
:1034400050049800400c980060049800500c9800bc
:103450007004980076004400000c98000900780081
:103460004f04be0000000600881f78000004eb0037
:103470006140b800e2ff2f00f3ff2f00b700070004
:10348000a2e8210080004100110078000000e00067
:1034900001003200acff07000804e800e80f540008
:1034a000f3ff3a004f0478000000060001002000fe
:1034b0000100e00009003200010080000100e0008e
:1034c000060032008100e900010088008100d00080
:1034d0000200800082804000800878000000060022
:1034e0000000e0002f003200c0017800e38f51009f
:1034f0002c0036000308a3002a003a0011f88000cf
:103500000100e00002003200810f50000400310091
:103510001100980010f8880016003700820078002b
:10352000110190000200e00002003200800f510003
:10353000faff39001102780084824000850f5000a4
:1035400018003900808f520003003a0083084200bf
:1035500001007800070037000200e000030032009d
:1035600083014000830f51000e00390012009800c3
:1035700090009800900090000100e00009003200e7
:1035800010014000828f500006003a0002f0210036
:103590000009eb0010017800110841009100900033
:1035a0001100980000000600889fbe00000478000b
:1035b00001f880000100e000020032000100780004
:1035c0000d00370011f8800020f0210004003700c2
:1035d000910f5400250036000180e8009100900012
:1035e0000100e000faff3a0010003700920f54008b
:1035f0001e0036000280e800100178000200e000a2
:10360000faff3a001101780011f8800020f0210043
:1036100004003700910f5400140036000180e800c8
:1036200091009000828f5000faff3a0049f8800024
:10363000888f540001003100880478000900780068
:10364000360007000000e00004003a00888f5400b4
:10365000050032008904d100f5ff37000918780011
:103660009fff0700d2ff37000000eb004f04be00b1
:1036700000000600881f7800630440000800a100d5
:103680008000eb00800f540021003600e30f54004f
:1036900001003e004800200008007800c2ff07003b
:1036a0008000eb000000e00019003200900078007c
:1036b0009101780064815100880f510003003100ae
:1036c00011019000020878000700370008814000cf
:1036d0000208780091019000130198001001780011
:1036e0001109140088087800100178000000eb0030
:1036f0000200e00004003200920190000300e000ac
:10370000010032000280e80000f888008180e800b3
:10371000010078004f047800000006008000780067
:103720000000eb000100e00005003400010078001b
:10373000b5fd0700e10f400001003a000000eb007a
:103740000000060000c0da000000060000c0da0039
:103750000000060000c0da0000000600020ab900fe
:10376000001bb9000200b800810042008100430044
:04377000000006004f
:020000040000fa
:10377400556e0000686100006e6400006c65000016
:1037840064200000696e000074650000727200001d
:1037940075700000742c00002000000064730000a9
:1037a4005049000043330000334500005035000009
:1037b400313200004750000038300000360000006d
:1037c400756e00006b6e00006f7700006e000000e5
:1037d4004231000000440000657600006963000087
:1037e4006520000049440000203d00002000000046
:1037f40020280000002900002c2000007265000031
:1038040076690000736900006f6e000020000000fc
:10381400290a0000000a00000a2a00002a2a0000df
:103824002a2a00002a2a00002a2a00002a2a000044
:103834002a2a00002a2a00002a2a00002a2a000034
:103844002a2a00002a2a00002a2a00002a2a000024
:103854002a2a00002a2a00002a2a00002a2a000014
:103864002a2a00002a2a00002a2a00002a2a000004
:103874002a2a00002a2a00002a2a00002a2a0000f4
:103884002a2a00002a0a00002a20000057410000ca
:10389400524e0000494e0000472000002d20000039
:1038a400746800006973000020700000726f0000eb
:1038b40067720000616d00002077000061730000f2
:1038c400206300006f6d0000706900006c650000eb
:1038d40064200000666f000072200000746800001d
:1038e40065200000777200006f6e00006720000002
:1038f400202a00000a2a00002063000068690000f2
:10390400702e00002054000068690000732000003d
:10391400707200006f670000726100006d2000008b
:103924006d61000079200000707200006f64000077
:103934007563000065200000756e00006578000066
:10394400706500006374000065640000206200007c
:1039540065680000766900006f7200002120000095
:103964002a0a00002a20000045640000697400004f
:103974002074000068650000206800006561000094
:103984006465000072200000666900006c65000038
:1039940073200000746f000020700000726f00003c
:1039a40070650000726c00007920000064650000fe
:1039b400666900006e6500002074000068690000fc
:1039c400732000006368000069700000202a000072
:1039d4000a2a0000206100006e64000020740000c8
:1039e4006f200000696e00007375000072650000ae
:1039f400206300006f7200007265000063740000b1
:103a0400206f00007065000072610000746900009e
:103a14006f6e00002e2000002020000020200000f7
:103a24002020000020200000202000002020000092
:103a34002020000020200000202000002a0a00008e
:103a44002a20000020200000202000002020000068
:103a54002020000020200000202000002020000062
:103a64002020000020200000202000002020000052
:103a74002020000020200000202000002020000042
:103a84002020000020200000202000002020000032
:103a94002020000020200000202000002020000022
:103aa4002020000020200000202a00000a2a000014
:103ab400204e00004f540000453a00002049000009
:103ac400662000007468000069730000207700001d
:103ad40061730000206300006f6d000070690000d6
:103ae4006c65000064200000666f00007220000016
:103af4007468000065200000636f000072720000ab
:103b040065630000742000006368000069700000b1
:103b14002c200000202000002a0a00002a20000097
:103b2400616e0000642000006f6e00006c7900007c
:103b3400206f0000636300007572000073200000b2
:103b440061740000207000006f770000657200004f
:103b54002d6f00006e200000286e00006f740000be
:103b64002064000075720000696e00006720000088
:103b7400612000004d4300004c5200002020000052
:103b840020200000202a00000a2a000020720000e1
:103b94006573000065740000292c00002076000085
:103ba40065720000696600007920000074680000f6
:103bb40061740000204100005644000044200000cd
:103bc400616e000064200000415600005353000061
:103bd4002061000072650000206300006f6e000029
:103be4006e65000063740000656400002e20000010
:103bf400202000002a0a00002a2000004f6e000046
:103c04002074000068650000205000004943000053
:103c140032340000483300003247000050320000c4
:103c2400303200002c2000006e6f00007420000071
:103c3400636f00006e6e000065630000746900002d
:103c44006e6700002041000056440000442000003c
:103c54002020000020200000202000002020000060
:103c6400202a00000a2a000020700000726f000061
:103c74006475000063650000732000007468000030
:103c840069730000206d000065730000736100001b
:103c940067650000206f00006e6c00007920000052
:103ca40061740000207000006f77000065720000ee
:103cb4002d750000702e0000202000002020000040
:103cc40020200000202000002020000020200000f0
:103cd4002a0a00002a2a00002a2a00002a2a0000b0
:103ce4002a2a00002a2a00002a2a00002a2a000080
:103cf4002a2a00002a2a00002a2a00002a2a000070
:103d04002a2a00002a2a00002a2a00002a2a00005f
:103d14002a2a00002a2a00002a2a00002a2a00004f
:103d24002a2a00002a2a00002a2a00002a2a00003f
:103d34002a2a00002a2a00002a2a00002a2a00002f
:103d44000a00000046610000737400002052000065
:103d5400432000004f730000630a00000046000087
:103d6400617300007420000052430000204f0000e3
:103d7400736300002077000069740000682000006d
:103d8400504c00004c0a0000005000007269000012
:103d94006d61000072790000204f00007363000021
:103da40020280000585400002c2000004853000034
:103db4002c20000045430000290a000000500000a8
:103dc400726900006d61000072790000204f0000ec
:103dd4007363000020280000585400002c200000c9
:103de400485300002c200000454300002920000017
:103df4007769000074680000205000004c4c0000fb
:103e04000a00000053650000636f00006e64000048
:103e140061720000792000004f730000630a000003
:103e2400004c00006f770000205000006f77000006
:103e34006572000020520000432000004f73000010
:103e4400630a000000460000617300007420000053
:103e540052430000204f0000736300002f31000024
:103e6400360a000000460000617300007420000060
:103e740052430000204f0000736300002f4e0000e7
:103e84000a000000556e00006b6e00006f770000a2
:103e94006e2000006f730000636900006c6c00000a
:103ea400617400006f7200002074000079700000db
:103eb400652e0000000a00004465000076690000d9
:103ec4006365000020680000617300002062000048
:103ed400656500006e200000696e0000207300001c
:103ee4006c65000065700000206d00006f640000c8
:103ef400650a0000000a00004465000076690000bd
:103f04006365000020680000617300002062000007
:103f1400656500006e200000696e000020690000e5
:103f2400646c0000652000006d6f00006465000093
:103f34000a0000000a520000657300006574000066
:103f44002063000061750000736500003a200000e2
:103f5400005000006f770000657200002d6f0000b4
:103f64006e2e00000a000000536f0000667400000b
:103f74007761000072650000205200006573000044
:103f8400657400002e0a00000057000061740000f0
:103f940063680000646f000067200000546900003b
:103fa4006d6500006f750000743a00002000000089
:103fb4000a0000004d4300004c5200002061000044
:103fc4007373000065720000746900006f6e000076
:103fd4002e0a000000420000726f0000776e00009d
:103fe4002d6f0000757400002e0a000000540000bc
:103ff4007261000070200000436f00006e660000d4
:104004006c690000637400002e0a0000004900007f
:104014006c6c000065670000616c000020430000c8
:104024006f6e000064690000746900006f6e000028
:104034002e0a0000004300006f6e00006669000055
:104044006775000072610000746900006f6e000003
:10405400204d0000697300006d610000746300006e
:10406400682e00000a000000556e00006b6e000010
:104074006f7700006e200000726500007365000019
:10408400742e00000a00000045720000726f0000e8
:1040940072200000747200006170000070650000fe
:1040a400643a00002000000050720000696f0000b4
:1040b40072690000747900003a200000002c0000ae
:1040c4002056000065630000746f00007220000039
:1040d4006e7500006d620000657200003a200000f9
:1040e400000a00000a00000055410000525400007c
:1040f40031200000706100007269000074790000d2
:1041040020650000727200006f7200000a00000057
:104114005541000052540000312000006672000036
:10412400616d0000696e0000672000006572000088
:10413400726f0000720a0000005500004152000036
:1041440054310000206f0000766500007272000098
:10415400756e000020650000727200006f7200002e
:104164000a000000554100005254000032200000b3
:10417400706100007269000074790000206500001d
:10418400727200006f7200000a00000055410000c6
:10419400525400003220000066720000616d00007d
:1041a400696e00006720000065720000726f0000f5
:1041b400720a000000550000415200005432000011
:1041c400206f00007665000072720000756e0000ba
:1041d40020650000727200006f7200000a00000087
:1041e400554100005254000033200000706100006b
:1041f400726900007479000020650000727200008a
:104204006f7200000a000000554100005254000083
:104214003320000066720000616d0000696e0000ca
:104224006720000065720000726f0000720a0000cf
:10423400005500004152000054330000206f00007c
:104244007665000072720000756e00002065000043
:10425400727200006f7200000a00000055410000f5
:1042640052540000342000007061000072690000a4
:104274007479000020650000727200006f72000003
:104284000a00000055410000525400003420000090
:1042940066720000616d0000696e00006720000016
:1042a40065720000726f0000720a00000055000081
:1042b4004152000054340000206f00007665000075
:1042c40072720000756e00002065000072720000ba
:1042d4006f7200000a000000307800000045000002
:1042e400727200006f720000206900006e200000ee
:1042f40062750000696c0000645c00006c69000079
:10430400625c000073720000635c0000706900006e
:1043140063320000345f00007365000072690000be
:10432400616c00002e630000206c0000696e0000c8
:104334006520000032390000363a000020490000b0
:104344006e760000616c0000696400002055000076
:10435400415200005400000045720000726f0000da
:1043640072200000696e0000206200007569000080
:104374006c6400005c6c0000696200005c73000007
:10438400726300005c700000696300003234000056
:104394005f73000065720000696100006c2e00000c
:1043a400632000006c6900006e650000203300008b
:1043b400333500003a200000496e000076610000a9
:1043c4006c69000064200000554100005254000054
:1043d40000050000030200000100000050c30000bb
:1043e40030750000204e00001027000088130000e4
:1043f400b80b0000d0070000e8030000f40100003f
:104404002c010000c800000064000000320000001d
:104414001e000000140000000a0000000500000057
:10442400030000000200000001000000050300007a
:10443400020100000503000002010000321e00001a
:10444400140a000005030000020100000a620000d3
:10445400756900006c6400005c650000736f000007
:10446400735c000073720000635c000065730000fd
:104474006f7300005f66000031340000756900004e
:104484002e6300002c20000062750000696c00009f
:10449400742000006f6e000020460000656200007a
:1044a40020320000302000003230000032310000a1
:1044b4002061000074200000303500003a30000014
:1044c400383a0000333800000a0000000a0a0000ed
:1044d400434c00004f4300004b5700004953000079
:1044e400450a0000000a00000a4300004f5500007e
:1044f4004e540000455200002d4300004c4f000074
:10450400434b000057490000534500000a000000d7
:020000040000fa
:10451400889fbe008a9fbe008c9fbe008e1f7800bd
:1045240000047800284090000074a0002044980003
:10453400180078008000eb00f2142000820f500075
:10454400e08f5800a1073e00000601004f0137002c
:104554009e0737009d0737009c0737009b073700ed
:104564009a073700990737009807370097073700ed
:1045740096073700950737009407370093073700ed
:104584009207370091073700900737008f073700ed
:104594008e0737008d0737008c0737008b073700ed
:1045a4008a073700890737008807370087073700ed
:1045b40086073700850737008407370083073700ed
:1045c4008207370081073700800737007f073700ed
:1045d4007e0737007d0737007c0737007b073700ed
:1045e4007a073700790737007807370077073700ed
:1045f40076073700750737007407370073073700ed
:104604007207370071073700700737006f073700ec
:104614006e0737006d0737006c0737006b073700ec
:104624006a073700690737001d0137003501370075
:104634004f01370069013700830137009d013700be
:10464400b701370061073700600737005f0737009d
:104654005e073700cc013700e40137005b07370001
:104664005a073700590737005807370057073700ec
:1046740056073700550737005407370053073700ec
:104684005207370051073700500737004f073700ec
:104694004e0737004d0737004c0737004b073700ec
:1046a4004a073700490737004807370047073700ec
:1046b40046073700450737004407370043073700ec
:1046c4004207370041073700400737003f073700ec
:1046d4003e0737003d0737003c0737003b073700ec
:1046e4003a073700390737003807370037073700ec
:1046f40036073700350737003407370033073700ec
:104704003207370031073700ff0137002f07370022
:1047140016023700300237004a0237002b073700f1
:1047240063023700290737002807370027073700b7
:104734007902370091023700240737002307370036
:104744002207370021073700200737001f073700eb
:104754001e0737001d0737001c0737001b073700eb
:104764001a073700190737001807370017073700eb
:1047740016073700150737001407370013073700eb
:104784001207370011073700100737000f073700eb
:104794000e0737000d0737000c0737000b073700eb
:1047a400af02370009073700c6023700e0023700be
:1047b400fa023700050737001303370003073700f1
:1047c4000207370001073700290337004103370088
:1047d400fe063700fd063700fc063700fb063700ef
:1047e400fa063700f9063700f8063700f7063700ef
:1047f400f6063700f5063700f4063700f3063700ef
:10480400f2063700f1063700f0063700ef063700ee
:10481400ee063700ed063700ec063700eb063700ee
:10482400ea063700e9063700e8063700e7063700ee
:10483400e6063700e50637005f033700e306370076
:104844007603370090033700aa033700df063700ea
:10485400c3033700dd063700dc063700db0637000c
:10486400d9033700f1033700d8063700d7063700dd
:10487400d6063700d5063700d4063700d3063700ee
:10488400d2063700d1063700d0063700cf063700ee
:10489400ce063700cd063700cc063700cb063700ee
:1048a400ca063700c9063700c8063700c7063700ee
:1048b400c6063700c5063700c4063700c3063700ee
:1048c400c2063700c1063700c0063700bf063700ee
:1048d4000f043700bd0637002604370040043700b4
:1048e4005a043700b906370073043700b706370097
:1048f400b6063700b506370089043700a10437002f
:10490400b2063700b1063700b0063700af063700ed
:10491400ae063700ad063700ac063700ab063700ed
:10492400aa063700a9063700a8063700a7063700ed
:10493400a6063700a5063700a4063700a3063700ed
:10494400a2063700a1063700a00637009f063700ed
:104954009e0637009d0637009c0637009b063700ed
:104964009a06370099063700bf04370097063700c8
:10497400d6043700f00437000a05370093063700e1
:104984002305370091063700900637008f0637005d
:1049940039053700510537008c0637008b06370080
:1049a4008a063700890637008806370087063700ed
:1049b40086063700850637008406370083063700ed
:1049c4008206370081063700800637007f063700ed
:1049d4007e0637007d0637007c0637007b063700ed
:1049e4007a063700790637007806370077063700ed
:1049f40076063700750637007406370073063700ed
:104a04006f0537007106370086053700a0053700ab
:104a1400ba0537006d063700d30537006b0637003b
:104a24006a06370069063700e905370001063700d2
:104a340066063700650637006406370063063700ec
:104a44006206370061063700600637005f063700ec
:104a54005e0637005d0637005c0637005b063700ec
:104a64005a063700590637005806370057063700ec
:104a740056063700550637005406370053063700ec
:104a8400520637001f0637003706370010838000b0
:104a94000000e00016013a0070032000000c7800ca
:104aa400284090000028a3000400320040c0b30056
:104ab4002044980030c0b30048063700818180004c
:104ac4000128a30003003a000004a1002044980038
:104ad400020037000004a000204498002841900000
:104ae4000040eb000208a3003c063a000120a000ad
:104af40081818800a0dc21000008eb0080032000f5
:104b0400000c7800284090000028a3000400320024
:104b140040c0b3002044980030c0b3002f063700d3
:104b240021ba2100a0dc2100c80c0700e24f50008c
:104b340004003600284090000004a100204498009e
:104b440003003700284090000004a000204498008f
:104b5400a84090000040eb000108a3001f063a00a3
:104b6400a0dc21000008eb0090032000000c78007a
:104b7400284090000028a3000400320040c0b30085
:104b84002044980030c0b30014063700b1bb2100a4
:104b9400a0dc2100ad0c0700e24f500004003600f9
:104ba400284090000004a10020449800030037002e
:104bb400284090000004a00020449800a8409000e1
:104bc4000040eb000108a30004063a00a0dc210029
:104bd4000008eb00a0032000000c7800284090009f
:104be4000028a3000400320040c0b3002044980011
:104bf40030c0b300f905370041bd2100a0dc21001d
:104c0400920c0700e24f5000040036002840900048
:104c14000004a100204498000300370028409000bd
:104c24000004a00020449800a84090000040eb003d
:104c34000108a300e9053a00a0dc21000008eb000c
:104c4400b0032000000c7800284090000028a30046
:104c54000400320040c0b3002044980030c0b300c8
:104c6400de053700d1be2100a0dc2100770c07004f
:104c7400e24f500004003600284090000004a100d8
:104c84002044980003003700284090000004a0004e
:104c940020449800a84090000040eb000108a300c5
:104ca400ce053a00a0dc21000008eb00c003200080
:104cb400000c7800284090000028a3000400320073
:104cc40040c0b3002044980030c0b300c30537008f
:104cd400a1c02100a0dc21005c0c0700e24f5000c1
:104ce40004003600284090000004a10020449800ed
:104cf40003003700284090000004a00020449800de
:104d0400a84090000040eb000108a300b3053a005e
:104d1400a0dc21000008eb00d0032000000c780088
:104d2400284090000028a3000400320040c0b300d3
:104d34002044980030c0b300a805370091c2210078
:104d4400a0dc2100410c0700e24f500004003600b3
:104d5400284090000004a10020449800030037007c
:104d6400284090000004a00020449800a84090002f
:104d74000040eb000108a30098053a003050a90058
:104d840020042000000c7800284090000028a30094
:104d94000400320040c0b3002044980030c0b30087
:104da4008e053700818180000138a30003003a009a
:104db4000004a10020449800020037000004a00071
:104dc40020449800284190000040eb000208a30012
:104dd40082053a000130a00081818800c0dd2100f5
:104de4000008eb0030042000000c780028409000fc
:104df4000028a3000400320040c0b30020449800ff
:104e040030c0b3007505370012c0b300410621005d
:104e1400c0dd2100810b0700e24f50000400360082
:104e2400284090000004a1002044980003003700ab
:104e3400284090000004a00020449800a84090005e
:104e44000040eb000108a30064053a003070a9009b
:104e540064d0bf0031c3b300814f5000160032004c
:104e640007003e0081c0e900814f50000c00320071
:104e74008140e800814f50001b003a000b003700ce
:104e840051c3b300814f5000110032000d003900ae
:104e94008140e800814f500013003a000f003700b2
:104ea4002000200010838800140537003000200003
:104eb400108388001105370040002000108388000b
:104ec4000e05370050002000108388000b053700c2
:104ed400600020001083880008053700700020005f
:104ee40010838800050537006230ef0003053700a2
:104ef400e20f5000d4003a00ac07070080047800a9
:104f0400f0062000000c7800284090000028a30040
:104f14000400320040c0b3002044980030c0b30005
:104f24002e053700818180000128a30003003a0088
:104f34000004a10020449800020037000004a000ef
:104f440020449800284190000040eb000208a30090
:104f540022053a000120a00081818800a0dc210004
:104f64000008eb0010072000000c78002840900097
:104f74000028a3000400320040c0b300204498007d
:104f840030c0b3001505370061c42100a0dc210046
:104f9400ae0b0700e24f500004003600284090009a
:104fa4000004a1002044980003003700284090002a
:104fb4000004a00020449800a84090000040eb00aa
:104fc4000108a30005053a00a0dc21000008eb005d
:104fd40020072000000c7800284090000028a3003f
:104fe4000400320040c0b3002044980030c0b30035
:104ff400fa0437006149b800a0dc21004e0a07001a
:10500400e24f500004003600284090000004a10044
:105014002044980003003700284090000004a000ba
:1050240020449800a84090000040eb000108a30031
:10503400ea043a00a0dc21000008eb00300720005d
:10504400000c7800284090000028a30004003200df
:1050540040c0b3002044980030c0b300df043700e0
:10506400a1c0b300a0dc210032090700e24f5000c8
:1050740004003600284090000004a1002044980059
:1050840003003700284090000004a000204498004a
:10509400a84090000040eb000108a300cf043a00b0
:1050a400a0dc21000008eb0050072000000c780071
:1050b400284090000028a3000400320040c0b30040
:1050c4002044980030c0b300c4043700d1c5210087
:1050d400a0dc21005d0b0700e24f50000400360005
:1050e400284090000004a1002044980003003700e9
:1050f400284090000004a00020449800a84090009c
:105104000040eb000108a300b4043a003050a900a9
:1051140090072000000c7800284090000028a3008d
:105124000400320040c0b3002044980030c0b300f3
:10513400aa043700818180000138a30003003a00eb
:105144000004a10020449800020037000004a000dd
:1051540020449800284190000040eb000208a3007e
:105164009e043a000130a00081818800c0dd210046
:105174000008eb00a0072000000c780028409000f5
:105184000028a3000400320040c0b300204498006b
:1051940030c0b3009104370012c0b30041062100af
:1051a400c0dd21009d0a0700e24f500004003600d4
:1051b400284090000004a100204498000300370018
:1051c400284090000004a00020449800a8409000cb
:1051d4000040eb000108a30080043a003070a900ed
:1051e40064d0bf0021c3b300814f50000c003200d3
:1051f4008140e800814f50000f00320081c0e90077
:10520400814f50000e003a00d0cc2c000048b8006a
:105214004308de0009004000e206070037043700b7
:10522400f0a22b000048b8004308de0000805400c0
:10523400dc060700310437006230ef002f0437002a
:105244006230ef002d043700e30f5000d4003a0021
:10525400e60607000005780050092000000c7800dd
:10526400284090000028a3000400320040c0b3008e
:105274002044980030c0b300580437008181800076
:105284000128a30003003a000004a1002044980070
:10529400020037000004a000204498002841900038
:1052a4000040eb000208a3004c043a000120a000d7
:1052b40081818800a0dc21000008eb007009200037
:1052c400000c7800284090000028a300040032005d
:1052d40040c0b3002044980030c0b3003f043700fe
:1052e40011cb2100a0dc2100d80a0700e24f5000b6
:1052f40004003600284090000004a10020449800d7
:1053040003003700284090000004a00020449800c7
:10531400a84090000040eb000108a3002f043a00cd
:10532400a0dc21000008eb0080092000000c7800bc
:10533400284090000028a3000400320040c0b300bd
:105344002044980030c0b300240437006151b800f1
:10535400a0dc210078090700e24f50000400360069
:10536400284090000004a100204498000300370066
:10537400284090000004a00020449800a840900019
:105384000040eb000108a30014043a00a0dc210053
:105394000008eb0090092000000c780028409000e1
:1053a4000028a3000400320040c0b3002044980049
:1053b40030c0b30009043700a1c0b300a0dc210051
:1053c4005c080700e24f50000400360028409000bb
:1053d4000004a100204498000300370028409000f6
:1053e4000004a00020449800a84090000040eb0076
:1053f4000108a300f9033a00a0dc21000008eb0037
:10540400b0092000000c7800284090000028a30078
:105414000400320040c0b3002044980030c0b30000
:10542400ee033700d1c52100a0dc2100870a070064
:10543400e24f500004003600284090000004a10010
:105444002044980003003700284090000004a00086
:1054540020449800a84090000040eb000108a300fd
:10546400de033a003050a900f0092000000c780057
:10547400284090000028a3000400320040c0b3007c
:105484002044980030c0b300d403370081818000e9
:105494000138a30003003a000004a100204498004e
:1054a400020037000004a000204498002841900026
:1054b4000040eb000208a300c8033a000130a0003a
:1054c40081818800c0dd21000008eb00000a200073
:1054d400000c7800284090000028a300040032004b
:1054e40040c0b3002044980030c0b300bb03370071
:1054f40012c0b30041062100c0dd2100c709070026
:10550400e24f500004003600284090000004a1003f
:105514002044980003003700284090000004a000b5
:1055240020449800a84090000040eb000108a3002c
:10553400aa033a003070a90064d0bf0021c3b300ad
:10554400814f50000c0032008140e800814f500030
:105554000f00320081c0e900814f50000e003a0074
:10556400d0cc2c000050b8004308de000a004000f4
:105574001c06070061033700f0a22b000050b8009e
:105584004308de0000005500060607005b033700f1
:105594006230ef00590337006230ef0057033700e1
:1055a400e40f5000d4003a0020060700800578007c
:1055b400b00b2000000c7800284090000028a300c5
:1055c4000400320040c0b3002044980030c0b3004f
:1055d40082033700818180000128a30003003a0080
:1055e4000004a10020449800020037000004a00039
:1055f40020449800284190000040eb000208a300da
:1056040076033a000120a00081818800a0dc2100fb
:105614000008eb00d00b2000000c7800284090001c
:105624000028a3000400320040c0b30020449800c6
:1056340030c0b3006903370081cc2100a0dc210015
:10564400020a0700e24f5000040036002840900090
:105654000004a10020449800030037002840900073
:105664000004a00020449800a84090000040eb00f3
:105674000108a30059033a00a0dc21000008eb0054
:10568400e00b2000000c7800284090000028a300c4
:105694000400320040c0b3002044980030c0b3007e
:1056a4004e0337006159b800a0dc2100a2080700ae
:1056b400e24f500004003600284090000004a1008e
:1056c4002044980003003700284090000004a00004
:1056d40020449800a84090000040eb000108a3007b
:1056e4003e033a00a0dc21000008eb00f00b200090
:1056f400000c7800284090000028a3000400320029
:1057040040c0b3002044980030c0b30033033700d6
:10571400a1c0b300a0dc210086070700e24f5000bf
:1057240004003600284090000004a10020449800a2
:1057340003003700284090000004a0002044980093
:10574400a84090000040eb000108a30023033a00a6
:10575400a0dc21000008eb00100c2000000c7800f5
:10576400284090000028a3000400320040c0b30089
:105774002044980030c0b30018033700d1c521007d
:10578400a0dc2100b1090700e24f500004003600fc
:10579400284090000004a100204498000300370032
:1057a400284090000004a00020449800a8409000e5
:1057b4000040eb000108a30008033a003050a900a0
:1057c400500c2000000c7800284090000028a30012
:1057d4000400320040c0b3002044980030c0b3003d
:1057e400fe023700818180000138a30003003a00e3
:1057f4000004a10020449800020037000004a00027
:1058040020449800284190000040eb000208a300c7
:10581400f2023a000130a00081818800c0dd21003d
:105824000008eb00600c2000000c78002840900079
:105834000028a3000400320040c0b30020449800b4
:1058440030c0b300e502370012c0b30041062100a6
:10585400c0dd2100f1080700e24f500004003600cb
:10586400284090000004a100204498000300370061
:10587400284090000004a00020449800a840900014
:105884000040eb000108a300d4023a003070a900e4
:1058940064d0bf0021c3b300814f50000c0032001c
:1058a4008140e800814f50000f00320081c0e900c0
:1058b400814f50000e003a00d0cc2c000058b800a4
:1058c4004308de000b004000560507008b0237003a
:1058d400f0a22b000058b8004308de0000805500f9
:1058e40050050700850237006230ef00830237005d
:1058f4006230ef0081023700e50f5000d4003a0017
:10590400cc05070000067800100e2000000c78007b
:10591400284090000028a3000400320040c0b300d7
:105924002044980030c0b300ac023700818180006d
:105934000128a30003003a000004a10020449800b9
:10594400020037000004a000204498002841900081
:105954000040eb000208a300a0023a000120a000ce
:1059640081818800a0dc21000008eb00300e2000bb
:10597400000c7800284090000028a30004003200a6
:1059840040c0b3002044980030c0b30093023700f5
:10599400f1cd2100a0dc21002c090700e24f5000ca
:1059a40004003600284090000004a1002044980020
:1059b40003003700284090000004a0002044980011
:1059c400a84090000040eb000108a30083023a00c5
:1059d400a0dc21000008eb00400e2000000c780041
:1059e400284090000028a3000400320040c0b30007
:1059f4002044980030c0b300780237006161b800d9
:105a0400a0dc2100cc070700e24f50000400360060
:105a1400284090000004a1002044980003003700af
:105a2400284090000004a00020449800a840900062
:105a34000040eb000108a30068023a00a0dc21004a
:105a44000008eb00500e2000000c78002840900065
:105a54000028a3000400320040c0b3002044980092
:105a640030c0b3005d023700a1c0b300a0dc210048
:105a7400b0060700e24f50000400360028409000b2
:105a84000004a1002044980003003700284090003f
:105a94000004a00020449800a84090000040eb00bf
:105aa4000108a3004d023a00a0dc21000008eb002d
:105ab400700e2000000c7800284090000028a300fd
:105ac4000400320040c0b3002044980030c0b3004a
:105ad40042023700d1c52100a0dc2100db08070009
:105ae400e24f500004003600284090000004a1005a
:105af4002044980003003700284090000004a000d0
:105b040020449800a84090000040eb000108a30046
:105b140032023a003050a900b00e2000000c780088
:105b2400284090000028a3000400320040c0b300c5
:105b34002044980030c0b3002802370081818000df
:105b44000138a30003003a000004a1002044980097
:105b5400020037000004a00020449800284190006f
:105b64000040eb000208a3001c023a000130a00030
:105b740081818800c0dd21000008eb00c00e2000f8
:105b8400000c7800284090000028a3000400320094
:105b940040c0b3002044980030c0b3000f02370067
:105ba40012c0b30041062100c0dd21001b0807001c
:105bb400e24f500004003600284090000004a10089
:105bc4002044980003003700284090000004a000ff
:105bd40020449800a84090000040eb000108a30076
:105be400fe013a003070a90064d0bf0021c3b300a5
:105bf400814f50000c0032008140e800814f50007a
:105c04000f00320081c0e900814f50000e003a00bd
:105c1400d0cc2c000060b8004308de000c0040002b
:105c240060040700b5013700f0a22b000060b80043
:105c34004308de00000056005a040700af01370095
:105c44006230ef00ad0137006230ef00ab01370086
:105c5400e60f5000d4003a00fa04070080067800ea
:105c640070102000000c7800284090000028a30049
:105c74000400320040c0b3002044980030c0b30098
:105c8400d6013700818180000128a30003003a0077
:105c94000004a10020449800020037000004a00082
:105ca40020449800284190000040eb000208a30023
:105cb400ca013a000120a00081818800a0dc2100f3
:105cc4000008eb0090102000000c780028409000a1
:105cd4000028a3000400320040c0b3002044980010
:105ce40030c0b300bd01370081cf2100a0dc21000a
:105cf40056080700e24f5000040036002840900088
:105d04000004a100204498000300370028409000bc
:105d14000004a00020449800a84090000040eb003c
:105d24000108a300ad013a00a0dc21000008eb004b
:105d3400a0102000000c7800284090000028a30048
:105d44000400320040c0b3002044980030c0b300c7
:105d5400a20137006169b800a0dc2100f606070043
:105d6400e24f500004003600284090000004a100d7
:105d74002044980003003700284090000004a0004d
:105d840020449800a84090000040eb000108a300c4
:105d940092013a00a0dc21000008eb00b0102000c2
:105da400000c7800284090000028a3000400320072
:105db40040c0b3002044980030c0b30087013700ce
:105dc400a1c0b300a0dc2100da050700e24f5000b7
:105dd40004003600284090000004a10020449800ec
:105de40003003700284090000004a00020449800dd
:105df400a84090000040eb000108a30077013a009e
:105e0400a0dc21000008eb00d0102000000c78007a
:105e1400284090000028a3000400320040c0b300d2
:105e24002044980030c0b3006c013700d1c5210074
:105e3400a0dc210005080700e24f500004003600f2
:105e4400284090000004a10020449800030037007b
:105e5400284090000004a00020449800a84090002e
:105e64000040eb000108a3005c013a003050a90097
:105e740010112000000c7800284090000028a30096
:105e84000400320040c0b3002044980030c0b30086
:105e940052013700818180000138a30003003a00d9
:105ea4000004a10020449800020037000004a00070
:105eb40020449800284190000040eb000208a30011
:105ec40046013a000130a00081818800c0dd210034
:105ed4000008eb0020112000000c780028409000fe
:105ee4000028a3000400320040c0b30020449800fe
:105ef40030c0b3003901370012c0b300410621009d
:105f0400c0dd210045070700e24f500004003600c1
:105f1400284090000004a1002044980003003700aa
:105f2400284090000004a00020449800a84090005d
:105f34000040eb000108a30028013a003070a900da
:105f440064d0bf0021c3b300814f50000c00320065
:105f54008140e800814f50000f00320081c0e90009
:105f6400814f50000e003a00d0cc2c000068b800dd
:105f74004308de000d0040008a030700df003700fd
:105f8400f0a22b000068b8004308de000080560031
:105f940084030700d90037006230ef00d7003700d0
:105fa4006230ef00d5003700e70f5000d3003a000d
:105fb4002804070000077800d0122000000c7800a5
:105fc400284090000028a3000400320040c0b30021
:105fd4002044980030c0b300000137008181800064
:105fe4000128a30003003a000004a1002044980003
:105ff400020037000004a0002044980028419000cb
:106004000040eb000208a300f4003a000120a000c5
:1060140081818800a0dc21000008eb00f012200040
:10602400000c7800284090000028a30004003200ef
:1060340040c0b3002044980030c0b300e7003700ec
:1060440001d12100a0dc210080070700e24f5000ad
:1060540004003600284090000004a1002044980069
:1060640003003700284090000004a000204498005a
:10607400a84090000040eb000108a300d7003a00bc
:10608400a0dc21000008eb0000132000000c7800c5
:10609400284090000028a3000400320040c0b30050
:1060a4002044980030c0b300cc0037006171b800c0
:1060b400a0dc210020060700e24f50000400360057
:1060c400284090000004a1002044980003003700f9
:1060d400284090000004a00020449800a8409000ac
:1060e4000040eb000108a300bc003a00a0dc210042
:1060f4000008eb0010132000000c780028409000ea
:106104000028a3000400320040c0b30020449800db
:1061140030c0b300b1003700a1c0b300a0dc21003f
:1061240004050700e24f50000400360028409000a8
:106134000004a10020449800030037002840900088
:106144000004a00020449800a84090000040eb0008
:106154000108a300a1003a00a0dc21000008eb0024
:1061640030132000000c7800284090000028a30081
:106174000400320040c0b3002044980030c0b30093
:1061840096003700d1c52100a0dc21002f070700ad
:10619400e24f500004003600284090000004a100a3
:1061a4002044980003003700284090000004a00019
:1061b40020449800a84090000040eb000108a30090
:1061c40086003a003050a90070132000000c7800bb
:1061d400284090000028a3000400320040c0b3000f
:1061e4002044980030c0b3007c00370081818000d7
:1061f4000138a30003003a000004a10020449800e1
:10620400020037000004a0002044980028419000b8
:106214000040eb000208a30070003a000130a00027
:1062240081818800c0dd21000008eb00801320007c
:10623400000c7800284090000028a30004003200dd
:1062440040c0b3002044980030c0b300630037005e
:1062540012c0b30041062100c0dd21006f06070013
:10626400e24f500004003600284090000004a100d2
:106274002044980003003700284090000004a00048
:1062840020449800a84090000040eb000108a300bf
:1062940052003a003070a90064d0bf0021c3b3009b
:1062a400814f50000c0032008140e800814f5000c3
:1062b4000f00320081c0e900814f50000e003a0007
:1062c400d0cc2c000070b8004308de000e00400063
:1062d400b402070009003700f0a22b000070b800d8
:1062e4004308de0000005700ae0207000300370039
:1062f4006230ef00010037006230ef00e01420004c
:10630400000c7800284090000028a300040032000c
:1063140040c0b3002044980030c0b3002f003700c1
:10632400818180000128a30003003a000004a10039
:1063340020449800020037000004a0002044980084
:10634400284190000040eb000208a30023003a001b
:106354000120a00081818800a0dc21000008eb005e
:10636400f0142000000c7800284090000028a300be
:106374000400320040c0b3002044980030c0b30091
:106384001600370091d22100a0dc2100af060700df
:10639400e24f500004003600284090000004a100a1
:1063a4002044980003003700284090000004a00017
:1063b40020449800a84090000040eb000108a3008e
:1063c40006003a003050a900b0f9370080c0b3008d
:1063d40020449800000ceb0030c0b3004f07780055
:1063e4004f06be004f05be004f04be00000006006d
:1063f400a028220006070700000006000000220073
:10640400120eb6000000e9004f00de00000040005c
:10641400917180000110a1008100700091718800c9
:1064240000002100120eb6000000e9004f00de005b
:106434004200dd00917180000120a1008100700004
:1064440091718800107180000080ea004f00de0026
:106454004300dd00917180000130a10081007000d3
:1064640091718800320ed5006100600060f48800ec
:10647400907180004200de006100600090f48800aa
:10648400907180004300de0061006000c0f4880069
:10649400f00c8000b20c80008000eb00c000dd0036
:1064a400000020008001eb00020070008380700077
:1064b400929e2e000300200074f2070082f48000f4
:1064c4008001eb00820f5000838f580018003900c0
:1064d4009ae1a800d00c80000008b200910c800062
:1064e4000170a10081007000910c880080ff2f00d2
:1064f4009821b600c10c8000e7806000830c800006
:106504000301600002817000820c8800c20c8000cc
:10651400820060000100a000c10c8800c10c800052
:10652400e78060009001b60000807000800c880055
:10653400700d8000320d80008000eb00c000dd0093
:10654400000020008001eb000200700083807000d6
:10655400929e2e00030020004cf20700b2f480004b
:106564008001eb00820f5000838f5800180039001f
:10657400aae1a800500d80000008b200110d8000af
:106584000170a10081007000110d880080ff2f00b0
:10659400a821b600410d8000e7806000030d800053
:1065a4000301600002817000020d8800420d80002a
:1065b400820060000100a000410d8800410d8000b0
:1065c400e7806000a001b60000807000000d880024
:1065d400f00d8000b20d80008000eb00c000dd00f3
:1065e400000020008001eb00020070008380700036
:1065f400929e2e000300200024f20700e2f48000a3
:106604008001eb00820f5000838f5800180039007e
:10661400bae1a800d00d80000008b200910d8000fe
:106624000170a10081007000910d880080ff2f008f
:10663400b821b600c10d8000e7806000830d8000a2
:106644000301600002817000820d8800c20d800089
:10665400820060000100a000c10d8800c10d80000f
:10666400e7806000b001b60000807000800d8800f3
:1066740000000600881f780000047800284090007d
:106684000074a000204498001800780051162000df
:10669400810f50001c0032008100e800810f50007f
:1066a400370032000000e00048003a00f0f58000b6
:1066b4000000e00002003200c1eb21001100a20042
:1066c400e1f58000e18f500002003a0015eea900c8
:1066d4000100370015eea8000000e000230032009e
:1066e4007a1307003004980041049800f0f5800004
:1066f4000000d1008000eb00500498006104980071
:1067040050162000000c7800284090000028a300b8
:106714000400320040c0b3002044980030c0b300ed
:106724002e00370058019000e801900038009000d6
:10673400c8009000a90707000000e0000400320030
:10674400284090000004a100204498000300370072
:10675400284090000004a00020449800a840900025
:106764000040eb000108a3001c003a002840900000
:106774000074a1002044980060162000000c7800ea
:10678400284090000028a3000400320040c0b30059
:106794002044980030c0b300100037000004e0002b
:1067a40003003d000004a1002044980002003700cb
:1067b4000004a00020449800a84090000040eb0092
:1067c4000108a300b9ff32000400370080c0b30001
:1067d40020449800000ceb0030c0b3004f04780054
:1067e40000000600881f780000047800284090000c
:1067f4000074a0002044980018007800a11520001f
:10680400810f50001c0032008100e800810f50000d
:10681400370032000000e00048003a00d0f5800064
:106824000000e0000200320081eb21001100a20010
:10683400c1f58000e18f500002003a0015cea80097
:106844000100370015cea9000000e000230032004b
:106854001e1307003004980041049800d0f580000e
:106864000000d1008000eb005004980061049800ff
:10687400a0152000000c7800284090000028a300f8
:106884000400320040c0b3002044980030c0b3007c
:106894002e00370058019000e80190003800900065
:1068a400c80090004d0707000000e000040032001b
:1068b400284090000004a100204498000300370001
:1068c400284090000004a00020449800a8409000b4
:1068d4000040eb000108a3001c003a00284090008f
:1068e4000074a10020449800b0152000000c78002a
:1068f400284090000028a3000400320040c0b300e8
:106904002044980030c0b300100037000004e000b9
:1069140003003d000004a100204498000200370059
:106924000004a00020449800a84090000040eb0020
:106934000108a300b9ff32000400370080c0b3008f
:1069440020449800000ceb0030c0b3004f047800e2
:1069540000000600881f780000047800284090009a
:106964000074a0002044980018007800f11420005e
:10697400810f50001c0032008100e800810f50009c
:10698400370032000000e00048003a00b0f5800013
:106994000000e0000200320041eb21001100a200df
:1069a400a1f58000e18f500002003a00548ea80047
:1069b40001003700548ea9000000e00023003200db
:1069c400c21207003004980041049800b0f580001a
:1069d4000000d1008000eb0050049800610498008e
:1069e400f0142000000c7800284090000028a30038
:1069f4000400320040c0b3002044980030c0b3000b
:106a04002e00370058019000e801900038009000f3
:106a1400c8009000f10607000000e0000400320006
:106a2400284090000004a10020449800030037008f
:106a3400284090000004a00020449800a840900042
:106a44000040eb000108a3001c003a00284090001d
:106a54000074a1002044980000152000000c780068
:106a6400284090000028a3000400320040c0b30076
:106a74002044980030c0b300100037000004e00048
:106a840003003d000004a1002044980002003700e8
:106a94000004a00020449800a84090000040eb00af
:106aa4000108a300b9ff32000400370080c0b3001e
:106ab40020449800000ceb0030c0b3004f04780071
:106ac40000000600889fbe008a1f7800000478003a
:106ad400284090000074a00020449800180078001a
:106ae4000000e0000400320021142000810f500057
:106af4006b003a005000370091708000c808de0037
:106b0400e1806000e0e92100908f50003a003200fb
:106b14001000200010f58800907080004800de000e
:106b240061006000f0f48800681207004aec21005c
:106b34008a84e800190d500064120700800c780064
:106b44001a007800f6805400910f500006003900b6
:106b54001000200020f588000000eb0030f58800cc
:106b640040f588000e00370021eb2100910f500002
:106b7400060036000000eb0020f58800110020001c
:106b840031f5880040f58800050037000000eb006f
:106b940020f5880030f588001000200040f58800ba
:106ba400130eab0002003200132eab0004003200bf
:106bb400130eab0009003a00132eab00070032009d
:106bc4001000200050f58800c0ea21000008eb0006
:106bd400740040001008e8000e003700a0ea21000d
:106be4000008eb001000200060f5880000ec210094
:106bf4001008e900070037000000eb0010f58800da
:106c040020f5880030f5880040f5880050f58800ac
:106c140060f588002d1207003004980041049800a4
:106c2400a000200001002000500498006104980096
:106c340020142000000c7800284090000028a300b5
:106c44000400320040c0b3002044980030c0b300b8
:106c54001700370058019000e801900038009000b8
:106c6400c80090005d0607000000e0000400320048
:106c7400284090000004a10020449800030037003d
:106c8400284090000004a00020449800a8409000f0
:106c94000040eb000108a30097ff32000400370016
:106ca40080c0b30020449800000ceb0030c0b30057
:106cb4004f0578004f04be000000060006120700ce
:106cc400000006001faea90011aea8001baea9006b
:106cd4001daea9001baea800b003200001002000d7
:106ce400f6ff0700000006001f8ea900118ea80001
:106cf4001b8ea9001d8ea9001b8ea800b0032000c6
:106d040001002000edff07000000060021eea800ae
:106d14002beea9002deea9002beea800b003200055
:106d240001002000e5ff0700000006001f0ea90077
:106d3400110ea8001b0ea9001d0ea9001f2ea900ec
:106d4400112ea8001b2ea9001d2ea9001b0ea800a1
:106d54001b2ea800b003200001002000d7ff07006d
:106d64000000060000f688000000060010f6880007
:106d74000000060060f480000000060060f480005b
:106d840000f0a7000000ea000000e9004f00de0068
:106d940000000600e1e82100110078008008eb0003
:106da4000000060080f488000000060080f48000e3
:106db4000000060090f480000000060090f48000bb
:106dc40000f0a7000000ea000000e9004f00de0028
:106dd4000000060041e92100110078008008eb0062
:106de40000000600b0f4880000000600b0f4800043
:106df40000000600c0f4800000000600c0f480001b
:106e040000f0a7000000ea000000e9004f00de00e7
:106e14000000060041e92100110078008008eb0021
:106e240000000600e0f4880000000600e0f48000a2
:106e34000000060040eb2100100078000000a200d2
:106e440000f0a7000000ea000000e9004f00de00a7
:106e540000000600a0f5800000f0a7000000ea0092
:106e64000000e9004f00de000000060060eb210096
:106e74000008eb0010002000a0f5880000000600c8
:106e84000000eb00b0f58800a0f5880000000600c3
:106e940040eb21001000a200a0728000700060008e
:106ea4000000e9004f00de004400dd00a172800014
:106eb4000140a10081007000a1728800000006005a
:106ec400b0f588000000060080eb21001000780077
:106ed4000000a20000f0a7000000ea000000e900a2
:106ee4004f00de0000000600c0f5800000f0a7009f
:106ef4000000ea000000e9004f00de000000060088
:106f0400a0eb21000008eb0010002000c0f5880071
:106f1400000006000000eb00d0f58800c0f58800f2
:106f24000000060080eb21001000a20000002400f5
:106f3400140eb6000000e9004f00de004e00dd0034
:106f4400a170800001e0a10081007000a1708800a0
:106f540000000600d0f5880000000600c0eb210008
:106f6400100078000000a20000f0a7000000ea0072
:106f74000000e9004f00de0000000600e0f580009c
:106f840000f0a7000000ea000000e9004f00de0066
:106f940000000600e0eb21000008eb0010002000d8
:106fa400e0f58800000006000000eb00f0f5880022
:106fb400e0f5880000000600c0eb21001000a200ec
:106fc400a07080000080ea004f00de004f00dd006a
:106fd400a170800001f0a10081007000a170880000
:106fe40000000600f0f588000000060000f68000ae
:106ff4000000060010f580000000060020f5800067
:107004000000060030f580000000060040f5800016
:107014000000060050f580000000060060f58000c6
:107024000000060020f680000000060070f58800cd
:107034000000060070f580000000060080f588005e
:107044000000060080f580000000060090f588002e
:107054000000060090f58000000006000000eb0030
:1070640060f4880070f48800411f200081f48800d7
:1070740090f48800a0f48800b1f48800c0f488007b
:10708400d0f48800e1f48800f0f4880000f588006a
:1070940010f5880020f5880030f5880040f5880058
:1070a40050f5880060f588000119200071f588000a
:1070b4006109200081f58800f100200091f5880025
:1070c400a0f58800b0f58800c0f58800d0f58800e8
:1070d400e0f58800f0f5880000f6880010f68800d6
:1070e40020f6880030f6880000000600889fbe0065
:1070f4008a9fbe008c9fbe008e1f780080222a00cb
:107104009a030700d5ff0700508ea900568ea900e8
:107114005a8ea9005c8ea9001fcea90011cea90029
:107124001bcea9001dcea9001feea90011eea900d7
:107134001beea9001deea900e2fe0700eafe07000f
:10714400f2fe0700dffe0700302ea900362ea9004c
:107154003a2ea9003c2ea9000bf82f0021378000fd
:10716400018065001004b3002037880088ff2f00d9
:107174008219200012096400c00c800067006000be
:10718400820c80008200640081007000810c880001
:107194000cc021000c0078009821b7009801b600bb
:1071a400fd3f2e00820c800082806600810070000a
:1071b400810c88009b01a800d00c80000010b20054
:1071c400910c80000180a10081007000910c880066
:1071d4009ae1a800d00c80000008b200910c800055
:1071e4000170a10081007000910c88000afe2f003c
:1071f400a019200010086500d00c80007f006000fa
:10720400920c80008200650081007000910c88005f
:10721400fef92f000019200010086700c10c80003f
:10722400010064000000a000c00c8800c00c8000b5
:1072340067006000820c800082006400810070009e
:10724400810c8800e082200010f0a100e18720007a
:10725400f2ff22009108610002002600910841001b
:1072640010f0a000a0fe0700304ea900364ea90081
:107274003a4ea9003c4ea9003137800001806500d8
:107284002004b30030378800821a200012096400f9
:10729400400d800067006000020d800082006400e1
:1072a40081007000010d88000c007800a821b7004f
:1072b400a801b600020d8000828066008100700083
:1072c400010d8800ab01a800500d80000010b20031
:1072d400110d80000180a10081007000110d880053
:1072e400aae1a800500d80000008b200110d800032
:1072f4000170a10081007000110d8800a01a200007
:1073040010086500500d80007f006000120d8000a1
:107314008200650081007000110d8800001a2000b1
:1073240010086700410d8000010064000000a00007
:10733400400d8800400d800067006000020d800051
:107344008200640081007000010d88000983200020
:107354001970a10020882000f1ff2200108860002d
:1073640002002600100841001970a00067fe070003
:10737400306ea900366ea9003a6ea9003c6ea900d1
:1073840040378000808565003b04b3004b3788009c
:10739400811b200091086400c00d8000670060001c
:1073a400820d80008200640081007000810d8800dd
:1073b4000c007800b821b700b801b600810d800038
:1073c400818666008d0670008d0d8800bb01a800c3
:1073d400d00d80000010b200910d80000180a1004a
:1073e40081007000910d8800bae1a800d00d8000e2
:1073f4000008b200910d80000170a10081007000ae
:10740400910d8800a21b200012096500d00d800098
:107414007f006000910d8000010565000a05700081
:107424009a0d8800021b200012096700c10d80001c
:10743400010064000000a000c00d8800c00d8000a1
:1074440067006000820d800002046400080470007c
:10745400880d880019b0a10040882000f1ff2200a7
:1074640010886000020026001008410019b0a00036
:107474002efe070040562300e5020700c203200049
:10748400030020000020230092040700c04a2300c8
:10749400df020700403f2300dd020700c033230062
:1074a400db0207004f0778004f06be004f05be0001
:1074b4004f04be000000060000002100a1d42100fa
:1074c400010878008000eb0011009800210098006a
:1074d400020420003200980080002100a3d821007b
:1074e40003087800110098002100980032009800e9
:1074f4008a0f0700000006000080fb004400de0045
:10750400e94f5000020036007043b000010037001c
:107514000043b000000006006f406000e94f5000d7
:10752400020036007043b000010037000043b00091
:1075340000000600881f78000004780028409000ae
:107544000074a00020449800180178000200e000b4
:107554000400320031052000810f510027003a0059
:107564000c00370081417800b20221000349780001
:10757400118080008100e8006181880002042000fd
:10758400828f500001003a002c30ef0031052000ba
:10759400010c78000028a3000400320040c0b300ae
:1075a4002044980030c0b300180037006181800087
:1075b40022808000810f5100030032000004a100ea
:1075c40020449800020037000004a00020449800e2
:1075d400284190000040eb000208a3000b003a0091
:1075e4000000210010814000b30221009341780083
:1075f40003497800110098001f0f070080c0b300f2
:1076040020449800000ceb0030c0b3004f04780015
:1076140000000600889fbe000004780081447800c2
:10762400284090000074a0002044980018007800be
:107634000000e00004003200a1062000810f500089
:107644003f003a001900370001c3b300e0df210016
:107654000148780081c7b3000000e80001487800c1
:1076640009407800a4ff070001e021008048780069
:1076740009407800a8ff070011e021008048780045
:107684000100e8000048eb002a70ef000210ec0053
:107694004081880001042000810f500001003a005d
:1076a4002830ef00a0062000000c7800284090004d
:1076b4000028a3000400320040c0b3002044980016
:1076c40030c0b30022003700418180002280800056
:1076d400810f5100030032000004a10020449800ef
:1076e400020037000004a0002044980028419000c4
:1076f4000040eb000208a30015003a00000021003e
:1077040090814000a2022100124178000282fb0015
:10771400e5df210004824200944978000241e80038
:1077240002427800a30221008449780011009800e5
:10773400d10e07002ad0bf00e34f5000d3ff36001c
:1077440080c0b30020449800000ceb0030c0b300ac
:107754004f04be0000000600881f78000004780073
:10776400284090000074a00020449800180078007d
:107774000000e0000400320041082000810f5000a6
:1077840067003a00410037002670ef0030c6b300ae
:1077940080cf50000a0036000181fb004211de0058
:1077a400b04721000011b8000301d10090df21008f
:1077b40003c3b3000348410010c0b30026f0b70070
:1077c400e9cf50001400360026d0bf000081fb0032
:1077d40093df2100828141000181fb00c212de009f
:1077e400b4472100042ab8008502d10044062000d1
:1077f40084aab900040151000281fb00d5cc2c00fd
:107804000512b8004329de0004c3b30084494100d3
:107814000040e80026f0b70062022100124178001f
:107824008281fb0090df2100830140008180fb0006
:10783400d4cc2c00040ab800432ade00ea22b900a2
:107844008480500004c3b30084c940008240e8002f
:1078540062022100014978008180fb0001004000a0
:107864000048eb002770ef002a0037000210ec00fc
:107874002081880001042000810f500001003a009b
:107884002430ef0040082000000c780028409000cd
:107894000028a3000400320040c0b3002044980034
:1078a40030c0b30022003700218180002480800092
:1078b400810f5200030032000004a100204498000c
:1078c400020037000004a0002044980028419000e2
:1078d4000040eb000208a30015003a00000021005c
:1078e4009081400072022100124178000282fb0064
:1078f40095df210004824200944978000241e800a7
:107904000242780073022100844978001100980033
:10791400590e070027d0bf002650e300d3ff3e00d6
:1079240080c0b30020449800000ceb0030c0b300ca
:107934004f04780000000600889fbe008a9fbe00a6
:107944008c1f7800000678000204be002c409000d2
:107954000074a000204698001c0078000000e0009d
:1079640004003200410a2000810f50005f003a00f9
:107974003900370001c3b300e0de2100014878007c
