:020000040000fa
:080000000013040000000000e1
:020000040000fa
:1000080002100000061000000a1000000e10000088
:1000180012100000161000001a1000001e10000038
:1000280022100000261000002a1000002e100000e8
:1000380032100000361000003a1000003e10000098
:1000480042100000461000004a1000004e10000048
:1000580052100000561000005a1000005e100000f8
:1000680062100000661000006a1000006e100000a8
:1000780072100000761000007a1000007e10000058
:1000880082100000861000008a1000008e10000008
:1000980092100000961000009a1000009e100000b8
:1000a800a2100000a6100000aa100000ae10000068
:1000b800b2100000b6100000ba100000be10000018
:1000c800c2100000c6100000ca100000ce100000c8
:1000d800d2100000d6100000da100000de10000078
:1000e800e2100000e6100000ea100000ee10000028
:1000f800f2100000f6100000fa100000fe100000d8
:1001080002110000061100000a1100000e11000083
:1001180012110000161100001a1100001e11000033
:1001280022110000261100002a1100002e110000e3
:1001380032110000361100003a1100003e11000093
:1001480042110000461100004a1100004e11000043
:1001580052110000561100005a1100005e110000f3
:1001680062110000661100006a1100006e110000a3
:1001780072110000761100007a1100007e11000053
:1001880082110000861100008a1100008e11000003
:1001980092110000961100009a1100009e110000b3
:1001a800a2110000a6110000aa110000ae11000063
:1001b800b2110000b6110000ba110000be11000013
:1001c800c2110000c6110000ca110000ce110000c3
:1001d800d2110000d6110000da110000de11000073
:1001e800e2110000e6110000ea110000ee11000023
:1001f800f2110000f6110000fa110000fe110000d3
:1002080002120000061200000a1200000e1200007e
:1002180012120000161200001a1200001e1200002e
:1002280022120000261200002a1200002e120000de
:1002380032120000361200003a1200003e1200008e
:1002480042120000461200004a1200004e1200003e
:1002580052120000561200005a1200005e120000ee
:020000040000fa
:10200000020000001e140400000000001e14040062
:10201000000000001e140400000000001e14040054
:10202000000000001e140400000000001e14040044
:10203000000000001e140400000000001e14040034
:10204000000000001e140400000000001e14040024
:10205000000000001e1404000000000032160400fe
:10206000000000001e140400000000001e14040004
:10207000000000001e140400000000001e140400f4
:10208000000000001e140400000000001e140400e4
:10209000000000001e1404000000000010160400e0
:1020a00000000000e4150400000000001e140400fd
:1020b000000000001e140400000000001e140400b4
:1020c000000000001e140400000000001e140400a4
:1020d000000000001e140400000000001e14040094
:1020e000000000001e140400000000001e14040084
:1020f000000000001e140400000000001e14040074
:10210000000000001e140400000000001e14040063
:10211000000000001e140400000000001e14040053
:10212000000000001e140400000000001e14040043
:10213000000000001e140400000000001e14040033
:10214000000000001e140400000000001e14040023
:10215000000000001e140400000000001e14040013
:10216000000000001e140400000000001e14040003
:10217000000000001e140400000000001e140400f3
:10218000000000001e140400000000001e140400e3
:10219000000000001e140400000000001e140400d3
:1021a000000000001e140400000000001e140400c3
:1021b000000000001e140400000000001e140400b3
:1021c000000000001e140400000000001e140400a3
:1021d000000000001e140400000000001e14040093
:1021e000000000001e140400000000001e14040083
:1021f000000000001e140400000000001e14040073
:10220000000000001e140400000000001e14040062
:10221000000000001e140400000000001e14040052
:10222000000000001e140400000000001e14040042
:10223000000000001e140400000000001e14040032
:10224000000000001e140400000000001e14040022
:10225000000000001e140400000000001e14040012
:10226000000000001e140400000000001e14040002
:10227000000000001e140400000000001e140400f2
:10228000000000001e140400000000001e140400e2
:10229000000000001e140400000000001e140400d2
:1022a000000000001e140400000000001e140400c2
:1022b000000000001e140400000000001e140400b2
:1022c000000000001e140400000000001e140400a2
:1022d000000000001e140400000000001e14040092
:1022e000000000001e140400000000001e14040082
:1022f000000000001e140400000000001e14040072
:10230000000000001e140400000000001e14040061
:10231000000000001e140400000000001e14040051
:10232000000000001e140400000000001e14040041
:10233000000000001e140400000000001e14040031
:10234000000000001e140400000000001e14040021
:10235000000000001e140400000000001e14040011
:10236000000000001e140400000000001e14040001
:10237000000000001e140400000000001e140400f1
:10238000000000001e140400000000001e140400e1
:10239000000000001e140400000000001e140400d1
:1023a000000000001e140400000000001e140400c1
:1023b000000000001e140400000000001e140400b1
:1023c000000000001e140400000000001e140400a1
:1023d000000000001e140400000000001e14040091
:1023e000000000001e140400000000001e14040081
:1023f000000000001e140400000000001e14040071
:10240000000000001e140400000000001e14040060
:10241000000000001e140400000000001e14040050
:10242000000000001e140400000000001e14040040
:10243000000000001e140400000000004c14040002
:10244000000000001e140400000000001e14040020
:10245000000000001e140400000000001e14040010
:10246000000000001e140400000000001e14040000
:10247000000000001e14040000000000d41404003a
:10248000000000001e140400000000001e140400e0
:10249000000000001e140400000000005c15040091
:1024a000000000001e140400000000001e140400c0
:1024b000000000001e140400000000001e140400b0
:0424c0000000000018
:020000040000fa
:102600000f1022000eff27000e01880000000000be
:10261000000020000000e000020032000001200065
:102620002002880014000700a10107000000e0005c
:1026300003003a00a09625000100200002003700a8
:102640000000200001002000810f70000100320016
:102650000f000700000020000000e0000200320030
:10266000000002000000000092550200000000007f
:102670000040da000000fe00e06a20000000e000f8
:1026800002003200002020009001880000000600b7
:10269000a1028800800478000000eb001f003700d2
:1026a000e284440054a0b4009905ba00e2844400d6
:1026b00054a0b4009906ba00e284440054a0b400c7
:1026c0000006eb00476fde00fd07b200ae01880098
:1026d000636ce10003003a000ad801000000eb003f
:1026e0000e003700606ce10008003a00004deb007e
:1026f0000a05e800020039003420ec000af0a000ce
:102700008b05e900f9ff3e00040037006168e10035
:10271000010032000086eb000b00070019c7ba0069
:102720000e04e0001905ba0003003a000a00e000b8
:10273000dbff3a0000000600fe07b200ae02880090
:102740008a047800f5ff37000cd0a300e20f4d009b
:102750001c00390089027800354dba000a05e800ee
:10276000020039003420ec000af0a0008b05e900db
:102770000f003200254dba000a05e80002003900ba
:102780003420ec000af0a0008b05e90008003200bc
:102790000c00e0000600320015cdba000a05e80082
:1027a000020039003420ec000af0a0008b05e9009b
:1027b0008984e80054a0b4000b00e000e2ff3a0076
:1027c000000006009902ba00055d78008b05e9005b
:1027d000f7ff3200c82ade00055d78008b05e900ae
:1027e000f3ff32000c00e000f1ff320019ddba0007
:1027f000eeff370014310400000000002c3a040002
:10280000000000009021040000000000503e040081
:1028100000000000e83a040000000000983d0400b9
:1028200000000000e03c040000000000283c040020
:10283000000000007c430400000000003600f800a7
:10284000809fbe00829fbe00849fbe00869fbe0008
:102850003200f8003400f80010002000a0018800c9
:102860000020200000d0fe00c808f8009810f900f1
:1028700020ae2900152507003400f9003200f900c8
:102880004f03be004f02be004f01be004f00be000e
:102890003600f900004006003600f800809fbe00b8
:1028a000829fbe00849fbe00869fbe00322eab007a
:1028b00036003a00800222000008eb0092e1ab00f3
:1028c00013003a00f00c8000b20c80008000eb0096
:1028d000c000dd00000020008001eb00020070005d
:1028e00083807000929e2e0003002000f1000700fc
:1028f000520181008001eb00820f5000838f58004d
:102900002200310010002000400189001f00370024
:102910009ae1a800d00c80000008b200910c800061
:102920000170a10081007000910c880080ff2f00d1
:102930009821b600c10c8000e7806000830c800005
:102940000301600002817000820c8800c20c8000cc
:10295000820060000100a000c10c8800c10c800052
:10296000e78060009001b60000807000800c880055
:102970009ae1a900d00c80000008b200910c800000
:102980000170a10081007000910c88000fe8a9007f
:102990004f03be004f02be004f01be004f00be00fd
:1029a0003600f900004006003600f800809fbe00a7
:1029b000829fbe00849fbe00869fbe00324eab0049
:1029c00036003a00e00222000008eb00a2e1ab0072
:1029d00013003a00700d8000320d80008000eb0083
:1029e000c000dd00000020008001eb00020070004c
:1029f00083807000929e2e0003002000ad0007002f
:102a0000820181008001eb00820f5000838f58000b
:102a10002200310010002000700189001f003700e3
:102a2000aae1a800500d80000008b200110d80003e
:102a30000170a10081007000110d880080ff2f003f
:102a4000a821b600410d8000e7806000030d8000e2
:102a50000301600002817000020d8800420d8000b9
:102a6000820060000100a000410d8800410d80003f
:102a7000e7806000a001b60000807000000d8800b3
:102a8000aae1a900500d80000008b200110d8000dd
:102a90000170a10081007000110d880010e8a900ec
:102aa0004f03be004f02be004f01be004f00be00ec
:102ab0003600f900004006003600f800809fbe0096
:102ac000829fbe00849fbe00869fbe00326eab0018
:102ad00036003a00400322000008eb00b2e1ab00f0
:102ae00013003a00f00d8000b20d80008000eb0072
:102af000c000dd00000020008001eb00020070003b
:102b000083807000929e2e00030020006900070061
:102b1000b20181008001eb00820f5000838f5800ca
:102b20002200310010002000a00189001f003700a2
:102b3000bae1a800d00d80000008b200910d80001d
:102b40000170a10081007000910d880080ff2f00ae
:102b5000b821b600c10d8000e7806000830d8000c1
:102b60000301600002817000820d8800c20d8000a8
:102b7000820060000100a000c10d8800c10d80002e
:102b8000e7806000b001b60000807000800d880012
:102b9000bae1a900d00d80000008b200910d8000bc
:102ba0000170a10081007000910d88001168a900da
:102bb0004f03be004f02be004f01be004f00be00db
:102bc0003600f90000400600809fbe000000210092
:102bd0009000900020009000808f500002003a008a
:102be0002188a9000c0037000430ec00000420000c
:102bf0000410e30001003a000430ef000188a9004e
:102c0000000021009000780020009000008040002b
:102c10001080fb00201188004f00be00004006001d
:102c2000809fbe00821f78000168a90031118000da
:102c30000a30ec00000420000a10e30001003a0012
:102c40000a30ef0080002100100178001000900091
:102c500000004100014878004f0178004f00be009d
:102c6000004006003600f800809fbe00829fbe0034
:102c7000849fbe00869fbe00308480004184800017
:102c800061004000e0804800308488004184880072
:102c90000068a900de1e07004f03be004f02be0001
:102ca0004f01be004f00be003600f9000040060094
:102cb000000005006022b800060220000000d000dd
:102cc0008180d2000482d2008582d2000000a00060
:102cd0000202520083825a000300310002024200c5
:102ce00083824a000000a1000603e900f3ff3a00d6
:102cf000000006000001fa00889fbe008a9fbe0007
:102d00008c1f78000004be0002057800f00320004c
:102d1000808f51000a003e000000eb0005003700e4
:102d2000984078001a5c7800195d7800815c780022
:102d30000000e800830f5000f9ff3a001e00370042
:102d4000030678008c05780000102000800f5600e4
:102d500001003600800578000b01780088007800bb
:102d600060ef2f000f004000fd0107000b0178000d
:102d70008a00780008007800f90107000b0178004c
:102d8000890078000a007800f50107000b0178003f
:102d900061ef2f008f80400009007800f0010700ec
:102da0000b0656000b0444008b8444000b054500c1
:102db0000c00e000e3ff3a004f0678004f05be002c
:102dc0004f04be000080fa00000006000001fa0077
:102dd000889fbe008a9fbe000005be00f003200051
:102de000800f510009003e000000eb000400370096
:102df0009a4078001b5d7800815d78000000e80053
:102e0000820f5000faff3a00180037008204780061
:102e10000904780000102000808f54000100360063
:102e200000047800080178008a00780080ef2f0005
:102e30000f004000ca010700080178000a00be0028
:102e4000c70107000801780081ef2f008f80400044
:102e50000b007800c2010700888454000805450073
:102e6000888545000900e000e9ff3a004f05be00f3
:102e70004f04be000080fa0000000600889fbe00dc
:102e80008a9fbe008c1f78008004780001047800bf
:102e90000205be00040678000800be000c00010018
:102ea0000000e00004003d000b017800880078007d
:102eb00009007800c5ff0700880078000a00780044
:102ec0000c0001000000e00004003d000b01780050
:102ed0008a00780008007800bcff07000800be00e8
:102ee0000c0001000000e00004003d000b01780030
:102ef0008800780009007800b4ff07004f067800ca
:102f00004f05be004f04be0000000600889fbe00b3
:102f10008a9fbe008c9fbe008e1f780080027800c2
:102f200081047800820578000304780004067800a4
:102f300005855500820220008299b9008a0f510050
:102f400022003100110009000385d8000005780037
:102f50004355de000a05e80083d5b9000a87420020
:102f60000a014500028142008e00780005007800c9
:102f7000c2ff07008a06ea000a8144000d8044006f
:102f80000c0278008801780089007800bbff0700f8
:102f90008d864500e0ff2f0080d5b9000a804500ee
:102fa0000c027800880178000b0178008d00780011
:102fb000b2ff07000c027800880178000d0178004c
:102fc000890078000e007800030037000b017800bc
:102fd0008900780005007800a8ff07004f077800f7
:102fe0004f06be004f05be004f04be0000000600a5
:102ff000e4874700889fbe008a9fbe008c9fbe006a
:103000008e1f78000004be000205be0084bf9f0032
:103010000906e8000c06460089d8b90000074400fc
:103020008cd8b900800644000900780015003700ec
:103030008a0f5600060032008b8056000d00780083
:103040000fb99700020001000000e00002003d00ff
:103050000c06e9008b8656000b0178008d00780085
:103060000e00780059ff07008c00e80081804000c6
:103070008b89b9000c0078000d07780082064400a7
:10308000010678008a0f5600e9ff3600100037006d
:103090000006e9000c06d1008be5b9000a054400e2
:1030a0008a0078000e0078000fb997000200010036
:1030b0000000e000080034000b0178008e0078006a
:1030c0000a00780041ff07000c0078000a0778002a
:1030d000808f5400eeff39004f0778004f06be0086
:1030e0004f05be004f04be004f00b10000000600b7
:1030f0000001fa00889fbe008a9fbe008c9fbe0020
:103100000005780001067800820578008a065600de
:103110008b8646008b047800150037000904780080
:1031200000102000808f5400010036000004780059
:1031300088805500810046000801780040ef2f008c
:103140000f004000060107000881560008004500f6
:103150008a007800090107000801780041ef2f007c
:103160008f8040000a007800fd000700888454002a
:103170000900e000e9ff3a004f06be004f05be001f
:103180004f04be000080fa0000000600ea874700f6
:10319000889fbe008a9fbe008c9fbe008e1f780055
:1031a0000005780081067800e2b79f0003047800ec
:1031b000840578009b0037000d06d10088e6b90031
:1031c0000c06450088e8b90000004500d0b79f0014
:1031d000880446000800ea00f0b79f00dfb09700bf
:1031e000008140000b027800880178008c00780094
:1031f0000a00780045ff0700010037000d0678003f
:103200008c0f5500090031007fb1970082064600ff
:103210008c0078000d0078000b0001000000e00039
:10322000f6ff320001003700888444005fb0970049
:10323000808f5400030039000c077800890678005d
:10324000110037008c007800090078000b000100a5
:103250000000e000f4ff3200f7ff37000c00be0072
:103260000b0001000000e000060035001c003a00e1
:10327000080178008d00780009007800d3fe07006f
:103280008884440088864600dfb09700818f56000e
:1032900013003100f1ff37007fb197008201470032
:1032a0008c0078000300780083bf9f000b000100b2
:1032b0008fb997000000e000080035000a003a00ce
:1032c0007fb0970000064600080178008300780070
:1032d0000c007800bdfe07008fb997000307780047
:1032e0008e0f5500ecff39008a0f570014003a008a
:1032f000dfb09700818f56002b0032008d8f540075
:1033000005003a00080178008c0078000900780078
:10331000aefe07000500370088017800090178003b
:103320008c0078000d00780072fe07008886460049
:1033300008064600888444000a077800d2ff370058
:103340007fb19700020747005fb09700808f56005b
:1033500010003a0082844400020646008c0f570099
:1033600006003a0008017800890078000e00780015
:1033700096fe07000e067800c3ff3700880178002c
:103380000c017800890078000e00780059fe0700d3
:10339000bdff3700080178008e0078000d0078002e
:1033a0008afe0700b7ff3700efb097000100d10099
:1033b00001017800c210de0080804000e1b79f006c
:1033c0000a065600110009000886d8000006780099
:1033d00089865600110009008886d800800678008a
:1033e0008d0f560008003e000b027800880178001f
:1033f0006fb197008c0078000a00780063ff070027
:1034000009057800070037000b0278008801780072
:103410006fb197008d007800090078005bff07000e
:103420008c067800efb097000100e0000400320045
:1034300000022000808f56005fff3e001e00370014
:1034400000022000808f56001b0036008d04d10042
:103450008904e9000b027800880178000d017800ea
:10346000890078000a007800e1fe07000900e0000a
:10347000f7ff3a0088e8b9008004450088845400ca
:1034800008017800890078000a0078004ffe0700e4
:103490008d06e9000b027800880178000d017800a4
:1034a0008000eb000a007800d1fe0700e18f560093
:1034b000f2ff3e001f003700e18f56001d0036006e
:1034c0008a04780019003700888444008a00780054
:1034d000090078000b0001000000e00004003d003e
:1034e00008017800890078000a0078000e00370093
:1034f00009067800010037000e067800080756001c
:103500008e007800090078000b0001000000e00048
:10351000f9ff3500890f56000400320008017800d9
:10352000890078000c007800f1fe07008d06e900a4
:10353000e5ff3a004f0778004f06be004f05be007a
:103540004f04be00af00b100000006000302780087
:103550008201780001017800820078000bff3700bb
:103560008001780002003700b15978000201e900bb
:103570000200e000fcff3a000000060000027800b4
:10358000808f50000c00310082814000830f50007a
:10359000090031008200400002003700c36078005b
:1035a0000201e9000200e000fcff3a000000060012
:1035b000315a78000201e9000200e000fcff3a0005
:0435c0000000060001
:020000040000fa
:1035c400556e0000686100006e6400006c650000c8
:1035d40064200000696e00007465000072720000cf
:1035e40075700000742c000020000000647300005b
:1035f40050490000433300003345000050350000bb
:10360400313200004750000038300000360000001e
:10361400756e00006b6e00006f7700006e00000096
:103624004231000000440000657600006963000038
:103634006520000049440000203d000020000000f7
:1036440020280000002900002c20000072650000e2
:1036540076690000736900006f6e000020000000ae
:10366400290a0000000a00000a2a00002a2a000091
:103674002a2a00002a2a00002a2a00002a2a0000f6
:103684002a2a00002a2a00002a2a00002a2a0000e6
:103694002a2a00002a2a00002a2a00002a2a0000d6
:1036a4002a2a00002a2a00002a2a00002a2a0000c6
:1036b4002a2a00002a2a00002a2a00002a2a0000b6
:1036c4002a2a00002a2a00002a2a00002a2a0000a6
:1036d4002a2a00002a0a00002a200000574100007c
:1036e400524e0000494e0000472000002d200000eb
:1036f400746800006973000020700000726f00009d
:1037040067720000616d00002077000061730000a3
:10371400206300006f6d0000706900006c6500009c
:1037240064200000666f00007220000074680000ce
:1037340065200000777200006f6e000067200000b3
:10374400202a00000a2a00002063000068690000a3
:10375400702e0000205400006869000073200000ef
:10376400707200006f670000726100006d2000003d
:103774006d61000079200000707200006f64000029
:103784007563000065200000756e00006578000018
:10379400706500006374000065640000206200002e
:1037a40065680000766900006f7200002120000047
:1037b4002a0a00002a200000456400006974000001
:1037c4002074000068650000206800006561000046
:1037d4006465000072200000666900006c650000ea
:1037e40073200000746f000020700000726f0000ee
:1037f40070650000726c00007920000064650000b0
:10380400666900006e6500002074000068690000ad
:10381400732000006368000069700000202a000023
:103824000a2a0000206100006e6400002074000079
:103834006f200000696e000073750000726500005f
:10384400206300006f720000726500006374000062
:10385400206f000070650000726100007469000050
:103864006f6e00002e2000002020000020200000a9
:103874002020000020200000202000002020000044
:103884002020000020200000202000002a0a000040
:103894002a2000002020000020200000202000001a
:1038a4002020000020200000202000002020000014
:1038b4002020000020200000202000002020000004
:1038c40020200000202000002020000020200000f4
:1038d40020200000202000002020000020200000e4
:1038e40020200000202000002020000020200000d4
:1038f4002020000020200000202a00000a2a0000c6
:10390400204e00004f540000453a000020490000ba
:1039140066200000746800006973000020770000ce
:1039240061730000206300006f6d00007069000087
:103934006c65000064200000666f000072200000c7
:103944007468000065200000636f0000727200005c
:103954006563000074200000636800006970000063
:103964002c200000202000002a0a00002a20000049
:10397400616e0000642000006f6e00006c7900002e
:10398400206f000063630000757200007320000064
:1039940061740000207000006f7700006572000001
:1039a4002d6f00006e200000286e00006f74000070
:1039b4002064000075720000696e0000672000003a
:1039c400612000004d4300004c5200002020000004
:1039d40020200000202a00000a2a00002072000093
:1039e4006573000065740000292c00002076000037
:1039f40065720000696600007920000074680000a8
:103a0400617400002041000056440000442000007e
:103a1400616e000064200000415600005353000012
:103a24002061000072650000206300006f6e0000da
:103a34006e65000063740000656400002e200000c1
:103a4400202000002a0a00002a2000004f6e0000f7
:103a54002074000068650000205000004943000005
:103a64003234000048330000324700005032000076
:103a7400303200002c2000006e6f00007420000023
:103a8400636f00006e6e00006563000074690000df
:103a94006e670000204100005644000044200000ee
:103aa4002020000020200000202000002020000012
:103ab400202a00000a2a000020700000726f000013
:103ac40064750000636500007320000074680000e2
:103ad40069730000206d00006573000073610000cd
:103ae40067650000206f00006e6c00007920000004
:103af40061740000207000006f77000065720000a0
:103b04002d750000702e00002020000020200000f1
:103b140020200000202000002020000020200000a1
:103b24002a0a00002a2a00002a2a00002a2a000061
:103b34002a2a00002a2a00002a2a00002a2a000031
:103b44002a2a00002a2a00002a2a00002a2a000021
:103b54002a2a00002a2a00002a2a00002a2a000011
:103b64002a2a00002a2a00002a2a00002a2a000001
:103b74002a2a00002a2a00002a2a00002a2a0000f1
:103b84002a2a00002a2a00002a2a00002a2a0000e1
:103b94000a00000046610000737400002052000017
:103ba400432000004f730000630a00000046000039
:103bb400617300007420000052430000204f000095
:103bc400736300002077000069740000682000001f
:103bd400504c00004c0a00000050000072690000c4
:103be4006d61000072790000204f000073630000d3
:103bf40020280000585400002c20000048530000e6
:103c04002c20000045430000290a00000050000059
:103c1400726900006d61000072790000204f00009d
:103c24007363000020280000585400002c2000007a
:103c3400485300002c2000004543000029200000c8
:103c44007769000074680000205000004c4c0000ac
:103c54000a00000053650000636f00006e640000fa
:103c640061720000792000004f730000630a0000b5
:103c7400004c00006f770000205000006f770000b8
:103c84006572000020520000432000004f730000c2
:103c9400630a000000460000617300007420000005
:103ca40052430000204f0000736300002f310000d6
:103cb400360a000000460000617300007420000012
:103cc40052430000204f0000736300002f4e000099
:103cd4000a000000556e00006b6e00006f77000054
:103ce4006e2000006f730000636900006c6c0000bc
:103cf400617400006f72000020740000797000008d
:103d0400652e0000000a000044650000766900008a
:103d140063650000206800006173000020620000f9
:103d2400656500006e200000696e000020730000cd
:103d34006c65000065700000206d00006f64000079
:103d4400650a0000000a000044650000766900006e
:103d540063650000206800006173000020620000b9
:103d6400656500006e200000696e00002069000097
:103d7400646c0000652000006d6f00006465000045
:103d84000a0000000a520000657300006574000018
:103d94002063000061750000736500003a20000094
:103da400005000006f770000657200002d6f000066
:103db4006e2e00000a000000536f000066740000bd
:103dc40077610000726500002052000065730000f6
:103dd400657400002e0a00000057000061740000a2
:103de40063680000646f00006720000054690000ed
:103df4006d6500006f750000743a0000200000003b
:103e04000a0000004d4300004c52000020610000f5
:103e14007373000065720000746900006f6e000027
:103e24002e0a000000420000726f0000776e00004e
:103e34002d6f0000757400002e0a0000005400006d
:103e44007261000070200000436f00006e66000085
:103e54006c690000637400002e0a00000049000031
:103e64006c6c000065670000616c0000204300007a
:103e74006f6e000064690000746900006f6e0000da
:103e84002e0a0000004300006f6e00006669000007
:103e94006775000072610000746900006f6e0000b5
:103ea400204d0000697300006d6100007463000020
:103eb400682e00000a000000556e00006b6e0000c2
:103ec4006f7700006e2000007265000073650000cb
:103ed400742e00000a00000045720000726f00009a
:103ee40072200000747200006170000070650000b0
:103ef400643a00002000000050720000696f000066
:103f040072690000747900003a200000002c00005f
:103f14002056000065630000746f000072200000ea
:103f24006e7500006d620000657200003a200000aa
:103f3400000a00000a00000055410000525400002d
:103f44003120000070610000726900007479000083
:103f540020650000727200006f7200000a00000009
:103f640055410000525400003120000066720000e8
:103f7400616d0000696e000067200000657200003a
:103f8400726f0000720a00000055000041520000e8
:103f940054310000206f000076650000727200004a
:103fa400756e000020650000727200006f720000e0
:103fb4000a00000055410000525400003220000065
:103fc40070610000726900007479000020650000cf
:103fd400727200006f7200000a0000005541000078
:103fe400525400003220000066720000616d00002f
:103ff400696e00006720000065720000726f0000a7
:10400400720a0000005500004152000054320000c2
:10401400206f00007665000072720000756e00006b
:1040240020650000727200006f7200000a00000038
:10403400554100005254000033200000706100001c
:10404400726900007479000020650000727200003b
:104054006f7200000a000000554100005254000035
:104064003320000066720000616d0000696e00007c
:104074006720000065720000726f0000720a000081
:10408400005500004152000054330000206f00002e
:104094007665000072720000756e000020650000f5
:1040a400727200006f7200000a00000055410000a7
:1040b4005254000034200000706100007269000056
:1040c4007479000020650000727200006f720000b5
:1040d4000a00000055410000525400003420000042
:1040e40066720000616d0000696e000067200000c8
:1040f40065720000726f0000720a00000055000033
:104104004152000054340000206f00007665000026
:1041140072720000756e000020650000727200006b
:104124006f7200000a0000003078000000450000b3
:10413400727200006f720000206900006e2000009f
:1041440062750000696c0000645c00006c6900002a
:10415400625c000073720000635c00007069000020
:1041640063320000345f0000736500007269000070
:10417400616c00002e630000206c0000696e00007a
:104184006520000032390000363a00002049000062
:104194006e760000616c0000696400002055000028
:1041a400415200005400000045720000726f00008c
:1041b40072200000696e0000206200007569000032
:1041c4006c6400005c6c0000696200005c730000b9
:1041d400726300005c700000696300003234000008
:1041e4005f73000065720000696100006c2e0000be
:1041f400632000006c6900006e650000203300003d
:10420400333500003a200000496e0000766100005a
:104214006c69000064200000554100005254000005
:1042240000050000030200000100000050c300006c
:1042340030750000204e0000102700008813000095
:10424400b80b0000d0070000e8030000f4010000f0
:104254002c010000c80000006400000032000000cf
:104264001e000000140000000a0000000500000009
:10427400030000000200000001000000050300002c
:10428400020100000503000002010000321e0000cc
:10429400140a000005030000020100000a62000085
:1042a400756900006c6400005c650000736f0000b9
:1042b400735c000073720000635c000065730000af
:1042c4006f7300005f660000313400007569000000
:1042d4002e6300002c20000062750000696c000051
:1042e400742000006f6e000020460000656200002c
:1042f400203200003520000032300000323100004e
:104304002061000074200000303100003a310000c8
:0c431400363a0000323300000a000000be
:020000040000fa
:10432000881f780000047800284090000074a000e6
:1043300020449800180078008000eb00a2142000b0
:10434000820f5000e08f5800ae073e0000060100cb
:104350004a013700ab073700aa073700a907370023
:10436000a8073700a7073700a6073700a5073700bb
:10437000a4073700a3073700a2073700a1073700bb
:10438000a00737009f0737009e0737009d073700bb
:104390009c0737009b0737009a07370099073700bb
:1043a00098073700970737009607370095073700bb
:1043b00094073700930737009207370091073700bb
:1043c000900737008f0737008e0737008d073700bb
:1043d0008c0737008b0737008a07370089073700bb
:1043e00088073700870737008607370085073700bb
:1043f00084073700830737008207370081073700bb
:10440000800737007f0737007e0737007d073700ba
:104410007c0737007b0737007a07370079073700ba
:10442000780737007707370076073700180137001d
:10443000300137004a013700640137007e01370040
:1044400098013700b20137006e0737006d0737005b
:104450006c0737006b073700c7013700df013700f3
:1044600068073700670737006607370065073700ba
:1044700064073700630737006207370061073700ba
:10448000600737005f0737005e0737005d073700ba
:104490005c0737005b0737005a07370059073700ba
:1044a00058073700570737005607370055073700ba
:1044b00054073700530737005207370051073700ba
:1044c000500737004f0737004e0737004d073700ba
:1044d0004c0737004b0737004a07370049073700ba
:1044e00048073700470737004607370045073700ba
:1044f00044073700430737004207370041073700ba
:1045000040073700fa0137003e0737001102370035
:104510002b023700460237003a0737005f023700a8
:10452000380737003707370036073700750237007e
:104530008d02370033073700320737003107370065
:10454000300737002f0737002e0737002d073700b9
:104550002c0737002b0737002a07370029073700b9
:1045600028073700270737002607370025073700b9
:1045700024073700230737002207370021073700b9
:10458000200737001f0737001e0737001d073700b9
:104590001c0737001b0737001a07370019073700b9
:1045a000ac02370017073700c3023700dd023700bf
:1045b000f8023700130737001103370011073700df
:1045c000100737000f073700270337003f03370076
:1045d0000c0737000b0737000a07370009073700b9
:1045e00008073700070737000607370005073700b9
:1045f00004073700030737000207370001073700b9
:1046000000073700ff063700fe063700fd063700bb
:10461000fc063700fb063700fa063700f9063700bc
:10462000f8063700f7063700f6063700f5063700bc
:10463000f406370060033700f206370077033700cf
:1046400091033700ac033700ee063700c50337008f
:10465000ec063700eb063700ea063700db033700cd
:10466000f3033700e7063700e6063700e5063700b4
:10467000e4063700e3063700e2063700e1063700bc
:10468000e0063700df063700de063700dd063700bc
:10469000dc063700db063700da063700d9063700bc
:1046a000d8063700d7063700d6063700d5063700bc
:1046b000d4063700d3063700d2063700d1063700bc
:1046c000d0063700cf06370014043700cd06370078
:1046d0002b0437004504370060043700c906370053
:1046e00079043700c7063700c6063700c50637000d
:1046f0008f043700a7043700c2063700c106370011
:10470000c0063700bf063700be063700bd063700bb
:10471000bc063700bb063700ba063700b9063700bb
:10472000b8063700b7063700b6063700b5063700bb
:10473000b4063700b3063700b2063700b1063700bb
:10474000b0063700af063700ae063700ad063700bb
:10475000ac063700ab063700aa063700c80437009e
:10476000a8063700df043700f904370014053700c6
:10477000a40637002d053700a2063700a106370032
:10478000a0063700430537005b0537009d0637005c
:104790009c0637009b0637009a06370099063700bb
:1047a00098063700970637009606370095063700bb
:1047b00094063700930637009206370091063700bb
:1047c000900637008f0637008e0637008d063700bb
:1047d0008c0637008b0637008a06370089063700bb
:1047e00088063700870637008606370085063700bb
:1047f0007c0537008306370093053700ad05370089
:10480000c80537007f063700e10537007d06370011
:104810007c0637007b063700f70537000f063700a8
:1048200078063700770637007606370075063700ba
:1048300074063700730637007206370071063700ba
:10484000700637006f0637006e0637006d063700ba
:104850006c0637006b0637006a06370069063700ba
:1048600068063700670637006606370065063700ba
:10487000640637003106370049063700608480003f
:104880000000e00016013a0070032000000c7800e0
:10489000284090000028a3000400320040c0b3006c
:1048a0002044980030c0b3005a063700318280009f
:1048b0000128a30003003a000004a100204498004e
:1048c000020037000004a000204498002841900016
:1048d0000040eb000208a3004e063a000120a000b1
:1048e0003182880060f621000008eb008003200080
:1048f000000c7800284090000028a300040032003b
:1049000040c0b3002044980030c0b30041063700d7
:10491000c1bc210060f62100c5150700e24f500020
:1049200004003600284090000004a10020449800b4
:1049300003003700284090000004a00020449800a5
:10494000a84090000040eb000108a30031063a00a7
:1049500060f621000008eb0090032000000c7800b6
:10496000284090000028a3000400320040c0b3009b
:104970002044980030c0b3002606370051be210005
:1049800060f62100aa150700e24f5000040036002f
:10499000284090000004a100204498000300370044
:1049a000284090000004a00020449800a8409000f7
:1049b0000040eb000108a30016063a0060f6210053
:1049c0000008eb00a0032000000c780028409000b5
:1049d0000028a3000400320040c0b3002044980027
:1049e00030c0b3000b063700e1bf210060f62100a4
:1049f0008f150700e24f5000040036002840900059
:104a00000004a100204498000300370028409000d3
:104a10000004a00020449800a84090000040eb0053
:104a20000108a300fb053a0060f621000008eb0036
:104a3000b0032000000c7800284090000028a3005c
:104a40000400320040c0b3002044980030c0b300de
:104a5000f005370071c1210060f6210074150700d0
:104a6000e24f500004003600284090000004a100ee
:104a70002044980003003700284090000004a00064
:104a800020449800a84090000040eb000108a300db
:104a9000e0053a0060f621000008eb00c0032000aa
:104aa000000c7800284090000028a3000400320089
:104ab00040c0b3002044980030c0b300d505370093
:104ac00041c3210060f6210059150700e24f500054
:104ad00004003600284090000004a1002044980003
:104ae00003003700284090000004a00020449800f4
:104af000a84090000040eb000108a300c5053a0063
:104b000060f621000008eb00d0032000000c7800c4
:104b1000284090000028a3000400320040c0b300e9
:104b20002044980030c0b300ba05370031c52100d9
:104b300060f621003e150700e24f500004003600e9
:104b4000284090000004a100204498000300370092
:104b5000284090000004a00020449800a840900045
:104b60000040eb000108a300aa053a004650a90046
:104b700020042000000c7800284090000028a300aa
:104b80000400320040c0b3002044980030c0b3009d
:104b9000a0053700318280000138a30003003a00ed
:104ba0000004a10020449800020037000004a00087
:104bb00020449800284190000040eb000208a30028
:104bc00094053a000130a0003182880080f721006e
:104bd0000008eb0030042000000c78002840900012
:104be0000028a3000400320040c0b3002044980015
:104bf00030c0b3008705370012c0b300e1082100c0
:104c000080f721007e140700e24f500004003600b8
:104c1000284090000004a1002044980003003700c1
:104c2000284090000004a00020449800a840900074
:104c30000040eb000108a30076053a004670a90089
:104c40008ed0bf0031c3b300814f50001600320038
:104c500007003e0081c0e900814f50000c00320087
:104c60008140e800814f50001b003a000b003700e4
:104c700051c3b300814f5000110032000d003900c4
:104c80008140e800814f500013003a000f003700c8
:104c900020002000608488002605370030002000b6
:104ca000608488002305370040002000608488006d
:104cb0002005370050002000608488001d05370063
:104cc00060002000608488001a0537007000200012
:104cd00060848800170537008c30ef001505370019
:104ce000e20f5000d7003a00d0062000000c7800f8
:104cf000284090000028a3000400320040c0b30008
:104d00002044980030c0b300420537003182800053
:104d10000128a30003003a000004a10020449800e9
:104d2000020037000004a0002044980028419000b1
:104d30000040eb000208a30036053a000120a00065
:104d40003182880060f621000008eb00f0062000a8
:104d5000000c7800284090000028a30004003200d6
:104d600040c0b3002044980030c0b300290537008c
:104d700001c7210060f62100ad140700e24f50008a
:104d800004003600284090000004a1002044980050
:104d900003003700284090000004a0002044980041
:104da000a84090000040eb000108a30019053a005c
:104db00060f621000008eb0000072000000c7800de
:104dc000284090000028a3000400320040c0b30037
:104dd0002044980030c0b3000e053700e283800005
:104de0008001eb0060f62100f1120700e24f500055
:104df00004003600284090000004a10020449800e0
:104e000003003700284090000004a00020449800d0
:104e1000a84090000040eb000108a300fd043a0008
:104e200060f621000008eb0010072000000c78005d
:104e3000284090000028a3000400320040c0b300c6
:104e40002044980030c0b300f2043700a1c0b30082
:104e500060f62100d5110700e24f50000400360033
:104e6000284090000004a10020449800030037006f
:104e7000284090000004a00020449800a840900022
:104e80000040eb000108a300e2043a0060f62100b4
:104e90000008eb0030072000000c7800284090004c
:104ea0000028a3000400320040c0b3002044980052
:104eb00030c0b300d704370071c8210060f621006c
:104ec0005b140700e24f50000400360028409000b9
:104ed0000004a100204498000300370028409000ff
:104ee0000004a00020449800a84090000040eb007f
:104ef0000108a300c7043a004650a900700720002b
:104f0000000c7800284090000028a3000400320024
:104f100040c0b3002044980030c0b300bd04370047
:104f2000318280000138a30003003a000004a10090
:104f300020449800020037000004a000204498009c
:104f4000284190000040eb000208a300b1043a00a1
:104f50000130a0003182880080f721000008eb00ba
:104f600080072000000c7800284090000028a30053
:104f70000400320040c0b3002044980030c0b300a9
:104f8000a404370012c0b300e108210080f721001b
:104f90009b130700e24f50000400360028409000a9
:104fa0000004a1002044980003003700284090002e
:104fb0000004a00020449800a84090000040eb00ae
:104fc0000108a30093043a004670a9008ed0bf00e8
:104fd00021c3b300814f50000e0032008140e80031
:104fe000814f50001300320081c0e900814f500012
:104ff00012003a00e0838000d2cc2c000201b800fd
:10500000c318de0000804000e0838800b90b070071
:1050100048043700e0838000f2a22b000201b800b0
:10502000c318de0001005000e0838800b10b0700c8
:10503000400437008c30ef003e0437008c30ef0026
:105040003c043700e30f5000d7003a00400920002d
:10505000000c7800284090000028a30004003200d3
:1050600040c0b3002044980030c0b300690437004a
:10507000318280000128a30003003a000004a1004f
:1050800020449800020037000004a000204498004b
:10509000284190000040eb000208a3005d043a00a4
:1050a0000120a0003182880060f621000008eb009a
:1050b00060092000000c7800284090000028a30020
:1050c0000400320040c0b3002044980030c0b30058
:1050d00050043700b1cd210060f62100d413070041
:1050e000e24f500004003600284090000004a10068
:1050f0002044980003003700284090000004a000de
:1051000020449800a84090000040eb000108a30054
:1051100040043a0060f621000008eb00700920000e
:10512000000c7800284090000028a3000400320002
:1051300040c0b3002044980030c0b30035043700ad
:10514000d28380008001eb0060f621001812070076
:10515000e24f500004003600284090000004a100f7
:105160002044980003003700284090000004a0006d
:1051700020449800a84090000040eb000108a300e4
:1051800024043a0060f621000008eb0080092000aa
:10519000000c7800284090000028a3000400320092
:1051a00040c0b3002044980030c0b3001904370059
:1051b000a1c0b30060f62100fc100700e24f5000d0
:1051c00004003600284090000004a100204498000c
:1051d00003003700284090000004a00020449800fd
:1051e000a84090000040eb000108a30009043a0029
:1051f00060f621000008eb00a0092000000c7800f8
:10520000284090000028a3000400320040c0b300f2
:105210002044980030c0b300fe03370071c821005d
:1052200060f6210082130700e24f500004003600b0
:10523000284090000004a10020449800030037009b
:10524000284090000004a00020449800a84090004e
:105250000040eb000108a300ee033a004650a9000d
:10526000e0092000000c7800284090000028a300ee
:105270000400320040c0b3002044980030c0b300a6
:10528000e4033700318280000138a30003003a00b4
:105290000004a10020449800020037000004a00090
:1052a00020449800284190000040eb000208a30031
:1052b000d8033a000130a0003182880080f7210035
:1052c0000008eb00f0092000000c78002840900056
:1052d0000028a3000400320040c0b300204498001e
:1052e00030c0b300cb03370012c0b300e108210087
:1052f00080f72100c2120700e24f50000400360080
:10530000284090000004a1002044980003003700ca
:10531000284090000004a00020449800a84090007d
:105320000040eb000108a300ba033a004670a90050
:105330008ed0bf0021c3b300814f50000e00320059
:105340008140e800814f50001300320081c0e90025
:10535000814f500012003a00d0838000d2cc2c0044
:105360000201b800c318de0000804000d08388002e
:10537000f00a07006f033700d0838000f2a22b00f1
:105380000201b800c318de0001005000d08388007d
:10539000e80a0700670337008c30ef006503370029
:1053a0008c30ef0063033700e40f5000d7003a0061
:1053b000900b2000000c7800284090000028a300eb
:1053c0000400320040c0b3002044980030c0b30055
:1053d00090033700318280000128a30003003a00c7
:1053e0000004a10020449800020037000004a0003f
:1053f00020449800284190000040eb000208a300e0
:1054000084033a000120a0003182880060f6210068
:105410000008eb00b00b2000000c78002840900042
:105420000028a3000400320040c0b30020449800cc
:1054300030c0b3007703370021cf210060f6210090
:10544000fb120700e24f5000040036002840900095
:105450000004a10020449800030037002840900079
:105460000004a00020449800a84090000040eb00f9
:105470000108a30067033a0060f621000008eb0072
:10548000c00b2000000c7800284090000028a300ea
:105490000400320040c0b3002044980030c0b30084
:1054a0005c033700c28380008001eb0060f62100be
:1054b0003f110700e24f50000400360028409000e2
:1054c0000004a10020449800030037002840900009
:1054d0000004a00020449800a84090000040eb0089
:1054e0000108a3004b033a0060f621000008eb001e
:1054f000d00b2000000c7800284090000028a3006a
:105500000400320040c0b3002044980030c0b30013
:1055100040033700a1c0b30060f62100231007004c
:10552000e24f500004003600284090000004a10023
:105530002044980003003700284090000004a00099
:1055400020449800a84090000040eb000108a30010
:1055500030033a0060f621000008eb00f00b200059
:10556000000c7800284090000028a30004003200be
:1055700040c0b3002044980030c0b300250337007a
:1055800071c8210060f62100a9120700e24f500007
:1055900004003600284090000004a1002044980038
:1055a00003003700284090000004a0002044980029
:1055b000a84090000040eb000108a30015033a004a
:1055c0004650a900300c2000000c780028409000c4
:1055d0000028a3000400320040c0b300204498001b
:1055e00030c0b3000b033700318280000138a300c4
:1055f00003003a000004a100204498000200370094
:105600000004a00020449800284190000040eb00d6
:105610000208a300ff023a000130a0003182880096
:1056200080f721000008eb00400c2000000c7800ff
:10563000284090000028a3000400320040c0b300be
:105640002044980030c0b300f202370012c0b3000b
:10565000e108210080f72100e9110700e24f500026
:1056600004003600284090000004a1002044980067
:1056700003003700284090000004a0002044980058
:10568000a84090000040eb000108a300e1023a00ae
:105690004670a9008ed0bf0021c3b300814f5000d7
:1056a0000e0032008140e800814f500013003200ac
:1056b00081c0e900814f500012003a00c083800091
:1056c000d2cc2c000201b800c318de0000804000dc
:1056d000c0838800270a070096023700c083800035
:1056e000f2a22b000201b800c318de000100500036
:1056f000c08388001f0a07008e0237008c30ef003d
:105700008c0237008c30ef008a023700e50f500022
:10571000d7003a00e00d2000000c780028409000ef
:105720000028a3000400320040c0b30020449800c9
:1057300030c0b300b7023700318280000128a300d7
:1057400003003a000004a100204498000200370042
:105750000004a00020449800284190000040eb0085
:105760000208a300ab023a000120a00031828800a9
:1057700060f621000008eb00000e2000000c78000d
:10578000284090000028a3000400320040c0b3006d
:105790002044980030c0b3009e02370091d0210011
:1057a00060f6210022120700e24f5000040036008c
:1057b000284090000004a100204498000300370016
:1057c000284090000004a00020449800a8409000c9
:1057d0000040eb000108a3008e023a0060f62100b1
:1057e0000008eb00100e2000000c7800284090000c
:1057f0000028a3000400320040c0b30020449800f9
:1058000030c0b30083023700b28380008001eb0018
:1058100060f6210066100700e24f500004003600d9
:10582000284090000004a1002044980003003700a5
:10583000284090000004a00020449800a840900058
:105840000040eb000108a30072023a0060f621005c
:105850000008eb00200e2000000c7800284090008b
:105860000028a3000400320040c0b3002044980088
:1058700030c0b30067023700a1c0b30060f621005a
:105880004a0f0700e24f5000040036002840900005
:105890000004a10020449800030037002840900035
:1058a0000004a00020449800a84090000040eb00b5
:1058b0000108a30057023a0060f621000008eb003f
:1058c000400e2000000c7800284090000028a30023
:1058d0000400320040c0b3002044980030c0b30040
:1058e0004c02370071c8210060f62100d01107007a
:1058f000e24f500004003600284090000004a10050
:105900002044980003003700284090000004a000c5
:1059100020449800a84090000040eb000108a3003c
:105920003c023a004650a900800e2000000c78008e
:10593000284090000028a3000400320040c0b300bb
:105940002044980030c0b30032023700318280001a
:105950000138a30003003a000004a100204498008d
:10596000020037000004a000204498002841900065
:105970000040eb000208a30026023a000130a0001c
:105980003182880080f721000008eb00900e200093
:10599000000c7800284090000028a300040032008a
:1059a00040c0b3002044980030c0b3001902370053
:1059b00012c0b300e108210080f721001011070098
:1059c000e24f500004003600284090000004a1007f
:1059d0002044980003003700284090000004a000f5
:1059e00020449800a84090000040eb000108a3006c
:1059f00008023a004670a9008ed0bf0021c3b30050
:105a0000814f50000e0032008140e800814f50006d
:105a10001300320081c0e900814f500012003a00ab
:105a2000b0838000d2cc2c000201b800c318de0085
:105a300000804000b0838800d0090700bd01370016
:105a4000b0838000f2a22b000201b800c318de0070
:105a500001005000b0838800c8090700b501370075
:105a60008c30ef00b30137008c30ef00b10137000c
:105a7000e60f5000d7003a0030102000000c7800ec
:105a8000284090000028a3000400320040c0b3006a
:105a90002044980030c0b300de013700318280001e
:105aa0000128a30003003a000004a100204498004c
:105ab000020037000004a000204498002841900014
:105ac0000040eb000208a300d2013a000120a00030
:105ad0003182880060f621000008eb0050102000a1
:105ae000000c7800284090000028a3000400320039
:105af00040c0b3002044980030c0b300c501370057
:105b000021d2210060f6210049110700e24f500028
:105b100004003600284090000004a10020449800b2
:105b200003003700284090000004a00020449800a3
:105b3000a84090000040eb000108a300b5013a0026
:105b400060f621000008eb0060102000000c7800d7
:105b5000284090000028a3000400320040c0b30099
:105b60002044980030c0b300aa013700a28380000f
:105b70008001eb0060f621008d0f0700e24f50001e
:105b800004003600284090000004a1002044980042
:105b900003003700284090000004a0002044980033
:105ba000a84090000040eb000108a30099013a00d2
:105bb00060f621000008eb0070102000000c780057
:105bc000284090000028a3000400320040c0b30029
:105bd0002044980030c0b3008e013700a1c0b3004c
:105be00060f62100710e0700e24f500004003600fd
:105bf000284090000004a1002044980003003700d2
:105c0000284090000004a00020449800a840900084
:105c10000040eb000108a3007e013a0060f621007d
:105c20000008eb0090102000000c78002840900045
:105c30000028a3000400320040c0b30020449800b4
:105c400030c0b3007301370071c8210060f6210035
:105c5000f7100700e24f5000040036002840900083
:105c60000004a10020449800030037002840900061
:105c70000004a00020449800a84090000040eb00e1
:105c80000108a30063013a004650a900d01020008b
:105c9000000c7800284090000028a3000400320087
:105ca00040c0b3002044980030c0b3005901370011
:105cb000318280000138a30003003a000004a100f3
:105cc00020449800020037000004a00020449800ff
:105cd000284190000040eb000208a3004d013a006b
:105ce0000130a0003182880080f721000008eb001d
:105cf000e0102000000c7800284090000028a3004d
:105d00000400320040c0b3002044980030c0b3000b
:105d10004001370012c0b300e108210080f72100e4
:105d200037100700e24f5000040036002840900072
:105d30000004a10020449800030037002840900090
:105d40000004a00020449800a84090000040eb0010
:105d50000108a3002f013a004670a9008ed0bf00b1
:105d600021c3b300814f50000e0032008140e80093
:105d7000814f50001300320081c0e900814f500074
:105d800012003a00a0838000d2cc2c000201b8009f
:105d9000c318de0000804000a0838800fb080700d5
:105da000e4003700a0838000f2a22b000201b800bb
:105db000c318de0001005000a0838800f30807002c
:105dc000dc0037008c30ef00da0037008c30ef0059
:105dd000d8003700e70f5000d6003a0080122000ac
:105de000000c7800284090000028a3000400320036
:105df00040c0b3002044980030c0b3000501370014
:105e0000318280000128a30003003a000004a100b1
:105e100020449800020037000004a00020449800ad
:105e2000284190000040eb000208a300f9003a006e
:105e30000120a0003182880060f621000008eb00fc
:105e4000a0122000000c7800284090000028a30039
:105e50000400320040c0b3002044980030c0b300ba
:105e6000ec003700a1d3210060f62100701007007c
:105e7000e24f500004003600284090000004a100ca
:105e80002044980003003700284090000004a00040
:105e900020449800a84090000040eb000108a300b7
:105ea000dc003a0060f621000008eb00b012200090
:105eb000000c7800284090000028a3000400320065
:105ec00040c0b3002044980030c0b300d100370078
:105ed000928380008001eb0060f62100b40e070081
:105ee000e24f500004003600284090000004a1005a
:105ef0002044980003003700284090000004a000d0
:105f000020449800a84090000040eb000108a30046
:105f1000c0003a0060f621000008eb00c01220002b
:105f2000000c7800284090000028a30004003200f4
:105f300040c0b3002044980030c0b300b500370023
:105f4000a1c0b30060f62100980d0700e24f500099
:105f500004003600284090000004a100204498006e
:105f600003003700284090000004a000204498005f
:105f7000a84090000040eb000108a300a5003a00f3
:105f800060f621000008eb00e0122000000c780011
:105f9000284090000028a3000400320040c0b30055
:105fa0002044980030c0b3009a00370071c8210027
:105fb00060f621001e100700e24f5000040036007a
:105fc000284090000004a1002044980003003700fe
:105fd000284090000004a00020449800a8409000b1
:105fe0000040eb000108a3008a003a004650a900d7
:105ff00020132000000c7800284090000028a30007
:106000000400320040c0b3002044980030c0b30008
:1060100080003700318280000138a30003003a007d
:106020000004a10020449800020037000004a000f2
:1060300020449800284190000040eb000208a30093
:1060400074003a000130a0003182880080f72100fe
:106050000008eb0030132000000c7800284090006e
:106060000028a3000400320040c0b3002044980080
:1060700030c0b3006700370012c0b300e108210050
:1060800080f721005e0f0700e24f50000400360049
:10609000284090000004a10020449800030037002d
:1060a000284090000004a00020449800a8409000e0
:1060b0000040eb000108a30056003a004670a9001a
:1060c0008ed0bf0021c3b300814f50000e003200bc
:1060d0008140e800814f50001300320081c0e90088
:1060e000814f500012003a0090838000d2cc2c00e7
:1060f0000201b800c318de000080400090838800d1
:10610000260807000b00370090838000f2a22b00c6
:106110000201b800c318de0001005000908388001f
:106120001e080700030037008c30ef000100370025
:106130008c30ef0090142000000c78002840900074
:106140000028a3000400320040c0b300204498009f
:1061500030c0b3002f003700318280000128a30037
:1061600003003a000004a100204498000200370018
:106170000004a00020449800284190000040eb005b
:106180000208a30023003a000120a0003182880009
:1061900060f621000008eb00a0142000000c78003d
:1061a000284090000028a3000400320040c0b30043
:1061b0002044980030c0b3001600370031d52100cc
:1061c00060f621009a0f0700e24f500004003600ed
:1061d000284090000004a1002044980003003700ec
:1061e000284090000004a00020449800a84090009f
:1061f0000040eb000108a30006003a004650a90049
:106200009ef9370080c0b30020449800000ceb00da
:1062100030c0b3004f0478000000060000192200cf
:10622000f40f070000000600881f780000047800c3
:10623000284090000074a0002044980018007800c6
:106240008000eb0002102000820f5000e08f580009
:106250007b043e000006010000013700780437008f
:10626000770437007604370075043700740437006c
:10627000730437007204370071043700700437006c
:106280006f0437006e0437006d0437006c0437006c
:106290006b0437006a04370069043700680437006c
:1062a000670437006604370065043700640437006c
:1062b000630437006204370061043700600437006c
:1062c0005f0437005e0437005d0437005c0437006c
:1062d0005b0437005a04370059043700580437006c
:1062e000570437005604370055043700540437006c
:1062f000530437005204370051043700500437006c
:106300004f0437004e0437004d0437004c0437006b
:106310004b0437004a04370049043700480437006b
:10632000470437004604370045043700440437006b
:10633000430437004204370041043700400437006b
:106340003f0437003e0437003d0437003c0437006b
:106350003b0437003a04370039043700380437006b
:10636000370437003604370035043700340437006b
:10637000330437003204370031043700300437006b
:106380002f0437002e0437002d0437002c0437006b
:106390002b0437002a04370029043700b4003700e3
:1063a000cc003700260437002504370024043700ca
:1063b000230437002204370021043700200437006b
:1063c000e5003700fd0037001d04370018013700d5
:1063d0001b043700340137004e01370066013700d7
:1063e000800137009a01370015043700b9013700e2
:1063f000130437001204370011043700100437006b
:106400000f043700d6013700ee0137000c043700c7
:106410000b043700050237001d023700080437005f
:10642000070437000604370005043700040437006a
:10643000030437000204370001043700000437006a
:10644000ff033700fe033700fd033700fc0337006e
:106450003802370050023700f9033700f8033700dd
:10646000670237007f023700f5033700f403370077
:10647000f3033700f2033700f1033700f00337006e
:10648000ef033700ee033700ed033700ec0337006e
:10649000eb033700ea033700e9033700e80337006e
:1064a000e7033700e6033700e5033700e40337006e
:1064b000e3033700e2033700e1033700e00337006e
:1064c000df033700de033700dd033700dc0337006e
:1064d000db033700da033700d9033700d80337006e
:1064e000d7033700d6033700d5033700d40337006e
:1064f000d3033700d2033700d1033700d00337006e
:10650000cf033700ce033700cd033700cc0337006d
:10651000cb033700ca033700c9033700c80337006d
:10652000c7033700c6033700c5033700c40337006d
:10653000c3033700c2033700c1033700c00337006d
:10654000bf033700be033700bd033700bc0337006d
:10655000bb033700ba033700b9033700b80337006d
:10656000b7033700b6033700b5033700b40337006d
:10657000b3033700b2033700b1033700b00337006d
:10658000af033700ae033700ad033700ac0337006d
:10659000ab033700aa033700a9033700a80337006d
:1065a000a7033700a6033700a5033700a40337006d
:1065b000a3033700a2033700a1033700a00337006d
:1065c0009f0337009e0337009d0337009c0337006d
:1065d0009b0337009a03370099033700980337006d
:1065e000970337009603370095033700940337006d
:1065f000930337009203370091033700900337006d
:106600008f0337008e0337008d0337008c0337006c
:106610008b0337008a03370089033700880337006c
:10662000870337008603370085033700840337006c
:1066300083033700e3023700ff0237001a033700f5
:10664000320337004c0337007d0337007c033700eb
:106650007b0337007a0337006603370090818000a0
:106660000000e00036003a0010052000000c780021
:10667000284090000028a3000400320040c0b3006e
:106680002044980030c0b30071033700318280008d
:106690000128a30003003a000004a1002044980050
:1066a000020037000004a000204498002841900018
:1066b0000040eb000208a30065033a000120a0009f
:1066c0003182880060f621000008eb0020052000e0
:1066d000000c7800284090000028a300040032003d
:1066e00040c0b3002044980030c0b30058033700c6
:1066f00041d7210060f621004d0e0700e24f500007
:1067000004003600284090000004a10020449800b6
:1067100003003700284090000004a00020449800a7
:10672000a84090000040eb000108a30048033a0095
:106730004650a900100020009081880028033700ef
:10674000e10f500026033200e30f500000013a0031
:10675000a0052000000c7800284090000028a3002d
:106760000400320040c0b3002044980030c0b300a1
:1067700037033700318280000128a30003003a006c
:106780000004a10020449800020037000004a0008b
:1067900020449800284190000040eb000208a3002c
:1067a0002b033a000120a0003182880060f621000e
:1067b0000008eb00b0052000000c78002840900095
:1067c0000028a3000400320040c0b3002044980019
:1067d00030c0b3001e033700c1df210060f6210086
:1067e000130e0700e24f50000400360028409000ce
:1067f0000004a100204498000300370028409000c6
:106800000004a00020449800a84090000040eb0045
:106810000108a3000e033a004650a900270f070005
:10682000a08188000008eb00d0052000000c780053
:10683000284090000028a3000400320040c0b300ac
:106840002044980030c0b30001033700420020000c
:1068500031002000a0818000aa070700e24f50000d
:1068600004003600284090000004a1002044980055
:1068700003003700284090000004a0002044980046
:10688000a84090000040eb000108a300aa003200dd
:10689000ef023700090f0700a08188000008eb0015
:1068a000f0052000000c7800284090000028a3008c
:1068b0000400320040c0b3002044980030c0b30050
:1068c000e30237008001eb000041eb00610321008f
:1068d000a081800007080700e24f50000400360046
:1068e000284090000004a1002044980003003700d5
:1068f000284090000004a00020449800a840900088
:106900000040eb000108a300d1023a00000620007d
:10691000000c7800284090000028a30004003200fa
:1069200040c0b3002044980030c0b300c802370014
:10693000318280000128a30003003a000004a10076
:1069400020449800020037000004a0002044980072
:10695000284190000040eb000208a300bc023a006e
:106960000120a0003182880060f621000008eb00c1
:1069700010062000000c7800284090000028a3009a
:106980000400320040c0b3002044980030c0b3007f
:10699000af02370001e2210060f62100a40d0700dc
:1069a000e24f500004003600284090000004a1008f
:1069b0002044980003003700284090000004a00005
:1069c00020449800a84090000040eb000108a3007c
:1069d0009f023a0060f621000008eb00200620002c
:1069e000000c7800284090000028a300040032002a
:1069f00040c0b3002044980030c0b3009402370078
:106a0000b181800060f621005e0c0700e24f50006b
:106a100004003600284090000004a10020449800a3
:106a200003003700284090000004a0002044980094
:106a3000a84090000040eb000108a30084023a0047
:106a400060f621000008eb0030062000000c780002
:106a5000284090000028a3000400320040c0b3008a
:106a60002044980030c0b30079023700a1c0b300c1
:106a700060f62100cd0a0700e24f50000400360006
:106a8000284090000004a100204498000300370033
:106a9000284090000004a00020449800a8409000e6
:106aa0000040eb000108a30069023a004650a9002b
:106ab000141a07003004980041049800803e20001a
:106ac0000100200050049800610498005006200046
:106ad000000c7800284090000028a3000400320039
:106ae00040c0b3002044980030c0b30058023700c3
:106af00058019000e801900038009000c800900014
:106b00002f0f07000000e000040032002840900032
:106b10000004a100204498000300370028409000a2
:106b20000004a00020449800a84090000040eb0022
:106b30000108a30046023a0090818000e30f500054
:106b400054ff3200760a07003230ef00240237008b
:106b5000e40f500073003a00b0062000000c7800eb
:106b6000284090000028a3000400320040c0b30079
:106b70002044980030c0b3003502370031828000d5
:106b80000128a30003003a000004a100204498005b
:106b9000020037000004a000204498002841900023
:106ba0000040eb000208a30029023a000120a000e7
:106bb0003182880060f621000008eb00c00620004a
:106bc000000c7800284090000028a3000400320048
:106bd00040c0b3002044980030c0b3001c0237000e
:106be00061e3210060f62100110d0700e24f500023
:106bf00004003600284090000004a10020449800c2
:106c000003003700284090000004a00020449800b2
:106c1000a84090000040eb000108a3000c023a00dd
:106c20004650a900f0062000000c78002840900093
:106c30000028a3000400320040c0b30020449800a4
:106c400030c0b30002023700318280000138a30057
:106c500003003a000004a10020449800020037001d
:106c60000004a00020449800284190000040eb0060
:106c70000208a300f6013a000130a000318288002a
:106c800080f721000008eb0000072000000c7800ce
:106c9000284090000028a3000400320040c0b30048
:106ca0002044980030c0b300e901370012c0b3009f
:106cb0008103210080f72100510c0700e24f5000b2
:106cc00004003600284090000004a10020449800f1
:106cd00003003700284090000004a00020449800e2
:106ce000a84090000040eb000108a300d8013a0042
:106cf0004670a90038d0bf0039f0b70011c3b30007
:106d0000814f500004003a003a30ef00700020003c
:106d100090818800b20137005000200090818800e7
:106d2000af013700e50f50006e003a00e007200089
:106d3000000c7800284090000028a30004003200d6
:106d400040c0b3002044980030c0b300c0013700f9
:106d5000318280000128a30003003a000004a10052
:106d600020449800020037000004a000204498004e
:106d7000284190000040eb000208a300b4013a0053
:106d80000120a0003182880060f621000008eb009d
:106d9000f0072000000c7800284090000028a30095
:106da0000400320040c0b3002044980030c0b3005b
:106db000a701370051ea210060f621009c0c070072
:106dc000e24f500004003600284090000004a1006b
:106dd0002044980003003700284090000004a000e1
:106de00020449800a84090000040eb000108a30058
:106df00097013a004650a90020082000000c7800b6
:106e0000284090000028a3000400320040c0b300d6
:106e10002044980030c0b3008d01370031828000db
:106e20000138a30003003a000004a10020449800a8
:106e3000020037000004a000204498002841900080
:106e40000040eb000208a30081013a000130a000dd
:106e50003182880080f721000008eb003008200014
:106e6000000c7800284090000028a30004003200a5
:106e700040c0b3002044980030c0b3007401370014
:106e800012c0b3008103210080f72100dc0b070052
:106e9000e24f500004003600284090000004a1009a
:106ea0002044980003003700284090000004a00010
:106eb00020449800a84090000040eb000108a30087
:106ec00063013a004670a9008103210091407800d7
:106ed000c2032100014978006000200090818800f1
:106ee0003f013700e60f5000af003a0039d0bf0035
:106ef00031c3b300814f50003700320007003e001d
:106f000081c0e900814f50000b0032008140e80051
:106f1000814f5000a1003a000900370041c3b3007f
:106f2000814f5000520032008140e800814f5000f4
:106f30009a003a00740037003a30ef0097003700ab
:106f40003cd0bf0031c3b300814f50001600320067
:106f500007003e0081c0e900814f50000c00320064
:106f60008140e800814f50008c003a000b00370050
:106f700051c3b300814f5000110032000d003900a1
:106f80008140e800814f500084003a000f00370034
:106f900010002000d08188008000370020002000f1
:106fa000d08188007d00370030002000d08188002b
:106fb0007a00370040002000d08188007700370039
:106fc00050002000d081880074003700600020004d
:106fd000d0818800710037003cd0bf0031c3b300be
:106fe000814f50001600320007003e0081c0e900ca
:106ff000814f50000c0032008140e800814f50006a
:1070000066003a000b00370051c3b300814f5000b7
:10701000110032000d0039008140e800814f50001e
:107020005e003a000f00370010022000d081880077
:107030005a00370020022000d08188005700370016
:1070400030022000d0818800540037004002200028
:10705000d08188005100370050022000d081880084
:107060004e00370060022000d08188004b003700be
:107070003cd0bf0031c3b300814f50001600320036
:1070800007003e0081c0e900814f50000c00320033
:107090008140e800814f500040003a000b0037006b
:1070a00051c3b300814f5000110032000d00390070
:1070b0008140e800814f500038003a000f0037004f
:1070c00010042000d0818800340037002004200004
:1070d000d08188003100370030042000d081880042
:1070e0002e00370040042000d08188002b0037009c
:1070f00050042000d0818800280037006004200060
:10710000d0818800250037003cd0bf0031c3b300d8
:10711000814f50001600320007003e0081c0e90098
:10712000814f50000c0032008140e800814f500038
:107130001a003a000b00370051c3b300814f5000d2
:10714000110032000d0039008140e800814f5000ed
:1071500012003a000f00370010082000d08188008c
:107160000e00370020082000d08188000b00370077
:1071700030082000d0818800080037004008200037
:10718000d08188000500370050082000d081880099
:107190000200370060082000d081880070002000c5
:1071a000908188008e003700e70f50008c003a0075
:1071b000c20c0700a08188000008eb00700f2000bf
:1071c000000c7800284090000028a3000400320042
:1071d00040c0b3002044980030c0b3009c0037008a
:1071e0004200200031002000a081800045050700fa
:1071f000e24f500004003600284090000004a10037
:107200002044980003003700284090000004a000ac
:1072100020449800a84090000040eb000108a30023
:107220008b003a00a50c0700a08188000008eb0045
:10723000800f2000000c7800284090000028a30058
:107240000400320040c0b3002044980030c0b300b6
:107250007f0037008001eb00a2032100124178007b
:1072600061032100a0818000a2050700e24f5000c9
:1072700004003600284090000004a100204498003b
:1072800003003700284090000004a000204498002c
:10729000a84090000040eb000108a3006c003a00f9
:1072a000900f2000000c7800284090000028a300d8
:1072b0000400320040c0b3002044980030c0b30046
:1072c00063003700318280000128a30003003a00e8
:1072d0000004a10020449800020037000004a00030
:1072e00020449800284190000040eb000208a300d1
:1072f00057003a000120a0003182880060f621008a
:107300000008eb00a00f2000000c7800284090003f
:107310000028a3000400320040c0b30020449800bd
:1073200030c0b3004a003700b181800060f6210010
:10733000140a0700e24f5000040036002840900075
:107340000004a1002044980003003700284090006a
:107350000004a00020449800a84090000040eb00ea
:107360000108a3003a003a0060f621000008eb0093
:10737000b00f2000000c7800284090000028a300e7
:107380000400320040c0b3002044980030c0b30075
:107390002f003700a1c0b30060f62100830807006a
:1073a000e24f500004003600284090000004a10085
:1073b0002044980003003700284090000004a000fb
:1073c00020449800a84090000040eb000108a30072
:1073d0001f003a004650a900510807003230ef0064
:1073e000284090000074a100204498000010200064
:1073f000000c7800284090000028a3000400320010
:1074000040c0b3002044980030c0b30010003700e3
:107410000004e00003003d000004a10020449800a7
:10742000020037000004a00020449800a84090000b
:107430000040eb000108a30088fc32000400370084
:1074400080c0b30020449800000ceb0030c0b300b3
:107450004f04780000000600881f780000047800c0
:10746000284090000074a000204498001800780084
:107470000000e0000400320051042000810f5000a1
:1074800044003a00300037008e0207004210e3004b
:107490000c0032008b020700108288000000e00020
:1074a0000800320090818000e30f500002003a0093
:1074b0003230ef00030037003a30ef007000200058
:1074c000908188008f0207004010e3000b0032001b
:1074d0008c020700008288000000e00007003200f4
:1074e00090818000e30f500002003a003230ef003c
:1074f00002003700300020009081880091020700d0
:107500003e10e3000b0032008e020700f08188007d
:107510000000e0000700320090818000e30f50007f
:1075200002003a003230ef00020037004000200035
:1075300090818800284090000074a10020449800a9
:1075400050042000000c7800284090000028a30080
:107550000400320040c0b3002044980030c0b300a3
:10756000100037000004e00003003d000004a1000b
:1075700020449800020037000004a0002044980036
:10758000a84090000040eb000108a300beff3200bd
:107590000400370080c0b30020449800000ceb00ca
:1075a00030c0b3004f04780000000600230307003a
:1075b000a00f2000df0207003230ef00401123004f
:1075c0000c0b0700c0a223000a0b070000000600f6
:1075d00000002200120eb6000000e9004f00de009d
:1075e00000004000917180000110a1008100700036
:1075f0009171880000002100120eb6000000e90021
:107600004f00de004200dd00917180000120a100ea
:107610008100700091718800107180000080ea0084
:107620004f00de004300dd00917180000130a100b9
:107630008100700091718800320ed50061006000f9
:1076400030018900907180004200de00610060001e
:1076500060018900907180004300de0061006000dd
:1076600090018900f00c8000b20c80008000eb00db
:10767000c000dd00000020008001eb00020070006f
:1076800083807000929e2e000300200089ed070089
:10769000520181008001eb00820f5000838f58005f
:1076a000180039009ae1a800d00c80000008b20050
:1076b000910c80000170a10081007000910c880085
:1076c00080ff2f009821b600c10c8000e780600089
:1076d000830c80000301600002817000820c88002e
:1076e000c20c8000820060000100a000c10c880074
:1076f000c10c8000e78060009001b600008070003f
:10770000800c8800700d8000320d80008000eb003e
:10771000c000dd00000020008001eb0002007000ce
:1077200083807000929e2e000300200061ed070010
:10773000820181008001eb00820f5000838f58008e
:1077400018003900aae1a800500d80000008b2001e
:10775000110d80000170a10081007000110d8800e2
:1077600080ff2f00a821b600410d8000e780600057
:10777000030d80000301600002817000020d88008b
:10778000420d8000820060000100a000410d8800d1
:10779000410d8000e7806000a001b600008070000d
:1077a000000d8800f00d8000b20d80008000eb001d
:1077b000c000dd00000020008001eb00020070002e
:1077c00083807000929e2e000300200039ed070098
:1077d000b20181008001eb00820f5000838f5800be
:1077e00018003900bae1a800d00d80000008b200ee
:1077f000910d80000170a10081007000910d880042
:1078000080ff2f00b821b600c10d8000e780600026
:10781000830d80000301600002817000820d8800ea
:10782000c20d8000820060000100a000c10d880030
:10783000c10d8000e7806000b001b60000807000dc
:10784000800d880000000600b11607000000060049
:10785000881f780000047800284090000074a00081
:10786000204498001800780081162000810f5000f5
:107870001c0032008100e800810f50003700320008
:107880000000e00048003a00c00281000000e00073
:1078900002003200610522001100a200b102810045
:1078a000e18f500002003a0015eea90001003700f8
:1078b00015eea8000000e00023003200911607003a
:1078c0003004980041049800c00281000000d100fb
:1078d0008000eb005004980061049800801620009e
:1078e000000c7800284090000028a300040032001b
:1078f00040c0b3002044980030c0b3002e003700d1
:1079000058019000e801900038009000c8009000f5
:10791000ab0b07000000e00004003200284090009c
:107920000004a10020449800030037002840900084
:107930000004a00020449800a84090000040eb0004
:107940000108a3001c003a00284090000074a10028
:107950002044980090162000000c780028409000e9
:107960000028a3000400320040c0b3002044980067
:1079700030c0b300100037000004e00003003d00f9
:107980000004a10020449800020037000004a00079
