:020000040000fa
:080000000013040000000000e1
:020000040000fa
:1000080002100000061000000a1000000e10000088
:1000180012100000161000001a1000001e10000038
:1000280022100000261000002a1000002e100000e8
:1000380032100000361000003a1000003e10000098
:1000480042100000461000004a1000004e10000048
:1000580052100000561000005a1000005e100000f8
:1000680062100000661000006a1000006e100000a8
:1000780072100000761000007a1000007e10000058
:1000880082100000861000008a1000008e10000008
:1000980092100000961000009a1000009e100000b8
:1000a800a2100000a6100000aa100000ae10000068
:1000b800b2100000b6100000ba100000be10000018
:1000c800c2100000c6100000ca100000ce100000c8
:1000d800d2100000d6100000da100000de10000078
:1000e800e2100000e6100000ea100000ee10000028
:1000f800f2100000f6100000fa100000fe100000d8
:1001080002110000061100000a1100000e11000083
:1001180012110000161100001a1100001e11000033
:1001280022110000261100002a1100002e110000e3
:1001380032110000361100003a1100003e11000093
:1001480042110000461100004a1100004e11000043
:1001580052110000561100005a1100005e110000f3
:1001680062110000661100006a1100006e110000a3
:1001780072110000761100007a1100007e11000053
:1001880082110000861100008a1100008e11000003
:1001980092110000961100009a1100009e110000b3
:1001a800a2110000a6110000aa110000ae11000063
:1001b800b2110000b6110000ba110000be11000013
:1001c800c2110000c6110000ca110000ce110000c3
:1001d800d2110000d6110000da110000de11000073
:1001e800e2110000e6110000ea110000ee11000023
:1001f800f2110000f6110000fa110000fe110000d3
:1002080002120000061200000a1200000e1200007e
:1002180012120000161200001a1200001e1200002e
:1002280022120000261200002a1200002e120000de
:1002380032120000361200003a1200003e1200008e
:1002480042120000461200004a1200004e1200003e
:1002580052120000561200005a1200005e120000ee
:020000040000fa
:10200000020000001e140400000000001e14040062
:10201000000000001e140400000000001e14040054
:10202000000000001e140400000000001e14040044
:10203000000000001e140400000000001e14040034
:10204000000000001e140400000000001e14040024
:10205000000000001e1404000000000032160400fe
:10206000000000001e140400000000001e14040004
:10207000000000001e140400000000001e140400f4
:10208000000000001e140400000000001e140400e4
:10209000000000001e1404000000000010160400e0
:1020a00000000000e4150400000000001e140400fd
:1020b000000000001e140400000000001e140400b4
:1020c000000000001e140400000000001e140400a4
:1020d000000000001e140400000000001e14040094
:1020e000000000001e140400000000001e14040084
:1020f000000000001e140400000000001e14040074
:10210000000000001e140400000000001e14040063
:10211000000000001e140400000000001e14040053
:10212000000000001e140400000000001e14040043
:10213000000000001e140400000000001e14040033
:10214000000000001e140400000000001e14040023
:10215000000000001e140400000000001e14040013
:10216000000000001e140400000000001e14040003
:10217000000000001e140400000000001e140400f3
:10218000000000001e140400000000001e140400e3
:10219000000000001e140400000000001e140400d3
:1021a000000000001e140400000000001e140400c3
:1021b000000000001e140400000000001e140400b3
:1021c000000000001e140400000000001e140400a3
:1021d000000000001e140400000000001e14040093
:1021e000000000001e140400000000001e14040083
:1021f000000000001e140400000000001e14040073
:10220000000000001e140400000000001e14040062
:10221000000000001e140400000000001e14040052
:10222000000000001e140400000000001e14040042
:10223000000000001e140400000000001e14040032
:10224000000000001e140400000000001e14040022
:10225000000000001e140400000000001e14040012
:10226000000000001e140400000000001e14040002
:10227000000000001e140400000000001e140400f2
:10228000000000001e140400000000001e140400e2
:10229000000000001e140400000000001e140400d2
:1022a000000000001e140400000000001e140400c2
:1022b000000000001e140400000000001e140400b2
:1022c000000000001e140400000000001e140400a2
:1022d000000000001e140400000000001e14040092
:1022e000000000001e140400000000001e14040082
:1022f000000000001e140400000000001e14040072
:10230000000000001e140400000000001e14040061
:10231000000000001e140400000000001e14040051
:10232000000000001e140400000000001e14040041
:10233000000000001e140400000000001e14040031
:10234000000000001e140400000000001e14040021
:10235000000000001e140400000000001e14040011
:10236000000000001e140400000000001e14040001
:10237000000000001e140400000000001e140400f1
:10238000000000001e140400000000001e140400e1
:10239000000000001e140400000000001e140400d1
:1023a000000000001e140400000000001e140400c1
:1023b000000000001e140400000000001e140400b1
:1023c000000000001e140400000000001e140400a1
:1023d000000000001e140400000000001e14040091
:1023e000000000001e140400000000001e14040081
:1023f000000000001e140400000000001e14040071
:10240000000000001e140400000000001e14040060
:10241000000000001e140400000000001e14040050
:10242000000000001e140400000000001e14040040
:10243000000000001e140400000000004c14040002
:10244000000000001e140400000000001e14040020
:10245000000000001e140400000000001e14040010
:10246000000000001e140400000000001e14040000
:10247000000000001e14040000000000d41404003a
:10248000000000001e140400000000001e140400e0
:10249000000000001e140400000000005c15040091
:1024a000000000001e140400000000001e140400c0
:1024b000000000001e140400000000001e140400b0
:0424c0000000000018
:020000040000fa
:102600004f0222000eff27000e018800000000008c
:10261000000020000000e000020032000001200065
:102620002002880014000700a10107000000e0005c
:1026300003003a0000ae2500010020000200370030
:102640000000200001002000810f70000100320016
:102650000f000700000020000000e0000200320030
:10266000000002000000000078500200000000009e
:102670000040da000000fe00e06a20000000e000f8
:1026800002003200002020009001880000000600b7
:10269000a1028800800478000000eb001f003700d2
:1026a000e284440054a0b4009905ba00e2844400d6
:1026b00054a0b4009906ba00e284440054a0b400c7
:1026c0000006eb00476fde00fd07b200ae01880098
:1026d000636ce10003003a000ad801000000eb003f
:1026e0000e003700606ce10008003a00004deb007e
:1026f0000a05e800020039003420ec000af0a000ce
:102700008b05e900f9ff3e00040037006168e10035
:10271000010032000086eb000b00070019c7ba0069
:102720000e04e0001905ba0003003a000a00e000b8
:10273000dbff3a0000000600fe07b200ae02880090
:102740008a047800f5ff37000cd0a300e20f4d009b
:102750001c00390089027800354dba000a05e800ee
:10276000020039003420ec000af0a0008b05e900db
:102770000f003200254dba000a05e80002003900ba
:102780003420ec000af0a0008b05e90008003200bc
:102790000c00e0000600320015cdba000a05e80082
:1027a000020039003420ec000af0a0008b05e9009b
:1027b0008984e80054a0b4000b00e000e2ff3a0076
:1027c000000006009902ba00055d78008b05e9005b
:1027d000f7ff3200c82ade00055d78008b05e900ae
:1027e000f3ff32000c00e000f1ff320019ddba0007
:1027f000eeff37007046040000000000424b04006a
:102800000000000090210400000000007c3404005f
:10281000000000001431040000000000c433040074
:10282000000000000c3304000000000054320400db
:1028300000000000a8390400000000003600f80085
:10284000809fbe00829fbe00849fbe00869fbe0008
:102850003200f8003400f80010002000a0018800c9
:102860000020200000d0fe00c808f8008c10f900fd
:1028700020ae29003a2107003400f9003200f900a7
:102880004f03be004f02be004f01be004f00be000e
:102890003600f900004006003600f800809fbe00b8
:1028a000829fbe00849fbe00869fbe00322eab007a
:1028b00036003a00c0f421000008eb0092e1ab00c2
:1028c00013003a00f00c8000b20c80008000eb0096
:1028d000c000dd00000020008001eb00020070005d
:1028e00083807000929e2e0003002000f1000700fc
:1028f00072fa80008001eb00820f5000838f580035
:10290000220031001000200060fa88001f0037000c
:102910009ae1a800d00c80000008b200910c800061
:102920000170a10081007000910c880080ff2f00d1
:102930009821b600c10c8000e7806000830c800005
:102940000301600002817000820c8800c20c8000cc
:10295000820060000100a000c10c8800c10c800052
:10296000e78060009001b60000807000800c880055
:102970009ae1a900d00c80000008b200910c800000
:102980000170a10081007000910c88000fe8a9007f
:102990004f03be004f02be004f01be004f00be00fd
:1029a0003600f900004006003600f800809fbe00a7
:1029b000829fbe00849fbe00869fbe00324eab0049
:1029c00036003a0020f521000008eb00a2e1ab0040
:1029d00013003a00700d8000320d80008000eb0083
:1029e000c000dd00000020008001eb00020070004c
:1029f00083807000929e2e0003002000ad0007002f
:102a0000a2fa80008001eb00820f5000838f5800f3
:102a1000220031001000200090fa88001f003700cb
:102a2000aae1a800500d80000008b200110d80003e
:102a30000170a10081007000110d880080ff2f003f
:102a4000a821b600410d8000e7806000030d8000e2
:102a50000301600002817000020d8800420d8000b9
:102a6000820060000100a000410d8800410d80003f
:102a7000e7806000a001b60000807000000d8800b3
:102a8000aae1a900500d80000008b200110d8000dd
:102a90000170a10081007000110d880010e8a900ec
:102aa0004f03be004f02be004f01be004f00be00ec
:102ab0003600f900004006003600f800809fbe0096
:102ac000829fbe00849fbe00869fbe00326eab0018
:102ad00036003a0080f521000008eb00b2e1ab00bf
:102ae00013003a00f00d8000b20d80008000eb0072
:102af000c000dd00000020008001eb00020070003b
:102b000083807000929e2e00030020006900070061
:102b1000d2fa80008001eb00820f5000838f5800b2
:102b20002200310010002000c0fa88001f0037008a
:102b3000bae1a800d00d80000008b200910d80001d
:102b40000170a10081007000910d880080ff2f00ae
:102b5000b821b600c10d8000e7806000830d8000c1
:102b60000301600002817000820d8800c20d8000a8
:102b7000820060000100a000c10d8800c10d80002e
:102b8000e7806000b001b60000807000800d880012
:102b9000bae1a900d00d80000008b200910d8000bc
:102ba0000170a10081007000910d88001168a900da
:102bb0004f03be004f02be004f01be004f00be00db
:102bc0003600f90000400600809fbe000000210092
:102bd0009000900020009000808f500002003a008a
:102be0002188a9000c0037000430ec00000420000c
:102bf0000410e30001003a000430ef000188a9004e
:102c0000000021009000780020009000008040002b
:102c10001080fb00201188004f00be00004006001d
:102c2000809fbe00821f78000168a90031118000da
:102c30000a30ec00000420000a10e30001003a0012
:102c40000a30ef0080002100100178001000900091
:102c500000004100014878004f0178004f00be009d
:102c6000004006003600f800809fbe00829fbe0034
:102c7000849fbe00869fbe00d0838000e1838000d9
:102c800061004000e0804800d0838800e183880034
:102c90000068a900511c07004f03be004f02be0090
:102ca0004f01be004f00be003600f9000040060094
:102cb000000005006022b800060220000000d000dd
:102cc0008180d2000482d2008582d2000000a00060
:102cd0000202520083825a000300310002024200c5
:102ce00083824a000000a1000603e900f3ff3a00d6
:102cf000000006000001fa00889fbe008a9fbe0007
:102d00008c1f78000004be0002057800f00320004c
:102d1000808f51000a003e000000eb0005003700e4
:102d2000984078001a5c7800195d7800815c780022
:102d30000000e800830f5000f9ff3a001e00370042
:102d4000030678008c05780000102000800f5600e4
:102d500001003600800578000b01780088007800bb
:102d600060ef2f000f004000fd0107000b0178000d
:102d70008a00780008007800f90107000b0178004c
:102d8000890078000a007800f50107000b0178003f
:102d900061ef2f008f80400009007800f0010700ec
:102da0000b0656000b0444008b8444000b054500c1
:102db0000c00e000e3ff3a004f0678004f05be002c
:102dc0004f04be000080fa00000006000001fa0077
:102dd000889fbe008a9fbe000005be00f003200051
:102de000800f510009003e000000eb000400370096
:102df0009a4078001b5d7800815d78000000e80053
:102e0000820f5000faff3a00180037008204780061
:102e10000904780000102000808f54000100360063
:102e200000047800080178008a00780080ef2f0005
:102e30000f004000ca010700080178000a00be0028
:102e4000c70107000801780081ef2f008f80400044
:102e50000b007800c2010700888454000805450073
:102e6000888545000900e000e9ff3a004f05be00f3
:102e70004f04be000080fa0000000600889fbe00dc
:102e80008a9fbe008c1f78008004780001047800bf
:102e90000205be00040678000800be000c00010018
:102ea0000000e00004003d000b017800880078007d
:102eb00009007800c5ff0700880078000a00780044
:102ec0000c0001000000e00004003d000b01780050
:102ed0008a00780008007800bcff07000800be00e8
:102ee0000c0001000000e00004003d000b01780030
:102ef0008800780009007800b4ff07004f067800ca
:102f00004f05be004f04be0000000600889fbe00b3
:102f10008a9fbe008c9fbe008e1f780080027800c2
:102f200081047800820578000304780004067800a4
:102f300005855500820220008299b9008a0f510050
:102f400022003100110009000385d8000005780037
:102f50004355de000a05e80083d5b9000a87420020
:102f60000a014500028142008e00780005007800c9
:102f7000c2ff07008a06ea000a8144000d8044006f
:102f80000c0278008801780089007800bbff0700f8
:102f90008d864500e0ff2f0080d5b9000a804500ee
:102fa0000c027800880178000b0178008d00780011
:102fb000b2ff07000c027800880178000d0178004c
:102fc000890078000e007800030037000b017800bc
:102fd0008900780005007800a8ff07004f077800f7
:102fe0004f06be004f05be004f04be0000000600a5
:102ff000e4874700889fbe008a9fbe008c9fbe006a
:103000008e1f78000004be000205be0084bf9f0032
:103010000906e8000c06460089d8b90000074400fc
:103020008cd8b900800644000900780015003700ec
:103030008a0f5600060032008b8056000d00780083
:103040000fb99700020001000000e00002003d00ff
:103050000c06e9008b8656000b0178008d00780085
:103060000e00780059ff07008c00e80081804000c6
:103070008b89b9000c0078000d07780082064400a7
:10308000010678008a0f5600e9ff3600100037006d
:103090000006e9000c06d1008be5b9000a054400e2
:1030a0008a0078000e0078000fb997000200010036
:1030b0000000e000080034000b0178008e0078006a
:1030c0000a00780041ff07000c0078000a0778002a
:1030d000808f5400eeff39004f0778004f06be0086
:1030e0004f05be004f04be004f00b10000000600b7
:1030f0000001fa00889fbe008a9fbe008c9fbe0020
:103100000005780001067800820578008a065600de
:103110008b8646008b047800150037000904780080
:1031200000102000808f5400010036000004780059
:1031300088805500810046000801780040ef2f008c
:103140000f004000060107000881560008004500f6
:103150008a007800090107000801780041ef2f007c
:103160008f8040000a007800fd000700888454002a
:103170000900e000e9ff3a004f06be004f05be001f
:103180004f04be000080fa0000000600ea874700f6
:10319000889fbe008a9fbe008c9fbe008e1f780055
:1031a0000005780081067800e2b79f0003047800ec
:1031b000840578009b0037000d06d10088e6b90031
:1031c0000c06450088e8b90000004500d0b79f0014
:1031d000880446000800ea00f0b79f00dfb09700bf
:1031e000008140000b027800880178008c00780094
:1031f0000a00780045ff0700010037000d0678003f
:103200008c0f5500090031007fb1970082064600ff
:103210008c0078000d0078000b0001000000e00039
:10322000f6ff320001003700888444005fb0970049
:10323000808f5400030039000c077800890678005d
:10324000110037008c007800090078000b000100a5
:103250000000e000f4ff3200f7ff37000c00be0072
:103260000b0001000000e000060035001c003a00e1
:10327000080178008d00780009007800d3fe07006f
:103280008884440088864600dfb09700818f56000e
:1032900013003100f1ff37007fb197008201470032
:1032a0008c0078000300780083bf9f000b000100b2
:1032b0008fb997000000e000080035000a003a00ce
:1032c0007fb0970000064600080178008300780070
:1032d0000c007800bdfe07008fb997000307780047
:1032e0008e0f5500ecff39008a0f570014003a008a
:1032f000dfb09700818f56002b0032008d8f540075
:1033000005003a00080178008c0078000900780078
:10331000aefe07000500370088017800090178003b
:103320008c0078000d00780072fe07008886460049
:1033300008064600888444000a077800d2ff370058
:103340007fb19700020747005fb09700808f56005b
:1033500010003a0082844400020646008c0f570099
:1033600006003a0008017800890078000e00780015
:1033700096fe07000e067800c3ff3700880178002c
:103380000c017800890078000e00780059fe0700d3
:10339000bdff3700080178008e0078000d0078002e
:1033a0008afe0700b7ff3700efb097000100d10099
:1033b00001017800c210de0080804000e1b79f006c
:1033c0000a065600110009000886d8000006780099
:1033d00089865600110009008886d800800678008a
:1033e0008d0f560008003e000b027800880178001f
:1033f0006fb197008c0078000a00780063ff070027
:1034000009057800070037000b0278008801780072
:103410006fb197008d007800090078005bff07000e
:103420008c067800efb097000100e0000400320045
:1034300000022000808f56005fff3e001e00370014
:1034400000022000808f56001b0036008d04d10042
:103450008904e9000b027800880178000d017800ea
:10346000890078000a007800e1fe07000900e0000a
:10347000f7ff3a0088e8b9008004450088845400ca
:1034800008017800890078000a0078004ffe0700e4
:103490008d06e9000b027800880178000d017800a4
:1034a0008000eb000a007800d1fe0700e18f560093
:1034b000f2ff3e001f003700e18f56001d0036006e
:1034c0008a04780019003700888444008a00780054
:1034d000090078000b0001000000e00004003d003e
:1034e00008017800890078000a0078000e00370093
:1034f00009067800010037000e067800080756001c
:103500008e007800090078000b0001000000e00048
:10351000f9ff3500890f56000400320008017800d9
:10352000890078000c007800f1fe07008d06e900a4
:10353000e5ff3a004f0778004f06be004f05be007a
:103540004f04be00af00b100000006000302780087
:103550008201780001017800820078000bff3700bb
:103560008001780002003700b15978000201e900bb
:103570000200e000fcff3a000000060000027800b4
:10358000808f50000c00310082814000830f50007a
:10359000090031008200400002003700c36078005b
:1035a0000201e9000200e000fcff3a000000060012
:1035b000315a78000201e9000200e000fcff3a0005
:0435c0000000060001
:020000040000fa
:1035c400556e0000686100006e6400006c650000c8
:1035d40064200000696e00007465000072720000cf
:1035e40075700000742c000020000000647300005b
:1035f40050490000433300003345000050350000bb
:10360400313200004750000038300000360000001e
:10361400756e00006b6e00006f7700006e00000096
:103624004231000000440000657600006963000038
:103634006520000049440000203d000020000000f7
:1036440020280000002900002c20000072650000e2
:1036540076690000736900006f6e000020000000ae
:10366400290a0000000a00000a2a00002a2a000091
:103674002a2a00002a2a00002a2a00002a2a0000f6
:103684002a2a00002a2a00002a2a00002a2a0000e6
:103694002a2a00002a2a00002a2a00002a2a0000d6
:1036a4002a2a00002a2a00002a2a00002a2a0000c6
:1036b4002a2a00002a2a00002a2a00002a2a0000b6
:1036c4002a2a00002a2a00002a2a00002a2a0000a6
:1036d4002a2a00002a0a00002a200000574100007c
:1036e400524e0000494e0000472000002d200000eb
:1036f400746800006973000020700000726f00009d
:1037040067720000616d00002077000061730000a3
:10371400206300006f6d0000706900006c6500009c
:1037240064200000666f00007220000074680000ce
:1037340065200000777200006f6e000067200000b3
:10374400202a00000a2a00002063000068690000a3
:10375400702e0000205400006869000073200000ef
:10376400707200006f670000726100006d2000003d
:103774006d61000079200000707200006f64000029
:103784007563000065200000756e00006578000018
:10379400706500006374000065640000206200002e
:1037a40065680000766900006f7200002120000047
:1037b4002a0a00002a200000456400006974000001
:1037c4002074000068650000206800006561000046
:1037d4006465000072200000666900006c650000ea
:1037e40073200000746f000020700000726f0000ee
:1037f40070650000726c00007920000064650000b0
:10380400666900006e6500002074000068690000ad
:10381400732000006368000069700000202a000023
:103824000a2a0000206100006e6400002074000079
:103834006f200000696e000073750000726500005f
:10384400206300006f720000726500006374000062
:10385400206f000070650000726100007469000050
:103864006f6e00002e2000002020000020200000a9
:103874002020000020200000202000002020000044
:103884002020000020200000202000002a0a000040
:103894002a2000002020000020200000202000001a
:1038a4002020000020200000202000002020000014
:1038b4002020000020200000202000002020000004
:1038c40020200000202000002020000020200000f4
:1038d40020200000202000002020000020200000e4
:1038e40020200000202000002020000020200000d4
:1038f4002020000020200000202a00000a2a0000c6
:10390400204e00004f540000453a000020490000ba
:1039140066200000746800006973000020770000ce
:1039240061730000206300006f6d00007069000087
:103934006c65000064200000666f000072200000c7
:103944007468000065200000636f0000727200005c
:103954006563000074200000636800006970000063
:103964002c200000202000002a0a00002a20000049
:10397400616e0000642000006f6e00006c7900002e
:10398400206f000063630000757200007320000064
:1039940061740000207000006f7700006572000001
:1039a4002d6f00006e200000286e00006f74000070
:1039b4002064000075720000696e0000672000003a
:1039c400612000004d4300004c5200002020000004
:1039d40020200000202a00000a2a00002072000093
:1039e4006573000065740000292c00002076000037
:1039f40065720000696600007920000074680000a8
:103a0400617400002041000056440000442000007e
:103a1400616e000064200000415600005353000012
:103a24002061000072650000206300006f6e0000da
:103a34006e65000063740000656400002e200000c1
:103a4400202000002a0a00002a2000004f6e0000f7
:103a54002074000068650000205000004943000005
:103a64003234000048330000324700005032000076
:103a7400303200002c2000006e6f00007420000023
:103a8400636f00006e6e00006563000074690000df
:103a94006e670000204100005644000044200000ee
:103aa4002020000020200000202000002020000012
:103ab400202a00000a2a000020700000726f000013
:103ac40064750000636500007320000074680000e2
:103ad40069730000206d00006573000073610000cd
:103ae40067650000206f00006e6c00007920000004
:103af40061740000207000006f77000065720000a0
:103b04002d750000702e00002020000020200000f1
:103b140020200000202000002020000020200000a1
:103b24002a0a00002a2a00002a2a00002a2a000061
:103b34002a2a00002a2a00002a2a00002a2a000031
:103b44002a2a00002a2a00002a2a00002a2a000021
:103b54002a2a00002a2a00002a2a00002a2a000011
:103b64002a2a00002a2a00002a2a00002a2a000001
:103b74002a2a00002a2a00002a2a00002a2a0000f1
:103b84002a2a00002a2a00002a2a00002a2a0000e1
:103b94000a00000046610000737400002052000017
:103ba400432000004f730000630a00000046000039
:103bb400617300007420000052430000204f000095
:103bc400736300002077000069740000682000001f
:103bd400504c00004c0a00000050000072690000c4
:103be4006d61000072790000204f000073630000d3
:103bf40020280000585400002c20000048530000e6
:103c04002c20000045430000290a00000050000059
:103c1400726900006d61000072790000204f00009d
:103c24007363000020280000585400002c2000007a
:103c3400485300002c2000004543000029200000c8
:103c44007769000074680000205000004c4c0000ac
:103c54000a00000053650000636f00006e640000fa
:103c640061720000792000004f730000630a0000b5
:103c7400004c00006f770000205000006f770000b8
:103c84006572000020520000432000004f730000c2
:103c9400630a000000460000617300007420000005
:103ca40052430000204f0000736300002f310000d6
:103cb400360a000000460000617300007420000012
:103cc40052430000204f0000736300002f4e000099
:103cd4000a000000556e00006b6e00006f77000054
:103ce4006e2000006f730000636900006c6c0000bc
:103cf400617400006f72000020740000797000008d
:103d0400652e0000000a000044650000766900008a
:103d140063650000206800006173000020620000f9
:103d2400656500006e200000696e000020730000cd
:103d34006c65000065700000206d00006f64000079
:103d4400650a0000000a000044650000766900006e
:103d540063650000206800006173000020620000b9
:103d6400656500006e200000696e00002069000097
:103d7400646c0000652000006d6f00006465000045
:103d84000a0000000a520000657300006574000018
:103d94002063000061750000736500003a20000094
:103da400005000006f770000657200002d6f000066
:103db4006e2e00000a000000536f000066740000bd
:103dc40077610000726500002052000065730000f6
:103dd400657400002e0a00000057000061740000a2
:103de40063680000646f00006720000054690000ed
:103df4006d6500006f750000743a0000200000003b
:103e04000a0000004d4300004c52000020610000f5
:103e14007373000065720000746900006f6e000027
:103e24002e0a000000420000726f0000776e00004e
:103e34002d6f0000757400002e0a0000005400006d
:103e44007261000070200000436f00006e66000085
:103e54006c690000637400002e0a00000049000031
:103e64006c6c000065670000616c0000204300007a
:103e74006f6e000064690000746900006f6e0000da
:103e84002e0a0000004300006f6e00006669000007
:103e94006775000072610000746900006f6e0000b5
:103ea400204d0000697300006d6100007463000020
:103eb400682e00000a000000556e00006b6e0000c2
:103ec4006f7700006e2000007265000073650000cb
:103ed400742e00000a00000045720000726f00009a
:103ee40072200000747200006170000070650000b0
:103ef400643a00002000000050720000696f000066
:103f040072690000747900003a200000002c00005f
:103f14002056000065630000746f000072200000ea
:103f24006e7500006d620000657200003a200000aa
:103f3400000a00000a00000055410000525400002d
:103f44003120000070610000726900007479000083
:103f540020650000727200006f7200000a00000009
:103f640055410000525400003120000066720000e8
:103f7400616d0000696e000067200000657200003a
:103f8400726f0000720a00000055000041520000e8
:103f940054310000206f000076650000727200004a
:103fa400756e000020650000727200006f720000e0
:103fb4000a00000055410000525400003220000065
:103fc40070610000726900007479000020650000cf
:103fd400727200006f7200000a0000005541000078
:103fe400525400003220000066720000616d00002f
:103ff400696e00006720000065720000726f0000a7
:10400400720a0000005500004152000054320000c2
:10401400206f00007665000072720000756e00006b
:1040240020650000727200006f7200000a00000038
:10403400554100005254000033200000706100001c
:10404400726900007479000020650000727200003b
:104054006f7200000a000000554100005254000035
:104064003320000066720000616d0000696e00007c
:104074006720000065720000726f0000720a000081
:10408400005500004152000054330000206f00002e
:104094007665000072720000756e000020650000f5
:1040a400727200006f7200000a00000055410000a7
:1040b4005254000034200000706100007269000056
:1040c4007479000020650000727200006f720000b5
:1040d4000a00000055410000525400003420000042
:1040e40066720000616d0000696e000067200000c8
:1040f40065720000726f0000720a00000055000033
:104104004152000054340000206f00007665000026
:1041140072720000756e000020650000727200006b
:104124006f7200000a0000003078000000450000b3
:10413400727200006f720000206900006e2000009f
:1041440062750000696c0000642f00006c69000057
:10415400622f000073720000632f0000706900007a
:1041640063320000345f0000736500007269000070
:10417400616c00002e630000206c0000696e00007a
:104184006520000032390000363a00002049000062
:104194006e760000616c0000696400002055000028
:1041a400415200005400000045720000726f00008c
:1041b40072200000696e0000206200007569000032
:1041c4006c6400002f6c0000696200002f73000013
:1041d400726300002f700000696300003234000035
:1041e4005f73000065720000696100006c2e0000be
:1041f400632000006c6900006e650000203300003d
:10420400333500003a200000496e0000766100005a
:104214006c69000064200000554100005254000005
:1042240000050000030200000100000050c300006c
:1042340030750000204e0000102700008813000095
:10424400b80b0000d0070000e8030000f4010000f0
:104254002c010000c80000006400000032000000cf
:104264001e000000140000000a0000000500000009
:10427400030000000200000001000000050300002c
:10428400020100000503000002010000321e0000cc
:10429400140a000005030000020100000a62000085
:1042a400756900006c6400002f650000736f0000e6
:1042b400732f000073720000632f00006573000009
:1042c4006f7300005f660000313400007569000000
:1042d4002e6300002c20000062750000696c000051
:1042e400742000006f6e000020460000656200002c
:1042f400203200003520000032300000323100004e
:104304002061000074200000303000003a340000c6
:0c431400353a0000353800000a000000b7
:020000040000fa
:10432000881f780000047800284090000074a000e6
:1043300020449800180078008000eb00a2142000b0
:10434000820f5000e08f5800ae073e0000060100cb
:104350004a013700ab073700aa073700a907370023
:10436000a8073700a7073700a6073700a5073700bb
:10437000a4073700a3073700a2073700a1073700bb
:10438000a00737009f0737009e0737009d073700bb
:104390009c0737009b0737009a07370099073700bb
:1043a00098073700970737009607370095073700bb
:1043b00094073700930737009207370091073700bb
:1043c000900737008f0737008e0737008d073700bb
:1043d0008c0737008b0737008a07370089073700bb
:1043e00088073700870737008607370085073700bb
:1043f00084073700830737008207370081073700bb
:10440000800737007f0737007e0737007d073700ba
:104410007c0737007b0737007a07370079073700ba
:10442000780737007707370076073700180137001d
:10443000300137004a013700640137007e01370040
:1044400098013700b20137006e0737006d0737005b
:104450006c0737006b073700c7013700df013700f3
:1044600068073700670737006607370065073700ba
:1044700064073700630737006207370061073700ba
:10448000600737005f0737005e0737005d073700ba
:104490005c0737005b0737005a07370059073700ba
:1044a00058073700570737005607370055073700ba
:1044b00054073700530737005207370051073700ba
:1044c000500737004f0737004e0737004d073700ba
:1044d0004c0737004b0737004a07370049073700ba
:1044e00048073700470737004607370045073700ba
:1044f00044073700430737004207370041073700ba
:1045000040073700fa0137003e0737001102370035
:104510002b023700460237003a0737005f023700a8
:10452000380737003707370036073700750237007e
:104530008d02370033073700320737003107370065
:10454000300737002f0737002e0737002d073700b9
:104550002c0737002b0737002a07370029073700b9
:1045600028073700270737002607370025073700b9
:1045700024073700230737002207370021073700b9
:10458000200737001f0737001e0737001d073700b9
:104590001c0737001b0737001a07370019073700b9
:1045a000ac02370017073700c3023700dd023700bf
:1045b000f8023700130737001103370011073700df
:1045c000100737000f073700270337003f03370076
:1045d0000c0737000b0737000a07370009073700b9
:1045e00008073700070737000607370005073700b9
:1045f00004073700030737000207370001073700b9
:1046000000073700ff063700fe063700fd063700bb
:10461000fc063700fb063700fa063700f9063700bc
:10462000f8063700f7063700f6063700f5063700bc
:10463000f406370060033700f206370077033700cf
:1046400091033700ac033700ee063700c50337008f
:10465000ec063700eb063700ea063700db033700cd
:10466000f3033700e7063700e6063700e5063700b4
:10467000e4063700e3063700e2063700e1063700bc
:10468000e0063700df063700de063700dd063700bc
:10469000dc063700db063700da063700d9063700bc
:1046a000d8063700d7063700d6063700d5063700bc
:1046b000d4063700d3063700d2063700d1063700bc
:1046c000d0063700cf06370014043700cd06370078
:1046d0002b0437004504370060043700c906370053
:1046e00079043700c7063700c6063700c50637000d
:1046f0008f043700a7043700c2063700c106370011
:10470000c0063700bf063700be063700bd063700bb
:10471000bc063700bb063700ba063700b9063700bb
:10472000b8063700b7063700b6063700b5063700bb
:10473000b4063700b3063700b2063700b1063700bb
:10474000b0063700af063700ae063700ad063700bb
:10475000ac063700ab063700aa063700c80437009e
:10476000a8063700df043700f904370014053700c6
:10477000a40637002d053700a2063700a106370032
:10478000a0063700430537005b0537009d0637005c
:104790009c0637009b0637009a06370099063700bb
:1047a00098063700970637009606370095063700bb
:1047b00094063700930637009206370091063700bb
:1047c000900637008f0637008e0637008d063700bb
:1047d0008c0637008b0637008a06370089063700bb
:1047e00088063700870637008606370085063700bb
:1047f0007c0537008306370093053700ad05370089
:10480000c80537007f063700e10537007d06370011
:104810007c0637007b063700f70537000f063700a8
:1048200078063700770637007606370075063700ba
:1048300074063700730637007206370071063700ba
:10484000700637006f0637006e0637006d063700ba
:104850006c0637006b0637006a06370069063700ba
:1048600068063700670637006606370065063700ba
:10487000640637003106370049063700008480009f
:104880000000e00016013a0070032000000c7800e0
:10489000284090000028a3000400320040c0b3006c
:1048a0002044980030c0b3005a0637008181800050
:1048b0000128a30003003a000004a100204498004e
:1048c000020037000004a000204498002841900016
:1048d0000040eb000208a3004e063a000120a000b1
:1048e0008181880080de21000008eb008003200029
:1048f000000c7800284090000028a300040032003b
:1049000040c0b3002044980030c0b30041063700d7
:1049100001bc210080de210080100700e24f500022
:1049200004003600284090000004a10020449800b4
:1049300003003700284090000004a00020449800a5
:10494000a84090000040eb000108a30031063a00a7
:1049500080de21000008eb0090032000000c7800ae
:10496000284090000028a3000400320040c0b3009b
:104970002044980030c0b3002606370091bd2100c6
:1049800080de210065100700e24f50000400360071
:10499000284090000004a100204498000300370044
:1049a000284090000004a00020449800a8409000f7
:1049b0000040eb000108a30016063a0080de21004b
:1049c0000008eb00a0032000000c780028409000b5
:1049d0000028a3000400320040c0b3002044980027
:1049e00030c0b3000b06370021bf210080de21005c
:1049f0004a100700e24f50000400360028409000a3
:104a00000004a100204498000300370028409000d3
:104a10000004a00020449800a84090000040eb0053
:104a20000108a300fb053a0080de21000008eb002e
:104a3000b0032000000c7800284090000028a3005c
:104a40000400320040c0b3002044980030c0b300de
:104a5000f0053700b1c0210080de21002f100700d3
:104a6000e24f500004003600284090000004a100ee
:104a70002044980003003700284090000004a00064
:104a800020449800a84090000040eb000108a300db
:104a9000e0053a0080de21000008eb00c0032000a2
:104aa000000c7800284090000028a3000400320089
:104ab00040c0b3002044980030c0b300d505370093
:104ac00081c2210080de210014100700e24f500057
:104ad00004003600284090000004a1002044980003
:104ae00003003700284090000004a00020449800f4
:104af000a84090000040eb000108a300c5053a0063
:104b000080de21000008eb00d0032000000c7800bc
:104b1000284090000028a3000400320040c0b300e9
:104b20002044980030c0b300ba05370071c421009a
:104b300080de2100f90f0700e24f5000040036002c
:104b4000284090000004a100204498000300370092
:104b5000284090000004a00020449800a840900045
:104b60000040eb000108a300aa053a003050a9005c
:104b700020042000000c7800284090000028a300aa
:104b80000400320040c0b3002044980030c0b3009d
:104b9000a0053700818180000138a30003003a009e
:104ba0000004a10020449800020037000004a00087
:104bb00020449800284190000040eb000208a30028
:104bc00094053a000130a00081818800a0df210017
:104bd0000008eb0030042000000c78002840900012
:104be0000028a3000400320040c0b3002044980015
:104bf00030c0b3008705370012c0b3002108210080
:104c0000a0df2100390f0700e24f500004003600fa
:104c1000284090000004a1002044980003003700c1
:104c2000284090000004a00020449800a840900074
:104c30000040eb000108a30076053a003070a9009f
:104c400082d0bf0031c3b300814f50001600320044
:104c500007003e0081c0e900814f50000c00320087
:104c60008140e800814f50001b003a000b003700e4
:104c700051c3b300814f5000110032000d003900c4
:104c80008140e800814f500013003a000f003700c8
:104c90002000200000848800260537003000200016
:104ca000008488002305370040002000008488002d
:104cb0002005370050002000008488001d053700c3
:104cc00060002000008488001a0537007000200072
:104cd00000848800170537008030ef001505370085
:104ce000e20f5000d7003a00d0062000000c7800f8
:104cf000284090000028a3000400320040c0b30008
:104d00002044980030c0b300420537008181800004
:104d10000128a30003003a000004a10020449800e9
:104d2000020037000004a0002044980028419000b1
:104d30000040eb000208a30036053a000120a00065
:104d40008181880080de21000008eb00f006200051
:104d5000000c7800284090000028a30004003200d6
:104d600040c0b3002044980030c0b300290537008c
:104d700041c6210080de2100680f0700e24f50008d
:104d800004003600284090000004a1002044980050
:104d900003003700284090000004a0002044980041
:104da000a84090000040eb000108a30019053a005c
:104db00080de21000008eb0000072000000c7800d6
:104dc000284090000028a3000400320040c0b30037
:104dd0002044980030c0b3000e05370032838000b5
:104de0008001eb0080de2100070e0700e24f50003b
:104df00004003600284090000004a10020449800e0
:104e000003003700284090000004a00020449800d0
:104e1000a84090000040eb000108a300fd043a0008
:104e200080de21000008eb0010072000000c780055
:104e3000284090000028a3000400320040c0b300c6
:104e40002044980030c0b300f2043700a1c0b30082
:104e500080de2100eb0c0700e24f5000040036001a
:104e6000284090000004a10020449800030037006f
:104e7000284090000004a00020449800a840900022
:104e80000040eb000108a300e2043a0080de2100ac
:104e90000008eb0030072000000c7800284090004c
:104ea0000028a3000400320040c0b3002044980052
:104eb00030c0b300d7043700b1c7210080de210025
:104ec000160f0700e24f5000040036002840900003
:104ed0000004a100204498000300370028409000ff
:104ee0000004a00020449800a84090000040eb007f
:104ef0000108a300c7043a003050a9007007200041
:104f0000000c7800284090000028a3000400320024
:104f100040c0b3002044980030c0b300bd04370047
:104f2000818180000138a30003003a000004a10041
:104f300020449800020037000004a000204498009c
:104f4000284190000040eb000208a300b1043a00a1
:104f50000130a00081818800a0df21000008eb0063
:104f600080072000000c7800284090000028a30053
:104f70000400320040c0b3002044980030c0b300a9
:104f8000a404370012c0b30021082100a0df2100d3
:104f9000560e0700e24f50000400360028409000f3
:104fa0000004a1002044980003003700284090002e
:104fb0000004a00020449800a84090000040eb00ae
:104fc0000108a30093043a003070a90082d0bf000a
:104fd00021c3b300814f50000e0032008140e80031
:104fe000814f50001300320081c0e900814f500012
:104ff00012003a0030838000d2cc2c000201b800ad
:10500000c318de000080400030838800cf06070010
:105010004804370030838000f2a22b000201b80060
:10502000c318de000100500030838800c706070067
:10503000400437008030ef003e0437008030ef003e
:105040003c043700e30f5000d7003a00400920002d
:10505000000c7800284090000028a30004003200d3
:1050600040c0b3002044980030c0b300690437004a
:10507000818180000128a30003003a000004a10000
:1050800020449800020037000004a000204498004b
:10509000284190000040eb000208a3005d043a00a4
:1050a0000120a0008181880080de21000008eb0043
:1050b00060092000000c7800284090000028a30020
:1050c0000400320040c0b3002044980030c0b30058
:1050d00050043700f1cc210080de21008f0e070044
:1050e000e24f500004003600284090000004a10068
:1050f0002044980003003700284090000004a000de
:1051000020449800a84090000040eb000108a30054
:1051100040043a0080de21000008eb007009200006
:10512000000c7800284090000028a3000400320002
:1051300040c0b3002044980030c0b30035043700ad
:10514000228380008001eb0080de21002e0d07000d
:10515000e24f500004003600284090000004a100f7
:105160002044980003003700284090000004a0006d
:1051700020449800a84090000040eb000108a300e4
:1051800024043a0080de21000008eb0080092000a2
:10519000000c7800284090000028a3000400320092
:1051a00040c0b3002044980030c0b3001904370059
:1051b000a1c0b30080de2100120c0700e24f5000b6
:1051c00004003600284090000004a100204498000c
:1051d00003003700284090000004a00020449800fd
:1051e000a84090000040eb000108a30009043a0029
:1051f00080de21000008eb00a0092000000c7800f0
:10520000284090000028a3000400320040c0b300f2
:105210002044980030c0b300fe033700b1c721001e
:1052200080de21003d0e0700e24f500004003600f2
:10523000284090000004a10020449800030037009b
:10524000284090000004a00020449800a84090004e
:105250000040eb000108a300ee033a003050a90023
:10526000e0092000000c7800284090000028a300ee
:105270000400320040c0b3002044980030c0b300a6
:10528000e4033700818180000138a30003003a0065
:105290000004a10020449800020037000004a00090
:1052a00020449800284190000040eb000208a30031
:1052b000d8033a000130a00081818800a0df2100de
:1052c0000008eb00f0092000000c78002840900056
:1052d0000028a3000400320040c0b300204498001e
:1052e00030c0b300cb03370012c0b3002108210047
:1052f000a0df21007d0d0700e24f500004003600c2
:10530000284090000004a1002044980003003700ca
:10531000284090000004a00020449800a84090007d
:105320000040eb000108a300ba033a003070a90066
:1053300082d0bf0021c3b300814f50000e00320065
:105340008140e800814f50001300320081c0e90025
:10535000814f500012003a0020838000d2cc2c00f4
:105360000201b800c318de000080400020838800de
:10537000060607006f03370020838000f2a22b008f
:105380000201b800c318de0001005000208388002d
:10539000fe050700670337008030ef006503370024
:1053a0008030ef0063033700e40f5000d7003a006d
:1053b000900b2000000c7800284090000028a300eb
:1053c0000400320040c0b3002044980030c0b30055
:1053d00090033700818180000128a30003003a0078
:1053e0000004a10020449800020037000004a0003f
:1053f00020449800284190000040eb000208a300e0
:1054000084033a000120a0008181880080de210011
:105410000008eb00b00b2000000c78002840900042
:105420000028a3000400320040c0b30020449800cc
:1054300030c0b3007703370061ce210080de210049
:10544000b60d0700e24f50000400360028409000df
:105450000004a10020449800030037002840900079
:105460000004a00020449800a84090000040eb00f9
:105470000108a30067033a0080de21000008eb006a
:10548000c00b2000000c7800284090000028a300ea
:105490000400320040c0b3002044980030c0b30084
:1054a0005c033700128380008001eb0080de210066
:1054b000550c0700e24f50000400360028409000d1
:1054c0000004a10020449800030037002840900009
:1054d0000004a00020449800a84090000040eb0089
:1054e0000108a3004b033a0080de21000008eb0016
:1054f000d00b2000000c7800284090000028a3006a
:105500000400320040c0b3002044980030c0b30013
:1055100040033700a1c0b30080de2100390b070033
:10552000e24f500004003600284090000004a10023
:105530002044980003003700284090000004a00099
:1055400020449800a84090000040eb000108a30010
:1055500030033a0080de21000008eb00f00b200051
:10556000000c7800284090000028a30004003200be
:1055700040c0b3002044980030c0b300250337007a
:10558000b1c7210080de2100640d0700e24f50000a
:1055900004003600284090000004a1002044980038
:1055a00003003700284090000004a0002044980029
:1055b000a84090000040eb000108a30015033a004a
:1055c0003050a900300c2000000c780028409000da
:1055d0000028a3000400320040c0b300204498001b
:1055e00030c0b3000b033700818180000138a30075
:1055f00003003a000004a100204498000200370094
:105600000004a00020449800284190000040eb00d6
:105610000208a300ff023a000130a0008181880047
:10562000a0df21000008eb00400c2000000c7800f7
:10563000284090000028a3000400320040c0b300be
:105640002044980030c0b300f202370012c0b3000b
:1056500021082100a0df2100a40c0700e24f500028
:1056600004003600284090000004a1002044980067
:1056700003003700284090000004a0002044980058
:10568000a84090000040eb000108a300e1023a00ae
:105690003070a90082d0bf0021c3b300814f5000f9
:1056a0000e0032008140e800814f500013003200ac
:1056b00081c0e900814f500012003a001083800041
:1056c000d2cc2c000201b800c318de0000804000dc
:1056d000108388003d050700960237001083800084
:1056e000f2a22b000201b800c318de000100500036
:1056f00010838800350507008e0237008030ef00e8
:105700008c0237008030ef008a023700e50f50002e
:10571000d7003a00e00d2000000c780028409000ef
:105720000028a3000400320040c0b30020449800c9
:1057300030c0b300b7023700818180000128a30088
:1057400003003a000004a100204498000200370042
:105750000004a00020449800284190000040eb0085
:105760000208a300ab023a000120a000818188005a
:1057700080de21000008eb00000e2000000c780005
:10578000284090000028a3000400320040c0b3006d
:105790002044980030c0b3009e023700d1cf2100d2
:1057a00080de2100dd0c0700e24f500004003600cf
:1057b000284090000004a100204498000300370016
:1057c000284090000004a00020449800a8409000c9
:1057d0000040eb000108a3008e023a0080de2100a9
:1057e0000008eb00100e2000000c7800284090000c
:1057f0000028a3000400320040c0b30020449800f9
:1058000030c0b30083023700028380008001eb00c8
:1058100080de21007c0b0700e24f500004003600c0
:10582000284090000004a1002044980003003700a5
:10583000284090000004a00020449800a840900058
:105840000040eb000108a30072023a0080de210054
:105850000008eb00200e2000000c7800284090008b
:105860000028a3000400320040c0b3002044980088
:1058700030c0b30067023700a1c0b30080de210052
:10588000600a0700e24f50000400360028409000f4
:105890000004a10020449800030037002840900035
:1058a0000004a00020449800a84090000040eb00b5
:1058b0000108a30057023a0080de21000008eb0037
:1058c000400e2000000c7800284090000028a30023
:1058d0000400320040c0b3002044980030c0b30040
:1058e0004c023700b1c7210080de21008b0c07007d
:1058f000e24f500004003600284090000004a10050
:105900002044980003003700284090000004a000c5
:1059100020449800a84090000040eb000108a3003c
:105920003c023a003050a900800e2000000c7800a4
:10593000284090000028a3000400320040c0b300bb
:105940002044980030c0b3003202370081818000cb
:105950000138a30003003a000004a100204498008d
:10596000020037000004a000204498002841900065
:105970000040eb000208a30026023a000130a0001c
:1059800081818800a0df21000008eb00900e20003c
:10599000000c7800284090000028a300040032008a
:1059a00040c0b3002044980030c0b3001902370053
:1059b00012c0b30021082100a0df2100cb0b07009b
:1059c000e24f500004003600284090000004a1007f
:1059d0002044980003003700284090000004a000f5
:1059e00020449800a84090000040eb000108a3006c
:1059f00008023a003070a90082d0bf0021c3b30072
:105a0000814f50000e0032008140e800814f50006d
:105a10001300320081c0e900814f500012003a00ab
:105a200000838000d2cc2c000201b800c318de0035
:105a30000080400000838800e6040700bd013700b5
:105a400000838000f2a22b000201b800c318de0020
:105a50000100500000838800de040700b501370014
:105a60008030ef00b30137008030ef00b101370024
:105a7000e60f5000d7003a0030102000000c7800ec
:105a8000284090000028a3000400320040c0b3006a
:105a90002044980030c0b300de01370081818000cf
:105aa0000128a30003003a000004a100204498004c
:105ab000020037000004a000204498002841900014
:105ac0000040eb000208a300d2013a000120a00030
:105ad0008181880080de21000008eb00501020004a
:105ae000000c7800284090000028a3000400320039
:105af00040c0b3002044980030c0b300c501370057
:105b000061d1210080de2100040c0700e24f50002b
:105b100004003600284090000004a10020449800b2
:105b200003003700284090000004a00020449800a3
:105b3000a84090000040eb000108a300b5013a0026
:105b400080de21000008eb0060102000000c7800cf
:105b5000284090000028a3000400320040c0b30099
:105b60002044980030c0b300aa013700f2828000c0
:105b70008001eb0080de2100a30a0700e24f500005
:105b800004003600284090000004a1002044980042
:105b900003003700284090000004a0002044980033
:105ba000a84090000040eb000108a30099013a00d2
:105bb00080de21000008eb0070102000000c78004f
:105bc000284090000028a3000400320040c0b30029
:105bd0002044980030c0b3008e013700a1c0b3004c
:105be00080de210087090700e24f500004003600e4
:105bf000284090000004a1002044980003003700d2
:105c0000284090000004a00020449800a840900084
:105c10000040eb000108a3007e013a0080de210075
:105c20000008eb0090102000000c78002840900045
:105c30000028a3000400320040c0b30020449800b4
:105c400030c0b30073013700b1c7210080de2100ee
:105c5000b20b0700e24f50000400360028409000cd
:105c60000004a10020449800030037002840900061
:105c70000004a00020449800a84090000040eb00e1
:105c80000108a30063013a003050a900d0102000a1
:105c9000000c7800284090000028a3000400320087
:105ca00040c0b3002044980030c0b3005901370011
:105cb000818180000138a30003003a000004a100a4
:105cc00020449800020037000004a00020449800ff
:105cd000284190000040eb000208a3004d013a006b
:105ce0000130a00081818800a0df21000008eb00c6
:105cf000e0102000000c7800284090000028a3004d
:105d00000400320040c0b3002044980030c0b3000b
:105d10004001370012c0b30021082100a0df21009c
:105d2000f20a0700e24f50000400360028409000bd
:105d30000004a10020449800030037002840900090
:105d40000004a00020449800a84090000040eb0010
:105d50000108a3002f013a003070a90082d0bf00d3
:105d600021c3b300814f50000e0032008140e80093
:105d7000814f50001300320081c0e900814f500074
:105d800012003a00f0828000d2cc2c000201b80050
:105d9000c318de0000804000f08288001104070074
:105da000e4003700f0828000f2a22b000201b8006c
:105db000c318de0001005000f082880009040700cb
:105dc000dc0037008030ef00da0037008030ef0071
:105dd000d8003700e70f5000d6003a0080122000ac
:105de000000c7800284090000028a3000400320036
:105df00040c0b3002044980030c0b3000501370014
:105e0000818180000128a30003003a000004a10062
:105e100020449800020037000004a00020449800ad
:105e2000284190000040eb000208a300f9003a006e
:105e30000120a0008181880080de21000008eb00a5
:105e4000a0122000000c7800284090000028a30039
:105e50000400320040c0b3002044980030c0b300ba
:105e6000ec003700e1d2210080de21002b0b07007f
:105e7000e24f500004003600284090000004a100ca
:105e80002044980003003700284090000004a00040
:105e900020449800a84090000040eb000108a300b7
:105ea000dc003a0080de21000008eb00b012200088
:105eb000000c7800284090000028a3000400320065
:105ec00040c0b3002044980030c0b300d100370078
:105ed000e28280008001eb0080de2100ca09070019
:105ee000e24f500004003600284090000004a1005a
:105ef0002044980003003700284090000004a000d0
:105f000020449800a84090000040eb000108a30046
:105f1000c0003a0080de21000008eb00c012200023
:105f2000000c7800284090000028a30004003200f4
:105f300040c0b3002044980030c0b300b500370023
:105f4000a1c0b30080de2100ae080700e24f500080
:105f500004003600284090000004a100204498006e
:105f600003003700284090000004a000204498005f
:105f7000a84090000040eb000108a300a5003a00f3
:105f800080de21000008eb00e0122000000c780009
:105f9000284090000028a3000400320040c0b30055
:105fa0002044980030c0b3009a003700b1c72100e8
:105fb00080de2100d90a0700e24f500004003600bd
:105fc000284090000004a1002044980003003700fe
:105fd000284090000004a00020449800a8409000b1
:105fe0000040eb000108a3008a003a003050a900ed
:105ff00020132000000c7800284090000028a30007
:106000000400320040c0b3002044980030c0b30008
:1060100080003700818180000138a30003003a002e
:106020000004a10020449800020037000004a000f2
:1060300020449800284190000040eb000208a30093
:1060400074003a000130a00081818800a0df2100a7
:106050000008eb0030132000000c7800284090006e
:106060000028a3000400320040c0b3002044980080
:1060700030c0b3006700370012c0b3002108210010
:10608000a0df2100190a0700e24f5000040036008b
:10609000284090000004a10020449800030037002d
:1060a000284090000004a00020449800a8409000e0
:1060b0000040eb000108a30056003a003070a90030
:1060c00082d0bf0021c3b300814f50000e003200c8
:1060d0008140e800814f50001300320081c0e90088
:1060e000814f500012003a00e0828000d2cc2c0098
:1060f0000201b800c318de0000804000e082880082
:106100003c0307000b003700e0828000f2a22b0066
:106110000201b800c318de0001005000e0828800d0
:1061200034030700030037008030ef000100370020
:106130008030ef0090142000000c78002840900080
:106140000028a3000400320040c0b300204498009f
:1061500030c0b3002f003700818180000128a300e8
:1061600003003a000004a100204498000200370018
:106170000004a00020449800284190000040eb005b
:106180000208a30023003a000120a00081818800ba
:1061900080de21000008eb00a0142000000c780035
:1061a000284090000028a3000400320040c0b30043
:1061b0002044980030c0b3001600370071d421008d
:1061c00080de2100550a0700e24f5000040036002f
:1061d000284090000004a1002044980003003700ec
:1061e000284090000004a00020449800a84090009f
:1061f0000040eb000108a30006003a003050a9005f
:106200009ef9370080c0b30020449800000ceb00da
:1062100030c0b3004f0478000000060000192200cf
:10622000670d07000000060000002200120eb600f5
:106230000000e9004f00de00000040009171800086
:106240000110a10081007000917188000000210000
:10625000120eb6000000e9004f00de004200dd0033
:10626000917180000120a10081007000917188006f
:10627000107180000080ea004f00de004300dd0066
:10628000917180000130a10081007000917188003f
:10629000320ed5006100600050fa880090718000d5
:1062a0004200de006100600080fa8800907180008a
:1062b0004300de0061006000b0fa8800f00c80004e
:1062c000b20c80008000eb00c000dd000000200068
:1062d0008001eb000200700083807000929e2e000f
:1062e0000300200073f2070072fa80008001eb00c7
:1062f000820f5000838f5800180039009ae1a800df
:10630000d00c80000008b200910c80000170a10048
:1063100081007000910c880080ff2f009821b6004a
:10632000c10c8000e7806000830c800003016000e6
:1063300002817000820c8800c20c80008200600024
:106340000100a000c10c8800c10c8000e780600043
:106350009001b60000807000800c8800700d8000f5
:10636000320d80008000eb00c000dd000000200046
:106370008001eb000200700083807000929e2e006e
:10638000030020004bf20700a2fa80008001eb001e
:10639000820f5000838f580018003900aae1a8002e
:1063a000500d80000008b200110d80000170a100a6
:1063b00081007000110d880080ff2f00a821b60019
:1063c000410d8000e7806000030d80000301600044
:1063d00002817000020d8800420d80008200600082
:1063e0000100a000410d8800410d8000e7806000a1
:1063f000a001b60000807000000d8800f00d800044
:10640000b20d80008000eb00c000dd000000200025
:106410008001eb000200700083807000929e2e00cd
:106420000300200023f20700d2fa80008001eb0075
:10643000820f5000838f580018003900bae1a8007d
:10644000d00d80000008b200910d80000170a10005
:1064500081007000910d880080ff2f00b821b600e8
:10646000c10d8000e7806000830d800003016000a3
:1064700002817000820d8800c20d800082006000e1
:106480000100a000c10d8800c10d8000e780600000
:10649000b001b60000807000800d8800000006008a
:1064a000ca18070000000600881f78000004780062
:1064b000284090000074a000204498001800780044
:1064c00081162000810f50001c0032008100e8007e
:1064d000810f5000370032000000e00048003a0011
:1064e000e0fb80000000e00002003200a1f7210084
:1064f0001100a200d1fb8000e18f500002003a00a1
:1065000015eea9000100370015eea8000000e0001c
:1065100023003200aa1807003004980041049800b4
:10652000e0fb80000000d1008000eb0050049800e8
:106530006104980080162000000c7800284090002c
:106540000028a3000400320040c0b300204498009b
:1065500030c0b3002e00370058019000e8019000d1
:1065600038009000c8009000080e07000000e0000e
:1065700004003200284090000004a100204498004c
:1065800003003700284090000004a0002044980039
:10659000a84090000040eb000108a3001c003a0056
:1065a000284090000074a10020449800901620001c
:1065b000000c7800284090000028a300040032005e
:1065c00040c0b3002044980030c0b3001000370032
:1065d0000004e00003003d000004a10020449800f6
:1065e000020037000004a00020449800a84090005a
:1065f0000040eb000108a300b9ff3200040037009f
:1066000080c0b30020449800000ceb0030c0b30001
:106610004f04780000000600881f7800000478000e
:10662000284090000074a0002044980018007800d2
:10663000d1152000810f50001c0032008100e800bd
:10664000810f5000370032000000e00048003a009f
:10665000c0fb80000000e0000200320061f7210072
:106660001100a200b1fb8000e18f500002003a004f
:1066700015cea8000100370015cea9000000e000eb
:10668000230032004e18070030049800410498009f
:10669000c0fb80000000d1008000eb005004980097
:1066a00061049800d0152000000c7800284090006c
:1066b0000028a3000400320040c0b300204498002a
:1066c00030c0b3002e00370058019000e801900060
:1066d00038009000c8009000ac0d07000000e000fa
:1066e00004003200284090000004a10020449800db
:1066f00003003700284090000004a00020449800c8
:10670000a84090000040eb000108a3001c003a00e4
:10671000284090000074a10020449800e01520005b
:10672000000c7800284090000028a30004003200ec
:1067300040c0b3002044980030c0b30010003700c0
:106740000004e00003003d000004a1002044980084
:10675000020037000004a00020449800a8409000e8
:106760000040eb000108a300b9ff3200040037002d
:1067700080c0b30020449800000ceb0030c0b30090
:106780004f04780000000600881f7800000478009d
:10679000284090000074a000204498001800780061
:1067a00021152000810f50001c0032008100e800fc
:1067b000810f5000370032000000e00048003a002e
:1067c000a0fb80000000e0000200320021f7210061
:1067d0001100a20091fb8000e18f500002003a00fe
:1067e000548ea80001003700548ea9000000e0007c
:1067f00023003200f217070030049800410498008b
:10680000a0fb80000000d1008000eb005004980045
:106810006104980020152000000c780028409000aa
:106820000028a3000400320040c0b30020449800b8
:1068300030c0b3002e00370058019000e8019000ee
:1068400038009000c8009000500d07000000e000e4
:1068500004003200284090000004a1002044980069
:1068600003003700284090000004a0002044980056
:10687000a84090000040eb000108a3001c003a0073
:10688000284090000074a10020449800301520009a
:10689000000c7800284090000028a300040032007b
:1068a00040c0b3002044980030c0b300100037004f
:1068b0000004e00003003d000004a1002044980013
:1068c000020037000004a00020449800a840900077
:1068d0000040eb000108a300b9ff320004003700bc
:1068e00080c0b30020449800000ceb0030c0b3001f
:1068f0004f04780000000600889fbe008a1f7800c1
:1069000000047800284090000074a0002044980003
:10691000180078000000e00004003200511420004c
:10692000810f500072003a0057003700a41707008b
:106930000002be0023fc8000927080004811de003f
:1069400061016100c1f52100910f51003a00320050
:106950001000200000fb8800907080004800de00de
:1069600061006000e0fa8800951707002af821000e
:106970008a84e800190d500091170700800c7800f8
:106980001a007800f6805400910f5000060039007c
:106990001000200010fb88000000eb0020fb8800a6
:1069a00030fb88000e00370001f72100910f5000e6
:1069b000060036000000eb0010fb880011002000ec
:1069c00021fb880030fb8800050037000000eb0049
:1069d00010fb880020fb88001000200030fb88009e
:1069e000130eab0002003200132eab000400320085
:1069f000130eab0009003a00132eab000700320063
:106a00001000200040fb8800a0f621000008eb00e9
:106a1000740040001008e8001200370080f62100e2
:106a20000008eb001000200050fb8800e0f7210078
:106a30001008e9000b00370003025200c0f62100e5
:106a4000900f5200070036000000eb0000fb8800aa
:106a500010fb880020fb880030fb880040fb88008a
:106a600050fb880056170700300498004104980036
:106a7000a00020000100200050049800610498004c
:106a800050142000000c7800284090000028a3003b
:106a90000400320040c0b3002044980030c0b3006e
:106aa0001700370058019000e8019000380090006e
:106ab000c8009000b50c07000000e00004003200a0
:106ac000284090000004a1002044980003003700f3
:106ad000284090000004a00020449800a8409000a6
:106ae0000040eb000108a30090ff320004003700d3
:106af00080c0b30020449800000ceb0030c0b3000d
:106b00004f0578004f04be0000000600f0fb88002f
:106b10000000060000fc88000000060050fa80001b
:106b20000000060050fa800000f0a7000000ea0014
:106b30000000e9004f00de0000000600c1f4210063
:106b4000110078008008eb000000060070fa880051
:106b50000000060070fa80000000060080fa800045
:106b60000000060080fa800000f0a7000000ea00a4
:106b70000000e9004f00de000000060021f52100c2
:106b8000110078008008eb0000000600a0fa8800e1
:106b900000000600a0fa800000000600b0fa8000a5
:106ba00000000600b0fa800000f0a7000000ea0034
:106bb0000000e9004f00de000000060081f5210022
:106bc000110078008008eb0000000600d0fa880071
:106bd00000000600d0fa80000000060020f7210027
:106be000100078000000a20000f0a7000000ea00fa
:106bf0000000e9004f00de000000060090fb80006e
:106c000000f0a7000000ea000000e9004f00de00ed
:106c10000000060040f721000008eb0010002000f3
:106c200090fb8800000006000000eb00a0fb88003d
:106c300090fb88000000060020f721001000a20051
:106c4000a0728000700060000000e9004f00de00cc
:106c50004400dd00a17280000140a10081007000ad
:106c6000a172880000000600a0fb8800000006005a
:106c700060f72100100078000000a20000f0a700db
:106c80000000ea000000e9004f00de0000000600fe
:106c9000b0fb800000f0a7000000ea000000e9005f
:106ca0004f00de000000060080f721000008eb0026
:106cb00010002000b0fb8800000006000000eb0080
:106cc000c0fb8800b0fb88000000060060f72100d0
:106cd0001000a20000002400140eb6000000e9001d
:106ce0004f00de004e00dd00a170800001e0a10039
:106cf00081007000a170880000000600c0fb8800c1
:106d000000000600a0f72100100078000000a2009b
:106d100000f0a7000000ea000000e9004f00de00dc
:106d200000000600d0fb800000f0a7000000ea0091
:106d30000000e9004f00de0000000600c0f721005f
:106d40000008eb0010002000d0fb880000000600c7
:106d50000000eb00e0fb8800d0fb8800000006008c
:106d6000a0f721001000a200a07080000080ea00bf
:106d70004f00de004f00dd00a170800001f0a10097
:106d800081007000a170880000000600e0fb880010
:106d900000000600f0fb80000000060000fb800001
:106da0000000060010fb80000000060020fb8000b1
:106db0000000060030fb80000000060040fb800061
:106dc0000000060050fb80000000060010fc800060
:106dd0000000060060fb88000000060060fb8000e9
:106de0000000060070fb88000000060070fb8000b9
:106df0000000060080fb88000000060080fb800089
:106e0000000006000000eb0050fa880060fa8800dd
:106e1000411f200071fa880080fa880090fa8800eb
:106e2000a1fa8800b0fa8800c0fa8800d1fa880078
:106e3000e0fa8800f0fa880000fb880010fb880068
:106e400020fb880030fb880040fb880050fb880056
:106e50000119200061fb88006109200071fb880096
:106e6000f100200081fb880090fb8800a0fb8800d7
:106e7000b0fb8800c0fb8800d0fb8800e0fb8800e6
:106e8000f0fb880000fc880010fc880020fc8800d3
:106e900000000600889fbe008a9fbe008c9fbe0037
:106ea0008e1f780000152a0064070700d5ff070031
:106eb000508ea900568ea9005a8ea9005c8ea9009a
:106ec0001fcea90011cea9001bcea9001dcea9007e
:106ed0001feea90011eea9001beea9001deea900ee
:106ee0001faea90011aea8001baea9001daea900df
:106ef0001baea800b00320000100200068fd0700c1
:106f00001f8ea900118ea8001b8ea9001d8ea9003e
:106f10001b8ea800b00320000100200060fd0700c8
:106f200021eea8002beea9002deea9002beea80063
:106f3000b00320000100200059fd07001faea9008a
:106f400011aea8001baea9001daea9001baea80083
:106f5000b00320000100200051fd0700302ea900e1
:106f6000362ea9003a2ea9003c2ea9000bf82f00be
:106f700021378000018065001004b30020378800ad
:106f800088ff2f008219200012096400c00c8000c5
:106f900067006000820c8000820064008100700045
:106fa000810c88000cc021000c0078009821b700eb
:106fb0009801b600fd3f2e00820c800082806600a2
:106fc00081007000810c88009b01a800d00c80001b
:106fd0000010b200910c80000180a10081007000bf
:106fe000910c88009ae1a800d00c80000008b20043
:106ff000910c80000170a10081007000910c88004c
:107000000afe2f00a019200010086500d00c800097
:107010007f006000920c800082006500810070009b
:10702000910c8800fef92f0000192000100867005d
:10703000c10c8000010064000000a000c00c8800aa
:10704000c00c800067006000820c80008200640039
:1070500081007000810c8800e082200010f0a10007
:10706000e1872000f2ff2200910861000200260063
:107070009108410010f0a0001f8ea900118ea800f9
:107080001b8ea9001d8ea9001b8ea800b003200036
:107090000100200002fd0700304ea900364ea90075
:1070a0003a4ea9003c4ea9003137800001806500ae
:1070b0002004b30030378800821a200012096400cf
:1070c000400d800067006000020d800082006400b7
:1070d00081007000010d88000c007800a821b70025
:1070e000a801b600020d8000828066008100700059
:1070f000010d8800ab01a800500d80000010b20007
:10710000110d80000180a10081007000110d880028
:10711000aae1a800500d80000008b200110d800007
:107120000170a10081007000110d8800a01a2000dc
:1071300010086500500d80007f006000120d800077
:107140008200650081007000110d8800001a200087
:1071500010086700410d8000010064000000a000dd
:10716000400d8800400d800067006000020d800027
:107170008200640081007000010d880009832000f6
:107180001970a10020882000f1ff22001088600003
:1071900002002600100841001970a00021eea8008e
:1071a0002beea9002deea9002beea800b0032000c5
:1071b00001002000bafc0700306ea900366ea9005d
:1071c0003a6ea9003c6ea9004037800080856500ba
:1071d0003b04b3004b378800811b200091086400fa
:1071e000c00d800067006000820d80008200640096
:1071f00081007000810d88000c007800b821b70074
:10720000b801b600810d8000818666008d06700091
:107210008d0d8800bb01a800d00d80000010b200c9
:10722000910d80000180a10081007000910d880007
:10723000bae1a800d00d80000008b200910d8000d6
:107240000170a10081007000910d8800a21b200038
:1072500012096500d00d80007f006000910d800054
:10726000010565000a0570009a0d8800021b2000c8
:1072700012096700c10d8000010064000000a00039
:10728000c00d8800c00d800067006000820d800086
:107290000204640008047000880d880019b0a10081
:1072a00040882000f1ff22001088600002002600c4
:1072b0001008410019b0a0001f0ea900110ea8006f
:1072c0001b0ea9001d0ea9001f2ea900112ea8003b
:1072d0001b2ea9001d2ea9001b0ea8001b2ea80006
:1072e000b0032000010020006dfc07001e4ea80026
:1072f000104ea8001a4ea9001c4ea9001e6ea80030
:10730000106ea8001a6ea9001c6ea900c0472300c9
:107310002b090700c20320000300200040112300b6
:10732000d80a0700403c230025090700c03023008d
:107330002309070040252300210907004f07780093
:107340004f06be004f05be004f04be000000060001
:10735000100078001100500000000600881f78001f
:107360000004780081017800284090000074a0009b
:1073700020449800180278000400e0000400320065
:1073800021032000810f52001a003a00020037004a
:1073900021032000010c78000028a3000400320023
:1073a00040c0b3002044980030c0b300150037003f
:1073b000818180000168a30003003a000004a1005d
:1073c00020449800020037000004a00020449800e8
:1073d000284290000040eb000408a30009003a0096
:1073e0000160a0008181880082007800030078009d
:1073f0005314070080c0b30020449800000ceb0039
:1074000030c0b3004f04780000000600889fbe0023
:107410000004be00284090000074a00020449800a2
:10742000180078000000e000040032006104200031
:10743000810f50001b003a0003003700731407004f
:1074400060042000000c7800284090000028a30071
:107450000400320040c0b3002044980030c0b300a4
:1074600014003700611407000000e00004003a0037
:10747000284090000004a100204498000300370039
:10748000284090000004a00020449800a8409000ec
:107490000040eb000108a30006003a005e1407005c
:1074a000800c780080c0b30020449800000ceb00f2
:1074b00030c0b3004f04be0000000600889fbe002d
:1074c000800478000184fb00839a230022002000be
:1074d00088007800090078001cf007000804d1003b
:1074e0000800e90000004000008044000804440057
:1074f0008884440010007800190040000000d1008a
:107500004f04be00000006008001eb000104e00013
:107510000c003200000178000280e8008140e900a0
:107520008180fb008180400001004000b2007800b3
:10753000818f51000100310081017800800f5100de
:10754000faff3a000300780000000600889fbe00a2
:107550008a9fbe000004780001057800824478000c
:10756000284090000074a000204498001800780083
:10757000d10a2000810f50007f00320009003e0038
:10758000f0805000810f500026003200e88040005b
:10759000810f50004e0032000000e0001000320069
:1075a000ee023700d10b2000810f5000c8003200de
:1075b00004003e00e8805000810f5000e7023a00ce
:1075c00098003700510c2000810f5000eb00320072
:1075d000ee804000810f5000e0023a0012013700b7
:1075e0007670ef007230ef007430ef0000cfb30020
:1075f00000c0610078f0b700efc1610083407800ff
:1076000070072100014878006f806400e10f50008e
:1076100029003a0024003700fc130700d00920009d
:10762000000c7800284090000028a30004003200dd
:1076300040c0b3002044980030c0b300cb023700f4
:10764000ea1307000000e00004003a002840900020
:107650000004a10020449800030037002840900057
:107660000004a00020449800a84090000040eb00d7
:107670000108a300bd023a006b0721009b4578007a
:10768000e51307008b80fb0081804000a2ec210005
:1076900081004100800878008b45e8008b4178002c
:1076a000620721000349780076d0bf00e14f500007
:1076b000d6003e00d8ff3700e20f500028003a0005
:1076c00023003700d1130700500a2000000c780077
:1076d000284090000028a3000400320040c0b300fe
:1076e0002044980030c0b300a0023700bf13070049
:1076f0000000e00004003a00284090000004a100cf
:107700002044980003003700284090000004a000a7
:1077100020449800a84090000040eb000108a3001e
:1077200092023a006b0721009b457800ba130700cc
:107730008b80fb0081804000a2ec21008100410091
:10774000800878008b45e8000b40780076f0b700a1
:1077500076d0bf00e34f5000ac003e00d9ff3700a9
:10776000e30f500029003a0024003700a713070058
:10777000d00a2000000c7800284090000028a300c8
:107780000400320040c0b3002044980030c0b30071
:1077900076023700951307000000e00004003a006d
:1077a000284090000004a100204498000300370006
:1077b000284090000004a00020449800a8409000b9
:1077c0000040eb000108a30068023a006b072100ab
:1077d0009b457800901307008b80fb008180400060
:1077e000a2ec210081004100800878008b45e80070
:1077f0000b417800610721008248780076d0bf00f5
:10780000e74f500081003e00d8ff3700e40f5000e2
:1078100029003a00240037007c130700500b200099
:10782000000c7800284090000028a30004003200db
:1078300040c0b3002044980030c0b3004b02370072
:107840006a1307000000e00004003a00284090009e
:107850000004a10020449800030037002840900055
:107860000004a00020449800a84090000040eb00d5
:107870000108a3003d023a006b0721009b457800f8
:10788000651307008b80fb0081804000a2ec210083
:1078900081004100800878008b45e8000b427800a9
:1078a000630721008449780076d0bf00ef4f500075
:1078b00056003e00d8ff3700e50f500029003a007f
:1078c0002400370051130700d00b2000000c780073
:1078d000284090000028a3000400320040c0b300fc
:1078e0002044980030c0b300200237003f13070047
:1078f0000000e00004003a00284090000004a100cd
:107900002044980003003700284090000004a000a5
:1079100020449800a84090000040eb000108a3001c
:1079200012023a006b0721009b4578003a130700ca
:107930008b80fb0081804000a2ec2100810041008f
:10794000800878008b45e8008b40780060072100b4
:107950000148780076d0bf00ff4f50002b003e005a
:10796000d8ff3700e60f500028003a002400370007
:1079700026130700500c2000000c780028409000cf
:107980000028a3000400320040c0b3002044980047
