:020000040000fa
:080000000013040000000000e1
:020000040000fa
:1000080002100000061000000a1000000e10000088
:1000180012100000161000001a1000001e10000038
:1000280022100000261000002a1000002e100000e8
:1000380032100000361000003a1000003e10000098
:1000480042100000461000004a1000004e10000048
:1000580052100000561000005a1000005e100000f8
:1000680062100000661000006a1000006e100000a8
:1000780072100000761000007a1000007e10000058
:1000880082100000861000008a1000008e10000008
:1000980092100000961000009a1000009e100000b8
:1000a800a2100000a6100000aa100000ae10000068
:1000b800b2100000b6100000ba100000be10000018
:1000c800c2100000c6100000ca100000ce100000c8
:1000d800d2100000d6100000da100000de10000078
:1000e800e2100000e6100000ea100000ee10000028
:1000f800f2100000f6100000fa100000fe100000d8
:1001080002110000061100000a1100000e11000083
:1001180012110000161100001a1100001e11000033
:1001280022110000261100002a1100002e110000e3
:1001380032110000361100003a1100003e11000093
:1001480042110000461100004a1100004e11000043
:1001580052110000561100005a1100005e110000f3
:1001680062110000661100006a1100006e110000a3
:1001780072110000761100007a1100007e11000053
:1001880082110000861100008a1100008e11000003
:1001980092110000961100009a1100009e110000b3
:1001a800a2110000a6110000aa110000ae11000063
:1001b800b2110000b6110000ba110000be11000013
:1001c800c2110000c6110000ca110000ce110000c3
:1001d800d2110000d6110000da110000de11000073
:1001e800e2110000e6110000ea110000ee11000023
:1001f800f2110000f6110000fa110000fe110000d3
:1002080002120000061200000a1200000e1200007e
:1002180012120000161200001a1200001e1200002e
:1002280022120000261200002a1200002e120000de
:1002380032120000361200003a1200003e1200008e
:1002480042120000461200004a1200004e1200003e
:1002580052120000561200005a1200005e120000ee
:020000040000fa
:10200000020000001a140400000000001a1404006a
:10201000000000001a140400000000001a1404005c
:10202000000000001a140400000000001a1404004c
:10203000000000001a140400000000001a1404003c
:10204000000000001a140400000000001a1404002c
:10205000000000001a140400000000002e16040006
:10206000000000001a140400000000001a1404000c
:10207000000000001a140400000000001a140400fc
:10208000000000001a140400000000001a140400ec
:10209000000000001a140400000000000c160400e8
:1020a00000000000e0150400000000001a14040005
:1020b000000000001a140400000000001a140400bc
:1020c000000000001a140400000000001a140400ac
:1020d000000000001a140400000000001a1404009c
:1020e000000000001a140400000000001a1404008c
:1020f000000000001a140400000000001a1404007c
:10210000000000001a140400000000001a1404006b
:10211000000000001a140400000000001a1404005b
:10212000000000001a140400000000001a1404004b
:10213000000000001a140400000000001a1404003b
:10214000000000001a140400000000001a1404002b
:10215000000000001a140400000000001a1404001b
:10216000000000001a140400000000001a1404000b
:10217000000000001a140400000000001a140400fb
:10218000000000001a140400000000001a140400eb
:10219000000000001a140400000000001a140400db
:1021a000000000001a140400000000001a140400cb
:1021b000000000001a140400000000001a140400bb
:1021c000000000001a140400000000001a140400ab
:1021d000000000001a140400000000001a1404009b
:1021e000000000001a140400000000001a1404008b
:1021f000000000001a140400000000001a1404007b
:10220000000000001a140400000000001a1404006a
:10221000000000001a140400000000001a1404005a
:10222000000000001a140400000000001a1404004a
:10223000000000001a140400000000001a1404003a
:10224000000000001a140400000000001a1404002a
:10225000000000001a140400000000001a1404001a
:10226000000000001a140400000000001a1404000a
:10227000000000001a140400000000001a140400fa
:10228000000000001a140400000000001a140400ea
:10229000000000001a140400000000001a140400da
:1022a000000000001a140400000000001a140400ca
:1022b000000000001a140400000000001a140400ba
:1022c000000000001a140400000000001a140400aa
:1022d000000000001a140400000000001a1404009a
:1022e000000000001a140400000000001a1404008a
:1022f000000000001a140400000000001a1404007a
:10230000000000001a140400000000001a14040069
:10231000000000001a140400000000001a14040059
:10232000000000001a140400000000001a14040049
:10233000000000001a140400000000001a14040039
:10234000000000001a140400000000001a14040029
:10235000000000001a140400000000001a14040019
:10236000000000001a140400000000001a14040009
:10237000000000001a140400000000001a140400f9
:10238000000000001a140400000000001a140400e9
:10239000000000001a140400000000001a140400d9
:1023a000000000001a140400000000001a140400c9
:1023b000000000001a140400000000001a140400b9
:1023c000000000001a140400000000001a140400a9
:1023d000000000001a140400000000001a14040099
:1023e000000000001a140400000000001a14040089
:1023f000000000001a140400000000001a14040079
:10240000000000001a140400000000001a14040068
:10241000000000001a140400000000001a14040058
:10242000000000001a140400000000001a14040048
:10243000000000001a14040000000000481404000a
:10244000000000001a140400000000001a14040028
:10245000000000001a140400000000001a14040018
:10246000000000001a140400000000001a14040008
:10247000000000001a14040000000000d014040042
:10248000000000001a140400000000001a140400e8
:10249000000000001a140400000000005815040099
:1024a000000000001a140400000000001a140400c8
:1024b000000000001a140400000000001a140400b8
:0424c0000000000018
:020000040000fa
:102600006fe721000eff27000e0188000000000088
:10261000000020000000e000020032000001200065
:1026200020028800140007009f0107000000e0005e
:1026300003003a004004250001002000020037009a
:102640000000200001002000810f70000100320016
:102650000f000700000020000000e0000200320030
:102660000000020000000000a24102000000000083
:102670000040da000000fe00e06a20000000e000f8
:1026800002003200002020009001880000000600b7
:10269000a1028800800478000000eb001f003700d2
:1026a000e284440054a0b4009905ba00e2844400d6
:1026b00054a0b4009906ba00e284440054a0b400c7
:1026c0000006eb00476fde00fd07b200ae01880098
:1026d000636ce10003003a000ad801000000eb003f
:1026e0000e003700606ce10008003a00004deb007e
:1026f0000a05e800020039003420ec000af0a000ce
:102700008b05e900f9ff3e00040037006168e10035
:10271000010032000086eb000b00070019c7ba0069
:102720000e04e0001905ba0003003a000a00e000b8
:10273000dbff3a0000000600fe07b200ae02880090
:102740008a047800f5ff37000cd0a300e20f4d009b
:102750001c00390089027800354dba000a05e800ee
:10276000020039003420ec000af0a0008b05e900db
:102770000f003200254dba000a05e80002003900ba
:102780003420ec000af0a0008b05e90008003200bc
:102790000c00e0000600320015cdba000a05e80082
:1027a000020039003420ec000af0a0008b05e9009b
:1027b0008984e80054a0b4000b00e000e2ff3a0076
:1027c000000006009902ba00055d78008b05e9005b
:1027d000f7ff3200c82ade00055d78008b05e900ae
:1027e000f3ff32000c00e000f1ff320019ddba0007
:1027f000eeff37009e370400000000006c3c040030
:1028000000000000f4240400000000008c210400fb
:10281000000000003c2404000000000084230400a9
:1028200000000000cc22040000000000202a040068
:10283000000000003600f800809fbe00829fbe00ae
:10284000849fbe00869fbe003200f8003400f8006e
:1028500010002000a00188000020200000d0fe0011
:10286000c808f8008010f900e0ad2900d119070070
:102870003400f9003200f9004f03be004f02be00e1
:102880004f01be004f00be003600f90000400600b8
:102890003600f800809fbe00829fbe00849fbe006d
:1028a000869fbe00322eab0036003a00e0d92100f0
:1028b0000008eb0092e1ab0013003a00f00c80003e
:1028c000b20c80008000eb00c000dd0000002000a2
:1028d0008001eb000200700083807000929e2e0049
:1028e00003002000f100070002ed80008001eb00f2
:1028f000820f5000838f580022003100100020000a
:10290000f0ec88001f0037009ae1a800d00c80008e
:102910000008b200910c80000170a10081007000dd
:10292000910c880080ff2f009821b600c10c800018
:10293000e7806000830c800003016000028170006a
:10294000820c8800c20c8000820060000100a000a0
:10295000c10c8800c10c8000e78060009001b600c7
:1029600000807000800c88009ae1a900d00c8000e3
:102970000008b200910c80000170a100810070007d
:10298000910c88000fe8a9004f03be004f02be0063
:102990004f01be004f00be003600f90000400600a7
:1029a0003600f800809fbe00829fbe00849fbe005c
:1029b000869fbe00324eab0036003a0040da21005e
:1029c0000008eb00a2e1ab0013003a00700d80009c
:1029d000320d80008000eb00c000dd000000200010
:1029e0008001eb000200700083807000929e2e0038
:1029f00003002000ad00070032ed80008001eb00f5
:102a0000820f5000838f58002200310010002000f8
:102a100020ed88001f003700aae1a800500d8000bb
:102a20000008b200110d80000170a100810070004b
:102a3000110d880080ff2f00a821b600410d8000f5
:102a4000e7806000030d80000301600002817000d8
:102a5000020d8800420d8000820060000100a0008d
:102a6000410d8800410d8000e7806000a001b600a4
:102a700000807000000d8800aae1a900500d8000c0
:102a80000008b200110d80000170a10081007000eb
:102a9000110d880010e8a9004f03be004f02be00d0
:102aa0004f01be004f00be003600f9000040060096
:102ab0003600f800809fbe00829fbe00849fbe004b
:102ac000869fbe00326eab0036003a00a0da2100cd
:102ad0000008eb00b2e1ab0013003a00f00d8000fb
:102ae000b20d80008000eb00c000dd00000020007f
:102af0008001eb000200700083807000929e2e0027
:102b0000030020006900070062ed80008001eb00f7
:102b1000820f5000838f58002200310010002000e7
:102b200050ed88001f003700bae1a800d00d8000ea
:102b30000008b200910d80000170a10081007000ba
:102b4000910d880080ff2f00b821b600c10d8000d4
:102b5000e7806000830d8000030160000281700047
:102b6000820d8800c20d8000820060000100a0007c
:102b7000c10d8800c10d8000e7806000b001b60083
:102b800000807000800d8800bae1a900d00d80009f
:102b90000008b200910d80000170a100810070005a
:102ba000910d88001168a9004f03be004f02be00be
:102bb0004f01be004f00be003600f9000040060085
:102bc000809fbe0000002100900090002000900037
:102bd000808f500002003a002188a9000c003700c5
:102be0000430ec00000420000410e30001003a006f
:102bf0000430ef000188a900000021009000780057
:102c000020009000008040001080fb002011880010
:102c10004f00be0000400600809fbe00821f78006b
:102c20000168a900311180000a30ec000004200086
:102c30000a10e30001003a000a30ef008000210092
:102c40001001780010009000000041000148780059
:102c50004f0178004f00be00004006003600f8002b
:102c6000809fbe00829fbe00849fbe00869fbe00e4
:102c700090838000a183800061004000e0804800d4
:102c800090838800a18388000068a900e8140700e9
:102c90004f03be004f02be004f01be004f00be00fa
:102ca0003600f90000400600000005006022b80070
:102cb000060220000000d0008180d2000482d200f1
:102cc0008582d2000000a0000202520083825a00d6
:102cd000030031000202420083824a000000a1008a
:102ce0000603e900f3ff3a00000006000001fa00c5
:102cf000889fbe008a9fbe008c1f78000004be0023
:102d000002057800f0032000808f51000a003e0089
:102d10000000eb0005003700984078001a5c78004e
:102d2000195d7800815c78000000e800830f500096
:102d3000f9ff3a001e003700030678008c05780082
:102d400000102000800f560001003600800578003a
:102d50000b0178008800780060ef2f000f00400022
:102d6000fd0107000b0178008a0078000800780058
:102d7000f90107000b017800890078000a0078004b
:102d8000f50107000b01780061ef2f008f804000f4
:102d900009007800f00107000b0656000b04440000
:102da0008b8444000b0545000c00e000e3ff3a0073
:102db0004f0678004f05be004f04be000080fa00a9
:102dc000000006000001fa00889fbe008a9fbe0036
:102dd0000005be00f0032000800f510009003e00f6
:102de0000000eb00040037009a4078001b5d78007b
:102df000815d78000000e800820f5000faff3a0081
:102e000018003700820478000904780000102000c0
:102e1000808f54000100360000047800080178001b
:102e20008a00780080ef2f000f004000ca010700e1
:102e3000080178000a00be00c701070008017800f9
:102e400081ef2f008f8040000b007800c201070047
:102e50008884540008054500888545000900e00085
:102e6000e9ff3a004f05be004f04be000080fa00a3
:102e700000000600889fbe008a9fbe008c1f78005d
:102e800080047800010478000205be000406780082
:102e90000800be000c0001000000e00004003d003e
:102ea0000b0178008800780009007800c5ff070052
:102eb000880078000a0078000c0001000000e000a3
:102ec00004003d000b0178008a00780008007800bb
:102ed000bcff07000800be000c0001000000e0007d
:102ee00004003d000b01780088007800090078009c
:102ef000b4ff07004f0678004f05be004f04be0028
:102f000000000600889fbe008a9fbe008c9fbe0006
:102f10008e1f780080027800810478008205780096
:102f2000030478000406780005855500820220001d
:102f30008299b9008a0f5100220031001100090066
:102f40000385d800000578004355de000a05e80037
:102f500083d5b9000a8742000a0145000281420078
:102f60008e00780005007800c2ff07008a06ea009c
:102f70000a8144000d8044000c027800880178002a
:102f800089007800bbff07008d864500e0ff2f0019
:102f900080d5b9000a8045000c02780088017800cd
:102fa0000b0178008d007800b2ff07000c0278005a
:102fb000880178000d017800890078000e00780003
:102fc000030037000b0178008900780005007800c5
:102fd000a8ff07004f0778004f06be004f05be0050
:102fe0004f04be0000000600e4874700889fbe0033
:102ff0008a9fbe008c9fbe008e1f78000004be001a
:103000000205be0084bf9f000906e8000c064600ca
:1030100089d8b900000744008cd8b9008006440064
:1030200009007800150037008a0f560006003200ac
:103030008b8056000d0078000fb997000200010048
:103040000000e00002003d000c06e9008b865600ff
:103050000b0178008d0078000e00780059ff070002
:103060008c00e800818040008b89b9000c0078005a
:103070000d07780082064400010678008a0f56008a
:10308000e9ff3600100037000006e9000c06d10009
:103090008be5b9000a0544008a0078000e0078002c
:1030a0000fb99700020001000000e00008003400a2
:1030b0000b0178008e0078000a00780041ff0700bd
:1030c0000c0078000a077800808f5400eeff39006a
:1030d0004f0778004f06be004f05be004f04be00ec
:1030e0004f00b100000006000001fa00889fbe00fa
:1030f0008a9fbe008c9fbe00000578000106780004
:10310000820578008a0656008b8646008b0478007c
:10311000150037000904780000102000808f54004b
:1031200001003600000478008880550081004600c8
:103130000801780040ef2f000f0040000601070053
:1031400008815600080045008a0078000901070040
:103150000801780041ef2f008f8040000a007800be
:10316000fd000700888454000900e000e9ff3a00f0
:103170004f06be004f05be004f04be000080fa009f
:1031800000000600ea874700889fbe008a9fbe00b5
:103190008c9fbe008e1f78000005780081067800a5
:1031a000e2b79f0003047800840578009b00370095
:1031b0000d06d10088e6b9000c06450088e8b90084
:1031c00000004500d0b79f00880446000800ea00d0
:1031d000f0b79f00dfb09700008140000b0278003d
:1031e000880178008c0078000a00780045ff07000d
:1031f000010037000d0678008c0f550009003100e2
:103200007fb19700820646008c0078000d007800a0
:103210000b0001000000e000f6ff32000100370063
:10322000888444005fb09700808f54000300390009
:103230000c07780089067800110037008c007800b0
:10324000090078000b0001000000e000f4ff3200ec
:10325000f7ff37000c00be000b0001000000e0008b
:10326000060035001c003a00080178008d00780047
:1032700009007800d3fe0700888444008886460051
:10328000dfb09700818f560013003100f1ff370047
:103290007fb19700820147008c007800030078001e
:1032a00083bf9f000b0001008fb997000000e00072
:1032b000080035000a003a007fb09700000646007b
:1032c00008017800830078000c007800bdfe07003c
:1032d0008fb99700030778008e0f5500ecff390077
:1032e0008a0f570014003a00dfb09700818f560014
:1032f0002b0032008d8f540005003a000801780041
:103300008c00780009007800aefe07000500370049
:1033100088017800090178008c0078000d007800a1
:1033200072fe07008886460008064600888444002e
:103330000a077800d2ff37007fb1970002074700e5
:103340005fb09700808f560010003a0082844400de
:10335000020646008c0f570006003a00080178006c
:10336000890078000e00780096fe07000e067800af
:10337000c3ff3700880178000c01780089007800cd
:103380000e00780059fe0700bdff370008017800e5
:103390008e0078000d0078008afe0700b7ff370026
:1033a000efb097000100d10001017800c210de00eb
:1033b00080804000e1b79f000a0656001100090016
:1033c0000886d8000006780089865600110009009a
:1033d0008886d800800678008d0f560008003e00d1
:1033e0000b027800880178006fb197008c0078009c
:1033f0000a00780063ff070009057800070037001e
:103400000b027800880178006fb197008d0078007a
:10341000090078005bff07008c067800efb097008a
:103420000100e0000400320000022000808f5600fe
:103430005fff3e001e00370000022000808f560014
:103440001b0036008d04d1008904e9000b027800ce
:10345000880178000d017800890078000a00780062
:10346000e1fe07000900e000f7ff3a0088e8b90034
:1034700080044500888454000801780089007800a1
:103480000a0078004ffe07008d06e9000b02780065
:10349000880178000d0178008000eb000a007800b8
:1034a000d1fe0700e18f5600f2ff3e001f003700fb
:1034b000e18f56001d0036008a047800190037009d
:1034c000888444008a007800090078000b0001001d
:1034d0000000e00004003d00080178008900780049
:1034e0000a0078000e003700090678000100370056
:1034f0000e067800080756008e0078000900780054
:103500000b0001000000e000f9ff3500890f5600b4
:103510000400320008017800890078000c0078006f
:10352000f1fe07008d06e900e5ff3a004f0778003d
:103530004f06be004f05be004f04be00af00b100f5
:103540000000060003027800820178000101780083
:10355000820078000bff37008001780002003700fe
:10356000b15978000201e9000200e000fcff3a00d6
:103570000000060000027800808f50000c0031002f
:1035800082814000830f500009003100820040001a
:1035900002003700c36078000201e9000200e00089
:1035a000fcff3a0000000600315a78000201e900f1
:0c35b0000200e000fcff3a0000000600f2
:020000040000fa
:1035bc00556e0000686100006e6400006c650000d0
:1035cc0064200000696e00007465000072720000d7
:1035dc0075700000742c0000200000006473000063
:1035ec0050490000433300003345000050350000c3
:1035fc003132000047500000383000003600000027
:10360c00756e00006b6e00006f7700006e0000009e
:10361c004231000000440000657600006963000040
:10362c006520000049440000203d000020000000ff
:10363c0020280000002900002c20000072650000ea
:10364c0076690000736900006f6e000020000000b6
:10365c00290a0000000a00000a2a00002a2a000099
:10366c002a2a00002a2a00002a2a00002a2a0000fe
:10367c002a2a00002a2a00002a2a00002a2a0000ee
:10368c002a2a00002a2a00002a2a00002a2a0000de
:10369c002a2a00002a2a00002a2a00002a2a0000ce
:1036ac002a2a00002a2a00002a2a00002a2a0000be
:1036bc002a2a00002a2a00002a2a00002a2a0000ae
:1036cc002a2a00002a0a00002a2000005741000084
:1036dc00524e0000494e0000472000002d200000f3
:1036ec00746800006973000020700000726f0000a5
:1036fc0067720000616d00002077000061730000ac
:10370c00206300006f6d0000706900006c650000a4
:10371c0064200000666f00007220000074680000d6
:10372c0065200000777200006f6e000067200000bb
:10373c00202a00000a2a00002063000068690000ab
:10374c00702e0000205400006869000073200000f7
:10375c00707200006f670000726100006d20000045
:10376c006d61000079200000707200006f64000031
:10377c007563000065200000756e00006578000020
:10378c007065000063740000656400002062000036
:10379c0065680000766900006f720000212000004f
:1037ac002a0a00002a200000456400006974000009
:1037bc00207400006865000020680000656100004e
:1037cc006465000072200000666900006c650000f2
:1037dc0073200000746f000020700000726f0000f6
:1037ec0070650000726c00007920000064650000b8
:1037fc00666900006e6500002074000068690000b6
:10380c00732000006368000069700000202a00002b
:10381c000a2a0000206100006e6400002074000081
:10382c006f200000696e0000737500007265000067
:10383c00206300006f72000072650000637400006a
:10384c00206f000070650000726100007469000058
:10385c006f6e00002e2000002020000020200000b1
:10386c00202000002020000020200000202000004c
:10387c002020000020200000202000002a0a000048
:10388c002a20000020200000202000002020000022
:10389c00202000002020000020200000202000001c
:1038ac00202000002020000020200000202000000c
:1038bc0020200000202000002020000020200000fc
:1038cc0020200000202000002020000020200000ec
:1038dc0020200000202000002020000020200000dc
:1038ec002020000020200000202a00000a2a0000ce
:1038fc00204e00004f540000453a000020490000c3
:10390c0066200000746800006973000020770000d6
:10391c0061730000206300006f6d0000706900008f
:10392c006c65000064200000666f000072200000cf
:10393c007468000065200000636f00007272000064
:10394c00656300007420000063680000697000006b
:10395c002c200000202000002a0a00002a20000051
:10396c00616e0000642000006f6e00006c79000036
:10397c00206f00006363000075720000732000006c
:10398c0061740000207000006f7700006572000009
:10399c002d6f00006e200000286e00006f74000078
:1039ac002064000075720000696e00006720000042
:1039bc00612000004d4300004c520000202000000c
:1039cc0020200000202a00000a2a0000207200009b
:1039dc006573000065740000292c0000207600003f
:1039ec0065720000696600007920000074680000b0
:1039fc006174000020410000564400004420000087
:103a0c00616e00006420000041560000535300001a
:103a1c002061000072650000206300006f6e0000e2
:103a2c006e65000063740000656400002e200000c9
:103a3c00202000002a0a00002a2000004f6e0000ff
:103a4c00207400006865000020500000494300000d
:103a5c00323400004833000032470000503200007e
:103a6c00303200002c2000006e6f0000742000002b
:103a7c00636f00006e6e00006563000074690000e7
:103a8c006e670000204100005644000044200000f6
:103a9c00202000002020000020200000202000001a
:103aac00202a00000a2a000020700000726f00001b
:103abc0064750000636500007320000074680000ea
:103acc0069730000206d00006573000073610000d5
:103adc0067650000206f00006e6c0000792000000c
:103aec0061740000207000006f77000065720000a8
:103afc002d750000702e00002020000020200000fa
:103b0c0020200000202000002020000020200000a9
:103b1c002a0a00002a2a00002a2a00002a2a000069
:103b2c002a2a00002a2a00002a2a00002a2a000039
:103b3c002a2a00002a2a00002a2a00002a2a000029
:103b4c002a2a00002a2a00002a2a00002a2a000019
:103b5c002a2a00002a2a00002a2a00002a2a000009
:103b6c002a2a00002a2a00002a2a00002a2a0000f9
:103b7c002a2a00002a2a00002a2a00002a2a0000e9
:103b8c000a0000004661000073740000205200001f
:103b9c00432000004f730000630a00000046000041
:103bac00617300007420000052430000204f00009d
:103bbc007363000020770000697400006820000027
:103bcc00504c00004c0a00000050000072690000cc
:103bdc006d61000072790000204f000073630000db
:103bec0020280000585400002c20000048530000ee
:103bfc002c20000045430000290a00000050000062
:103c0c00726900006d61000072790000204f0000a5
:103c1c007363000020280000585400002c20000082
:103c2c00485300002c2000004543000029200000d0
:103c3c007769000074680000205000004c4c0000b4
:103c4c000a00000053650000636f00006e64000002
:103c5c0061720000792000004f730000630a0000bd
:103c6c00004c00006f770000205000006f770000c0
:103c7c006572000020520000432000004f730000ca
:103c8c00630a00000046000061730000742000000d
:103c9c0052430000204f0000736300002f310000de
:103cac00360a00000046000061730000742000001a
:103cbc0052430000204f0000736300002f4e0000a1
:103ccc000a000000556e00006b6e00006f7700005c
:103cdc006e2000006f730000636900006c6c0000c4
:103cec00617400006f720000207400007970000095
:103cfc00652e0000000a0000446500007669000093
:103d0c006365000020680000617300002062000001
:103d1c00656500006e200000696e000020730000d5
:103d2c006c65000065700000206d00006f64000081
:103d3c00650a0000000a0000446500007669000076
:103d4c0063650000206800006173000020620000c1
:103d5c00656500006e200000696e0000206900009f
:103d6c00646c0000652000006d6f0000646500004d
:103d7c000a0000000a520000657300006574000020
:103d8c002063000061750000736500003a2000009c
:103d9c00005000006f770000657200002d6f00006e
:103dac006e2e00000a000000536f000066740000c5
:103dbc0077610000726500002052000065730000fe
:103dcc00657400002e0a00000057000061740000aa
:103ddc0063680000646f00006720000054690000f5
:103dec006d6500006f750000743a00002000000043
:103dfc000a0000004d4300004c52000020610000fe
:103e0c007373000065720000746900006f6e00002f
:103e1c002e0a000000420000726f0000776e000056
:103e2c002d6f0000757400002e0a00000054000075
:103e3c007261000070200000436f00006e6600008d
:103e4c006c690000637400002e0a00000049000039
:103e5c006c6c000065670000616c00002043000082
:103e6c006f6e000064690000746900006f6e0000e2
:103e7c002e0a0000004300006f6e0000666900000f
:103e8c006775000072610000746900006f6e0000bd
:103e9c00204d0000697300006d6100007463000028
:103eac00682e00000a000000556e00006b6e0000ca
:103ebc006f7700006e2000007265000073650000d3
:103ecc00742e00000a00000045720000726f0000a2
:103edc0072200000747200006170000070650000b8
:103eec00643a00002000000050720000696f00006e
:103efc0072690000747900003a200000002c000068
:103f0c002056000065630000746f000072200000f2
:103f1c006e7500006d620000657200003a200000b2
:103f2c00000a00000a000000554100005254000035
:103f3c00312000007061000072690000747900008b
:103f4c0020650000727200006f7200000a00000011
:103f5c0055410000525400003120000066720000f0
:103f6c00616d0000696e0000672000006572000042
:103f7c00726f0000720a00000055000041520000f0
:103f8c0054310000206f0000766500007272000052
:103f9c00756e000020650000727200006f720000e8
:103fac000a0000005541000052540000322000006d
:103fbc0070610000726900007479000020650000d7
:103fcc00727200006f7200000a0000005541000080
:103fdc00525400003220000066720000616d000037
:103fec00696e00006720000065720000726f0000af
:103ffc00720a0000005500004152000054320000cb
:10400c00206f00007665000072720000756e000073
:10401c0020650000727200006f7200000a00000040
:10402c005541000052540000332000007061000024
:10403c007269000074790000206500007272000043
:10404c006f7200000a00000055410000525400003d
:10405c003320000066720000616d0000696e000084
:10406c006720000065720000726f0000720a000089
:10407c00005500004152000054330000206f000036
:10408c007665000072720000756e000020650000fd
:10409c00727200006f7200000a00000055410000af
:1040ac00525400003420000070610000726900005e
:1040bc007479000020650000727200006f720000bd
:1040cc000a0000005541000052540000342000004a
:1040dc0066720000616d0000696e000067200000d0
:1040ec0065720000726f0000720a0000005500003b
:1040fc004152000054340000206f0000766500002f
:10410c0072720000756e0000206500007272000073
:10411c006f7200000a0000003078000000450000bb
:10412c00727200006f720000206900006e200000a7
:10413c0062750000696c0000645c00006c69000032
:10414c00625c000073720000635c00007069000028
:10415c0063320000345f0000736500007269000078
:10416c00616c00002e630000206c0000696e000082
:10417c006520000032390000363a0000204900006a
:10418c006e760000616c0000696400002055000030
:10419c00415200005400000045720000726f000094
:1041ac0072200000696e000020620000756900003a
:1041bc006c6400005c6c0000696200005c730000c1
:1041cc00726300005c700000696300003234000010
:1041dc005f73000065720000696100006c2e0000c6
:1041ec00632000006c6900006e6500002033000045
:1041fc00333500003a200000496e00007661000063
:10420c006c6900006420000055410000525400000d
:10421c0000050000030200000100000050c3000074
:10422c0030750000204e000010270000881300009d
:10423c00b80b0000d0070000e8030000f4010000f8
:10424c002c010000c80000006400000032000000d7
:10425c001e000000140000000a0000000500000011
:10426c000300000002000000010000000503000034
:10427c00020100000503000002010000321e0000d4
:10428c00140a000005030000020100000a6200008d
:10429c00756900006c6400005c650000736f0000c1
:1042ac00735c000073720000635c000065730000b7
:1042bc006f7300005f660000313400007569000008
:1042cc002e6300002c20000062750000696c000059
:1042dc00742000006f6e0000204600006562000034
:1042ec002032000035200000323000003231000056
:1042fc002061000074200000303300003a350000cb
:0c430c00373a0000323500000a000000c3
:020000040000fa
:1043180000002200120eb6000000e9004f00de0087
:1043280000004000917180000110a1008100700020
:104338009171880000002100120eb6000000e9000b
:104348004f00de004200dd00917180000120a100d5
:104358008100700091718800107180000080ea006f
:104368004f00de004300dd00917180000130a100a4
:104378008100700091718800320ed50061006000e4
:10438800e0ec8800907180004200de00610060006f
:1043980010ed8800907180004300de00610060002d
:1043a80040ed8800f00c8000b20c80008000eb002b
:1043b800c000dd00000020008001eb00020070005a
:1043c80083807000929e2e000300200035fa0700bb
:1043d80002ed80008001eb00820f5000838f5800af
:1043e800180039009ae1a800d00c80000008b2003b
:1043f800910c80000170a10081007000910c880070
:1044080080ff2f009821b600c10c8000e780600073
:10441800830c80000301600002817000820c880018
:10442800c20c8000820060000100a000c10c88005e
:10443800c10c8000e78060009001b6000080700029
:10444800800c8800700d8000320d80008000eb0029
:10445800c000dd00000020008001eb0002007000b9
:1044680083807000929e2e00030020000dfa070042
:1044780032ed80008001eb00820f5000838f5800de
:1044880018003900aae1a800500d80000008b20009
:10449800110d80000170a10081007000110d8800cd
:1044a80080ff2f00a821b600410d8000e780600042
:1044b800030d80000301600002817000020d880076
:1044c800420d8000820060000100a000410d8800bc
:1044d800410d8000e7806000a001b60000807000f8
:1044e800000d8800f00d8000b20d80008000eb0008
:1044f800c000dd00000020008001eb000200700019
:1045080083807000929e2e0003002000e5f90700ca
:1045180062ed80008001eb00820f5000838f58000d
:1045280018003900bae1a800d00d80000008b200d8
:10453800910d80000170a10081007000910d88002c
:1045480080ff2f00b821b600c10d8000e780600011
:10455800830d80000301600002817000820d8800d5
:10456800c20d8000820060000100a000c10d88001b
:10457800c10d8000e7806000b001b60000807000c7
:10458800800d88000000060088180700000006005b
:10459800881f780000047800284090000074a0006c
:1045a800204498001800780081162000810f5000e0
:1045b8001c0032008100e800810f500037003200f3
:1045c8000000e00048003a0070ee80000000e000c3
:1045d80002003200c1dc21001100a20061ee80005f
:1045e800e18f500002003a0015eea90001003700e3
:1045f80015eea8000000e00023003200681807004c
:10460800300498004104980070ee80000000d1004a
:104618008000eb0050049800610498008016200088
:10462800000c7800284090000028a3000400320005
:1046380040c0b3002044980030c0b3002e003700bb
:1046480058019000e801900038009000c8009000e0
:10465800610e07000000e0000400320028409000ce
:104668000004a1002044980003003700284090006f
:104678000004a00020449800a84090000040eb00ef
:104688000108a3001c003a00284090000074a10013
:104698002044980090162000000c780028409000d4
:1046a8000028a3000400320040c0b3002044980052
:1046b80030c0b300100037000004e00003003d00e4
:1046c8000004a10020449800020037000004a00064
:1046d80020449800a84090000040eb000108a30087
:1046e800b9ff32000400370080c0b30020449800ae
:1046f800000ceb0030c0b3004f0478000000060047
:10470800881f780000047800284090000074a000fa
:104718002044980018007800d1152000810f50001f
:104728001c0032008100e800810f50003700320081
:104738000000e00048003a0050ee80000000e00071
:104748000200320081dc21001100a20041ee80004d
:10475800e18f500002003a0015cea8000100370092
:1047680015cea9000000e000230032000c18070055
:10477800300498004104980050ee80000000d100f9
:104788008000eb005004980061049800d0152000c8
:10479800000c7800284090000028a3000400320094
:1047a80040c0b3002044980030c0b3002e0037004a
:1047b80058019000e801900038009000c80090006f
:1047c800050e07000000e0000400320028409000b9
:1047d8000004a100204498000300370028409000fe
:1047e8000004a00020449800a84090000040eb007e
:1047f8000108a3001c003a00284090000074a100a2
:1048080020449800e0152000000c78002840900013
:104818000028a3000400320040c0b30020449800e0
:1048280030c0b300100037000004e00003003d0072
:104838000004a10020449800020037000004a000f2
:1048480020449800a84090000040eb000108a30015
:10485800b9ff32000400370080c0b300204498003c
:10486800000ceb0030c0b3004f04780000000600d5
:10487800881f780000047800284090000074a00089
:10488800204498001800780021152000810f50005e
:104898001c0032008100e800810f50003700320010
:1048a8000000e00048003a0030ee80000000e00020
:1048b8000200320041dc21001100a20021ee80003c
:1048c800e18f500002003a00548ea8000100370022
:1048d800548ea9000000e00023003200b017070042
:1048e800300498004104980030ee80000000d100a8
:1048f8008000eb0050049800610498002015200007
:10490800000c7800284090000028a3000400320022
:1049180040c0b3002044980030c0b3002e003700d8
:1049280058019000e801900038009000c8009000fd
:10493800a90d07000000e0000400320028409000a4
:104948000004a1002044980003003700284090008c
:104958000004a00020449800a84090000040eb000c
:104968000108a3001c003a00284090000074a10030
:104978002044980030152000000c78002840900052
:104988000028a3000400320040c0b300204498006f
:1049980030c0b300100037000004e00003003d0001
:1049a8000004a10020449800020037000004a00081
:1049b80020449800a84090000040eb000108a300a4
:1049c800b9ff32000400370080c0b30020449800cb
:1049d800000ceb0030c0b3004f0478000000060064
:1049e800889fbe008a1f7800000478002840900045
:1049f8000074a00020449800180078000000e0002f
:104a08000400320051142000810f500072003a0057
:104a180057003700621707000002be00b3ee80009f
:104a2800927080004811de0061016100e1da210026
:104a3800910f51003a0032001000200090ed8800dc
:104a4800907080004800de006100600070ed880012
:104a5800531707004add21008a84e800190d500029
:104a68004f170700800c78001a007800f680540071
:104a7800910f50000600390010002000a0ed8800ba
:104a88000000eb00b0ed8800c0ed88000e00370094
:104a980021dc2100910f5000060036000000eb00d9
:104aa800a0ed880011002000b1ed8800c0ed88005d
:104ab800050037000000eb00a0ed8800b0ed88008d
:104ac80010002000c0ed8800130eab000200320079
:104ad800132eab0004003200130eab0009003a009d
:104ae800132eab000700320010002000d0ed880024
:104af800c0db21000008eb00740040001008e8004b
:104b080012003700a0db21000008eb001000200095
:104b1800e0ed880000dd21001008e9000b003700f7
:104b280003025200e0db2100900f5200070036001c
:104b38000000eb0090ed8800a0ed8800b0ed880043
:104b4800c0ed8800d0ed8800e0ed8800141707005c
:104b58003004980041049800a000200001002000c3
:104b6800500498006104980050142000000c78004c
:104b7800284090000028a3000400320040c0b30081
:104b88002044980030c0b300170037005801900047
:104b9800e801900038009000c80090000e0d070052
:104ba8000000e00004003200284090000004a1004a
:104bb8002044980003003700284090000004a0001b
:104bc80020449800a84090000040eb000108a30092
:104bd80090ff32000400370080c0b30020449800e2
:104be800000ceb0030c0b3004f0578004f04be0046
:104bf8000000060080ee88000000060090ee8800a5
:104c080000000600e0ec800000000600e0ec8000f8
:104c180000f0a7000000ea000000e9004f00de00f5
:104c280000000600e1d92100110078008008eb009f
:104c38000000060000ed88000000060000ed80007e
:104c48000000060010ed80000000060010ed800056
:104c580000f0a7000000ea000000e9004f00de00b5
:104c68000000060041da2100110078008008eb00fe
:104c78000000060030ed88000000060030ed8000de
:104c88000000060040ed80000000060040ed8000b6
:104c980000f0a7000000ea000000e9004f00de0075
:104ca80000000600a1da2100110078008008eb005e
:104cb8000000060060ed88000000060060ed80003e
:104cc8000000060040dc2100100078000000a2006f
:104cd80000f0a7000000ea000000e9004f00de0035
:104ce8000000060020ee800000f0a7000000ea00a7
:104cf8000000e9004f00de000000060060dc210033
:104d08000008eb001000200020ee880000000600dc
:104d18000000eb0030ee880020ee8800000006005e
:104d280040dc21001000a200a0728000700060002a
:104d38000000e9004f00de004400dd00a1728000a1
:104d48000140a10081007000a172880000000600e7
:104d580030ee88000000060080dc2100100078009a
:104d68000000a20000f0a7000000ea000000e9002f
:104d78004f00de000000060040ee800000f0a700b3
:104d88000000ea000000e9004f00de000000060015
:104d9800a0dc21000008eb001000200040ee880095
:104da800000006000000eb0050ee880040ee88008e
:104db8000000060080dc21001000a2000000240092
:104dc800140eb6000000e9004f00de004e00dd00c2
:104dd800a170800001e0a10081007000a17088002e
:104de8000000060050ee880000000600c0dc21002c
:104df800100078000000a20000f0a7000000ea0000
:104e08000000e9004f00de000000060060ee8000b0
:104e180000f0a7000000ea000000e9004f00de00f3
:104e280000000600e0dc21000008eb001000200074
:104e380060ee8800000006000000eb0070ee8800bd
:104e480060ee880000000600c0dc21001000a2000f
:104e5800a07080000080ea004f00de004f00dd00f7
:104e6800a170800001f0a10081007000a17088008d
:104e78000000060070ee88000000060080ee80004a
:104e88000000060090ed800000000600a0ed800004
:104e980000000600b0ed800000000600c0ed8000b4
:104ea80000000600d0ed800000000600e0ed800064
:104eb80000000600a0ee800000000600f0ed88006b
:104ec80000000600f0ed80000000060000ee8800fb
:104ed8000000060000ee80000000060010ee8800ca
:104ee8000000060010ee8000000006000000eb0045
:104ef800e0ec8800f0ec8800411f200001ed8800fc
:104f080010ed880020ed880031ed880040ed880024
:104f180050ed880061ed880070ed880080ed880014
:104f280090ed8800a0ed8800b0ed8800c0ed880005
:104f3800d0ed8800e0ed880001192000f1ed88002f
:104f48006109200001ee8800f100200011ee8800c0
:104f580020ee880030ee880040ee880050ee880091
:104f680060ee880070ee880080ee880090ee880081
:104f7800a0ee8800b0ee880000000600889fbe0002
:104f88008a9fbe008c9fbe008e1f7800c0142a0026
:104f9800bf070700d5ff0700508ea900568ea9004d
:104fa8005a8ea9005c8ea9001fcea90011cea900b7
:104fb8001bcea9001dcea9001feea90011eea90065
:104fc8001beea9001deea9001faea90011aea80096
:104fd8001baea9001daea9001baea800b00320009f
:104fe8000100200068fd07001f8ea900118ea8008f
:104ff8001b8ea9001d8ea9001b8ea800b0032000df
:105008000100200060fd070021eea8002beea9009a
:105018002deea9002beea800b0032000010020000f
:1050280059fd07001faea90011aea8001baea900cc
:105038001daea9001baea800b0032000010020008f
:1050480051fd0700302ea900362ea9003a2ea900de
:105058003c2ea9000bf82f00213780000180650045
:105068001004b3002037880088ff2f008219200021
:1050780012096400c00c800067006000820c800088
:105088008200640081007000810c88000cc021003f
:105098000c0078009821b7009801b600fd3f2e005b
:1050a800820c80008280660081007000810c88007c
:1050b8009b01a800d00c80000010b200910c800069
:1050c8000180a10081007000910c88009ae1a8007d
:1050d800d00c80000008b200910c80000170a10083
:1050e80081007000910c88000afe2f00a019200092
:1050f80010086500d00c80007f006000920c8000d2
:105108008200650081007000910c8800fef92f0074
:105118000019200010086700c10c8000010064001d
:105128000000a000c00c8800c00c80006700600070
:10513800820c80008200640081007000810c88006d
:10514800e082200010f0a100e1872000f2ff220099
:1051580091086100020026009108410010f0a000ab
:105168001f8ea900118ea8001b8ea9001d8ea900f4
:105178001b8ea800b00320000100200002fd0700dc
:10518800304ea900364ea9003a4ea9003c4ea9005f
:1051980031378000018065002004b3003037880073
:1051a800821a200012096400400d80006700600028
:1051b800020d80008200640081007000010d8800eb
:1051c8000c007800a821b700a801b600020d8000e5
:1051d8008280660081007000010d8800ab01a80084
:1051e800500d80000010b200110d80000180a10058
:1051f80081007000110d8800aae1a800500d800000
:105208000008b200110d80000170a100810070003b
:10521800110d8800a01a200010086500500d8000ac
:105228007f006000120d8000820065008100700020
:10523800110d8800001a200010086700410d800039
:10524800010064000000a000400d8800400d8000af
:1052580067006000020d8000820064008100700019
:10526800010d8800098320001970a1002088200002
:10527800f1ff22001088600002002600100841009b
:105288001970a00021eea8002beea9002deea900b0
:105298002beea800b003200001002000bafc070094
:1052a800306ea900366ea9003a6ea9003c6ea900be
:1052b80040378000808565003b04b3004b37880089
:1052c800811b200091086400c00d80006700600009
:1052d800820d80008200640081007000810d8800ca
:1052e8000c007800b821b700b801b600810d800025
:1052f800818666008d0670008d0d8800bb01a800b0
:10530800d00d80000010b200910d80000180a10036
:1053180081007000910d8800bae1a800d00d8000ce
:105328000008b200910d80000170a100810070009a
:10533800910d8800a21b200012096500d00d800085
:105348007f006000910d8000010565000a0570006e
:105358009a0d8800021b200012096700c10d800009
:10536800010064000000a000c00d8800c00d80008e
:1053780067006000820d8000020464000804700069
:10538800880d880019b0a10040882000f1ff220094
:1053980010886000020026001008410019b0a00023
:1053a8001f0ea900110ea8001b0ea9001d0ea900b2
:1053b8001f2ea900112ea8001b2ea9001d2ea90022
:1053c8001b0ea8001b2ea800b0032000010020001f
:1053d8006dfc07001e4ea800104ea8001a4ea9002a
:1053e8001c4ea9001e6ea800106ea8001a6ea90017
:1053f8001c6ea900404f220084090700c203200048
:1054080003002000c0182200310b0700c04322000f
:105418007e090700403822007c090700c02c2200c2
:105428007a0907004f0778004f06be004f05be00f7
:105438004f04be0000000600100078001100500064
:1054480000000600881f78000004780081017800b9
:10545800284090000074a0002044980018027800aa
:105468000400e0000400320021032000810f5200f4
:105478001a003a000200370021032000010c7800ce
:105488000028a3000400320040c0b3002044980064
:1054980030c0b30015003700a18180000168a30067
:1054a80003003a000004a1002044980002003700dd
:1054b8000004a00020449800284290000040eb001f
:1054c8000408a30009003a000160a000a181880037
:1054d80082007800030078001114070080c0b30030
:1054e80020449800000ceb0030c0b3004f04780053
:1054f80000000600889fbe000004be0028409000ff
:105508000074a00020449800180078000000e00013
:105518000400320061042000810f50001b003a0093
:10552800030037003114070060042000000c7800e5
:10553800284090000028a3000400320040c0b300b7
:105548002044980030c0b300140037001f1407002f
:105558000000e00004003a00284090000004a10088
:105568002044980003003700284090000004a00061
:1055780020449800a84090000040eb000108a300d8
:1055880006003a001c140700800c780080c0b300a5
:1055980020449800000ceb0030c0b3004f04be005c
:1055a80000000600889fbe00800478000184fb008c
:1055b80003a2220022002000880078000900780059
:1055c800def707000804d1000800e90000004000e9
:1055d80000804400080444008884440010007800d7
:1055e800190040000000d1004f04be000000060072
:1055f8008001eb000104e0000c003200000178009b
:105608000280e8008140e9008180fb008180400041
:1056180001004000b2007800818f51000100310084
:1056280081017800800f5100faff3a0003007800ea
:1056380000000600889fbe008a9fbe000004780014
:105648000105780082447800284090000074a0008a
:105658002044980018007800d10a2000810f5000db
:105668007f00320009003e00f0805000810f50009a
:1056780026003200e8804000810f50004e003200c2
:105688000000e00010003200ee023700d10b2000cd
:10569800810f5000c800320004003e00e88050002e
:1056a800810f5000e7023a0098003700510c2000a3
:1056b800810f5000eb003200ee804000810f500057
:1056c800e0023a00120137006e70ef006a30ef0016
:1056d8006c30ef0000cfb30000c0610070f0b7007d
:1056e800efc1610083407800f0062100014878008e
:1056f8006f806400e10f500029003a002400370051
:10570800ba130700d0092000000c78002840900048
:105718000028a3000400320040c0b30020449800d1
:1057280030c0b300cb023700a81307000000e00028
:1057380004003a00284090000004a100204498008a
:1057480003003700284090000004a000204498007f
:10575800a84090000040eb000108a300bd023a00f9
:10576800eb0621009b457800a31307008b80fb0004
:1057780081804000c2d1210081004100800878006a
:105788008b45e8008b417800e20621000349780048
:105798006ed0bf00e14f5000d6003e00d8ff370062
:1057a800e20f500028003a00230037008f1307004b
:1057b800500a2000000c7800284090000028a30020
:1057c8000400320040c0b3002044980030c0b30049
:1057d800a00237007d1307000000e00004003a0033
:1057e800284090000004a1002044980003003700de
:1057f800284090000004a00020449800a840900091
:105808000040eb000108a30092023a00eb062100d9
:105818009b457800781307008b80fb00818040004f
:10582800c2d1210081004100800878008b45e80042
:105838000b4078006ef0b7006ed0bf00e34f500009
:10584800ac003e00d9ff3700e30f500029003a00b2
:105858002400370065130700d00a2000000c7800e8
:10586800284090000028a3000400320040c0b30084
:105878002044980030c0b300760237005313070065
:105888000000e00004003a00284090000004a10055
:105898002044980003003700284090000004a0002e
:1058a80020449800a84090000040eb000108a300a5
:1058b80068023a00eb0621009b4578004e1307006a
:1058c8008b80fb0081804000c2d121008100410013
:1058d800800878008b45e8000b417800e10621003c
:1058e800824878006ed0bf00e74f500081003e002c
:1058f800d8ff3700e40f500029003a002400370091
:105908003a130700500b2000000c78002840900044
:105918000028a3000400320040c0b30020449800cf
:1059280030c0b3004b023700281307000000e00026
:1059380004003a00284090000004a1002044980088
:1059480003003700284090000004a000204498007d
:10595800a84090000040eb000108a3003d023a0077
:10596800eb0621009b457800231307008b80fb0082
:1059780081804000c2d12100810041008008780068
:105988008b45e8000b427800e30621008449780043
:105998006ed0bf00ef4f500056003e00d8ff3700d2
:1059a800e50f500029003a00240037000f130700c4
:1059b800d00b2000000c7800284090000028a3009d
:1059c8000400320040c0b3002044980030c0b30047
:1059d80020023700fd1207000000e00004003a0032
:1059e800284090000004a1002044980003003700dc
:1059f800284090000004a00020449800a84090008f
:105a08000040eb000108a30012023a00eb06210057
:105a18009b457800f81207008b80fb0081804000ce
:105a2800c2d1210081004100800878008b45e80040
:105a38008b407800e0062100014878006ed0bf0056
:105a4800ff4f50002b003e00d8ff3700e60f5000f4
:105a580028003a0024003700e4120700500c200008
:105a6800000c7800284090000028a30004003200b1
:105a780040c0b3002044980030c0b300f50137009f
:105a8800d21207000000e00004003a00284090000d
:105a98000004a1002044980003003700284090002b
:105aa8000004a00020449800a84090000040eb00ab
:105ab8000108a300e7013a00eb0621009b457800a6
:105ac800cd1207008b80fb0081804000c2d12100ed
:105ad80081004100800878008b45e8008b41780000
:105ae800e206210003497800f0c3b3006e50e300da
:105af800d9ff3600000deb006e70ef000904e000de
:105b08001b003a00b9120700300d2000000c780085
:105b1800284090000028a3000400320040c0b300d1
:105b28002044980030c0b300ca013700a71207000c
:105b38000000e00004003a00284090000004a100a2
:105b48002044980003003700284090000004a0007b
:105b580020449800a84090000040eb000108a300f2
:105b6800bc013a00a4120700000d78006f0137004d
:105b7800e1cf540011003a00508380006183800017
:105b8800e2e8800000004100e0804800f2e8800080
:105b980000004100e080480023c0b300e406210073
:105ba800034a78008100d1000080d3005083880028
:105bb80061838800000d78005c013700e2cf540053
:105bc80019003a005083800061838000e2e8800079
:105bd80000004100e0804800f2e880000000410039
:105be800e080480002e9800000004100e0804800b1
:105bf80012e9800000004100e080480043c0b30083
:105c0800e4062100034a78004e0add004200de0067
:105c180000007200c208de0050838800618388009b
:105c2800000d780041013700e3cf540013003a001b
:105c38005283800063838000a0d12100700240005d
:105c4800d000780002814000e0814900840f5000b4
:105c5800fbff3a0080c0b3006ef0b7004d18dd00be
:105c68004311de0002017000c319de005283880070
:105c780063838800020d78002c013700e4cf5400bc
:105c880014003a005283800063838000a0d1210071
:105c98000402200000024200d00078000281400087
:105ca800e0814900840f5000fbff3a0000c1b300b7
:105cb8006ef0b700cc18dd004411de0002817000e0
:105cc800c419de005283880063838800020d7800bf
:105cd80016013700e5cf540014003a0052838000c3
:105ce80063838000a0d12100040420000002420048
:105cf800d000780002814000e0814900840f500004
:105d0800fbff3a0000c2b3006ef0b7004b1add008b
:105d18004511de0002017200c519de0052838800b9
:105d280063838800020d780000013700e6cf540035
:105d380014003a005283800063838000a0d12100c0
:105d48000408200000024200d000780002814000d0
:105d5800e0814900840f5000fbff3a0000c4b30003
:105d68006ef0b7004a18dd004611de00020170002f
:105d7800c619de005283880063838800020d78000c
:105d8800ea00370010c2b30080cf540014003a0074
:105d9800f00f2000000d7800e10621009140780006
:105da8000040eb00c2d1210001003700804078009c
:105db8000080fb0000004000000041001000780057
:105dc8009a0f500001003100000d78000140e800f2
:105dd800e14f5000f5ff36006ef0b700d3003700f2
:105de80020c2b30080cf540014003a00f00f200006
:105df800000d7800e1062100914078000040eb009a
:105e0800c2d1210001003700804078000080fb00eb
:105e18000000400000004100100078009a0f500078
:105e280001003100000d78000140e800e34f500008
:105e3800f5ff36006ef0b700bc00370030c2b30083
:105e480080cf540014003a00f00f2000000d7800b5
:105e5800e1062100914078000040eb00c2d121000a
:105e680001003700804078000080fb0000004000ff
:105e780000004100100078009a0f50000100310026
:105e8800000d78000140e800e74f5000f5ff3600ac
:105e98006ef0b700a500370040c2b30080cf5400b1
:105ea80014003a00f00f2000000d7800e1062100f0
:105eb800914078000040eb00c2d12100010037007a
:105ec800804078000080fb00000040000000410096
:105ed800100078009a0f500001003100000d780082
:105ee8000140e800ef4f5000f5ff36006ef0b700b4
:105ef8008e00370050c2b30080cf540014003a001f
:105f0800f00f2000000d7800e10621009140780094
:105f18000040eb00c2d1210001003700804078002a
:105f28000080fb00000040000000410010007800e5
:105f38009a0f500001003100000d78000140e80080
:105f4800ff4f5000f5ff36006ef0b70077003700be
:105f580060c2b30080cf540015003a00f00f200053
:105f6800000d7800e1062100914078000040eb0028
:105f7800c3d12100f2c3b30001003700804078008c
:105f88000080fb0000004000008041001000780005
:105f98009a0f500001003100000d78000140e80020
:105fa800824f5000f5ff36006ef0b7005f003700f3
:105fb80010c4b30080cf540005003a0021c0b300dc
:105fc800c0d121008afd0700000d78005700370076
:105fd80020c4b30080cf540005003a0041c0b3008c
:105fe800c0d1210082fd0700000d78004f00370066
:105ff80030c4b30080cf540005003a0081c0b3001c
:10600800c0d121007afd0700000d78004700370055
:1060180040c4b30080cf540005003a0001c1b3006a
:10602800c0d1210072fd0700000d78003f00370045
:1060380050c4b30080cf540005003a0001c2b30039
:10604800c0d121006afd0700000d78003700370035
:1060580060c4b30080cf540005003a0001c4b30007
:10606800c0d1210062fd0700000d78002f00370025
:1060780010c8b30080cf540005003a0021c0b30017
:10608800c0d1210047fd0700000d78002700370028
:1060980020c8b30080cf540005003a0041c0b300c7
:1060a800c0d121003ffd0700000d78001f00370018
:1060b80030c8b30080cf540005003a0081c0b30057
:1060c800c0d1210037fd0700000d78001700370008
:1060d80040c8b30080cf540005003a0001c1b300a6
:1060e800c0d121002ffd0700000d78000f003700f8
:1060f80050c8b30080cf540005003a0001c2b30075
:10610800c0d1210027fd0700000d780007003700e7
:1061180060c8b30080cf540004003a0001c4b30043
:10612800c0d121001ffd0700000d780070d0bf000e
:106138003a003b00f1062100914078000104e0009c
:1061480014003200e1cf500015003200e2cf5000b9
:1061580016003200e3cf500017003200e4cf5000a1
:1061680018003200e5cf500019003200e6cf500089
:106178001a003200e7cf50001b0032006011b8004f
:10618800e8cf50001a003a0002352c000300200026
:1061980017003700027122000300200014003700a6
:1061a80002802200030020001100370002e22400d0
:1061b800030020000e003700020025000300200025
:1061c8000b003700025327000300200008003700a7
:1061d800820e2800030020000500370002c42900b1
:1061e800030020000200370002002a0003002000fc
:1061f8001a0078008000eb00809ab9000010b800ff
:10620800810042004409dd004c00de0000007100fe
:10621800cc08de00000d78000a0037000068a300f3
:10622800080032009a007800400620000008b800f4
:10623800c409dd004c00de0000807100cc08de00df
:10624800000d780080c0b30020449800000ceb00db
:1062580030c0b3004f05be004f04be00000006006a
:10626800ea10070034d0a900100020000000060042
:106278000000210041bb2100010878008000eb00ec
:1062880011009800210098000204200032009800b4
:106298008000210043bf2100030878001100980006
:1062a80021009800320098009310070000000600b3
:1062b8000080fb004400de00e94f50000200360079
:1062c8007043b000010037000043b0000000060032
:1062d8006f406000e94f5000020036007043b00084
:1062e800010037000043b00000000600881f780056
:1062f80000047800284090000074a0002044980012
:10630800180178000200e000040032003105200086
:10631800810f510027003a000c00370081417800b6
:10632800f202210003497800118080008100e80012
:106338008181880002042000828f500001003a0009
:106348003030ef0031052000010c78000028a30050
:106358000400320040c0b3002044980030c0b300ad
:10636800180037008181800022808000810f510051
:10637800030032000004a100204498000200370006
:106388000004a00020449800284190000040eb0041
:106398000208a3000b003a00000021001081400011
:1063a800f302210093417800034978001100980016
:1063b8002810070080c0b30020449800000ceb00b0
:1063c80030c0b3004f04780000000600889fbe006c
:1063d8000004780081447800284090000074a000f0
:1063e80020449800180078000000e0000400320003
:1063f800a1062000810f50003f003a001900370025
:1064080001c3b300f0c621000148780081c7b3007a
:106418000000e8000148780009407800a4ff070060
:1064280011c721008048780009407800a8ff0700bc
:1064380021c72100804878000100e8000048eb00ef
:106448002e70ef000210ec0060818800010420002b
:10645800810f500001003a002c30ef00a006200008
:10646800000c7800284090000028a30004003200a7
:1064780040c0b3002044980030c0b3002200370069
:106488006181800022808000810f5100030032006a
:106498000004a10020449800020037000004a00076
:1064a80020449800284190000040eb000208a30017
:1064b80015003a000000210090814000e20221000e
:1064c800124178000282fb00f5c6210004824200d6
:1064d800944978000241e80002427800e302210072
:1064e8008449780011009800da0f07002ed0bf0009
:1064f800e34f5000d3ff360080c0b300204498001b
:10650800000ceb0030c0b3004f04be0000000600d2
:10651800881f780000047800284090000074a000cc
:1065280020449800180078000000e00004003200c1
:1065380041082000810f500067003a0041003700f1
:106548002a70ef0030c6b30080cf50000a00360032
:106558000181fb004211de00b04721000011b800a4
:106568000301d100a0c6210003c3b30003484100c2
:1065780010c0b3002af0b700e9cf5000140036006d
:106588002ad0bf000081fb00a3c621008281410000
:106598000181fb00c212de00b4472100042ab800c2
:1065a8008502d1004406200084aab90004015100e4
:1065b8000281fb00d5cc2c000512b8004329de006f
:1065c80004c3b300844941000040e8002af0b70042
:1065d800a2022100124178008281fb00a0c621009e
:1065e800830140008180fb00d4cc2c00040ab80051
:1065f800432ade00ea22b9008480500004c3b300b5
:1066080084c940008240e800a202210001497800c4
:106618008180fb00010040000048eb002b70ef0078
:106628002a0037000210ec00408188000104200095
:10663800810f500001003a002830ef004008200088
:10664800000c7800284090000028a30004003200c5
:1066580040c0b3002044980030c0b3002200370087
:106668004181800024808000810f520003003200a5
:106678000004a10020449800020037000004a00094
:1066880020449800284190000040eb000208a30035
:1066980015003a000000210090814000b20221005c
:1066a800124178000282fb00a5c621000482420044
:1066b800944978000241e80002427800b3022100c0
:1066c8008449780011009800620f07002bd0bf00a2
:1066d8002a50e300d3ff3e0080c0b3002044980056
:1066e800000ceb0030c0b3004f0478000000060037
:1066f800889fbe008a9fbe008c1f78000006780025
:106708000204be002c4090000074a00020469800af
:106718001c0078000000e00004003200410a20005c
:10672800810f50005f003a003900370001c3b30001
:10673800f0c521000148780081c7b3000000e800d7
:1067480001487800481dde000b0020000a40780050
:10675800d7fe070011c62100804878000a4078005b
:10676800dbfe070021c6210080487800404dde008e
:106778000b0020000a407800cdfe070031c621003a
:10678800804878000a407800d1fe070041c6210001
:1067980080487800c84dde004848dd004845de00e6
:1067a8000a0570000a407800c1fe070051c62100a2
:1067b800804878000a407800c5fe070061c62100bd
:1067c8008048780008407800b9fe070071c62100ab
:1067d8008048780008407800bdfe070081c6210087
:1067e800804878000100e8000048eb002670ef00c0
:1067f8000210ec002081880001042000810f500065
:1068080001003a002430ef00400a2000000e780012
:106818002c4090000028a3000400320040c0b300c0
:106828002046980030c0b300220037002181800044
:1068380022808000810f5100030032000004a10073
:1068480020469800020037000004a0002046980067
:106858002c4190000040eb000208a30015003a000c
:10686800000021009081400062022100124178005e
:106878000282fb00f5c52100048242009449780099
:106888000241e8000242780063022100844978004e
:1068980011009800ef0e070026d0bf00e94f500006
:1068a800d3ff360080c0b30020469800000eeb00ee
:1068b80030c0b3004f0678004f05be004f04be003d
:1068c80000000600889fbe008a1f78000004be00f2
:1068d800284090000074a000204498001800780018
:1068e8000000e00004003200f10b2000810f50008e
:1068f80048003a002200370001c3b30080c52100d8
:106908000148780081c7b3000000e800014878001a
:10691800484dde000a40780065fe0700a1c5210049
:10692800804878000a40780069fe0700b1c5210058
:1069380080487800094078005dfe0700c1c5210045
:10694800804878000940780061fe0700d1c5210021
:10695800804878000100e8000048eb002270ef0052
:106968000210ec000081880001042000810f500013
:1069780001003a002030ef00f00b2000000c7800f6
:10698800284090000028a3000400320040c0b30053
:106998002044980030c0b3002200370001818000f5
:1069a80022808000810f5100030032000004a10002
:1069b80020449800020037000004a00020449800fa
:1069c800284190000040eb000208a30015003a009f
:1069d800000021009081400022022100124178002d
:1069e8000282fb0085c52100048242009449780098
:1069f8000241e8000242780023022100844978001d
:106a080011009800930e070022d0bf00e54f5000f8
:106a1800d3ff360080c0b30020449800000ceb0080
:106a280030c0b3004f0578004f04be0000000600d8
:106a3800881f780000047800284090000074a000a7
:106a480020449800180078000000e000040032009c
:106a5800410d2000810f500033003a000e0037002e
:106a680082417800c001210003487800d180880065
:106a78001d70ef002a0037000210ec00f08088003b
:106a880001042000810f500001003a001e30ef0081
:106a9800400d2000000c7800284090000028a3003a
:106aa8000400320040c0b3002044980030c0b30056
:106ab80021003700f180800024808000810f52007f
:106ac800030032000004a1002044980002003700af
:106ad8000004a00020449800284190000040eb00ea
:106ae8000208a30014003a000200210012824000ac
:106af800d3012100934178000380fb001a10b400f1
:106b0800104a78008341e80003427800d001210050
:106b180004487800110198004e0e07001c70ed0023
:106b28001c50e200d4ff3a0080c0b3002044980013
:106b3800000ceb0030c0b3004f04780000000600e2
:106b4800a04190000374a0002340980090017800b1
:106b58000300e00004003200840e2000848f5100fe
:106b680034003a00070037005301210082497800b9
:106b7800b18088001870ef002a003700830e2000cb
:106b880003087800a04190000328a3000400320005
:106b980041c0b3002140980033c0b300290037003a
:106ba800840021009402900024029000848f5200f7
:106bb800030032000304a1002340980002003700bc
:106bc8000304a00023409800204290008041eb007d
:106bd8000408a3001b003a000c30ec00030420005a
:106be80065808000838f520001003a000c30ef006e
:106bf80083012100934178008400210094027800e9
:106c080024029000848242000382fb000482400038
:106c1800154a78008341e800834278008401210006
:106c2800054a7800830121009341780082cf510002
:106c3800d2ff390081c0b300214098000008eb0062
:106c480033c0b300034078000000060020419000e4
:106c58000274a00022409800100178000200e000b1
:106c680004003200930f2000830f51003a003a00cd
:106c7800030037001470ef00920f2000020878001c
:106c8800204190000228a3000400320041c0b30054
:106c98002140980032c0b300330037008300210040
:106ca80013029000a3019000830f520003003200ea
:106cb8000204a10022409800020037000204a0004c
:106cc80022409800a04190000041eb000308a30077
:106cd80025003a000c30ec0002042000638080009c
:106ce800828f510001003a000c30ef00430121006f
:106cf800934178008200210012027800220190005e
:106d080002014200124178000382fb000482400025
:106d1800024a7800ea4f51000a003200ed4f510054
:106d2800080032000204e000060032008341e80057
:106d380044012100034a7800e2c3b30082cf510026
:106d4800cdff360042012100124178000281fb008c
:106d5800828040008048eb0081c0b3002140980049
:106d68000008eb0032c0b3000240780000000600c3
:106d7800881f780000047800284090000074a00064
:106d880020449800180078000000e0000400320059
:106d9800d1102000810f500029003a000a00370066
:106da80081808800230037000210ec009080880062
:106db80001042000810f500001003a001230ef005a
:106dc800d0102000000c7800284090000028a30074
:106dd8000400320040c0b3002044980030c0b30023
:106de8001b0037009180800022808000810f5100b5
:106df800030032000004a10020449800020037007c
:106e08000004a00020449800284190000040eb00b6
:106e18000208a3000e003a000200210092814000ff
:106e280080808000b0497800808088001101980037
:106e3800880d0700808080001004e000daff3a0027
:106e480080c0b30020449800000ceb0030c0b300b1
:106e58004f04780000000600804178000210ec0022
:106e680001042000810f500001003a000000eb00ef
:106e78000410e300feff3200010021001101400070
:106e88000349780090009800720d07000000060082
:106e9800889fbe008a1f7800904078000104e000b7
:106ea8001100320000047800090420000005eb00fe
:106eb8000210ec00890f500001003a000a00780027
:106ec8000410e300feff320002002100920140009e
:106ed80081497800100198005e0d0700d8407800bd
:106ee8000104e000f2ff3a004f0578004f04be00ad
:106ef8000000060080002100900090002000900013
:106f0800808f5000fbff32000c30ec0000042000a2
:106f18000c10e30001003a000c30ef008000210063
:106f28009000780020009000008040001040780019
:106f380000000600881f78000004780028409000b0
:106f48000074a00020449800180078008000eb002e
:106f580072052000820f5000e08f580056023e0054
:106f6800000601005700370053023700520237006d
:106f780051023700500237004f0237004e023700e7
:106f88004d0237004c0237004b0237004a023700e7
:106f980049023700480237004702370046023700e7
:106fa80045023700440237004302370042023700e7
:106fb80041023700400237003f0237003e023700e7
:106fc8003d0237003c0237003b0237003a023700e7
:106fd80039023700380237003702370036023700e7
:106fe80035023700340237003302370032023700e7
:106ff80031023700300237002f0237002e023700e7
:107008002d0237002c0237002b0237002a023700e6
:1070180029023700280237002702370026023700e6
:1070280025023700240237002302370022023700e6
:1070380029003700410037001f0237001e023700c1
:107048001d0237001c0237001b0237001a023700e6
:10705800190237005d003700790037001602370043
:1070680093003700ab003700c5003700df0037005a
:1070780011023700100237000f0237000e023700e6
:10708800f8003700100137000b0237002b013700da
:1070980009023700470137006101370079013700dd
:1070a80093013700ad01370003023700cc013700e8
:1070b8000102370000023700ff013700fe013700e8
:1070c800ea013700008380000000e00036003a0043
:1070d80030032000000c7800284090000028a3000e
:1070e8000400320040c0b3002044980030c0b30010
:1070f800f5013700a18180000128a30003003a00b0
:107108000004a10020449800020037000004a000f9
:1071180020449800284190000040eb000208a3009a
:10712800e9013a000120a000a181880040c32100a4
:107138000008eb0040032000000c78002840900075
:107148000028a3000400320040c0b3002044980087
:1071580030c0b300dc01370041c7210040c3210023
:1071680003ff0700e24f500004003600284090005b
:107178000004a10020449800030037002840900034
:107188000004a00020449800a84090000040eb00b4
:107198000108a300cc013a003450a90010002000d7
:1071a80000838800ac013700e10f5000aa013200cb
:1071b800e20f5000a7003a00c602070010838800bb
:1071c8000008eb00c0032000000c78002840900065
:1071d8000028a3000400320040c0b30020449800f7
:1071e80030c0b300b8013700520020002100200051
:1071f8001083800093f80700e24f50000400360027
:10720800284090000004a1002044980003003700a3
:10721800284090000004a00020449800a840900056
:107228000040eb000108a300a7013a00a9020700eb
:10723800108388000008eb00d0032000000c7800c1
:10724800284090000028a3000400320040c0b3008a
:107258002044980030c0b3009b0137008001eb0048
:107268000041eb004106210010838000f1f807007f
:10727800e24f500004003600284090000004a100ae
:107288002044980003003700284090000004a00024
:1072980020449800a84090000040eb000108a3009b
:1072a80089013a00eefb0700f0032000000c78008b
:1072b800284090000028a3000400320040c0b3001a
:1072c8002044980030c0b3007f013700a1818000be
:1072d8000128a30003003a000004a10020449800fc
:1072e800020037000004a0002044980028419000c4
:1072f8000040eb000208a30073013a000120a0003f
:10730800a181880040c321000008eb000004200090
:10731800000c7800284090000028a30004003200e8
:1073280040c0b3002044980030c0b3006601370065
:1073380001ce210040c321008dfe0700e24f50001e
:1073480004003600284090000004a1002044980062
:1073580003003700284090000004a0002044980053
:10736800a84090000040eb000108a30056013a0035
:1073780040c321000008eb0010042000000c780036
:10738800284090000028a3000400320040c0b30049
:107398002044980030c0b3004b013700218380009f
:1073a80040c3210047fd0700e24f500004003600ab
:1073b800284090000004a1002044980003003700f2
:1073c800284090000004a00020449800a8409000a5
:1073d8000040eb000108a3003b013a0040c3210034
:1073e8000008eb0020042000000c780028409000e2
:1073f8000028a3000400320040c0b30020449800d5
:1074080030c0b30030013700a1c0b30040c3210031
:10741800b6fb0700e24f50000400360028409000f9
:107428000004a10020449800030037002840900081
:107438000004a00020449800a84090000040eb0001
:107448000108a30020013a003450a9006030ef0081
:1074580001013700e30f5000ff003a0070042000dc
:10746800000c7800284090000028a3000400320097
:1074780040c0b3002044980030c0b3001201370068
:10748800a18180000128a30003003a000004a100a4
:1074980020449800020037000004a000204498000f
:1074a800284190000040eb000208a30006013a00c2
:1074b8000120a000a181880040c321000008eb0042
:1074c80080042000000c7800284090000028a300c9
:1074d8000400320040c0b3002044980030c0b3001c
:1074e800f900370081cf210040c3210020fe0700aa
:1074f800e24f500004003600284090000004a1002c
:107508002044980003003700284090000004a000a1
:1075180020449800a84090000040eb000108a30018
:10752800e9003a003450a900ea01070010838800f6
:107538000008eb00a0042000000c78002840900010
:107548000028a3000400320040c0b3002044980083
:1075580030c0b300dc0037005200200021002000ba
:1075680010838000b7f70700e24f50000400360090
:10757800284090000004a100204498000300370030
:10758800284090000004a00020449800a8409000e3
:107598000040eb000108a300aa003200ca0037002f
:1075a800cc010700108388000008eb00c00420000d
:1075b800000c7800284090000028a3000400320046
:1075c80040c0b3002044980030c0b300be0037006c
:1075d8008001eb000041eb00410621001083800090
:1075e80014f80700e24f50000400360028409000cd
:1075f8000004a100204498000300370028409000b0
:107608000004a00020449800a84090000040eb002f
:107618000108a300ac003a00d0042000000c780058
:10762800284090000028a3000400320040c0b300a6
:107638002044980030c0b300a3003700a181800027
:107648000128a30003003a000004a1002044980088
:10765800020037000004a000204498002841900050
:107668000040eb000208a30097003a000120a000a8
:10767800a181880040c321000008eb00e00420003d
:10768800000c7800284090000028a3000400320075
:1076980040c0b3002044980030c0b3008a003700cf
:1076a80001ce210040c32100b1fd0700e24f500088
:1076b80004003600284090000004a10020449800ef
:1076c80003003700284090000004a00020449800e0
:1076d800a84090000040eb000108a3007a003a009f
:1076e80040c321000008eb00f0042000000c7800e3
:1076f800284090000028a3000400320040c0b300d6
:107708002044980030c0b3006f0037002183800008
:1077180040c321006bfc0700e24f50000400360014
:10772800284090000004a10020449800030037007e
:10773800284090000004a00020449800a840900031
:107748000040eb000108a3005f003a0040c321009d
:107758000008eb0000052000000c7800284090008d
:107768000028a3000400320040c0b3002044980061
:1077780030c0b30054003700a1c0b30040c321009b
:10778800dafa0700e24f5000040036002840900063
:107798000004a1002044980003003700284090000e
:1077a8000004a00020449800a84090000040eb008e
:1077b8000108a30044003a003450a900f80b070060
:1077c8003004980041049800803e20000100200009
:1077d800500498006104980020052000000c7800ef
:1077e800284090000028a3000400320040c0b300e5
:1077f8002044980030c0b30033003700580190008f
:10780800e801900038009000c8009000f2010700dd
:107818000000e00004003200284090000004a100ad
:107828002044980003003700284090000004a0007e
:1078380020449800a84090000040eb000108a300f5
:1078480021003a0000838000e30f500054ff32000b
:1078580083fa07006030ef00284090000074a10010
:107868002044980070052000000c78002840900003
:107878000028a3000400320040c0b3002044980050
:1078880030c0b300100037000004e00003003d00e2
:107898000004a10020449800020037000004a00062
:1078a80020449800a84090000040eb000108a30085
:1078b80004fe32000400370080c0b3002044980062
:1078c800000ceb0030c0b3004f0478000000060045
:1078d800881f780000047800284090000074a000f9
:1078e80020449800180078000000e00004003200ee
:1078f80081022000810f500035003a002100370036
:10790800c0f407006810e3000b003200bdf4070064
:10791800408388000000e0000700320000838000f8
:10792800e30f500002003a006030ef000200370019
:107938002000200000838800c2f407006610e300de
:107948000b003200bff40700308388000000e0001d
:107958000700320000838000e30f500002003a0065
:107968006030ef00020037003000200000838800fc
:10797800284090000074a100204498008002200054
