:020000040000fa
:080000000013040000000000e1
:020000040000fa
:1000080002100000061000000a1000000e10000088
:1000180012100000161000001a1000001e10000038
:1000280022100000261000002a1000002e100000e8
:1000380032100000361000003a1000003e10000098
:1000480042100000461000004a1000004e10000048
:1000580052100000561000005a1000005e100000f8
:1000680062100000661000006a1000006e100000a8
:1000780072100000761000007a1000007e10000058
:1000880082100000861000008a1000008e10000008
:1000980092100000961000009a1000009e100000b8
:1000a800a2100000a6100000aa100000ae10000068
:1000b800b2100000b6100000ba100000be10000018
:1000c800c2100000c6100000ca100000ce100000c8
:1000d800d2100000d6100000da100000de10000078
:1000e800e2100000e6100000ea100000ee10000028
:1000f800f2100000f6100000fa100000fe100000d8
:1001080002110000061100000a1100000e11000083
:1001180012110000161100001a1100001e11000033
:1001280022110000261100002a1100002e110000e3
:1001380032110000361100003a1100003e11000093
:1001480042110000461100004a1100004e11000043
:1001580052110000561100005a1100005e110000f3
:1001680062110000661100006a1100006e110000a3
:1001780072110000761100007a1100007e11000053
:1001880082110000861100008a1100008e11000003
:1001980092110000961100009a1100009e110000b3
:1001a800a2110000a6110000aa110000ae11000063
:1001b800b2110000b6110000ba110000be11000013
:1001c800c2110000c6110000ca110000ce110000c3
:1001d800d2110000d6110000da110000de11000073
:1001e800e2110000e6110000ea110000ee11000023
:1001f800f2110000f6110000fa110000fe110000d3
:1002080002120000061200000a1200000e1200007e
:1002180012120000161200001a1200001e1200002e
:1002280022120000261200002a1200002e120000de
:1002380032120000361200003a1200003e1200008e
:1002480042120000461200004a1200004e1200003e
:1002580052120000561200005a1200005e120000ee
:020000040000fa
:10200000020000001e140400000000001e14040062
:10201000000000001e140400000000001e14040054
:10202000000000001e140400000000001e14040044
:10203000000000001e140400000000001e14040034
:10204000000000001e140400000000001e14040024
:10205000000000001e1404000000000032160400fe
:10206000000000001e140400000000001e14040004
:10207000000000001e140400000000001e140400f4
:10208000000000001e140400000000001e140400e4
:10209000000000001e1404000000000010160400e0
:1020a00000000000e4150400000000001e140400fd
:1020b000000000001e140400000000001e140400b4
:1020c000000000001e140400000000001e140400a4
:1020d000000000001e140400000000001e14040094
:1020e000000000001e140400000000001e14040084
:1020f000000000001e140400000000001e14040074
:10210000000000001e140400000000001e14040063
:10211000000000001e140400000000001e14040053
:10212000000000001e140400000000001e14040043
:10213000000000001e140400000000001e14040033
:10214000000000001e140400000000001e14040023
:10215000000000001e140400000000001e14040013
:10216000000000001e140400000000001e14040003
:10217000000000001e140400000000001e140400f3
:10218000000000001e140400000000001e140400e3
:10219000000000001e140400000000001e140400d3
:1021a000000000001e140400000000001e140400c3
:1021b000000000001e140400000000001e140400b3
:1021c000000000001e140400000000001e140400a3
:1021d000000000001e140400000000001e14040093
:1021e000000000001e140400000000001e14040083
:1021f000000000001e140400000000001e14040073
:10220000000000001e140400000000001e14040062
:10221000000000001e140400000000001e14040052
:10222000000000001e140400000000001e14040042
:10223000000000001e140400000000001e14040032
:10224000000000001e140400000000001e14040022
:10225000000000001e140400000000001e14040012
:10226000000000001e140400000000001e14040002
:10227000000000001e140400000000001e140400f2
:10228000000000001e140400000000001e140400e2
:10229000000000001e140400000000001e140400d2
:1022a000000000001e140400000000001e140400c2
:1022b000000000001e140400000000001e140400b2
:1022c000000000001e140400000000001e140400a2
:1022d000000000001e140400000000001e14040092
:1022e000000000001e140400000000001e14040082
:1022f000000000001e140400000000001e14040072
:10230000000000001e140400000000001e14040061
:10231000000000001e140400000000001e14040051
:10232000000000001e140400000000001e14040041
:10233000000000001e140400000000001e14040031
:10234000000000001e140400000000001e14040021
:10235000000000001e140400000000001e14040011
:10236000000000001e140400000000001e14040001
:10237000000000001e140400000000001e140400f1
:10238000000000001e140400000000001e140400e1
:10239000000000001e140400000000001e140400d1
:1023a000000000001e140400000000001e140400c1
:1023b000000000001e140400000000001e140400b1
:1023c000000000001e140400000000001e140400a1
:1023d000000000001e140400000000001e14040091
:1023e000000000001e140400000000001e14040081
:1023f000000000001e140400000000001e14040071
:10240000000000001e140400000000001e14040060
:10241000000000001e140400000000001e14040050
:10242000000000001e140400000000001e14040040
:10243000000000001e140400000000004c14040002
:10244000000000001e140400000000001e14040020
:10245000000000001e140400000000001e14040010
:10246000000000001e140400000000001e14040000
:10247000000000001e14040000000000d41404003a
:10248000000000001e140400000000001e140400e0
:10249000000000001e140400000000005c15040091
:1024a000000000001e140400000000001e140400c0
:1024b000000000001e140400000000001e140400b0
:0424c0000000000018
:020000040000fa
:102600002f0922000eff27000e01880000000000a5
:10261000000020000000e000020032000001200065
:102620002002880014000700a10107000000e0005c
:1026300003003a00e0f4250001002000020037000a
:102640000000200001002000810f70000100320016
:102650000f000700000020000000e0000200320030
:1026600000000200000000002059020000000000ed
:102670000040da000000fe00a07520000000e0002d
:1026800002003200002020009001880000000600b7
:10269000a1028800800478000000eb001f003700d2
:1026a000e284440054a0b4009905ba00e2844400d6
:1026b00054a0b4009906ba00e284440054a0b400c7
:1026c0000006eb00476fde00fd07b200ae01880098
:1026d000636ce10003003a000ad801000000eb003f
:1026e0000e003700606ce10008003a00004deb007e
:1026f0000a05e800020039003420ec000af0a000ce
:102700008b05e900f9ff3e00040037006168e10035
:10271000010032000086eb000b00070019c7ba0069
:102720000e04e0001905ba0003003a000a00e000b8
:10273000dbff3a0000000600fe07b200ae02880090
:102740008a047800f5ff37000cd0a300e20f4d009b
:102750001c00390089027800354dba000a05e800ee
:10276000020039003420ec000af0a0008b05e900db
:102770000f003200254dba000a05e80002003900ba
:102780003420ec000af0a0008b05e90008003200bc
:102790000c00e0000600320015cdba000a05e80082
:1027a000020039003420ec000af0a0008b05e9009b
:1027b0008984e80054a0b4000b00e000e2ff3a0076
:1027c000000006009902ba00055d78008b05e9005b
:1027d000f7ff3200c82ade00055d78008b05e900ae
:1027e000f3ff32000c00e000f1ff320019ddba0007
:1027f000eeff3700ba3d040000000000c6310400bf
:10280000000000004222040000000000de4104003d
:1028100000000000763e0400000000002641040095
:10282000000000006e40040000000000b63f0400fd
:10283000000000000a470400000000003600f80015
:10284000809fbe00829fbe00849fbe00869fbe0008
:102850003200f8003400f80010002000a0018800c9
:102860000020200000d0fe00c808f8009610f900f3
:1028700080ae2900b82607003400f9003200f900c4
:102880004f03be004f02be004f01be004f00be000e
:102890003600f900004006003600f800809fbe00b8
:1028a000829fbe00849fbe00869fbe00322eab007a
:1028b00036003a00a0fb21000008eb0092e1ab00db
:1028c00013003a00f00c8000b20c80008000eb0096
:1028d000c000dd00000020008001eb00020070005d
:1028e00083807000929e2e0003002000f1000700fc
:1028f000e2fd80008001eb00820f5000838f5800c2
:102900002200310010002000d0fd88001f00370099
:102910009ae1a800d00c80000008b200910c800061
:102920000170a10081007000910c880080ff2f00d1
:102930009821b600c10c8000e7806000830c800005
:102940000301600002817000820c8800c20c8000cc
:10295000820060000100a000c10c8800c10c800052
:10296000e78060009001b60000807000800c880055
:102970009ae1a900d00c80000008b200910c800000
:102980000170a10081007000910c88000fe8a9007f
:102990004f03be004f02be004f01be004f00be00fd
:1029a0003600f900004006003600f800809fbe00a7
:1029b000829fbe00849fbe00869fbe00324eab0049
:1029c00036003a0000fc21000008eb00a2e1ab0059
:1029d00013003a00700d8000320d80008000eb0083
:1029e000c000dd00000020008001eb00020070004c
:1029f00083807000929e2e0003002000ad0007002f
:102a000012fe80008001eb00820f5000838f58007f
:102a1000220031001000200000fe88001f00370057
:102a2000aae1a800500d80000008b200110d80003e
:102a30000170a10081007000110d880080ff2f003f
:102a4000a821b600410d8000e7806000030d8000e2
:102a50000301600002817000020d8800420d8000b9
:102a6000820060000100a000410d8800410d80003f
:102a7000e7806000a001b60000807000000d8800b3
:102a8000aae1a900500d80000008b200110d8000dd
:102a90000170a10081007000110d880010e8a900ec
:102aa0004f03be004f02be004f01be004f00be00ec
:102ab0003600f900004006003600f800809fbe0096
:102ac000829fbe00849fbe00869fbe00326eab0018
:102ad00036003a0060fc21000008eb00b2e1ab00d8
:102ae00013003a00f00d8000b20d80008000eb0072
:102af000c000dd00000020008001eb00020070003b
:102b000083807000929e2e00030020006900070061
:102b100042fe80008001eb00820f5000838f58003e
:102b2000220031001000200030fe88001f00370016
:102b3000bae1a800d00d80000008b200910d80001d
:102b40000170a10081007000910d880080ff2f00ae
:102b5000b821b600c10d8000e7806000830d8000c1
:102b60000301600002817000820d8800c20d8000a8
:102b7000820060000100a000c10d8800c10d80002e
:102b8000e7806000b001b60000807000800d880012
:102b9000bae1a900d00d80000008b200910d8000bc
:102ba0000170a10081007000910d88001168a900da
:102bb0004f03be004f02be004f01be004f00be00db
:102bc0003600f90000400600809fbe000000210092
:102bd0009000900020009000808f500002003a008a
:102be0002188a9000c0037000430ec00000420000c
:102bf0000410e30001003a000430ef000188a9004e
:102c0000000021009000780020009000008040002b
:102c10001080fb00201188004f00be00004006001d
:102c2000809fbe00821f78000168a90031118000da
:102c30000a30ec00000420000a10e30001003a0012
:102c40000a30ef0080002100100178001000900091
:102c500000004100014878004f0178004f00be009d
:102c6000004006003600f800809fbe00829fbe0034
:102c7000849fbe00869fbe00208480003184800037
:102c800061004000e0804800208488003184880092
:102c90000068a900a52007004f03be004f02be0038
:102ca0004f01be004f00be003600f9000040060094
:102cb000000005006022b800060220000000d000dd
:102cc0008180d2000482d2008582d2000000a00060
:102cd0000202520083825a000300310002024200c5
:102ce00083824a000000a1000603e900f3ff3a00d6
:102cf00000000600efff07000400be000000060011
:102d00000001fa00889fbe008a9fbe008c1f7800d9
:102d10000004be0002057800f0032000808f5100ff
:102d20000a003e000000eb000500370098407800e4
:102d30001a5c7800195d7800815c78000000e8007a
:102d4000830f5000f9ff3a001e0037000306780099
:102d50008c05780000102000800f5600010036001e
:102d6000800578000b0178008800780060ef2f0064
:102d70000f004000fd0107000b0178008a00780079
:102d800008007800f90107000b017800890078003d
:102d90000a007800f50107000b01780061ef2f00b1
:102da0008f80400009007800f00107000b065600f4
:102db0000b0444008b8444000b0545000c00e0002c
:102dc000e3ff3a004f0678004f05be004f04be00f7
:102dd0000080fa00000006000001fa00889fbe0093
:102de0008a9fbe000005be00f0032000800f510046
:102df00009003e000000eb00040037009a40780014
:102e00001b5d7800815d78000000e800820f5000b3
:102e1000faff3a00180037008204780009047800ad
:102e200000102000808f540001003600000478005c
:102e3000080178008a00780080ef2f000f00400022
:102e4000ca010700080178000a00be00c701070098
:102e50000801780081ef2f008f8040000b00780080
:102e6000c201070088845400080545008885450094
:102e70000900e000e9ff3a004f05be004f04be0024
:102e80000080fa0000000600889fbe008a9fbe00f6
:102e90008c1f780080047800010478000205be00d1
:102ea000040678000800be000c0001000000e000ed
:102eb00004003d000b0178008800780009007800cc
:102ec000c5ff0700880078000a0078000c000100a8
:102ed0000000e00004003d000b0178008a0078004b
:102ee00008007800bcff07000800be000c000100cd
:102ef0000000e00004003d000b017800880078002d
:102f000009007800b4ff07004f0678004f05be00a7
:102f10004f04be0000000600889fbe008a9fbe00ce
:102f20008c9fbe008e1f780080027800810478009c
:102f300082057800030478000406780005855500b2
:102f4000820220008299b9008a0f510022003100cc
:102f5000110009000385d800000578004355de0004
:102f60000a05e80083d5b9000a8742000a01450036
:102f7000028142008e00780005007800c2ff070041
:102f80008a06ea000a8144000d8044000c027800a1
:102f90008801780089007800bbff07008d86450016
:102fa000e0ff2f0080d5b9000a8045000c027800b0
:102fb000880178000b0178008d007800b2ff0700cf
:102fc0000c027800880178000d01780089007800f3
:102fd0000e007800030037000b01780089007800ac
:102fe00005007800a8ff07004f0778004f06be00d5
:102ff0004f05be004f04be0000000600e4874700f6
:10300000889fbe008a9fbe008c9fbe008e1f7800e6
:103010000004be000205be0084bf9f000906e80050
:103020000c06460089d8b900000744008cd8b900c6
:103030008006440009007800150037008a0f56000a
:10304000060032008b8056000d0078000fb9970003
:10305000020001000000e00002003d000c06e90053
:103060008b8656000b0178008d0078000e007800ea
:1030700059ff07008c00e800818040008b89b9006f
:103080000c0078000d0778008206440001067800e5
:103090008a0f5600e9ff3600100037000006e900ed
:1030a0000c06d1008be5b9000a0544008a007800bf
:1030b0000e0078000fb99700020001000000e00048
:1030c000080034000b0178008e0078000a007800b8
:1030d00041ff07000c0078000a077800808f540039
:1030e000eeff39004f0778004f06be004f05be00c7
:1030f0004f04be004f00b100000006000001fa00be
:10310000889fbe008a9fbe008c9fbe00000578008d
:1031100001067800820578008a0656008b864600f4
:103120008b04780015003700090478000010200097
:10313000808f54000100360000047800888055001c
:10314000810046000801780040ef2f000f0040008a
:103150000601070008815600080045008a00780033
:10316000090107000801780041ef2f008f8040001f
:103170000a007800fd000700888454000900e00080
:10318000e9ff3a004f06be004f05be004f04be00e7
:103190000080fa0000000600ea874700889fbe0012
:1031a0008a9fbe008c9fbe008e1f780000057800ad
:1031b00081067800e2b79f00030478008405780058
:1031c0009b0037000d06d10088e6b9000c064500cb
:1031d00088e8b90000004500d0b79f008804460089
:1031e0000800ea00f0b79f00dfb0970000814000c0
:1031f0000b027800880178008c0078000a007800c3
:1032000045ff0700010037000d0678008c0f5500c0
:10321000090031007fb19700820646008c007800db
:103220000d0078000b0001000000e000f6ff320006
:1032300001003700888444005fb09700808f5400fd
:10324000030039000c077800890678001100370068
:103250008c007800090078000b0001000000e000fd
:10326000f4ff3200f7ff37000c00be000b00010036
:103270000000e000060035001c003a00080178005c
:103280008d00780009007800d3fe07008884440090
:1032900088864600dfb09700818f5600130031000a
:1032a000f1ff37007fb19700820147008c00780062
:1032b0000300780083bf9f000b0001008fb99700c7
:1032c0000000e000080035000a003a007fb09700d7
:1032d0000006460008017800830078000c007800a2
:1032e000bdfe07008fb99700030778008e0f5500c9
:1032f000ecff39008a0f570014003a00dfb0970046
:10330000818f56002b0032008d8f540005003a004b
:10331000080178008c00780009007800aefe0700f4
:103320000500370088017800090178008c007800da
:103330000d00780072fe07008886460008064600e9
:10334000888444000a077800d2ff37007fb19700d5
:10335000020747005fb09700808f560010003a00c8
:1033600082844400020646008c0f570006003a0093
:1033700008017800890078000e00780096fe0700aa
:103380000e067800c3ff3700880178000c01780032
:10339000890078000e00780059fe0700bdff370055
:1033a000080178008e0078000d0078008afe070082
:1033b000b7ff3700efb097000100d100010178009e
:1033c000c210de0080804000e1b79f000a06560070
:1033d000110009000886d80000067800898656008a
:1033e000110009008886d800800678008d0f5600ed
:1033f00008003e000b027800880178006fb197004a
:103400008c0078000a00780063ff07000905780047
:10341000070037000b027800880178006fb1970031
:103420008d007800090078005bff07008c067800ab
:10343000efb097000100e00004003200000220001d
:10344000808f56005fff3e001e0037000002200004
:10345000808f56001b0036008d04d1008904e900de
:103460000b027800880178000d017800890078004f
:103470000a007800e1fe07000900e000f7ff3a00cb
:1034800088e8b90080044500888454000801780069
:10349000890078000a0078004ffe07008d06e900d9
:1034a0000b027800880178000d0178008000eb00a5
:1034b0000a007800d1fe0700e18f5600f2ff3e00bf
:1034c0001f003700e18f56001d0036008a04780087
:1034d00019003700888444008a00780009007800c9
:1034e0000b0001000000e00004003d00080178002e
:1034f000890078000a0078000e003700090678007d
:10350000010037000e067800080756008e0078008c
:10351000090078000b0001000000e000f9ff350011
:10352000890f5600040032000801780089007800f5
:103530000c007800f1fe07008d06e900e5ff3a0077
:103540004f0778004f06be004f05be004f04be0077
:10355000af00b1000000060003027800820178008d
:1035600001017800820078000bff370080017800ad
:1035700002003700b15978000201e9000200e000c2
:10358000fcff3a000000060000027800808f500027
:103590000c00310082814000830f5000090031008f
:1035a0008200400002003700c36078000201e90099
:1035b0000200e000fcff3a0000000600315a7800eb
:1035c0000201e9000200e000fcff3a0000000600f2
:020000040000fa
:1035d000556e0000686100006e6400006c650000bc
:1035e00064200000696e00007465000072720000c3
:1035f00075700000742c000020000000647300004f
:1036000050490000433300003345000050350000ae
:103610003132000047500000383000003600000012
:10362000756e00006b6e00006f7700006e0000008a
:10363000423100000044000065760000696300002c
:103640006520000049440000203d000020000000eb
:1036500020280000002900002c20000072650000d6
:1036600076690000736900006f6e000020000000a2
:10367000290a0000000a00000a2a00002a2a000085
:103680002a2a00002a2a00002a2a00002a2a0000ea
:103690002a2a00002a2a00002a2a00002a2a0000da
:1036a0002a2a00002a2a00002a2a00002a2a0000ca
:1036b0002a2a00002a2a00002a2a00002a2a0000ba
:1036c0002a2a00002a2a00002a2a00002a2a0000aa
:1036d0002a2a00002a2a00002a2a00002a2a00009a
:1036e0002a2a00002a0a00002a2000005741000070
:1036f000524e0000494e0000472000002d200000df
:10370000746800006973000020700000726f000090
:1037100067720000616d0000207700006173000097
:10372000206300006f6d0000706900006c65000090
:1037300064200000666f00007220000074680000c2
:1037400065200000777200006f6e000067200000a7
:10375000202a00000a2a0000206300006869000097
:10376000702e0000205400006869000073200000e3
:10377000707200006f670000726100006d20000031
:103780006d61000079200000707200006f6400001d
:103790007563000065200000756e0000657800000c
:1037a0007065000063740000656400002062000022
:1037b00065680000766900006f720000212000003b
:1037c0002a0a00002a2000004564000069740000f5
:1037d000207400006865000020680000656100003a
:1037e0006465000072200000666900006c650000de
:1037f00073200000746f000020700000726f0000e2
:1038000070650000726c00007920000064650000a3
:10381000666900006e6500002074000068690000a1
:10382000732000006368000069700000202a000017
:103830000a2a0000206100006e640000207400006d
:103840006f200000696e0000737500007265000053
:10385000206300006f720000726500006374000056
:10386000206f000070650000726100007469000044
:103870006f6e00002e20000020200000202000009d
:103880002020000020200000202000002020000038
:103890002020000020200000202000002a0a000034
:1038a0002a2000002020000020200000202000000e
:1038b0002020000020200000202000002020000008
:1038c00020200000202000002020000020200000f8
:1038d00020200000202000002020000020200000e8
:1038e00020200000202000002020000020200000d8
:1038f00020200000202000002020000020200000c8
:103900002020000020200000202a00000a2a0000b9
:10391000204e00004f540000453a000020490000ae
:1039200066200000746800006973000020770000c2
:1039300061730000206300006f6d0000706900007b
:103940006c65000064200000666f000072200000bb
:103950007468000065200000636f00007272000050
:103960006563000074200000636800006970000057
:103970002c200000202000002a0a00002a2000003d
:10398000616e0000642000006f6e00006c79000022
:10399000206f000063630000757200007320000058
:1039a00061740000207000006f77000065720000f5
:1039b0002d6f00006e200000286e00006f74000064
:1039c0002064000075720000696e0000672000002e
:1039d000612000004d4300004c52000020200000f8
:1039e00020200000202a00000a2a00002072000087
:1039f0006573000065740000292c0000207600002b
:103a0000657200006966000079200000746800009b
:103a10006174000020410000564400004420000072
:103a2000616e000064200000415600005353000006
:103a30002061000072650000206300006f6e0000ce
:103a40006e65000063740000656400002e200000b5
:103a5000202000002a0a00002a2000004f6e0000eb
:103a600020740000686500002050000049430000f9
:103a7000323400004833000032470000503200006a
:103a8000303200002c2000006e6f00007420000017
:103a9000636f00006e6e00006563000074690000d3
:103aa0006e670000204100005644000044200000e2
:103ab0002020000020200000202000002020000006
:103ac000202a00000a2a000020700000726f000007
:103ad00064750000636500007320000074680000d6
:103ae00069730000206d00006573000073610000c1
:103af00067650000206f00006e6c000079200000f8
:103b000061740000207000006f7700006572000093
:103b10002d750000702e00002020000020200000e5
:103b20002020000020200000202000002020000095
:103b30002a0a00002a2a00002a2a00002a2a000055
:103b40002a2a00002a2a00002a2a00002a2a000025
:103b50002a2a00002a2a00002a2a00002a2a000015
:103b60002a2a00002a2a00002a2a00002a2a000005
:103b70002a2a00002a2a00002a2a00002a2a0000f5
:103b80002a2a00002a2a00002a2a00002a2a0000e5
:103b90002a2a00002a2a00002a2a00002a2a0000d5
:103ba0000a0000004661000073740000205200000b
:103bb000432000004f730000630a0000004600002d
:103bc000617300007420000052430000204f000089
:103bd0007363000020770000697400006820000013
:103be000504c00004c0a00000050000072690000b8
:103bf0006d61000072790000204f000073630000c7
:103c000020280000585400002c20000048530000d9
:103c10002c20000045430000290a0000005000004d
:103c2000726900006d61000072790000204f000091
:103c30007363000020280000585400002c2000006e
:103c4000485300002c2000004543000029200000bc
:103c50007769000074680000205000004c4c0000a0
:103c60000a00000053650000636f00006e640000ee
:103c700061720000792000004f730000630a0000a9
:103c8000004c00006f770000205000006f770000ac
:103c90006572000020520000432000004f730000b6
:103ca000630a0000004600006173000074200000f9
:103cb00052430000204f0000736300002f310000ca
:103cc000360a000000460000617300007420000006
:103cd00052430000204f0000736300002f4e00008d
:103ce0000a000000556e00006b6e00006f77000048
:103cf0006e2000006f730000636900006c6c0000b0
:103d0000617400006f720000207400007970000080
:103d1000652e0000000a000044650000766900007e
:103d200063650000206800006173000020620000ed
:103d3000656500006e200000696e000020730000c1
:103d40006c65000065700000206d00006f6400006d
:103d5000650a0000000a0000446500007669000062
:103d600063650000206800006173000020620000ad
:103d7000656500006e200000696e0000206900008b
:103d8000646c0000652000006d6f00006465000039
:103d90000a0000000a52000065730000657400000c
:103da0002063000061750000736500003a20000088
:103db000005000006f770000657200002d6f00005a
:103dc0006e2e00000a000000536f000066740000b1
:103dd00077610000726500002052000065730000ea
:103de000657400002e0a0000005700006174000096
:103df00063680000646f00006720000054690000e1
:103e00006d6500006f750000743a0000200000002e
:103e10000a0000004d4300004c52000020610000e9
:103e20007373000065720000746900006f6e00001b
:103e30002e0a000000420000726f0000776e000042
:103e40002d6f0000757400002e0a00000054000061
:103e50007261000070200000436f00006e66000079
:103e60006c690000637400002e0a00000049000025
:103e70006c6c000065670000616c0000204300006e
:103e80006f6e000064690000746900006f6e0000ce
:103e90002e0a0000004300006f6e000066690000fb
:103ea0006775000072610000746900006f6e0000a9
:103eb000204d0000697300006d6100007463000014
:103ec000682e00000a000000556e00006b6e0000b6
:103ed0006f7700006e2000007265000073650000bf
:103ee000742e00000a00000045720000726f00008e
:103ef00072200000747200006170000070650000a4
:103f0000643a00002000000050720000696f000059
:103f100072690000747900003a200000002c000053
:103f20002056000065630000746f000072200000de
:103f30006e7500006d620000657200003a2000009e
:103f4000000a00000a000000554100005254000021
:103f50003120000070610000726900007479000077
:103f600020650000727200006f7200000a000000fd
:103f700055410000525400003120000066720000dc
:103f8000616d0000696e000067200000657200002e
:103f9000726f0000720a00000055000041520000dc
:103fa00054310000206f000076650000727200003e
:103fb000756e000020650000727200006f720000d4
:103fc0000a00000055410000525400003220000059
:103fd00070610000726900007479000020650000c3
:103fe000727200006f7200000a000000554100006c
:103ff000525400003220000066720000616d000023
:10400000696e00006720000065720000726f00009a
:10401000720a0000005500004152000054320000b6
:10402000206f00007665000072720000756e00005f
:1040300020650000727200006f7200000a0000002c
:104040005541000052540000332000007061000010
:10405000726900007479000020650000727200002f
:104060006f7200000a000000554100005254000029
:104070003320000066720000616d0000696e000070
:104080006720000065720000726f0000720a000075
:10409000005500004152000054330000206f000022
:1040a0007665000072720000756e000020650000e9
:1040b000727200006f7200000a000000554100009b
:1040c000525400003420000070610000726900004a
:1040d0007479000020650000727200006f720000a9
:1040e0000a00000055410000525400003420000036
:1040f00066720000616d0000696e000067200000bc
:1041000065720000726f0000720a00000055000026
:104110004152000054340000206f0000766500001a
:1041200072720000756e000020650000727200005f
:104130006f7200000a0000003078000000450000a7
:10414000727200006f720000206900006e20000093
:1041500062750000696c0000645c00006c6900001e
:10416000625c000073720000635c00007069000014
:1041700063320000345f0000736500007269000064
:10418000616c00002e630000206c0000696e00006e
:104190006520000032390000363a00002049000056
:1041a0006e760000616c000069640000205500001c
:1041b000415200005400000045720000726f000080
:1041c00072200000696e0000206200007569000026
:1041d0006c6400005c6c0000696200005c730000ad
:1041e000726300005c7000006963000032340000fc
:1041f0005f73000065720000696100006c2e0000b2
:10420000632000006c6900006e6500002033000030
:10421000333500003a200000496e0000766100004e
:104220006c690000642000005541000052540000f9
:1042300000050000030200000100000050c3000060
:1042400030750000204e0000102700008813000089
:10425000b80b0000d0070000e8030000f4010000e4
:104260002c010000c80000006400000032000000c3
:104270001e000000140000000a00000005000000fd
:104280000300000002000000010000000503000020
:10429000020100000503000002010000321e0000c0
:1042a000140a000005030000020100004d6f000029
:1042b0006465000020530000656c00006563000029
:1042c000746900006f6e00003a2000000a000000d0
:1042d000312e0000206f00006e6500002d7300007d
:1042e000686f0000740a0000003200002e200000f9
:1042f000617600006572000061670000650a0000d9
:10430000003300002e2000006d6900006e6900007f
:104310006d7500006d0a0000003400002e200000c2
:104320006d610000786900006d7500006d0a000085
:10433000003500002e2000006d650000646900005b
:10434000616e00000a0000002a2a00002a2a0000ec
:104350002a2a00002a2a00002a2a00002a2a00000d
:104360002a2a00002a2a00002a2a00002a2a0000fd
:104370002a2a00000a000000312e000020740000ec
:10438000776f00000a000000322e00002066000057
:104390006f750000720a0000003300002e2000003c
:1043a0006569000067680000740a000000340000be
:1043b0002e2000007369000078740000656500001d
:1043c0006e0a0000003500002e2000007468000016
:1043d00069720000747900002d740000776f00008e
:1043e0000a000000362e00002073000069780000eb
:1043f000747900002d6600006f750000720a0000dd
:10440000000000000a620000756900006c64000092
:104410005c650000736f0000735c00007372000045
:10442000635c0000657300006f7300005f6600004e
:1044300031340000756900002e6300002c2000005c
:1044400062750000696c0000742000006f6e00004f
:104450002046000065620000203200003520000088
:104460003230000032310000206100007420000072
:10447000303100003a310000363a0000323300009b
:044480000a0000002e
:020000040000fa
:10448400881f780000047800284090000074a00081
:1044940020449800180078008000eb00a21420004b
:1044a400820f5000e08f5800ae073e000006010066
:1044b4004a013700ab073700aa073700a9073700be
:1044c400a8073700a7073700a6073700a507370056
:1044d400a4073700a3073700a2073700a107370056
:1044e400a00737009f0737009e0737009d07370056
:1044f4009c0737009b0737009a0737009907370056
:104504009807370097073700960737009507370055
:104514009407370093073700920737009107370055
:10452400900737008f0737008e0737008d07370055
:104534008c0737008b0737008a0737008907370055
:104544008807370087073700860737008507370055
:104554008407370083073700820737008107370055
:10456400800737007f0737007e0737007d07370055
:104574007c0737007b0737007a0737007907370055
:1045840078073700770737007607370018013700b8
:10459400300137004a013700640137007e013700db
:1045a40098013700b20137006e0737006d073700f6
:1045b4006c0737006b073700c7013700df0137008e
:1045c4006807370067073700660737006507370055
:1045d4006407370063073700620737006107370055
:1045e400600737005f0737005e0737005d07370055
:1045f4005c0737005b0737005a0737005907370055
:104604005807370057073700560737005507370054
:104614005407370053073700520737005107370054
:10462400500737004f0737004e0737004d07370054
:104634004c0737004b0737004a0737004907370054
:104644004807370047073700460737004507370054
:104654004407370043073700420737004107370054
:1046640040073700fa0137003e07370011023700d0
:104674002b023700460237003a0737005f02370043
:104684003807370037073700360737007502370019
:104694008d02370033073700320737003107370000
:1046a400300737002f0737002e0737002d07370054
:1046b4002c0737002b0737002a0737002907370054
:1046c4002807370027073700260737002507370054
:1046d4002407370023073700220737002107370054
:1046e400200737001f0737001e0737001d07370054
:1046f4001c0737001b0737001a0737001907370054
:10470400ac02370017073700c3023700dd02370059
:10471400f802370013073700110337001107370079
:10472400100737000f073700270337003f03370010
:104734000c0737000b0737000a0737000907370053
:104744000807370007073700060737000507370053
:104754000407370003073700020737000107370053
:1047640000073700ff063700fe063700fd06370056
:10477400fc063700fb063700fa063700f906370057
:10478400f8063700f7063700f6063700f506370057
:10479400f406370060033700f2063700770337006a
:1047a40091033700ac033700ee063700c50337002a
:1047b400ec063700eb063700ea063700db03370068
:1047c400f3033700e7063700e6063700e50637004f
:1047d400e4063700e3063700e2063700e106370057
:1047e400e0063700df063700de063700dd06370057
:1047f400dc063700db063700da063700d906370057
:10480400d8063700d7063700d6063700d506370056
:10481400d4063700d3063700d2063700d106370056
:10482400d0063700cf06370014043700cd06370012
:104834002b0437004504370060043700c9063700ed
:1048440079043700c7063700c6063700c5063700a7
:104854008f043700a7043700c2063700c1063700ab
:10486400c0063700bf063700be063700bd06370056
:10487400bc063700bb063700ba063700b906370056
:10488400b8063700b7063700b6063700b506370056
:10489400b4063700b3063700b2063700b106370056
:1048a400b0063700af063700ae063700ad06370056
:1048b400ac063700ab063700aa063700c804370039
:1048c400a8063700df043700f90437001405370061
:1048d400a40637002d053700a2063700a1063700cd
:1048e400a0063700430537005b0537009d063700f7
:1048f4009c0637009b0637009a0637009906370056
:104904009806370097063700960637009506370055
:104914009406370093063700920637009106370055
:10492400900637008f0637008e0637008d06370055
:104934008c0637008b0637008a0637008906370055
:104944008806370087063700860637008506370055
:104954007c0537008306370093053700ad05370023
:10496400c80537007f063700e10537007d063700ac
:104974007c0637007b063700f70537000f06370043
:104984007806370077063700760637007506370055
:104994007406370073063700720637007106370055
:1049a400700637006f0637006e0637006d06370055
:1049b4006c0637006b0637006a0637006906370055
:1049c4006806370067063700660637006506370055
:1049d40064063700310637004906370050848000ea
:1049e4000000e00016013a0070032000000c78007b
:1049f400284090000028a3000400320040c0b30007
:104a04002044980030c0b3005a0637002182800049
:104a14000128a30003003a000004a10020449800e8
:104a2400020037000004a0002044980028419000b0
:104a34000040eb000208a3004e063a000120a0004b
:104a44002182880080ef21000008eb008003200011
:104a5400000c7800284090000028a30004003200d5
:104a640040c0b3002044980030c0b3004106370072
:104a7400a1bc210080ef210033170700e24f500052
:104a840004003600284090000004a100204498004f
:104a940003003700284090000004a0002044980040
:104aa400a84090000040eb000108a30031063a0042
:104ab40080ef21000008eb0090032000000c780038
:104ac400284090000028a3000400320040c0b30036
:104ad4002044980030c0b3002606370031be2100c0
:104ae40080ef210018170700e24f50000400360041
:104af400284090000004a1002044980003003700df
:104b0400284090000004a00020449800a840900091
:104b14000040eb000108a30016063a0080ef2100d4
:104b24000008eb00a0032000000c7800284090004f
:104b34000028a3000400320040c0b30020449800c1
:104b440030c0b3000b063700c1bf210080ef210045
:104b5400fd160700e24f5000040036002840900084
:104b64000004a1002044980003003700284090006e
:104b74000004a00020449800a84090000040eb00ee
:104b84000108a300fb053a0080ef21000008eb00b8
:104b9400b0032000000c7800284090000028a300f7
:104ba4000400320040c0b3002044980030c0b30079
:104bb400f005370051c1210080ef2100e216070003
:104bc400e24f500004003600284090000004a10089
:104bd4002044980003003700284090000004a000ff
:104be40020449800a84090000040eb000108a30076
:104bf400e0053a0080ef21000008eb00c00320002c
:104c0400000c7800284090000028a3000400320023
:104c140040c0b3002044980030c0b300d50537002d
:104c240021c3210080ef2100c7160700e24f500086
:104c340004003600284090000004a100204498009d
:104c440003003700284090000004a000204498008e
:104c5400a84090000040eb000108a300c5053a00fd
:104c640080ef21000008eb00d0032000000c780046
:104c7400284090000028a3000400320040c0b30084
:104c84002044980030c0b300ba05370011c5210094
:104c940080ef2100ac160700e24f500004003600fc
:104ca400284090000004a10020449800030037002d
:104cb400284090000004a00020449800a8409000e0
:104cc4000040eb000108a300aa053a004450a900e3
:104cd40020042000000c7800284090000028a30045
:104ce4000400320040c0b3002044980030c0b30038
:104cf400a0053700218280000138a30003003a0098
:104d04000004a10020449800020037000004a00021
:104d140020449800284190000040eb000208a300c2
:104d240094053a000130a00021828800a0f02100ff
:104d34000008eb0030042000000c780028409000ac
:104d44000028a3000400320040c0b30020449800af
:104d540030c0b3008705370012c0b300c10821007a
:104d6400a0f02100ec150700e24f500004003600cb
:104d7400284090000004a10020449800030037005c
:104d8400284090000004a00020449800a84090000f
:104d94000040eb000108a30076053a004470a90026
:104da4008cd0bf0031c3b300814f500016003200d5
:104db40007003e0081c0e900814f50000c00320022
:104dc4008140e800814f50001b003a000b0037007f
:104dd40051c3b300814f5000110032000d0039005f
:104de4008140e800814f500013003a000f00370063
:104df4002000200050848800260537003000200061
:104e04005084880023053700400020005084880027
:104e14002005370050002000508488001d0537000d
:104e240060002000508488001a05370070002000bc
:104e340050848800170537008a30ef0015053700c5
:104e4400e20f5000d7003a00d0062000000c780092
:104e5400284090000028a3000400320040c0b300a2
:104e64002044980030c0b3004205370021828000fe
:104e74000128a30003003a000004a1002044980084
:104e8400020037000004a00020449800284190004c
:104e94000040eb000208a30036053a000120a00000
:104ea4002182880080ef21000008eb00f00620003a
:104eb400000c7800284090000028a3000400320071
:104ec40040c0b3002044980030c0b3002905370027
:104ed400e1c6210080ef21001b160700e24f5000bd
:104ee40004003600284090000004a10020449800eb
:104ef40003003700284090000004a00020449800dc
:104f0400a84090000040eb000108a30019053a00f6
:104f140080ef21000008eb0000072000000c78005f
:104f2400284090000028a3000400320040c0b300d1
:104f34002044980030c0b3000e053700d2838000af
:104f44008001eb0080ef21005f140700e24f500066
:104f540004003600284090000004a100204498007a
:104f640003003700284090000004a000204498006b
:104f7400a84090000040eb000108a300fd043a00a3
:104f840080ef21000008eb0010072000000c7800df
:104f9400284090000028a3000400320040c0b30061
:104fa4002044980030c0b300f2043700a1c0b3001d
:104fb40080ef210043130700e24f50000400360045
:104fc400284090000004a10020449800030037000a
:104fd400284090000004a00020449800a8409000bd
:104fe4000040eb000108a300e2043a0080ef210036
:104ff4000008eb0030072000000c780028409000e7
:105004000028a3000400320040c0b30020449800ec
:1050140030c0b300d704370051c8210080ef21000d
:10502400c9150700e24f50000400360028409000e4
:105034000004a10020449800030037002840900099
:105044000004a00020449800a84090000040eb0019
:105054000108a300c7043a004450a90070072000c7
:10506400000c7800284090000028a30004003200bf
:1050740040c0b3002044980030c0b300bd043700e2
:10508400218280000138a30003003a000004a1003b
:1050940020449800020037000004a0002044980037
:1050a400284190000040eb000208a300b1043a003c
:1050b4000130a00021828800a0f021000008eb004c
:1050c40080072000000c7800284090000028a300ee
:1050d4000400320040c0b3002044980030c0b30044
:1050e400a404370012c0b300c1082100a0f02100bd
:1050f40009150700e24f50000400360028409000d4
:105104000004a100204498000300370028409000c8
:105114000004a00020449800a84090000040eb0048
:105124000108a30093043a004470a9008cd0bf0086
:1051340021c3b300814f50000e0032008140e800cb
:10514400814f50001300320081c0e900814f5000ac
:1051540012003a00d0838000d2cc2c000201b800a7
:10516400c318de0000804000d0838800270d0700ac
:1051740048043700d0838000f2a22b000201b8005b
:10518400c318de0001005000d08388001f0d070003
:10519400400437008a30ef003e0437008a30ef00c5
:1051a4003c043700e30f5000d7003a0040092000c8
:1051b400000c7800284090000028a300040032006e
:1051c40040c0b3002044980030c0b30069043700e5
:1051d400218280000128a30003003a000004a100fa
:1051e40020449800020037000004a00020449800e6
:1051f400284190000040eb000208a3005d043a003f
:105204000120a0002182880080ef21000008eb002b
:1052140060092000000c7800284090000028a300ba
:105224000400320040c0b3002044980030c0b300f2
:105234005004370091cd210080ef21004215070072
:10524400e24f500004003600284090000004a10002
:105254002044980003003700284090000004a00078
:1052640020449800a84090000040eb000108a300ef
:1052740040043a0080ef21000008eb007009200090
:10528400000c7800284090000028a300040032009d
:1052940040c0b3002044980030c0b3003504370048
:1052a400c28380008001eb0080ef21008613070099
:1052b400e24f500004003600284090000004a10092
:1052c4002044980003003700284090000004a00008
:1052d40020449800a84090000040eb000108a3007f
:1052e40024043a0080ef21000008eb00800920002c
:1052f400000c7800284090000028a300040032002d
:1053040040c0b3002044980030c0b30019043700f3
:10531400a1c0b30080ef21006a120700e24f5000e1
:1053240004003600284090000004a10020449800a6
:1053340003003700284090000004a0002044980097
:10534400a84090000040eb000108a30009043a00c3
:1053540080ef21000008eb00a0092000000c780079
:10536400284090000028a3000400320040c0b3008d
:105374002044980030c0b300fe03370051c8210018
:1053840080ef2100f0140700e24f500004003600c3
:10539400284090000004a100204498000300370036
:1053a400284090000004a00020449800a8409000e9
:1053b4000040eb000108a300ee033a004450a900aa
:1053c400e0092000000c7800284090000028a30089
:1053d4000400320040c0b3002044980030c0b30041
:1053e400e4033700218280000138a30003003a005f
:1053f4000004a10020449800020037000004a0002b
:1054040020449800284190000040eb000208a300cb
:10541400d8033a000130a00021828800a0f02100c6
:105424000008eb00f0092000000c780028409000f0
:105434000028a3000400320040c0b30020449800b8
:1054440030c0b300cb03370012c0b300c108210041
:10545400a0f0210030140700e24f50000400360091
:10546400284090000004a100204498000300370065
:10547400284090000004a00020449800a840900018
:105484000040eb000108a300ba033a004470a900ed
:105494008cd0bf0021c3b300814f50000e003200f6
:1054a4008140e800814f50001300320081c0e900c0
:1054b400814f500012003a00c0838000d2cc2c00ef
:1054c4000201b800c318de0000804000c0838800d9
:1054d4005e0c07006f033700c0838000f2a22b002c
:1054e4000201b800c318de0001005000c083880028
:1054f400560c0700670337008a30ef006503370056
:105504008a30ef0063033700e40f5000d7003a00fd
:10551400900b2000000c7800284090000028a30085
:105524000400320040c0b3002044980030c0b300ef
:1055340090033700218280000128a30003003a0071
:105544000004a10020449800020037000004a000d9
:1055540020449800284190000040eb000208a3007a
:1055640084033a000120a0002182880080ef2100fa
:105574000008eb00b00b2000000c780028409000dd
:105584000028a3000400320040c0b3002044980067
:1055940030c0b3007703370001cf210080ef210032
:1055a40069140700e24f50000400360028409000c0
:1055b4000004a10020449800030037002840900014
:1055c4000004a00020449800a84090000040eb0094
:1055d4000108a30067033a0080ef21000008eb00f4
:1055e400c00b2000000c7800284090000028a30085
:1055f4000400320040c0b3002044980030c0b3001f
:105604005c033700b28380008001eb0080ef21004f
:10561400ad120700e24f500004003600284090000d
:105624000004a100204498000300370028409000a3
:105634000004a00020449800a84090000040eb0023
:105644000108a3004b033a0080ef21000008eb009f
:10565400d00b2000000c7800284090000028a30004
:105664000400320040c0b3002044980030c0b300ae
:1056740040033700a1c0b30080ef2100911107005f
:10568400e24f500004003600284090000004a100be
:105694002044980003003700284090000004a00034
:1056a40020449800a84090000040eb000108a300ab
:1056b40030033a0080ef21000008eb00f00b2000db
:1056c400000c7800284090000028a3000400320059
:1056d40040c0b3002044980030c0b3002503370015
:1056e40051c8210080ef210017140700e24f500039
:1056f40004003600284090000004a10020449800d3
:1057040003003700284090000004a00020449800c3
:10571400a84090000040eb000108a30015033a00e4
:105724004450a900300c2000000c78002840900060
:105734000028a3000400320040c0b30020449800b5
:1057440030c0b3000b033700218280000138a3006e
:1057540003003a000004a10020449800020037002e
:105764000004a00020449800284190000040eb0071
:105774000208a300ff023a000130a0002182880041
:10578400a0f021000008eb00400c2000000c780081
:10579400284090000028a3000400320040c0b30059
:1057a4002044980030c0b300f202370012c0b300a6
:1057b400c1082100a0f0210057130700e24f500058
:1057c40004003600284090000004a1002044980002
:1057d40003003700284090000004a00020449800f3
:1057e400a84090000040eb000108a300e1023a0049
:1057f4004470a9008cd0bf0021c3b300814f500076
:105804000e0032008140e800814f50001300320046
:1058140081c0e900814f500012003a00b08380003b
:10582400d2cc2c000201b800c318de000080400076
:10583400b0838800950b070096023700b083800080
:10584400f2a22b000201b800c318de0001005000d0
:10585400b08388008d0b07008e0237008a30ef007a
:105864008c0237008a30ef008a023700e50f5000bf
:10587400d7003a00e00d2000000c7800284090008a
:105884000028a3000400320040c0b3002044980064
:1058940030c0b300b7023700218280000128a30082
:1058a40003003a000004a1002044980002003700dd
:1058b4000004a00020449800284190000040eb0020
:1058c4000208a300ab023a000120a0002182880054
:1058d40080ef21000008eb00000e2000000c78008f
:1058e400284090000028a3000400320040c0b30008
:1058f4002044980030c0b3009e02370071d02100cc
:1059040080ef210090130700e24f5000040036009e
:10591400284090000004a1002044980003003700b0
:10592400284090000004a00020449800a840900063
:105934000040eb000108a3008e023a0080ef210032
:105944000008eb00100e2000000c780028409000a6
:105954000028a3000400320040c0b3002044980093
:1059640030c0b30083023700a28380008001eb00c3
:1059740080ef2100d4110700e24f500004003600ec
:10598400284090000004a100204498000300370040
:10599400284090000004a00020449800a8409000f3
:1059a4000040eb000108a30072023a0080ef2100de
:1059b4000008eb00200e2000000c78002840900026
:1059c4000028a3000400320040c0b3002044980023
:1059d40030c0b30067023700a1c0b30080ef2100dc
:1059e400b8100700e24f5000040036002840900031
:1059f4000004a100204498000300370028409000d0
:105a04000004a00020449800a84090000040eb004f
:105a14000108a30057023a0080ef21000008eb00c0
:105a2400400e2000000c7800284090000028a300bd
:105a34000400320040c0b3002044980030c0b300da
:105a44004c02370051c8210080ef21003e130700ab
:105a5400e24f500004003600284090000004a100ea
:105a64002044980003003700284090000004a00060
:105a740020449800a84090000040eb000108a300d7
:105a84003c023a004450a900800e2000000c78002b
:105a9400284090000028a3000400320040c0b30056
:105aa4002044980030c0b3003202370021828000c5
:105ab4000138a30003003a000004a1002044980028
:105ac400020037000004a000204498002841900000
:105ad4000040eb000208a30026023a000130a000b7
:105ae40021828800a0f021000008eb00900e200025
:105af400000c7800284090000028a3000400320025
:105b040040c0b3002044980030c0b30019023700ed
:105b140012c0b300c1082100a0f021007e120700ca
:105b2400e24f500004003600284090000004a10019
:105b34002044980003003700284090000004a0008f
:105b440020449800a84090000040eb000108a30006
:105b540008023a004470a9008cd0bf0021c3b300ee
:105b6400814f50000e0032008140e800814f500008
:105b74001300320081c0e900814f500012003a0046
:105b8400a0838000d2cc2c000201b800c318de0030
:105b940000804000a08388003e0b0700bd01370051
:105ba400a0838000f2a22b000201b800c318de001b
:105bb40001005000a0838800360b0700b5013700b0
:105bc4008a30ef00b30137008a30ef00b1013700ab
:105bd400e60f5000d7003a0030102000000c780087
:105be400284090000028a3000400320040c0b30005
:105bf4002044980030c0b300de01370021828000c9
:105c04000128a30003003a000004a10020449800e6
:105c1400020037000004a0002044980028419000ae
:105c24000040eb000208a300d2013a000120a000ca
:105c34002182880080ef21000008eb005010200032
:105c4400000c7800284090000028a30004003200d3
:105c540040c0b3002044980030c0b300c5013700f1
:105c640001d2210080ef2100b7120700e24f50005b
:105c740004003600284090000004a100204498004d
:105c840003003700284090000004a000204498003e
:105c9400a84090000040eb000108a300b5013a00c1
:105ca40080ef21000008eb0060102000000c780059
:105cb400284090000028a3000400320040c0b30034
:105cc4002044980030c0b300aa01370092838000ba
:105cd4008001eb0080ef2100fb100700e24f500031
:105ce40004003600284090000004a10020449800dd
:105cf40003003700284090000004a00020449800ce
:105d0400a84090000040eb000108a30099013a006c
:105d140080ef21000008eb0070102000000c7800d8
:105d2400284090000028a3000400320040c0b300c3
:105d34002044980030c0b3008e013700a1c0b300e6
:105d440080ef2100df0f0700e24f5000040036000f
:105d5400284090000004a10020449800030037006c
:105d6400284090000004a00020449800a84090001f
:105d74000040eb000108a3007e013a0080ef2100ff
:105d84000008eb0090102000000c780028409000e0
:105d94000028a3000400320040c0b300204498004f
:105da40030c0b3007301370051c8210080ef2100d7
:105db40065120700e24f50000400360028409000ae
:105dc4000004a100204498000300370028409000fc
:105dd4000004a00020449800a84090000040eb007c
:105de4000108a30063013a004450a900d010200028
:105df400000c7800284090000028a3000400320022
:105e040040c0b3002044980030c0b30059013700ab
:105e1400218280000138a30003003a000004a1009d
:105e240020449800020037000004a0002044980099
:105e3400284190000040eb000208a3004d013a0005
:105e44000130a00021828800a0f021000008eb00ae
:105e5400e0102000000c7800284090000028a300e7
:105e64000400320040c0b3002044980030c0b300a6
:105e74004001370012c0b300c1082100a0f0210086
:105e8400a5110700e24f500004003600284090009e
:105e94000004a1002044980003003700284090002b
:105ea4000004a00020449800a84090000040eb00ab
:105eb4000108a3002f013a004470a9008cd0bf0050
:105ec40021c3b300814f50000e0032008140e8002e
:105ed400814f50001300320081c0e900814f50000f
:105ee40012003a0090838000d2cc2c000201b8004a
:105ef400c318de000080400090838800690a070010
:105f0400e400370090838000f2a22b000201b80065
:105f1400c318de000100500090838800610a070066
:105f2400dc0037008a30ef00da0037008a30ef00f7
:105f3400d8003700e70f5000d6003a008012200046
:105f4400000c7800284090000028a30004003200d0
:105f540040c0b3002044980030c0b30005013700ae
:105f6400218280000128a30003003a000004a1005c
:105f740020449800020037000004a0002044980048
:105f8400284190000040eb000208a300f9003a0009
:105f94000120a0002182880080ef21000008eb008e
:105fa400a0122000000c7800284090000028a300d4
:105fb4000400320040c0b3002044980030c0b30055
:105fc400ec00370081d3210080ef2100de110700af
:105fd400e24f500004003600284090000004a10065
:105fe4002044980003003700284090000004a000db
:105ff40020449800a84090000040eb000108a30052
:10600400dc003a0080ef21000008eb00b012200011
:10601400000c7800284090000028a30004003200ff
:1060240040c0b3002044980030c0b300d100370012
:10603400828380008001eb0080ef210022100700a2
:10604400e24f500004003600284090000004a100f4
:106054002044980003003700284090000004a0006a
:1060640020449800a84090000040eb000108a300e1
:10607400c0003a0080ef21000008eb00c0122000ad
:10608400000c7800284090000028a300040032008f
:1060940040c0b3002044980030c0b300b5003700be
:1060a400a1c0b30080ef2100060f0700e24f5000ab
:1060b40004003600284090000004a1002044980009
:1060c40003003700284090000004a00020449800fa
:1060d400a84090000040eb000108a300a5003a008e
:1060e40080ef21000008eb00e0122000000c780093
:1060f400284090000028a3000400320040c0b300f0
:106104002044980030c0b3009a00370051c82100e1
:1061140080ef21008c110700e24f5000040036008c
:10612400284090000004a100204498000300370098
:10613400284090000004a00020449800a84090004b
:106144000040eb000108a3008a003a004450a90073
:1061540020132000000c7800284090000028a300a1
:106164000400320040c0b3002044980030c0b300a3
:1061740080003700218280000138a30003003a0028
:106184000004a10020449800020037000004a0008d
:1061940020449800284190000040eb000208a3002e
:1061a40074003a000130a00021828800a0f0210090
:1061b4000008eb0030132000000c78002840900009
:1061c4000028a3000400320040c0b300204498001b
:1061d40030c0b3006700370012c0b300c10821000b
:1061e400a0f02100cc100700e24f5000040036005c
:1061f400284090000004a1002044980003003700c8
:10620400284090000004a00020449800a84090007a
:106214000040eb000108a30056003a004470a900b6
:106224008cd0bf0021c3b300814f50000e00320058
:106234008140e800814f50001300320081c0e90022
:10624400814f500012003a0080838000d2cc2c0091
:106254000201b800c318de0000804000808388007b
:10626400940907000b00370080838000f2a22b0002
:106274000201b800c318de000100500080838800ca
:106284008c090700030037008a30ef000100370053
:106294008a30ef0090142000000c78002840900011
:1062a4000028a3000400320040c0b300204498003a
:1062b40030c0b3002f003700218280000128a300e2
:1062c40003003a000004a1002044980002003700b3
:1062d4000004a00020449800284190000040eb00f6
:1062e4000208a30023003a000120a00021828800b4
:1062f40080ef21000008eb00a0142000000c7800bf
:10630400284090000028a3000400320040c0b300dd
:106314002044980030c0b3001600370011d5210086
:1063240080ef210008110700e24f500004003600fe
:10633400284090000004a100204498000300370086
:10634400284090000004a00020449800a840900039
:106354000040eb000108a30006003a004450a900e5
:106364009ef9370080c0b30020449800000ceb0075
:1063740030c0b3004f04780000000600202422003f
:106384006211070000000600889fbe000004780028
:10639400284090000074a000204498001800780061
:1063a4008000eb00620c2000820f5000e08f580048
:1063b400e2053e0000060100c6003700df05370095
:1063c400de053700dd053700dc053700db05370067
:1063d400da053700d9053700d8053700d705370067
:1063e400d6053700d5053700d4053700d305370067
:1063f400d2053700d1053700d0053700cf05370067
:10640400ce053700cd053700cc053700cb05370066
:10641400ca053700c9053700c8053700c705370066
:10642400c6053700c5053700c4053700c305370066
:10643400c2053700c1053700c0053700bf05370066
:10644400be053700bd053700bc053700bb05370066
:10645400ba053700b9053700b8053700b705370066
:10646400b6053700b5053700b4053700b305370066
:10647400b2053700b1053700b0053700af05370066
:10648400ae053700ad053700ac053700ab05370066
:10649400aa053700a9053700a8053700a705370066
:1064a400a6053700a5053700a4053700a305370066
:1064b400a2053700a1053700a00537009f05370066
:1064c4009e0537009d0537009c0537009b05370066
:1064d4009a05370099053700980537009705370066
:1064e4009605370095053700940537007e00370080
:1064f4009600370091053700900537008f05370067
:106504008e0537008d0537008c0537008b05370065
:106514008a05370089053700b1003700cd00370000
:10652400e800370085053700010137001b013700fb
:1065340035013700810537008005370050013700e9
:106544006a013700840137007c0537007b0537007a
:106554007a05370079053700780537007705370065
:106564007605370075053700740537009d0137003f
:10657400b501370071053700d00137006f053700ca
:10658400ec013700070237001f02370039023700d9
:106594005302370069053700720237006705370078
:1065a4006605370065053700640537006305370065
:1065b40062053700610537008c023700a4023700fa
:1065c400be023700d8023700f20237000c0337004e
:1065d40026033700400337005805370057053700b6
:1065e400570337006f03370054053700530537004e
:1065f4005205370051053700500537008b0337002b
:106604004e0537004d053700a1033700bb033700a3
:10661400d5033700ef03370009043700230437009c
:106624003d0437004505370044053700430537006e
:10663400530437006b043700400537003f0537002b
:106644003e0537003d0537003c0537003b05370064
:106654003a05370039053700380537003705370064
:106664003605370035053700340537003305370064
:106674003205370031053700300537002f05370064
:106684002e0537002d0537002c0537002b05370064
:106694002a05370029053700280537002705370064
:1066a4002605370025053700240537002305370064
:1066b4002205370021053700200537001f05370064
:1066c4001e0537001d0537001c0537001b05370064
:1066d40007053700908180000000e00036003a0092
:1066e400d0042000000c7800284090000028a3006b
:1066f4000400320040c0b3002044980030c0b3000e
:1067040012053700218280000128a30003003a000b
:106714000004a10020449800020037000004a000f7
:1067240020449800284190000040eb000208a30098
:1067340006053a000120a0002182880080ef210094
:106744000008eb00e0042000000c780028409000d2
:106754000028a3000400320040c0b3002044980085
:1067640030c0b300f904370021d7210080ef2100a5
:10677400f50f0700e24f5000040036002840900057
:106784000004a10020449800030037002840900032
:106794000004a00020449800a84090000040eb00b2
:1067a4000108a300e9043a004450a90010002000a5
:1067b40090818800c9043700e10f5000c7043200fb
:1067c400e20f500003013a008044eb00011107007e
:1067d400a08188000008eb0080052000000c7800f0
:1067e400284090000028a3000400320040c0b300f9
:1067f4002044980030c0b300d40437005200200075
:1068040021002000a081800084090700e24f50008d
:1068140004003600284090000004a10020449800a1
:1068240003003700284090000004a0002044980092
:10683400a84090000040eb000108a300c3043a0004
:10684400e4100700a08188000008eb0090052000f8
:10685400000c7800284090000028a30004003200b7
:1068640040c0b3002044980030c0b300b7043700e0
:106874008001eb00620321001241780081032100b2
:10688400a0818000e1090700e24f500004003600b7
:10689400284090000004a100204498000300370021
:1068a400284090000004a00020449800a8409000d4
:1068b4000040eb000108a300a4043a00a005200056
:1068c400000c7800284090000028a3000400320047
:1068d40040c0b3002044980030c0b3009b0437008c
:1068e400218280000128a30003003a000004a100d3
:1068f40020449800020037000004a00020449800bf
:10690400284190000040eb000208a3008f043a00e5
:106914000120a000218288000904e00052003a000e
:1069240080ef21000008eb00c0052000000c780077
:10693400284090000028a3000400320040c0b300a7
:106944002044980030c0b30080043700e1df210008
:1069540080ef21007c0f0700e24f50000400360056
:10696400284090000004a100204498000300370050
:10697400284090000004a00020449800a840900003
:106984000040eb000108a30070043a0080ef2100ee
:106994000008eb00d0052000000c7800284090008f
:1069a4000028a3000400320040c0b3002044980033
:1069b40030c0b30065043700c181800080ef21003e
:1069c400360e0700e24f50000400360028409000c5
:1069d4000004a100204498000300370028409000e0
:1069e4000004a00020449800a84090000040eb0060
:1069f4000108a30055043a0080ef21000008eb00d1
:106a0400e0052000000c7800284090000028a30036
:106a14000400320040c0b3002044980030c0b300ea
:106a24004a043700a1c0b30080ef2100a50c070081
:106a3400e24f500004003600284090000004a100fa
:106a44002044980003003700284090000004a00070
:106a540020449800a84090000040eb000108a300e7
:106a64003c04320039043700e1cf540052003a00ac
:106a740080ef21000008eb0010062000000c7800d5
:106a8400284090000028a3000400320040c0b30056
:106a94002044980030c0b3002c043700f1e12100f9
:106aa40080ef2100280f0700e24f50000400360059
:106ab400284090000004a1002044980003003700ff
:106ac400284090000004a00020449800a8409000b2
:106ad4000040eb000108a3001c043a0080ef2100f1
:106ae4000008eb0020062000000c780028409000ed
:106af4000028a3000400320040c0b30020449800e2
:106b040030c0b30011043700c181800080ef210040
:106b1400e20d0700e24f50000400360028409000c8
:106b24000004a1002044980003003700284090008e
:106b34000004a00020449800a84090000040eb000e
:106b44000108a30001043a0080ef21000008eb00d3
:106b540030062000000c7800284090000028a30094
:106b64000400320040c0b3002044980030c0b30099
:106b7400f6033700a1c0b30080ef2100510c0700d9
:106b8400e24f500004003600284090000004a100a9
:106b94002044980003003700284090000004a0001f
:106ba40020449800a84090000040eb000108a30096
:106bb400ec033200e50337004450a9001e0c070023
:106bc4008944e800e1cf540000ff36003230ef0082
:106bd400c2033700e30f500000013a00d006200042
:106be400000c7800284090000028a3000400320024
:106bf40040c0b3002044980030c0b300d303370032
:106c0400218280000128a30003003a000004a100af
:106c140020449800020037000004a000204498009b
:106c2400284190000040eb000208a300c7033a008b
:106c34000120a0002182880080ef21000008eb00e1
:106c4400e0062000000c7800284090000028a300f3
:106c54000400320040c0b3002044980030c0b300a8
:106c6400ba033700e1e4210080ef2100b60e0700eb
:106c7400e24f500004003600284090000004a100b8
:106c84002044980003003700284090000004a0002e
:106c940020449800a84090000040eb000108a300a5
:106ca400aa033a004450a900ca0f0700a081880033
:106cb4000008eb0000072000000c7800284090003a
:106cc4000028a3000400320040c0b3002044980010
:106cd40030c0b3009d033700520020002100200083
:106ce400a08180004d080700e24f500004003600e8
:106cf400284090000004a1002044980003003700bd
:106d0400284090000004a00020449800a84090006f
:106d14000040eb000108a300ab0032008b033700f6
:106d2400ac0f0700a08188000008eb0020072000ba
:106d3400000c7800284090000028a30004003200d2
:106d440040c0b3002044980030c0b3007f03370034
:106d54008001eb00620321001241780081032100cd
:106d6400a0818000a9080700e24f5000040036000b
:106d7400284090000004a10020449800030037003c
:106d8400284090000004a00020449800a8409000ef
:106d94000040eb000108a3006c033a003007200018
:106da400000c7800284090000028a3000400320062
:106db40040c0b3002044980030c0b30063033700e0
:106dc400218280000128a30003003a000004a100ee
:106dd40020449800020037000004a00020449800da
:106de400284190000040eb000208a30057033a003a
:106df4000120a0002182880080ef21000008eb0020
:106e040040072000000c7800284090000028a300d0
:106e14000400320040c0b3002044980030c0b300e6
:106e24004a033700f1e1210080ef2100460e0700fc
:106e3400e24f500004003600284090000004a100f6
:106e44002044980003003700284090000004a0006c
:106e540020449800a84090000040eb000108a300e3
:106e64003a033a0080ef21000008eb0050072000ad
:106e7400000c7800284090000028a3000400320091
:106e840040c0b3002044980030c0b3002f03370043
:106e9400c181800080ef2100000d0700e24f500007
:106ea40004003600284090000004a100204498000b
:106eb40003003700284090000004a00020449800fc
:106ec400a84090000040eb000108a3001f033a0013
:106ed40080ef21000008eb0060072000000c780020
:106ee400284090000028a3000400320040c0b300f2
:106ef4002044980030c0b30014033700a1c0b3008d
:106f040080ef21006f0b0700e24f500004003600b1
:106f1400284090000004a10020449800030037009a
:106f2400284090000004a00020449800a84090004d
:106f34000040eb000108a30004033a004450a900f8
:106f4400e31a07003004980041049800803e2000b2
:106f5400010020005004980061049800800720007c
:106f6400000c7800284090000028a30004003200a0
:106f740040c0b3002044980030c0b300f30237008f
:106f840058019000e801900038009000c80090007b
:106f9400d10f07000000e0000400320028409000f8
:106fa4000004a1002044980003003700284090000a
:106fb4000004a00020449800a84090000040eb008a
:106fc4000108a300e1023a0090818000e30f500021
:106fd40053ff3200180b0700c0023700e40f5000c3
:106fe400be023a0000082000000c780028409000ff
:106ff4000028a3000400320040c0b30020449800dd
:1070040030c0b300d1023700218280000128a300e0
:1070140003003a000004a100204498000200370055
:107024000004a00020449800284190000040eb0098
:107034000208a300c5023a000120a00021828800b2
:1070440080ef21000008eb0010082000000c7800fd
:10705400284090000028a3000400320040c0b30080
:107064002044980030c0b300b802370061152a00ec
:1070740080ef2100b40d0700e24f500004003600f9
:10708400284090000004a100204498000300370029
:10709400284090000004a00020449800a8409000dc
:1070a4000040eb000108a300a8023a0080ef210091
:1070b4000008eb0020082000000c78002840900015
:1070c4000028a3000400320040c0b300204498000c
:1070d40030c0b3009d02370081162a0080ef2100e2
:1070e400990d0700e24f500004003600284090003c
:1070f4000004a100204498000300370028409000b9
:107104000004a00020449800a84090000040eb0038
:107114000108a3008d023a0080ef21000008eb0073
:1071240030082000000c7800284090000028a300bc
:107134000400320040c0b3002044980030c0b300c3
:107144008202370051172a0080ef21007e0d0700cc
:10715400e24f500004003600284090000004a100d3
:107164002044980003003700284090000004a00049
:1071740020449800a84090000040eb000108a300c0
:1071840072023a0080ef21000008eb004008200062
:10719400000c7800284090000028a300040032006e
:1071a40040c0b3002044980030c0b30067023700e9
:1071b40011182a0080ef2100630d0700e24f5000f0
:1071c40004003600284090000004a10020449800e8
:1071d40003003700284090000004a00020449800d9
:1071e400a84090000040eb000108a30057023a00b9
:1071f40080ef21000008eb0050082000000c78000c
:10720400284090000028a3000400320040c0b300ce
:107214002044980030c0b3004c023700d1182a0033
:1072240080ef2100480d0700e24f500004003600b3
:10723400284090000004a100204498000300370077
:10724400284090000004a00020449800a84090002a
:107254000040eb000108a3003c023a0080ef21004b
:107264000008eb0060082000000c78002840900023
:107274000028a3000400320040c0b300204498005a
:1072840030c0b3003102370091192a0080ef210089
:107294002d0d0700e24f50000400360028409000f6
:1072a4000004a10020449800030037002840900007
:1072b4000004a00020449800a84090000040eb0087
:1072c4000108a30021023a0080ef21000008eb002e
:1072d40070082000000c7800284090000028a300cb
:1072e4000400320040c0b3002044980030c0b30012
:1072f40016023700411a2a0080ef2100120d070000
:10730400e24f500004003600284090000004a10021
:107314002044980003003700284090000004a00097
:1073240020449800a84090000040eb000108a3000e
:1073340006023a004450a900a0082000000c78007e
:10734400284090000028a3000400320040c0b3008d
:107354002044980030c0b300fc0137002182800033
:107364000138a30003003a000004a100204498005f
:10737400020037000004a000204498002841900037
:107384000040eb000208a300f0013a000130a00025
:1073940021828800a0f021000008eb00b008200042
:1073a400000c7800284090000028a300040032005c
:1073b40040c0b3002044980030c0b300e30137005c
:1073c40012c0b300b1032100a0f02100520c070049
:1073d400e24f500004003600284090000004a10051
:1073e4002044980003003700284090000004a000c7
:1073f40020449800a84090000040eb000108a3003e
:10740400d2013a004470a90010c3b3003b50e3001a
:1074140004003a003630ef002000200090818800fc
:10742400ae01370010092000000c780028409000bd
:107434000028a3000400320040c0b3002044980098
:1074440030c0b300c1013700218280000128a300ad
:1074540003003a000004a100204498000200370011
:107464000004a00020449800284190000040eb0054
:107474000208a300b5013a000120a000218288007f
:1074840080ef21000008eb0040092000000c780088
:10749400284090000028a3000400320040c0b3003c
:1074a4002044980030c0b300a8013700c11b2a0053
:1074b40080ef2100a40c0700e24f500004003600c6
:1074c400284090000004a1002044980003003700e5
:1074d400284090000004a00020449800a840900098
:1074e4000040eb000108a30098013a0080ef21005e
:1074f4000008eb0050092000000c780028409000a0
:107504000028a3000400320040c0b30020449800c7
:1075140030c0b3008d013700411c2a0080ef2100e8
:10752400890c0700e24f5000040036002840900008
:107534000004a10020449800030037002840900074
:107544000004a00020449800a84090000040eb00f4
:107554000108a3007d013a0080ef21000008eb0040
:1075640060092000000c7800284090000028a30047
:107574000400320040c0b3002044980030c0b3007f
:1075840072013700d11c2a0080ef21006e0c070025
:10759400e24f500004003600284090000004a1008f
:1075a4002044980003003700284090000004a00005
:1075b40020449800a84090000040eb000108a3007c
:1075c40062013a0080ef21000008eb0070092000fe
:1075d400000c7800284090000028a300040032002a
:1075e40040c0b3002044980030c0b30057013700b6
:1075f400711d2a0080ef2100530c0700e24f500058
:1076040004003600284090000004a10020449800a3
:1076140003003700284090000004a0002044980094
:10762400a84090000040eb000108a30047013a0085
:1076340080ef21000008eb0080092000000c780096
:10764400284090000028a3000400320040c0b3008a
:107654002044980030c0b3003c013700311e2a009a
:1076640080ef2100380c0700e24f50000400360080
:10767400284090000004a100204498000300370033
:10768400284090000004a00020449800a8409000e6
:107694000040eb000108a3002c013a0080ef210018
:1076a4000008eb0090092000000c780028409000ae
:1076b4000028a3000400320040c0b3002044980016
:1076c40030c0b30021013700211f2a0080ef2100c0
:1076d4001d0c0700e24f50000400360028409000c3
:1076e4000004a100204498000300370028409000c3
:1076f4000004a00020449800a84090000040eb0043
:107704000108a30011013a0080ef21000008eb00fa
:10771400a0092000000c7800284090000028a30055
:107724000400320040c0b3002044980030c0b300cd
:1077340006013700411a2a0080ef2100020c0700dd
:10774400e24f500004003600284090000004a100dd
:107754002044980003003700284090000004a00053
:1077640020449800a84090000040eb000108a300ca
:10777400f6003a004450a900e0092000000c78000b
:10778400284090000028a3000400320040c0b30049
:107794002044980030c0b300ec0037002182800000
:1077a4000138a30003003a000004a100204498001b
:1077b400020037000004a0002044980028419000f3
:1077c4000040eb000208a300e0003a000130a000f2
:1077d40021828800a0f021000008eb00f0092000bd
:1077e400000c7800284090000028a3000400320018
:1077f40040c0b3002044980030c0b300d300370029
:1078040012c0b300a1032100a0f02100420b070025
:10781400e24f500004003600284090000004a1000c
:107824002044980003003700284090000004a00082
:1078340020449800a84090000040eb000108a300f9
:10784400c2003a004470a9003bd0bf0021c3b3007a
:10785400814f500026003a00a10321009140780096
:1078640012c3b30082cf500003003a00100020007e
:10787400b08188009700370022c3b30082cf500044
:1078840003003a0020002000b081880091003700f6
:1078940032c3b30082cf500003003a00300020000e
:1078a400b08188008b00370042c3b30082cf500000
:1078b40003003a0040002000b081880085003700b2
:1078c40052c3b30082cf500003003a00500020009e
:1078d400b08188007f00370062c3b30082cf5000bc
:1078e40053003a0060002000b0818800790037001e
:1078f40031c3b300814f500025003a003ad0bf0095
:1079040081c0e900814f500003003a0010022000ba
:10791400b08188006f00370021c3b300814f50004d
:1079240003003a0020022000b0818800690037007b
:1079340031c3b300814f500003003a0030022000ed
:10794400b08188006300370041c3b300814f500009
:1079540003003a0040022000b08188005d00370037
:1079640051c3b300814f500003003a00500220007d
:10797400b08188005700370061c3b300814f5000c5
